:020000040800F2
:10000000D81400207D020008431B0008BD1A000818
:10001000411B0008B5030008A524000800000000EB
:100020000000000000000000000000009D0100082A
:10003000B703000800000000F9010008451E000891
:10004000970200089702000897020008970200082C
:10005000970200089702000897020008970200081C
:10006000970200089702000897020008970200080C
:1000700097020008970200089702000897020008FC
:1000800097020008970200089702000897020008EC
:1000900097020008970200089702000897020008DC
:1000A0009702000897020008411F00089702000805
:1000B000970200084D1F00089702000897020008E9
:1000C00097020008970200089702000897020008AC
:1000D000970200089702000897020008970200089C
:1000E000970200089702000897020008970200088C
:1000F000970200089702000897020008970200087C
:10010000970200089702000897020008970200086B
:10011000970200089702000897020008970200085B
:10012000970200089702000897020008970200084B
:10013000970200089702000897020008970200083B
:10014000970200089702000897020008970200082B
:10015000970200089702000897020008970200081B
:10016000970200089702000897020008970200080B
:10017000970200089702000800000000000000003D
:100180009702000897020008DFF80CD000F000F991
:1001900000480047E5240008D81400202C4B1968BB
:1001A000086800F05AB880F30988BFF36F8F4FF0EA
:1001B000000080F3118870470000000008480068C4
:1001C000006880F308884FF0000080F3148862B65E
:1001D00061B6BFF34F8FBFF36F8F00DF00BF00BF6B
:1001E00008ED00E0DFF80C00016841F470010160E7
:1001F000704700BF88ED00E0EFF30980BFF36F8F19
:10020000134B1A681EF0100F08BF20ED108A20E96A
:10021000F04F106009B44FF0500080F31188BFF325
:100220004F8FBFF36F8F02F069FD4FF0000080F336
:10023000118809BC1968086800F014B81EF0100F86
:1002400008BF00F014B880F30988BFF36F8F7047C0
:1002500014000020EFF30580704730C8B0E8C04FAD
:10026000FFF7A1BF30C8B0E8C04FFFF7E7BFB0EC61
:10027000088AB0EC08CAFFF7E6BF000006488047CE
:1002800006480047FEE7FEE7FEE7FEE7FEE7FEE77B
:10029000FEE7FEE7FEE7FEE7FD1E00088901000815
:1002A0002DE9F05F0546002092469B4688460646AB
:1002B000814640241BE0284641464746224600F03E
:1002C00056F853465A46C01A914110D31146184663
:1002D000224600F03DF82D1A67EB01084F462246F2
:1002E0000120002100F034F817EB00094E41201ED8
:1002F000A4F10104DFDC484631462A46434600F0BB
:1003000000B830BCBDE8C09F40EA01039B0703D0A2
:1003100009E008C9121F08C0042AFAD203E011F844
:10032000013B00F8013B521EF9D27047D2B201E006
:1003300000F8012B491EFBD270470022F6E710B5EA
:1003400013460A4604461946FFF7F0FF204610BD43
:10035000202A04DB203A00FA02F100207047914085
:10036000C2F1200320FA03F3194390407047202A7A
:1003700004DB203A21FA02F00021704721FA02F34F
:10038000D040C2F120029140084319467047000056
:10039000064C074D06E0E06840F0010394E80700D2
:1003A00098471034AC42F6D3FFF7F2FE0031000854
:1003B00020310008FEE770472DE9F04704464079F8
:1003C00000270E4601280BD04FF0010984F8059054
:1003D00002202071306802F01005042803D043E0A9
:1003E0000220BDE8F0874FF0030802BB00F0ACF933
:1003F000074604E000F0A8F9C01B01280FD82068C8
:10040000406B0004F6D4012000F0A6F82168B06922
:10041000086416E000F098F9C01B012807D920698C
:1004200040F00800206184F804800320D9E72068A8
:10043000406B0028EEDB012000F08EF82168B069E7
:1004400048642068816C40F2FF32AA409143F2690F
:10045000AA40114381642068C16CFF22AA409143E5
:10046000326AAA401143C1643069012808D1226868
:10047000916B1F20A84081437069A8400843906396
:100480002268D16B0720A8408143B36830681843C5
:10049000F3681843A8400843D063206801684FF40C
:1004A0008042AA40914301602268116840F6FC70C6
:1004B000A84081437068A840084310602068016824
:1004C000C022AA409143016084F80490002060712A
:1004D00087E770B5040003D02079002510B105E04E
:1004E000012070BD6571204600F008F802202071DF
:1004F000256101202071002070BD000010B586B07C
:10050000044614216846FFF718FF11492068884205
:100510001BD11048816D41F000518165816D01F062
:1005200000510591C16C41F00101C164C06C694684
:1005300000F0010005903020009003200190002081
:1005400002904FF0904000F019F806B010BD000086
:10055000007400400010024070B5044600F0F4F84A
:100560000546601C02D004484068044400F0ECF8E2
:10057000401BA042FAD370BD040000202DE9F84FC3
:10058000DFF898B100234FF0010C4FF0030A4FF051
:100590000F090BF1040EB9E00CFA03F4224070D0FD
:1005A0004D68022D01D0122D0ED1DD0800EB85081B
:1005B000D8F820505E07F70E09FA07F6B5430E6922
:1005C000BE402E43C8F8206007685E0091F80480A2
:1005D0000AFA06F508F00308AF4308FA06F848EAF5
:1005E0000708C0F800804F68012F05D0022F03D004
:1005F000112F01D0122F13D1D0F80880CF6828EA2C
:100600000508B74047EA08078760D0F804800F79EB
:1006100028EA0408C7F300179F4047EA0807476025
:10062000D1F804806FEA0807BF0706D1C76AA7435D
:10063000C8F3C0049C403C43C462C468AC438D68AA
:10064000B5402543C5604C68E4005ED5344C256E4A
:1006500045F001052566246E23F0030504F001042E
:100660000094304C2E19B4689D072F0F09FA07F536
:10067000AC43B0F1904F05D02B4DA84204D10125D9
:100680001CE042E0002519E0284DA84201D10225D6
:1006900014E0274DA84201D103250FE0254DA842C3
:1006A00001D104250AE0244DA84201D1052505E029
:1006B000224DA84201D1062500E00725BD40254373
:1006C000B560DBF800405D464E689443F60300D504
:1006D00014432C60DEF8004075464E689443B60320
:1006E00000D514432C600D4D08352C684E6894439A
:1006F000F60200D514432C60084D0C352C684E686A
:100700009443B60200D514432C605B1C0A6832FA8D
:1007100003F57FF441AF00F013B80000000401407E
:10072000001002400000014000040048000800489A
:10073000000C004800100048001400480018004851
:1007400018BCBDE8E08F00000148806870470000D9
:1007500004000020024881684268114481607047AB
:100760000400002010B50024032000F08DF80020C4
:1007700000F008F808B1012401E000F03DF820463F
:1007800010BD000000B5014687B000221A2000F01D
:100790005BF81A2000F04AF81348016E41F48021FA
:1007A0000166006E05A900F480200690684600F0FE
:1007B000CFFB00F0FFFB0D490D4AB0FBF1F10D48F6
:1007C000491E0260416040F2E7320021C0E9032186
:1007D000816000F025FF10B1012007B000BD054881
:1007E00000F058FFF9E700000010024040420F00FF
:1007F00000480140F00300200B4882B0016E41F038
:1008000001010166016E01F001010091816D41F06D
:1008100080518165806D002200F0805000900F2192
:10082000901E02B000F010B800100240002809DB52
:1008300000F01F02012191404009800000F1E020FA
:10084000C0F8001170470000F0B40E4B1B680C4656
:10085000C3F30223C3F10705042D00D90425191D94
:10086000072901D2002300E0DB1E012606FA05F16C
:10087000491E214099409E40761E16403143F0BCEF
:1008800001F011BE0CED00E0064900F00702086817
:100890004FF6FF03184040EA0220034A1043086065
:1008A000704700000CED00E00000FA051649B0F5B5
:1008B000007F0868C0F3412009D0022805D00868ED
:1008C00020F4C06040F48060086000207047012878
:1008D000FBD0086820F4C06040F4007008600B484A
:1008E0003222006850430A4AB0FBF2F0401C00E09C
:1008F000401E4A69520501D50028F9D148694005D2
:10090000E3D5032070470000007000401000002075
:1009100040420F000248006800F4C06070470000C9
:1009200000700040F8B50446FFF70EFF06465CB1C4
:1009300094F83800012809D0012784F8387094F819
:100940003900002520B10BE00120F8BD0220F8BDE0
:1009500084F83850204600F03DF841F28830206499
:1009600020680168A2686FF0FF0321F4706103EB57
:10097000022211430160206C0090334600222021A6
:10098000204601F0DFF8E8B921680A680F4B1A40E9
:10099000237942EA0362E3681A430A60D4E9051244
:1009A0001143226853680A4E3340268A43EA0643BD
:1009B0001943516021680A6842F001020A60E56348
:1009C00084F8397084F83850F8BD0000EFFFFF005C
:1009D000FEF8E0FFF0B587B0044614216846FFF743
:1009E000ACFC2349206888423FD12248016D41F484
:1009F00080710165016D01F480710591C16C41F058
:100A00000101C164C16C01F001010591C16C41F0AB
:100A10000201C164C16C01F002010591C16C41F099
:100A20001001C164C06C022500F010000590C020C8
:100A300000268DE8610003240A27CDE903476946B3
:100A40004FF09040FFF79AFD8DE87000CDE9034725
:100A500069460948FFF792FDA0028DE86100CDE9E3
:100A6000034769460548FFF789FD07B0F0BD000060
:100A7000001000A0001002400004004800100048D0
:100A80002DE9F84F044600270088E54D3E46010554
:100A900004F1200B1DD5606E78B1B0F5800F11D038
:100AA000B0F5000F04D0B0F5400F22D001270FE0C1
:100AB000E86840F48030E8601BE00021201D01F070
:100AC00065F803E00021584601F0F6F8070010D061
:100AD0003E462088C00426D5A06EC0B1B0F1807F0C
:100AE0001AD0B0F1007F0DD0B0F1407F19D00127AE
:100AF00018E0D5F88800616E20F440000843C5F87E
:100B00008800E6E7E86840F48030E86009E000210A
:100B1000201D01F03BF803E00021584601F0CCF81D
:100B20000746F7B13E46206880033AD5A86D4FF0DE
:100B30000008C00009D4A86D40F08050A865A86DD9
:100B40004FF0010800F080500090DFF8D8A2DAF8EA
:100B5000001041F48071CAF80010FFF7F5FD8146DE
:100B600010E0D5F88800A16E20F040700843C5F869
:100B70008800D8E7FFF7E8FDA0EB0900022801D9BB
:100B8000032705E0DAF80000C005F3D5002F7CD07C
:100B90004FEA0706B8F1000F03D0A86D20F080508F
:100BA000A8652078C00707D0D5F88800A16B20F091
:100BB00003000843C5F888002078800707D5D5F8DA
:100BC0008800E16B20F00C000843C5F8880020780D
:100BD000400707D5D5F88800216C20F03000084385
:100BE000C5F888002078000707D5D5F88800616C23
:100BF00020F0C0000843C5F888002078C00607D55B
:100C0000D5F88800A16C20F440700843C5F888002E
:100C10002078800607D5D5F88800E16C20F4406084
:100C20000843C5F888002088800507D5D5F88800D6
:100C3000E16D20F440200843C5F888002088400575
:100C400007D5D5F88800216E20F440100843C5F878
:100C500088002078400607D5D5F88800216D20F45B
:100C600040500843C5F888002078000607D5D5F81D
:100C70008800616D20F440400843C5F88800208852
:100C8000C00509D5D5F8880000E01CE0A16D20F46E
:100C900040300843C5F8880020884FF00067800482
:100CA0004FF080684FD5D5F88800E16E20F04060A5
:100CB0000843C5F88800E06EB8423CD1E86840F4CB
:100CC0008010E8603FE0D5F8900010F4407015D037
:100CD000D4F88410814211D0D5F89000D5F8901046
:100CE00020F4407041F48031C5F89010D5F8901090
:100CF00021F48031C5F89010C5F89000C00710D0DD
:100D0000FFF722FD074641F2883906E0FFF71CFD98
:100D1000C11B494501D903263CE7D5F8900080075F
:100D2000F4D5D5F89000D4F8841020F4407008432E
:100D3000C5F890002EE7404505D10121201D00F0A7
:100D400025FF00B106462068000317D5D5F88800B6
:100D5000216F20F040600843C5F88800206FB8423A
:100D600004D1E86840F48010E86007E0404505D110
:100D70000121201D00F00AFF00B106462068400353
:100D800017D5D5F88800616F20F040600843C5F89A
:100D90008800606FB84204D1E86840F48010E860D1
:100DA00007E0404505D10121201D00F0EFFE00B114
:100DB0000646208840041AD5D5F88800A16F20F097
:100DC00040500843C5F88800A06FB0F1805F03D0A1
:100DD000B0F1005F05D00AE00221201D00F0D6FE30
:100DE00003E00221584600F067FF00B10646208864
:100DF000000407D5D5F88800E16F20F08040084353
:100E0000C5F888002068C00307D555F8880FD4F8C6
:100E1000801020F0004008432860304600F004B8FD
:100E2000001002400070004018BCBDE8E08F0000D8
:100E30002DE9F0470F46050058D0404E306800F0CD
:100E40000700B84209D2306820F00700384330600C
:100E5000306800F00700B84248D12878384CC00705
:100E60002CD06868032811D0022812D0216898B1CC
:100E7000490500293ADAA16821F003010143A16084
:100E8000FFF762FC804641F2883910E02168890151
:100E9000EFE721688903ECE78907EAE7FFF754FCED
:100EA000A0EB0801494502D90320BDE8F087A068FE
:100EB000696800F00C00B0EB810FEFD12878800753
:100EC00005D5A068A96820F0F0000843A06030684C
:100ED00000F00700B8420BD9306820F00700384313
:100EE0003060306800F00700B84201D00120DCE734
:100EF0002878400705D5A068E96820F4E060084339
:100F0000A0602878000706D5A068296920F4605001
:100F100040EAC100A06000F05FF8A168094AC1F38F
:100F20000311515C01F01F01C840074908600748E0
:100F30000068BDE8F047FFF725BC00000020024034
:100F400000100240AC300008100000200400002017
:100F50000F2202600C4A936803F003034360936816
:100F600003F0F0038360936803F4E063C360926866
:100F70004FF4E06303EAD20202610448006800F023
:100F80000700086070470000001002400020024087
:100F90000548064900688968054AC1F30221515C89
:100FA00001F01F01C84070471000002000100240EF
:100FB000EC3000080548064900688968054AC1F315
:100FC000C221515C01F01F01C84070471000002091
:100FD00000100240EC30000870B525490023184687
:100FE0008A68CC6812F00C0204F00306214C4FEA28
:100FF000640509D00C2A05D0042A32D0082A00D171
:10100000284670BD012E10D10B681B0704D4D1F8FF
:101010009430C3F3032302E00B68C3F30313164EAB
:1010200056F82330DAB10C2AEBD1C86800F003007F
:10103000022818D0032818D01846CA68CB68C2F313
:101040000212C3F306234343521CB3FBF2F2C868F7
:10105000C0F34160401C4000B2FBF0F070BD184688
:1010600070BD204670BD2046E7E72846E5E7000052
:10107000001002400024F400BC3000082DE9F843C1
:1010800004006ED0FD4DA86800F00C06E86800F082
:1010900003072078C00663D576B10C2E01D1012F4D
:1010A0000AD0A0690028286878D040F001002860A4
:1010B000FFF74AFB80465BE02868800702D5A069FD
:1010C0000028DED0216A2868000703D5286800F0D0
:1010D000F00004E0D5F89400F02202EA10108142FA
:1010E00016D9084600F06CFE00283AD1286840F076
:1010F000080028602868216A20F0F0000843286072
:101100006868E16920F47F4040EA0120686015E0EA
:10111000286840F0080028602868216A20F0F00064
:10112000084328606868E16920F47F4040EA0120B4
:101130006860206A00F044FE0028D6D1FFF74CFF1B
:10114000A968CF4AC1F30311515C01F01F01C840E7
:10115000CC490860CC480068FFF714FB00287DD11B
:101160002DE0C9E0FFF7F0FAA0EB0800022876D8DE
:1011700028688007F6D5286840F0080028602868AD
:10118000216A20F0F000084328606868E16920F4D3
:101190007F4040EA0120686011E0FFE720F0010095
:1011A0002860FFF7D1FA804606E000BFFFF7CCFACF
:1011B000A0EB08000228DAD828688007F6D4207847
:1011C000C00740D0082E18D00C2E01D1032F14D008
:1011D0006068B0F5803F17D0B0F5A02F286817D011
:1011E00020F480302860286820F48020286060681F
:1011F000E0B1FFF7A9FA804614E02868800322D501
:101200006068002878D01EE0286840F48030EDE760
:1012100040F480202860F7E7FFF796FAA0EB08007B
:101220006428A4D828688003F6D50CE0FFF78CFA70
:10123000804605E0FFF788FAA0EB0800642896D8FE
:1012400028688003F6D4207880073BD5042E11D07F
:101250000C2E01D1022F0DD0E06801E03EE19FE0AD
:10126000002828681ED040F480702860FFF76CFAD0
:1012700007460CE0286840050CD5E0680028C1D07E
:1012800008E000BFFFF760FAC01B022893D8286867
:101290004005F7D56868217C20F0F85040EA0160ED
:1012A00068600FE020F480702860FFF74DFA074671
:1012B00005E000BFFFF748FAC01B022870D8286875
:1012C0004005F7D42078000729D560690028D5F8B3
:1012D000940012D040F00100C5F89400FFF734FAF2
:1012E000074604E0FFF730FAC01B022858D8D5F8AB
:1012F00094008007F6D512E029E120F00100C5F83E
:101300009400FFF721FA074605E000BFFFF71CFA3B
:10131000C01B022844D8D5F894008007F6D4207862
:10132000400768D5A86D0027C00008D4A86D40F01C
:101330008050A865A86D012700F0805000905348A8
:101340000168C90512D40168814641F480710160C9
:10135000FFF7FAF9804605E0FFF7F6F9A0EB080081
:1013600002281DD8D9F80000C005F5D5A0680128CD
:1013700017D00528D5F8900018D020F00100C5F846
:101380009000D5F8900020F0040000BFC5F8900050
:10139000A06841F28839D0B1FFF7D6F9804611E054
:1013A0006BE0D5F8900040F00100EFE740F004005A
:1013B000C5F89000F5E700BFFFF7C6F9A0EB0801FC
:1013C00049455AD8D5F890008007F5D50EE0FFF7CB
:1013D000BBF9804606E000BFFFF7B6F9A0EB0801B5
:1013E00049457AD8D5F890008007F5D41FB1A86D8B
:1013F00020F08050A865A06AF0B30C2E75D00228AA
:10140000286820F08070286004D0286810F0205FE1
:1014100051D054E0FFF798F9064604E0FFF794F93D
:10142000801B022859D828688001F7D4D4E90B0121
:101430006FF00F0202EB01110843A18F520449081B
:1014400002EB4151626B41EA0221084394F84010DB
:101450004FF07E42490802EB41610843A16B090944
:1014600040EA4140E9680A4A11400843E8602868B8
:1014700040F0807028600DE06BE02EE0001002402C
:10148000AC30000810000020040000200070004074
:101490008C809DF9E86840F08070E860FFF754F9AF
:1014A000044604E0FFF750F9001B022815D828680D
:1014B0008001F7D54DE0E86820F00300E860E868B7
:1014C00025490840E860FFF73FF9044609E000BFFE
:1014D000FFF73AF9001B022803D90320BDE8F8837F
:1014E00003E028688001F3D433E00128F6D0E868EF
:1014F000E26A00F00301914229D1216B00F07002F1
:1015000009011039914222D1626B00F4FE41B1EB26
:10151000022F1CD1A26B00F40031072A01D0012256
:1015200000E00022914212D1A18F00F4C0024908CC
:101530004905A1F50011914209D194F8401000F03D
:10154000C06049084906A1F10071814201D0012023
:10155000C4E70020C2E70000FFFFEEFE70B5040004
:1015600003D06079002510B105E0012070BD257120
:10157000204600F00DF8022060712068016841F0FB
:101580000401016001206071A560002070BD0000B1
:1015900008B500680649884208D10648C16C41F484
:1015A0008021C164C06C00F48020009008BD000060
:1015B0000008065000100240704770477047000056
:1015C00070B590F83C20012A24D0012480F83C40DA
:1015D000022280F83D200268536895680E4EB242A0
:1015E00002D00E4EB24203D123F470064B6833434F
:1015F00023F070060B688968334325F08005294382
:1016000053600268916080F83D40002180F83C10F2
:10161000084670BD022070BD002C0140003401401E
:1016200010B5040003D094F83D0010B107E001208C
:1016300010BD002084F83C00204600F00DF8022088
:1016400084F83D00211D206800F086FC012084F80C
:101650003D00002010BD000008B500680B4988421D
:1016600012D10B48816D41F002018165806D00222D
:1016700000F00200009005211D20FFF7E5F8BDE80D
:1016800008401D20FFF7D2B808BD0000000400404C
:10169000001002400168CA6842F00102CA60016895
:1016A0008868064A1040062806D0B0F5803F03D06F
:1016B000086840F001000860002070470700010042
:1016C00070B5044690F83C00012817D0012584F835
:1016D0003C50022084F83D00226890682E4B184050
:1016E00020F47F4090600868502830D00DDC20281E
:1016F0004DD005DC98B310283BD148E0022070BDE6
:10170000302844D0402834D139E0602828D07028CF
:1017100006D0B0F5805F2CD0B0F5005F29D10AE08B
:10172000CB68D1E90121206800F076FC206881684F
:1017300041F0770109E0CB68D1E90121206800F090
:101740006BFC2068816841F48041816011E0CA68C7
:101750004968206800F072FC5021206807E016E01C
:10176000CA684968206800F07AFC6021206800F0AF
:101770005DFC84F83D50002084F83C0070BDCA68D0
:101780004968206800F05AFC40212068EFE7226891
:1017900001461046EBE7000088FFFEFF704770B57A
:1017A0000446006801694FF00005C943890715D454
:1017B000C168C943890711D4E91E0161012020775E
:1017C000206880698007204602D0FFF7E7FF04E029
:1017D00000F0A7F8204600F0A5F8257720680169F9
:1017E000C943490717D4C168C943490713D46FF0E7
:1017F00004010161022020772068806910F4407F95
:10180000204602D0FFF7CAFF04E000F08AF8204625
:1018100000F088F8257720680169C943090716D4C4
:10182000C168C943090712D46FF00801016104209F
:1018300020772068C0698007204602D0FFF7AEFFFE
:1018400004E000F06EF8204600F06CF82577206880
:101850000169C943C90617D4C168C943C90613D46D
:101860006FF010010161082020772068C06910F432
:10187000407F204602D0FFF791FF04E000F051F8CE
:10188000204600F04FF8257720680169C943C90751
:1018900008D1C168C943C90704D1891E0161204626
:1018A00000F042F820680169C943090609D4C168FB
:1018B000C943090605D46FF0800101612046FFF796
:1018C0007CFE20680169C943C90509D4C168C943C0
:1018D000090605D46FF4807101612046FFF76CFEA4
:1018E00020680169C943490609D4C168C94349064A
:1018F00005D46FF040010161204600F01FF8206818
:101900000169C94389060BD4C168C943890607D454
:101910006FF0200101612046BDE87040FFF74EBE28
:1019200070BD70477047000000680349884201D1CC
:10193000FEF710BF7047000000480140704710B527
:10194000040002D0606F10B107E0012010BD00203C
:1019500084F87000204600F025F824206067206895
:10196000016821F001010160204600F01BFC012804
:10197000ECD0606A10B1204600F083FB206841681B
:1019800021F4904141602068816821F02A01816042
:101990002068016841F0010101602046BDE8104067
:1019A00000F0D3BB10B586B0044614216846FEF79C
:1019B000C4FC13492068884220D11248016E41F4CA
:1019C00080410166016E01F480410591C16C41F0D6
:1019D0000101C164C06C694600F0010005904FF43C
:1019E000C06000900220019000200290032003902C
:1019F000072004904FF09040FEF7C0FD06B010BDE8
:101A000000380140001002402DE9F8430446406FC1
:101A10001F4616460D4620284ED1CDB1C6B194F8CA
:101A20007000012848D0012084F870004FF00008B1
:101A3000C4F87C8021206067FEF786FEA4F8506021
:101A40008146A4F85260A068B0F5805F03D004E03E
:101A50000120BDE8F883206910B12E46002510E072
:101A600000260EE08021204600F0ECFCB8B9C6B19B
:101A700016F8010B21680885B4F85200401EA4F83E
:101A80005200B4F852004B464FF000020097002875
:101A9000E8D14FF04001204600F0D4FC30B10320E3
:101AA000D7E735F8020BC0F30800E3E720206067B2
:101AB00084F870800020CCE70220CAE7FEE700002F
:101AC00010B588B000241248009401940294039445
:101AD000049405940D490694C0E9001441F288313C
:101AE000C0E90241802104618161FFF799FD4FF453
:101AF0008050009069460648FFF7E2FD049404A96F
:101B000003480694FFF75CFD08B010BD00040040D8
:101B1000DC0000200948084901604FF4E1314160D0
:101B2000002181600C22C160C0E904128161C161A1
:101B300001624162FFF703BF003801401C01002031
:101B4000FEE770472DE9F041984616460F460446D9
:101B5000069D08E0681C06D0FEF7F6FDA0EB080025
:101B6000A8420AD84DB120688068384000D00120D2
:101B7000B042EFD10020BDE8F081042084F83900A4
:101B8000E06B40F00100E0630120F4E72DE9F04153
:101B9000444C05468846E0680026810728680DD039
:101BA000E16801F00301814216D1A8B1E0686968DB
:101BB000C0F30210401C88420ED120E0012804D05E
:101BC000022805D0032807D108E02168890701E031
:101BD00021684905002907DB01265FE021688903A8
:101BE00002D421684903F5E7E1686A686FF00F03E2
:101BF00021F0730103EB021211430143E1602068FD
:101C000020F080602060FEF79FFD074605E000BFE2
:101C1000FEF79AFDC01B022837D820680001F7D4D0
:101C2000B8F1000F18D0B8F1010F1ED0287D4FF089
:101C30007E41400801EB4060A96840EA012021692B
:101C4000194A114008432061206840F080602060FC
:101C5000FEF77AFD07461AE0A868E968000209095C
:101C600040EA41402169114AEBE7288A10494008BF
:101C700001EB4050A96840EA012021690D4AE0E7E4
:101C8000FEF762FDC01B022801D9032606E020688A
:101C90000001F5D52069A969084320613046BDE8F7
:101CA000F081000000100240FF80FFF9FF80FDFF7F
:101CB0000000E0FFFF809FFF2DE9F0413D4C06460C
:101CC0008846E0680025810730680DD0E16801F0A2
:101CD0000301814216D1A8B1E0687168C0F3021017
:101CE000401C88420ED120E0012804D0022805D0F3
:101CF000032807D108E02168890701E02168490528
:101D0000002907DB012551E02168890302D42168FD
:101D10004903F5E7E16872686FF00F0321F0730182
:101D200003EB021211430143E160206820F0805070
:101D30002060FEF709FD074605E000BFFEF704FD41
:101D4000C01B022829D820688000F7D4B8F1000F02
:101D500015D0307C4FF07E41400801EB4060B16807
:101D600040EA01206169144A11400843606120681B
:101D700040F080502060FEF7E7FC07460FE0B068B7
:101D8000F1680002090940EA414061690B4AEBE74A
:101D9000FEF7DAFCC01B022801D9032506E0206803
:101DA0008000F5D560697169084360612846BDE827
:101DB000F081000000100240FF80FFF9FF80FDFF6E
:101DC000F8B51C4D06460024A86DC00002D5FEF7EC
:101DD000A1FD0DE0A86D40F08050A865A86D00F051
:101DE00080500090FEF796FDA96D21F08051A96505
:101DF000B0F5007F04D0802E07D94FF003040AE02D
:101E0000802E08D9A02E01D804E001D1022402E0DE
:101E1000702E00D101240848016821F007012143F8
:101E20000160006800F00700A04201D00120F8BD69
:101E30000020F8BD0010024000200240012000F008
:101E4000DDFBFBE710B5502080F31188BFF34F8F07
:101E5000BFF36F8F01F056F818B104494FF080506E
:101E60000860002080F3118810BD000004ED00E040
:101E7000F0B5B9B0442122A8FEF75FFA142133A8C7
:101E8000FEF75BFA88216846FEF757FA1020229089
:101E900001240025CDE9284502266020CDE92C64E7
:101EA0002A9028200727CDE92E40CDE930763296BA
:101EB00022A8FFF7E3F80F2033900320CDE9340583
:101EC0003695042133A83795FEF7B2FF0A480090F3
:101ED0000E9580061D901820CDE902400194200542
:101EE000CDE90660CDE904766846FEF7C9FD6002DB
:101EF000FEF7DCFC39B0F0BD010004000D480168BC
:101F000041F4700101600C48016841F00101016079
:101F1000002181600268094B1A4002608214C2608D
:101F2000026822F48022026081610249C003803984
:101F30000860704788ED00E000100240FFFFF6EAFD
:101F40000148FFF72CBC0000F00300200148FFF718
:101F500026BC0000DC0000202DE9F0470268264B7B
:101F6000264D274E274F284C4FF0804A984209D0E3
:101F7000504507D0A84205D0B04203D0B84201D0A6
:101F8000A04204D122F0700C4A6842EA0C02DFF849
:101F90007CC0DFF87C80DFF87C9098420FD0504501
:101FA0000DD0A8420BD0B04209D0B84207D0A04211
:101FB00005D0604503D0404501D0484503D122F407
:101FC0004075CA682A434D6922F080022A430260A4
:101FD0008A68C2620A688262984207D0A04205D02D
:101FE000604503D0404501D0484501D109690163EE
:101FF00001214161BDE8F087002C01400004004050
:1020000000080040000C0040003401400040014046
:10201000004401400048014010B5846842EA0322B0
:1020200024F47F440A432243826010BD826822F078
:1020300070020A4342F007018160704710B5036ADD
:10204000046A24F001040462846924F0F00444EA80
:10205000021423F00A020A438461026210BD10B523
:10206000036A23F0100303628369046A23F4704354
:1020700043EA023224F0A00343EA011182610162C3
:1020800010BD90F82410C90706D001684A68836A19
:1020900022F400321A434A6090F82410890706D5CA
:1020A00001684A68C36A22F480321A434A6090F891
:1020B0002410490706D501684A68036B22F4802280
:1020C0001A434A6090F82410090706D501684A6847
:1020D000436B22F400421A434A6090F82410C90668
:1020E00006D501688A68836B22F480521A438A609D
:1020F00090F82410890606D501688A68C36B22F41B
:1021000000521A438A6090F82410490611D50168DC
:102110004A68036C22F480121A434A60016CB1F5DC
:10212000801F06D101684A68436C22F4C0021A433A
:102130004A6090F82410090606D501684A68806C48
:1021400022F4002202434A607047F8B50026044694
:10215000C667FEF7F9FA0546206800686FF07E470B
:10216000000708D52B4600224FF4001120460097A7
:1021700000F068F960B92068006840070AD52B466E
:1021800000224FF480012046009700F05BF908B16F
:102190000320F8BD20206067A06784F870600020ED
:1021A000F8BD00002DE9F0410546016880682B6903
:1021B000EC6918436B69002723431843954A0B6861
:1021C000954C234003430B6028684168EB6821F479
:1021D0004051194341602968A869914201D02B6A96
:1021E00018438B6823F4306303438B608B4B29685F
:1021F0008B4899420DD1D0F8880010F0030006D02A
:10220000012868D0022864D0032851D165E0012458
:102210004FE0844B99420BD1D0F8880010F00C00AD
:1022200055D0042857D0082853D00C2840D154E06A
:102230007D4B99420BD1D0F8880010F0300046D089
:10224000102848D0202844D0302831D145E0774BA1
:1022500099420BD1D0F8880010F0C00037D0402848
:1022600039D0802835D0C02822D136E0704B994231
:102270000ED1D0F8880010F4407028D0B0F5807FDF
:1022800029D0B0F5007F24D0B0F5407F10D124E0F4
:1022900091420DD1D0F8880010F4406017D0B0F50D
:1022A000806F18D0B0F5006F13D0B0F5406F14D028
:1022B0001024604B00264FF40040914245D174B188
:1022C000022C0FD0042C0FD0082C18D10FE00024C2
:1022D000EFE70224EDE70424EBE70824E9E7FEF743
:1022E00057FE03E0184602E0FEF776FEA8B36A68E0
:1022F00002EB4201814202D8B0EB023F01D9012733
:1023000075E0DFF834815CB1022C0CD0042C13D0C2
:10231000082CF4D150082105401846F1000105E0D1
:10232000FEF736FE0AE050084449F5E70023FDF7C2
:10233000B7FFA0F5407156E0FEF74EFE6A68010E49
:102340000302500818187141F0E7E9694FF6EF7879
:1023500081422FD1092CD2D200E048E0DFE804F01E
:1023600006092005230505052600C8E7FEF710FE2F
:1023700001E0FEF71FFE4100D5F8040001EB50011B
:10238000B1FBF0F080B2A0F110014145B7D84FF693
:10239000F0710140C0F3420001432868C16026E0AB
:1023A00027496868EAE7FEF717FEE4E74FF4803153
:1023B0006868E3E7092CA2D2DFE804F006091E05ED
:1023C0002205050525009AE7FEF7E2FD01E0FEF78C
:1023D000F1FD0146686801EB500100BFB1FBF0F070
:1023E00080B2A0F11001414589D82968C8602E66E5
:1023F00038466E66BDE8F081686803EB5001EDE792
:10240000FEF7EAFDE5E7696800EB5100B0FBF1F08B
:10241000E6E7000000800040F369FFEF003801406C
:10242000001002400044004000480040004C0040C2
:10243000005000400024F400FFFC0F00000024F4D2
:102440000048E8012DE9F041984617460E4604463B
:10245000069D08E0681C06D0FEF776F9A0EB0800A0
:10246000A8420BD855B12068C06936EA000017D0E1
:102470000020B842EED00020BDE8F081206801685D
:1024800021F4D07101602068816821F00101816030
:1024900020206067A067002084F870000320EBE72D
:1024A0000120E6E7FEE70907090E002804DB00F13A
:1024B000E02080F80014704700F00F0000F1E020E9
:1024C00080F8141D704702E008C8121F08C1002AD6
:1024D000FAD170477047002001E001C1121F002AA5
:1024E000FBD1704790B0FEF73DF9FFF7C1FC3148D2
:1024F000C16C41F00101C164C16C01F0010107919F
:10250000C16C41F00201C164C16C01F0020107918C
:10251000C16C41F01001C164C06C242100F01000B6
:10252000079007A8FDF709FF2449234808600846DB
:10253000FDF7CFFF00240794089409940A942246DB
:1025400007A91E480B94FDF737FF102207A91B4867
:102550000A94FDF731FF1948194914300160FF2131
:1025600041600121C0E90214C0E904148461FEF74E
:10257000D9F912491348583108600846FEF7EEFFB2
:10258000FFF79EFAFFF7C6FA0C480FA16FF07E43E3
:102590001C22A830FFF738FA1C2213496846FDF7C1
:1025A000B3FE0021684600F035F81049086000F0DD
:1025B0002CF8FEE700100240007400407400002078
:1025C000001000A0000806504142434445464748D9
:1025D000494A4B4C4D4E4F505152535455565758F3
:1025E000595A0D0A00000000903000080000002039
:1025F00001460020842900D0C81C704710B500B9DE
:10260000012000F017FB002010BD10B500F038FBD2
:10261000002010BD7FB50D4604464169B0F90800A1
:1026200081B1A16971B1FFF7E3FFD4E905128DE82B
:102630000700D4E900102B46226900F037FC039014
:1026400004B070BDFFF7D4FF03A9CDE90001208AD3
:102650002B4682B2D4E9001000F0F8FB012801D02B
:102660000020EDE70398EBE72DE9F041184C0F4609
:10267000054666692068001D00F018FA38B9206820
:1026800090F82C1001208840A1698143A161681C49
:1026900007D137B12168BDE8F0410E48091D00F0AF
:1026A00049BA20683544B5424560216805D2A06822
:1026B000BDE8F041091D00F025BA6068091D00F071
:1026C00021FA206B854200D22563BDE8F08100002D
:1026D000140000200C0500202DE9F041054600F013
:1026E00035FA2E4C2069401C206120682C4F10B117
:1026F000E06940B32DE025602069012829D100263A
:1027000006EB860007EB800000F0EEF9761C072E42
:10271000F6D323488C3000F0E7F92148A03000F0D0
:10272000E3F91F48B43000F0DFF91D48C83000F06D
:10273000DBF91B48DC3000F0D7F919488C306060B9
:102740001430A06005E02068E96AC06A884200D8B9
:102750002560E06A401CE062E96A0120A2698840C5
:102760001043A06101EB810007EB8000291D00F000
:10277000E1F900F00BFAE06900280CD02068E96A62
:10278000C06A884207D207494FF080500860BFF303
:102790004F8FBFF36F8FBDE8F08100001400002061
:1027A0003004002004ED00E010B5044690F851001C
:1027B00058B101280CD002280FD0502080F3118886
:1027C000BFF34F8FBFF36F8FFEE7206B00F0F2F97E
:1027D0002046BDE8104000F0EDB910BD0F4840F6AE
:1027E000B831420705D0C01D0C4A20F00700821AFC
:1027F000891A0B4A00230144C2E900030839103A40
:1028000021F0070111604B600B600B1AC0E9001347
:1028100093604FF000405360D06070472005002067
:1028200060000020144E154CA6F1C8074FF08058E8
:10283000DFF84C9012E000BF00F088F9F068C5683E
:10284000281D00F033F92069401E2061E068401E19
:10285000E06000F09BF92846FFF7A6FFE06800283B
:10286000EAD138680128F9D9C9F80080BFF34F8F41
:10287000BFF36F8FF2E70000F8040020140000207F
:1028800004ED00E02DE9F0479A46DDE90984814630
:102890006FF00303206B03EB82021044089D20F0CD
:1028A0000706700707D0502080F31188BFF34F8FC1
:1028B000BFF36F8FFEE723180A5C83F834200A5CAD
:1028C00012B1401C1028F6D3002784F84370072D5E
:1028D00000D30625E562C4E91157201D00F00FF969
:1028E00004F1180000F00BF92461C5F107006462DF
:1028F000A061E76484F8507052464946304600F0C3
:10290000BFF82060B8F1000F01D0C8F80040BDE862
:10291000F087000030B5114900E011460A68824294
:10292000FBD34B685C18844203D14068184448606C
:10293000084643681C18944209D1084C103C24688E
:10294000A24209D052681A4442600A6812680260C2
:10295000814200D0086030BD0460F9E760000020CB
:1029600006484168096829B14168C968C968496869
:10297000016370474FF0FF31FAE7000014000020B8
:1029800008484068401C4FF0500080F3118804D084
:10299000BFF34F8FBFF36F8FFEE7BFF34F8FBFF3D0
:1029A0006F8FFEE7680000202DE9F0410546002703
:1029B00000F09CF9314E306808B9FFF70FFFF0685E
:1029C00005424BD1C5B3083568070ED005F00700A6
:1029D000C0F108000544680707D0502080F3118833
:1029E000BFF34F8FBFF36F8FFEE72DB37068854243
:1029F00034D82248103001460C6801E020460C46CD
:102A00006168A94202D221680029F7D131688C425D
:102A100024D007682168016060680837411B1029CD
:102A20000FD96019420708D0502080F31188BFF3F6
:102A30004F8FBFF36F8FFEE710E041606560FFF7D7
:102A400069FF61687068401A7060B268904200D295
:102A5000B060F06801430020C4E9000100F0B6FA5C
:102A6000780707D0502080F31188BFF34F8FBFF352
:102A70006F8FFEE73846BDE8F0810000500000206F
:102A800010B5031F4FF080741C601B1F21F0010163
:102A90001960191F044B0B6014390A60091F6FF08D
:102AA000020244380A6010BD81290008D0E90132D1
:102AB00001699A60D0E901235A604A68824201D1D3
:102AC00082684A60002202610868401E0860086847
:102AD00070470000034B036003F15400086080203E
:102AE000106070479C01002000F108014FF0FF3298
:102AF000C0E90112C160016100210160704700213D
:102B00000161704730B50B685A1C02D000F1080211
:102B100002E0026904E02246546825689D42FAD921
:102B200053684B6099608A60516008610168491C74
:102B3000016030BD42684A6093688B609368596059
:102B4000916008610168491C01607047502080F362
:102B50001188BFF34F8FBFF36F8F0A494868401C3D
:102B6000486001280CD10848006810F0FF0F07D01A
:102B7000502080F31188BFF34F8FBFF36F8FFEE7B4
:102B8000704700006800002004ED00E00849486834
:102B900028B1401E486001D180F311887047502051
:102BA00080F31188BFF34F8FBFF36F8FFEE70000F4
:102BB0006800002070B5002827D0144DA0F108044B
:102BC0006168E868014207D1502080F31188BFF3A3
:102BD0004F8FBFF36F8FFEE722683AB1502080F32A
:102BE0001188BFF34F8FBFF36F8FFEE781436160A2
:102BF00000F07CF860686968084468602046FFF768
:102C000089FEBDE8704000F0E1B970BD50000020C1
:102C10004FF0E02000210161816105494FF47A7293
:102C20000968B1FBF2F1491E41610721016170475A
:102C30001000002010B5020014D00F48806B38B18E
:102C4000502080F31188BFF34F8FBFF36F8FFEE7E3
:102C500000F04CF800211046FFF706FD00F0B6F931
:102C6000002807D105494FF080500860BFF34F8F0F
:102C7000BFF36F8F10BD00001400002004ED00E0D2
:102C800010B586B00024039405AA04A903A80494EF
:102C9000FFF720FFDDE903010094CDE901100023D7
:102CA0000EA11048059A00F001F90F490028486369
:102CB00011D0502080F31188BFF34F8FBFF36F8F77
:102CC0004FF0FF3008630120C8614C6106B0BDE8D9
:102CD000104000F041B806B010BD000049444C451A
:102CE0000000000025280008140000200248816B25
:102CF000491C816370470000140000201448816B58
:102D000011B1012141627047002141628169B1FA2C
:102D100081F1C1F11F0101EB81020E4951F822300E
:102D20006BB101EB820101F108034A6852684A6005
:102D30009A4201D152684A60D168016070475020C0
:102D400080F31188BFF34F8FBFF36F8FFEE7000052
:102D500014000020300400201CB537480168374AB1
:102D6000914207D1502080F31188BFF34F8FBFF3FA
:102D70006F8FFEE700683149491E884207D1502015
:102D800080F31188BFF34F8FBFF36F8FFEE72C499D
:102D900008780190FF20087008788DF800009DF8F1
:102DA00000009DF8002000F0F000904207D0502075
:102DB00080F31188BFF34F8FBFF36F8FFEE79DF84D
:102DC0000000204B00F0500018700720986005E0CC
:102DD0009DF8002052008DF80020401E9DF8002034
:102DE0001206F5D49860032807D0502080F311888C
:102DF000BFF34F8FBFF36F8FFEE74FF440709860C3
:102E0000019808700C482030016841F4700101609D
:102E1000016841F070410160FFF7FAFE0020586040
:102E2000FDF7E0F90848016841F040410160FDF715
:102E3000C5F900201CBD000000ED00E071C20F418B
:102E400000E400E06800002034EF00E02DE9FF5FBF
:102E50008346DDE90E87994616468A469000FFF7BD
:102E6000A3FD05001CD05420FFF79EFD040014D0E4
:102E70000020256384F85100CDE90240CDE90087A8
:102E80004B46324651465846FFF7FCFC2046FFF7BA
:102E900023FC012004B000F006B82846FFF78AFEA4
:102EA0004FF0FF30F6E730BCBDE8C09FF0B585B00D
:102EB000DDE90B640A9DA6B1DCB1542700972663B7
:102EC000022684F85160002604AFCDE90246CDE920
:102ED0000057FFF7D7FC2046FFF7FEFB049805B02C
:102EE000F0BD502080F31188BFF34F8FBFF36F8F79
:102EF000FEE7502080F31188BFF34F8FBFF36F8F31
:102F0000FEE700002DE9F0412E4C0027A06B40B1F8
:102F1000206A401C2062606A00B101273846BDE883
:102F2000F0816669761C666113D16068006838B10B
:102F3000502080F31188BFF34F8FBFF36F8FFEE7F0
:102F40006068A1686160A060A06A401CA062FFF791
:102F500007FD206BDFF87080864209D36068006847
:102F600080B16068C068C568686886420DD2206319
:102F70002068C06A00EB800158F821000128CAD9F6
:102F80000127C8E74FF0FF30F1E7281DFFF78EFD5E
:102F9000A86A18B105F11800FFF788FDE86A012159
:102FA000A26981401143A16100EB800108EB81001F
:102FB000291DFFF7BFFDE86A2168C96A8842CDD3A1
:102FC0000127CBE714000020300400202DE9F04752
:102FD0002C4D00242746A86B38B1FFF7B7FDA86B2E
:102FE000401EA863A86B40B146E0502080F31188D2
:102FF000BFF34F8FBFF36F8FFEE72969224E012089
:10300000D1B3A6F1B40980463068E8B1F068C4686D
:1030100004F11800FFF74AFD201DFFF747FDE06AA5
:10302000AA6908FA00F11143A96100EB800109EBDC
:103030008100211DFFF77EFDE06A2968C96A884288
:10304000E2D3C5F82480DFE70CB1FFF789FC2C6AD6
:1030500044B14646FFF756FF00B16E62641EF9D1D7
:1030600000202862686A38B10849012738070860DB
:10307000BFF34F8FBFF36F8FFFF788FD3846BDE872
:10308000F087000014000020E404002004ED00E0BC
:10309000F43000083D1E00080000000000000000A1
:1030A00080000000000000000000000000000000A0
:1030B000000000000102030406070809A0860100C1
:1030C000400D0300801A060000350C0040420F003E
:1030D00080841E0000093D0000127A000024F400E4
:1030E00000366E010048E801006CDC0200000000C0
:1030F0000102030464656661756C745461736B004E
:10310000203100080000002074000000C6240008E0
:10311000943100087400002064140000D6240008D4
:10312000000000001000000001000000000000008E
:1031300000093D0000000000000000000000000049
:10314000000000000000000000000000000000007F
:10315000000000000000000000000000000000006F
:10316000000000000000000000000000000000005F
:10317000000000000000000000000000000000004F
:10318000000000000000000000000000AAAAAAAA97
:04319000000000003B
:040000050800018965
:00000001FF
