:020000040800F2
:10000000E87B01209D0100087F1C0008CB18000838
:100010007D1C0008B1020008512500080000000006
:10002000000000000000000000000000351F000874
:10003000B302000800000000811C0008371F000800
:10004000B7010008B7010008B7010008B7010008B0
:10005000B7010008B7010008B7010008B7010008A0
:10006000B7010008B7010008B7010008B701000890
:10007000B7010008B7010008B7010008B701000880
:10008000B7010008B7010008B7010008B701000870
:10009000B7010008B7010008B7010008E302000833
:1000A000B7010008F11F0008B7010008B7010008F8
:1000B000B7010008B7010008B7010008B701000840
:1000C000B7010008B7010008B7010008B701000830
:1000D000B7010008B7010008B7010008B701000820
:1000E000B5020008B7010008B7010008B701000811
:1000F000B7010008B7010008B7010008B701000800
:10010000B7010008B7010008B7010008B7010008EF
:10011000B7010008B7010008B7010008B7010008DF
:10012000B7010008B7010008B7010008B7010008CF
:10013000B7010008B7010008B7010008B7010008BF
:10014000B7010008B7010008B7010008B7010008AF
:10015000B7010008B7010008B7010008B70100089F
:10016000B7010008B7010008B7010008B70100088F
:10017000B7010008B70100080000000000000000FF
:10018000B7010008B7010008DFF80CD000F07EF8D6
:100190000048004791250008E87B01200648804779
:1001A00006480047FEE7FEE7FEE7FEE7FEE7FEE75C
:1001B000FEE7FEE7FEE7FEE7AD1F00088901000845
:1001C0002DE9F05F0546002092469B46884606468C
:1001D000814640241BE0284641464746224600F01F
:1001E00044F853465A46C01A914110D31146184656
:1001F000224600F02BF82D1A67EB01084F462246E5
:100200000120002100F022F817EB00094E41201ECA
:10021000A4F10104DFDC484631462A46434600F09B
:1002200000B830BCBDE8C09FD2B201E000F8012B9D
:10023000491EFBD270470022F6E710B513460A4666
:1002400004461946FFF7F0FF204610BD202A04DBC4
:10025000203A00FA02F1002070479140C2F12003D9
:1002600020FA03F3194390407047202A04DB203A18
:1002700021FA02F00021704721FA02F3D040C2F1C6
:10028000200291400843194670470000064C074D74
:1002900006E0E06840F0010394E807009847103456
:1002A000AC42F6D3FFF774FFF426000814270008C9
:1002B000FEE7704710B54FF4806000F03FF94FF44F
:1002C000006000F03BF94FF4005000F037F94FF4B4
:1002D000804000F033F9BDE810404FF4004000F0DA
:1002E0002DB910B5202000F029F9402000F026F9A2
:1002F000802000F023F9BDE810404FF4807000F03A
:100300001DB92DE9F0470446407900270E46012823
:100310000BD04FF0010984F805900220207130685D
:1003200002F01005042803D043E00220BDE8F08766
:100330004FF0030802BB00F0FDF9074604E000F0AF
:10034000F9F9C01B01280FD82068406B0004F6D4CF
:10035000012000F0DFF82168B069086416E000F0C1
:10036000E9F9C01B012807D9206940F00800206185
:1003700084F804800320D9E72068406B0028EEDB76
:10038000012000F0C7F82168B06948642068816CDA
:1003900040F2FF32AA409143F269AA4011438164BE
:1003A0002068C16CFF22AA409143326AAA401143DF
:1003B000C1643069012808D12268916B1F20A840D0
:1003C00081437069A840084390632268D16B07207D
:1003D000A8408143B36830681843F3681843A840C5
:1003E0000843D063206801684FF48042AA409143DB
:1003F00001602268116840F6FC70A8408143706873
:10040000A8400843106020680168C022AA409143B8
:10041000016084F804900020607187E770B50400E3
:1004200003D02079002510B105E0012070BD657171
:10043000204600F007F8022020712561012020717C
:10044000002070BD10B586B0044614216846FFF741
:10045000F2FE1149206888421BD11048816D41F09D
:1004600000518165816D01F000510591C16C41F031
:100470000101C164C06C694600F0010005903020A4
:10048000009003200190002002904FF0904000F077
:1004900061F806B010BD000000740040001002407A
:1004A00018B5046800940068104421B1143000901D
:1004B0000360002018BD0830F9E770B54279012AC1
:1004C00014D0012242710223037103681D6801F0F8
:1004D000100602FA06F425431D60002901680B6826
:1004E00006D0C3F38343012B0AD00DE0022070BD78
:1004F000C3F38303012B07D14B6843F0010302E0F0
:100500004B6843F002034B600271002141710846C1
:1005100070BD000070B5044600F00CF90546601C83
:1005200002D004484068044400F004F9401BA04293
:10053000FAD370BD0400002070470000044910B5D4
:100540000A68024202D00860FFF7F6FF10BD000003
:10055000140401402DE9F84FDFF898B100234FF063
:10056000010C4FF0030A4FF00F090BF1040EB9E034
:100570000CFA03F4224070D04D68022D01D0122DE8
:100580000ED1DD0800EB8508D8F820505E07F70E85
:1005900009FA07F6B5430E69BE402E43C8F820603D
:1005A00007685E0091F804800AFA06F508F003086F
:1005B000AF4308FA06F848EA0708C0F800804F6819
:1005C000012F05D0022F03D0112F01D0122F13D1EC
:1005D000D0F80880CF6828EA0508B74047EA08073E
:1005E0008760D0F804800F7928EA0408C7F3001761
:1005F0009F4047EA08074760D1F804806FEA080780
:10060000BF0706D1C76AA743C8F3C0049C403C4358
:10061000C462C468AC438D68B5402543C5604C686E
:10062000E4005ED5344C256E45F001052566246E48
:1006300023F0030504F001040094304C2E19B46833
:100640009D072F0F09FA07F5AC43B0F1904F05D085
:100650002B4DA84204D101251CE042E0002519E001
:10066000284DA84201D1022514E0274DA84201D10E
:1006700003250FE0254DA84201D104250AE0244DB1
:10068000A84201D1052505E0224DA84201D1062549
:1006900000E00725BD402543B560DBF800405D461E
:1006A0004E689443F60300D514432C60DEF80040F6
:1006B00075464E689443B60300D514432C600D4D27
:1006C00008352C684E689443F60200D514432C601C
:1006D000084D0C352C684E689443B60200D514437F
:1006E0002C605B1C0A6832FA03F57FF441AF00F01E
:1006F00013B8000000040140001002400000014057
:100700000004004800080048000C004800100048A1
:10071000001400480018004818BCBDE8E08F0069CC
:10072000084000D0012070470AB1816170478162A2
:1007300070470000014880687047000004000020F6
:1007400002488168426811448160704704000020BB
:1007500010B50024032000F071F8002000F008F824
:1007600008B1012401E000F025F8204610BD00008A
:1007700070B50E4E05460024706898B14FF47A713A
:10078000B1FBF0F00A490968B1FBF0F000F0F2FDAE
:1007900040B9102D06D200222946501E00F02EF836
:1007A000356000E00124204670BD000004000020F8
:1007B00010000020094808B5016E41F001010166F2
:1007C000016E01F001010091816D41F08051816560
:1007D000806D00F08050009008BD000000100240C5
:1007E000002809DB00F01F02012191404009800030
:1007F00000F1E020C0F8001170470000F0B40E4B8B
:100800001B680C46C3F30223C3F10705042D00D96E
:100810000425191D072901D2002300E0DB1E012653
:1008200006FA05F1491E214099409E40761E164069
:100830003143F0BC01F08DBE0CED00E0064900F044
:10084000070208684FF6FF03184040EA0220034AF7
:1008500010430860704700000CED00E00000FA054E
:100860001649B0F5007F0868C0F3412009D002287E
:1008700005D0086820F4C06040F480600860002063
:1008800070470128FBD0086820F4C06040F4007075
:1008900008600B483222006850430A4AB0FBF2F06D
:1008A000401C00E0401E4A69520501D50028F9D1DC
:1008B00048694005E3D50320704700000070004000
:1008C0001000002040420F000248006800F4C060A1
:1008D00070470000007000402DE9F84F04460027E3
:1008E0000088E54D3E46010504F1200B1DD5606EE4
:1008F00078B1B0F5800F11D0B0F5000F04D0B0F58D
:10090000400F22D001270FE0E86840F48030E86013
:100910001BE00021201D01F0B5F903E0002158463D
:1009200001F046FA070010D03E462088C00426D5C4
:10093000A06EC0B1B0F1807F1AD0B0F1007F0DD0B1
:10094000B0F1407F19D0012718E0D5F88800616E1A
:1009500020F440000843C5F88800E6E7E86840F462
:100960008030E86009E00021201D01F08BF903E0F0
:100970000021584601F01CFA0746F7B13E462068B0
:1009800080033AD5A86D4FF00008C00009D4A86DC7
:1009900040F08050A865A86D4FF0010800F080502D
:1009A0000090DFF8D8A2DAF8001041F48071CAF89C
:1009B0000010FFF7BFFE814610E0D5F88800A16E59
:1009C00020F040700843C5F88800D8E7FFF7B2FE72
:1009D000A0EB0900022801D9032705E0DAF800009E
:1009E000C005F3D5002F7CD04FEA0706B8F1000F01
:1009F00003D0A86D20F08050A8652078C00707D0EC
:100A0000D5F88800A16B20F003000843C5F88800E2
:100A10002078800707D5D5F88800E16B20F00C001E
:100A20000843C5F888002078400707D5D5F8880026
:100A3000216C20F030000843C5F8880020780007BA
:100A400007D5D5F88800616C20F0C0000843C5F8D0
:100A500088002078C00607D5D5F88800A16C20F45E
:100A600040700843C5F888002078800607D5D5F87F
:100A70008800E16C20F440600843C5F888002088B5
:100A8000800507D5D5F88800E16D20F440200843A3
:100A9000C5F888002088400507D5D5F88800216E64
:100AA00020F440100843C5F888002078400607D598
:100AB000D5F88800216D20F440500843C5F888001F
:100AC0002078000607D5D5F88800616D20F44040F5
:100AD0000843C5F888002088C00509D5D5F88800E6
:100AE00000E01CE0A16D20F440300843C5F8880008
:100AF00020884FF0006780044FF080684FD5D5F80C
:100B00008800E16E20F040600843C5F88800E06E80
:100B1000B8423CD1E86840F48010E8603FE0D5F886
:100B2000900010F4407015D0D4F88410814211D098
:100B3000D5F89000D5F8901020F4407041F4803141
:100B4000C5F89010D5F8901021F48031C5F89010B8
:100B5000C5F89000C00710D0FFF7ECFD074641F242
:100B6000883906E0FFF7E6FDC11B494501D9032698
:100B70003CE7D5F890008007F4D5D5F89000D4F87C
:100B8000841020F440700843C5F890002EE74045DB
:100B900005D10121201D01F075F800B1064620683D
:100BA000000317D5D5F88800216F20F04060084376
:100BB000C5F88800206FB84204D1E86840F480107E
:100BC000E86007E0404505D10121201D01F05AF8F9
:100BD00000B106462068400317D5D5F88800616F3C
:100BE00020F040600843C5F88800606FB84204D127
:100BF000E86840F48010E86007E0404505D1012135
:100C0000201D01F03FF800B10646208840041AD5A7
:100C1000D5F88800A16F20F040500843C5F888003F
:100C2000A06FB0F1805F03D0B0F1005F05D00AE0A3
:100C30000221201D01F026F803E00221584601F0B0
:100C4000B7F800B106462088000407D5D5F888001B
:100C5000E16F20F080400843C5F888002068C00399
:100C600007D555F8880FD4F8801020F000400843CD
:100C70002860304600F004B80010024000700040C8
:100C800018BCBDE8E08F00002DE9F0470F460500D5
:100C900058D0404E306800F00700B84209D23068A2
:100CA00020F0070038433060306800F00700B84299
:100CB00048D12878384CC0072CD06868032811D058
:100CC000022812D0216898B1490500293ADAA168B2
:100CD00021F003010143A160FFF72CFD804641F2A2
:100CE000883910E021688901EFE721688903ECE782
:100CF0008907EAE7FFF71EFDA0EB0801494502D985
:100D00000320BDE8F087A068696800F00C00B0EB34
:100D1000810FEFD12878800705D5A068A96820F059
:100D2000F0000843A060306800F00700B8420BD91B
:100D3000306820F0070038433060306800F007006A
:100D4000B84201D00120DCE72878400705D5A0682B
:100D5000E96820F4E0600843A0602878000706D521
:100D6000A068296920F4605040EAC100A06000F04A
:100D70003FF8A168094AC1F30311515C01F01F015A
:100D8000C8400749086007480068BDE8F047FFF71A
:100D9000EFBC00000020024000100240AC2600081A
:100DA00010000020040000200548064900688968FA
:100DB000054AC1F30221515C01F01F01C840704790
:100DC0001000002000100240EC26000805480649EB
:100DD00000688968054AC1F3C221515C01F01F0116
:100DE000C84070471000002000100240EC260008A8
:100DF00070B52549002318468A68CC6812F00C02A9
:100E000004F00306214C4FEA640509D00C2A05D0F2
:100E1000042A32D0082A00D1284670BD012E10D1F4
:100E20000B681B0704D4D1F89430C3F3032302E00A
:100E30000B68C3F30313164E56F82330DAB10C2AAD
:100E4000EBD1C86800F00300022818D0032818D09E
:100E50001846CA68CB68C2F30212C3F306234343A1
:100E6000521CB3FBF2F2C868C0F34160401C400062
:100E7000B2FBF0F070BD184670BD204670BD204634
:100E8000E7E72846E5E70000001002400024F400F0
:100E9000BC2600082DE9F84304006ED0FD4DA8687B
:100EA00000F00C06E86800F003072078C00663D560
:100EB00076B10C2E01D1012F0AD0A0690028286834
:100EC00078D040F001002860FFF734FC80465BE0FA
:100ED0002868800702D5A0690028DED0216A28682A
:100EE000000703D5286800F0F00004E0D5F894006E
:100EF000F02202EA1010814216D9084600F0DCFF09
:100F000000283AD1286840F0080028602868216A43
:100F100020F0F000084328606868E16920F47F4011
:100F200040EA0120686015E0286840F00800286069
:100F30002868216A20F0F000084328606868E169A9
:100F400020F47F4040EA01206860206A00F0B4FF8E
:100F50000028D6D1FFF74CFFA968CF4AC1F303118F
:100F6000515C01F01F01C840CC490860CC480068C2
:100F7000FFF7FEFB00287DD12DE0C9E0FFF7DAFB8B
:100F8000A0EB0800022876D828688007F6D52868E4
:100F900040F0080028602868216A20F0F00008432B
:100FA00028606868E16920F47F4040EA01206860B9
:100FB00011E0FFE720F001002860FFF7BBFB80464F
:100FC00006E000BFFFF7B6FBA0EB08000228DAD866
:100FD00028688007F6D42078C00740D0082E18D0A3
:100FE0000C2E01D1032F14D06068B0F5803F17D0CC
:100FF000B0F5A02F286817D020F48030286028682A
:1010000020F4802028606068E0B1FFF793FB804601
:1010100014E02868800322D56068002878D01EE09C
:10102000286840F48030EDE740F480202860F7E73E
:10103000FFF780FBA0EB08006428A4D82868800391
:10104000F6D50CE0FFF776FB804605E0FFF772FB74
:10105000A0EB0800642896D828688003F6D420788E
:1010600080073BD5042E11D00C2E01D1022F0DD0BC
:10107000E06801E03EE19FE0002828681ED040F4CF
:1010800080702860FFF756FB07460CE02868400593
:101090000CD5E0680028C1D008E000BFFFF74AFB8C
:1010A000C01B022893D828684005F7D56868217CC2
:1010B00020F0F85040EA016068600FE020F4807092
:1010C0002860FFF737FB074605E000BFFFF732FB5C
:1010D000C01B022870D828684005F7D42078000784
:1010E00029D560690028D5F8940012D040F001009D
:1010F000C5F89400FFF71EFB074604E0FFF71AFB54
:10110000C01B022858D8D5F894008007F6D512E005
:1011100029E120F00100C5F89400FFF70BFB07461A
:1011200005E000BFFFF706FBC01B022844D8D5F836
:1011300094008007F6D42078400768D5A86D002772
:10114000C00008D4A86D40F08050A865A86D0127A4
:1011500000F08050009053480168C90512D401681E
:10116000814641F480710160FFF7E4FA804605E0B2
:10117000FFF7E0FAA0EB080002281DD8D9F800001C
:10118000C005F5D5A068012817D00528D5F890002E
:1011900018D020F00100C5F89000D5F8900020F09C
:1011A000040000BFC5F89000A06841F28839D0B1B2
:1011B000FFF7C0FA804611E06BE0D5F8900040F0F0
:1011C0000100EFE740F00400C5F89000F5E700BF2C
:1011D000FFF7B0FAA0EB080149455AD8D5F89000BE
:1011E0008007F5D50EE0FFF7A5FA804606E000BFC0
:1011F000FFF7A0FAA0EB080149457AD8D5F890008E
:101200008007F5D41FB1A86D20F08050A865A06AB2
:10121000F0B30C2E75D00228286820F0807028606A
:1012200004D0286810F0205F51D054E0FFF782FA14
:10123000064604E0FFF77EFA801B022859D828688A
:101240008001F7D4D4E90B016FF00F0202EB01111A
:101250000843A18F5204490802EB4151626B41EAF5
:101260000221084394F840104FF07E42490802EBF7
:1012700041610843A16B090940EA4140E9680A4A13
:1012800011400843E860286840F0807028600DE055
:101290006BE02EE000100240AC2600081000002099
:1012A00004000020007000408C809DF9E86840F048
:1012B0008070E860FFF73EFA044604E0FFF73AFA70
:1012C000001B022815D828688001F7D54DE0E86892
:1012D00020F00300E860E86825490840E860FFF76F
:1012E00029FA044609E000BFFFF724FA001B022890
:1012F00003D90320BDE8F88303E028688001F3D414
:1013000033E00128F6D0E868E26A00F00301914278
:1013100029D1216B00F0700209011039914222D1CC
:10132000626B00F4FE41B1EB022F1CD1A26B00F402
:101330000031072A01D0012200E00022914212D19F
:10134000A18F00F4C00249084905A1F5001191429E
:1013500009D194F8401000F0C06049084906A1F195
:101360000071814201D00120C4E70020C2E70000E3
:10137000FFFFEEFE10B5401EB0F1807F01D30120CB
:1013800010BD4FF0E02460610F21601701F0E1F81B
:101390000020A06107202061002010BD7047704729
:1013A0007047000070B590F83C20012A24D0012439
:1013B00080F83C40022280F83D200268536895681E
:1013C0000E4EB24202D00E4EB24203D123F470064A
:1013D0004B68334323F070060B688968334325F06C
:1013E0008005294353600268916080F83D400021E8
:1013F00080F83C10084670BD022070BD002C0140F2
:101400000034014010B5040003D094F83D0010B141
:1014100007E0012010BD002084F83C00204600F0C9
:101420000DF8022084F83D00211D206800F0EAFD3F
:10143000012084F83D00002010BD000008B50068C0
:101440000B49884212D10B48016E41F400610166DC
:10145000006E002200F40060009011461920FFF792
:10146000CDF9BDE808401920FFF7BAB908BD000062
:10147000002C0140001002400168CA6842F00102DD
:10148000CA6001688868064A1040062806D0B0F590
:10149000803F03D0086840F00100086000207047DA
:1014A0000700010070B5044690F83C00012817D0F1
:1014B000012584F83C50022084F83D0022689068A1
:1014C0002E4B184020F47F4090600868502830D0A0
:1014D0000DDC20284DD005DC98B310283BD148E026
:1014E000022070BD302844D0402834D139E0602833
:1014F00028D0702806D0B0F5805F2CD0B0F5005F02
:1015000029D10AE0CB68D1E90121206800F0DAFD99
:101510002068816841F0770109E0CB68D1E90121B9
:10152000206800F0CFFD2068816841F4804181602F
:1015300011E0CA684968206800F0D6FD5021206893
:1015400007E016E0CA684968206800F0DEFD602107
:10155000206800F0C1FD84F83D50002084F83C0074
:1015600070BDCA684968206800F0BEFD402120684F
:10157000EFE7226801461046EBE7000088FFFEFF18
:10158000704770B50446006801694FF00005C94313
:10159000890715D4C168C943890711D4E91E0161BF
:1015A00001202077206880698007204602D0FFF75D
:1015B000E7FF04E000F0A7F8204600F0A5F8257743
:1015C00020680169C943490717D4C168C94349075D
:1015D00013D46FF004010161022020772068806934
:1015E00010F4407F204602D0FFF7CAFF04E000F06D
:1015F0008AF8204600F088F8257720680169C943F9
:10160000090716D4C168C943090712D46FF008014D
:101610000161042020772068C0698007204602D03D
:10162000FFF7AEFF04E000F06EF8204600F06CF823
:10163000257720680169C943C90617D4C168C94321
:10164000C90613D46FF010010161082020772068CB
:10165000C06910F4407F204602D0FFF791FF04E0FC
:1016600000F051F8204600F04FF825772068016916
:10167000C943C90708D1C168C943C90704D1891E34
:101680000161204600F041F820680169C94309065C
:1016900009D4C168C943090605D46FF0800101610E
:1016A0002046FFF77CFE20680169C943C90509D4BB
:1016B000C168C943090605D46FF4807101612046F1
:1016C000FFF76CFE20680169C943490609D4C16867
:1016D000C943490605D46FF040010161204600F07E
:1016E00015F820680169C94389060BD4C168C9434C
:1016F000890607D46FF0200101612046BDE87040E3
:10170000FFF74EBE70BD704770477047704710B509
:10171000040002D0606F10B107E0012010BD00206E
:1017200084F87000204600F025F8242060672068C7
:10173000016821F001010160204600F089FD0128C7
:10174000ECD0606A10B1204600F0F1FC20684168DE
:1017500021F4904141602068816821F02A01816074
:101760002068016841F0010101602046BDE8104099
:1017700000F041BD10B586B0044614216846FEF75E
:101780005AFD1249206888421ED11148016E41F469
:1017900080410166016E01F480410591C16C41F008
:1017A0000201C164C06C694600F002000590C020CF
:1017B0000090022001900020029003200390072057
:1017C00004900448FEF7C6FE06B010BD0038014084
:1017D00000100240000400482DE9F84F0446806FD5
:1017E0009B4616460D4620286AD1EDB1E6B194F825
:1017F0007000012864D0012084F870004FF00008C8
:10180000C4F87C802220A067FEF794FFA4F85860FB
:101810008246A4F85A60A0684FF48053FF21984292
:1018200008D122691AB118E0012000F04BB840F24B
:10183000FF1112E07F2270B1B0F1805F10D0A4F8E8
:101840005C8000BFB4F85C70984201D1206970B12F
:101850002E4600250CE0266936B9A4F85C10F1E7A5
:10186000216909B13F21F8E7A4F85C20EAE70026E6
:1018700007F0FF09B4F85A00E0B1534600222021D6
:101880002046CDF800B000F033FE08B10320CCE7CD
:101890002068808C56B100EA090006F8010B00BFF1
:1018A000B4F85A00401EA4F85A00E3E7384025F87F
:1018B000020BF5E72020A06784F870800020B4E7D1
:1018C0000220B2E718BCBDE8E08FFEE72DE9F04F3B
:1018D00087B014216846FEF7AEFCBF48C16C41F0EA
:1018E0001001C164C16C01F010010591C16C41F09F
:1018F0000401C164C16C01F004010591C16C41F0A7
:101900000101C164C16C01F001010591C16C41F09C
:101910000201C164C16C01F002010591C16C41F08A
:101920000801C164C06C002200F00800059040F27C
:101930001511AA48FEF7F8FE002248F204114FF0F4
:101940009040FEF7F1FE00224FF23401A448FEF76A
:10195000EBFE43F2810A00225146A248FEF7E4FE64
:1019600000224FF41071A048FEF7DEFE40F2151081
:10197000009001200024CDE90104694697480394B2
:10198000FEF7E8FD6A2000909848CDE90104694619
:101990009248FEF7DFFD4FF4065000909348CDE9E2
:1019A000010469469048FEF7D5FD3F200B26CDE99E
:1019B0000006694602948C48FEF7CCFD0320009097
:1019C0000220CDE9010403200825CDE9030569467D
:1019D0004FF09040FEF7BEFD48F204100090012049
:1019E000CDE9010469464FF090400394FEF7B2FD43
:1019F00002200095CDE901040120CDE903406946AC
:101A00004FF09040FEF7A6FD102000900320CDE996
:101A1000010469464FF09040FEF79CFDC020009005
:101A20000220CDE9010403200525CDE9030569461F
:101A30004FF09040FEF78EFD012000906B48CDE9FD
:101A4000010469466648FEF785FD0220CDE90006DF
:101A5000694602946248FEF77DFD4FF23400009023
:101A60000120CDE9010469465D480394FEF772FD4B
:101A7000E80100900220CDE901040626CDE90346E5
:101A800069465648FEF766FD4FF47C400090022000
:101A9000CDE9010403200A27CDE9030769464F4831
:101AA000FEF758FD70024FF01208CDE90008012042
:101AB000029003204FF00409CDE903096946484824
:101AC000FEF748FD4FF4407B0220CDF800B0CDE991
:101AD0000104032003900720049069464148FEF763
:101AE00039FD4CF6044000904048CDE901046946B8
:101AF0003C48FEF72FFD0120CDF800A0CDE9010400
:101B0000694638480394FEF725FD4FF410700090A5
:101B10000120CDE90104694633480394FEF71AFD1C
:101B20004FF40070CDE9000469464FF090400294F4
:101B3000FEF710FD4FF4E05A0220CDF800A0CDE9E9
:101B400001040320CDE9030769464FF09040FEF7FA
:101B500001FD0220CDF800A0CDE901040320CDE96C
:101B6000030669462048FEF7F5FC02200090CDE907
:101B700001040320CDE9030569461A48FEF7EAFC93
:101B8000782000900220CDE9010403200390072073
:101B9000049069461348FEF7DDFC0120CDF800B043
:101BA000CDE901800320CDE9030969460C48FEF721
:101BB000D1FC002211461720FEF720FE1720FEF769
:101BC0000FFE002211462820FEF718FE2820FEF7FF
:101BD00007FE07B000F00CB80010024000100048EB
:101BE00000040048000C00480008004800001110E4
:101BF00030BCBDE8C08F000010B588B00024134889
:101C00000594069403940494009401940E4902945C
:101C1000C0E9001442F21071C0E90241046144615C
:101C20008461FFF7EFFB4FF48050039003A907484E
:101C3000FFF738FC00940194694604480294FFF7CA
:101C4000B1FB08B010BD0000002C014028000020AE
:101C50000948084901604FF4E13141600021816089
:101C60000C22C160C0E904128161C161016241625C
:101C7000FFF74DBD0038014068000020FEE77047C7
:101C8000704700002DE9F041444C05468846E06865
:101C90000026810728680DD0E16801F00301814228
:101CA00016D1A8B1E0686968C0F30210401C8842F0
:101CB0000ED120E0012804D0022805D0032807D146
:101CC00008E02168890701E021684905002907DB50
:101CD00001265FE02168890302D421684903F5E702
:101CE000E1686A686FF00F0321F0730103EB0212E1
:101CF00011430143E160206820F080602060FEF71E
:101D000019FD074605E000BFFEF714FDC01B0228C1
:101D100037D820680001F7D4B8F1000F18D0B8F117
:101D2000010F1ED0287D4FF07E41400801EB40603E
:101D3000A96840EA01202169194A1140084320613D
:101D4000206840F080602060FEF7F4FC07461AE04F
:101D5000A868E9680002090940EA41402169114A7E
:101D6000EBE7288A1049400801EB4050A96840EA97
:101D7000012021690D4AE0E7FEF7DCFCC01B0228C8
:101D800001D9032606E020680001F5D52069A9697C
:101D9000084320613046BDE8F08100000010024099
:101DA000FF80FFF9FF80FDFF0000E0FFFF809FFF45
:101DB0002DE9F0413D4C06468846E0680025810744
:101DC00030680DD0E16801F00301814216D1A8B15D
:101DD000E0687168C0F30210401C88420ED120E018
:101DE000012804D0022805D0032807D108E0216883
:101DF000890701E021684905002907DB012551E039
:101E00002168890302D421684903F5E7E168726813
:101E10006FF00F0321F0730103EB02121143014332
:101E2000E160206820F080502060FEF783FC0746C8
:101E300005E000BFFEF77EFCC01B022829D8206801
:101E40008000F7D4B8F1000F15D0307C4FF07E4100
:101E5000400801EB4060B16840EA01206169144A22
:101E6000114008436061206840F080502060FEF718
:101E700061FC07460FE0B068F1680002090940EA1A
:101E8000414061690B4AEBE7FEF754FCC01B022896
:101E900001D9032506E020688000F5D560697169E5
:101EA000084360612846BDE8F08100000010024050
:101EB000FF80FFF9FF80FDFFF8B51C4D06460024AA
:101EC000A86DC00002D5FEF7FFFC0DE0A86D40F044
:101ED0008050A865A86D00F080500090FEF7F4FCDB
:101EE000A96D21F08051A965B0F5007F04D0802E46
:101EF00007D94FF003040AE0802E08D9A02E01D89C
:101F000004E001D1022402E0702E00D1012408482F
:101F1000016821F0070121430160006800F007001B
:101F2000A04201D00120F8BD0020F8BD0010024001
:101F3000002002407047FEF703BC30B5B9B0442121
:101F400022A8FEF778F9142133A8FEF774F9882146
:101F50006846FEF770F9102001252290002428958C
:101F60006020CDE9294002202821CDE92C05CDE9CA
:101F70002E510721CDE93010329022A8FEF78AFFBA
:101F80000F2033900320CDE934043694042133A884
:101F90003794FEF779FE684600950E94FEF79CFC98
:101FA0006802FEF75DFC39B030BD00000D480168E5
:101FB00041F4700101600C48016841F001010160C9
:101FC000002181600268094B1A4002608214C260DD
:101FD000026822F48022026081610249C0038039D4
:101FE0000860704788ED00E000100240FFFFF6EA4D
:101FF0000249012008600248FFF7C3BA0000002030
:10200000280000202DE9F0470268264B264D274E78
:10201000274F284C4FF0804A984209D0504507D0AE
:10202000A84205D0B04203D0B84201D0A04204D1AA
:1020300022F0700C4A6842EA0C02DFF87CC0DFF83C
:102040007C80DFF87C9098420FD050450DD0A8429C
:102050000BD0B04209D0B84207D0A04205D06045AD
:1020600003D0404501D0484503D122F44075CA68E9
:102070002A434D6922F080022A4302608A68C262C4
:102080000A688262984207D0A04205D0604503D01A
:10209000404501D0484501D10969016301214161F1
:1020A000BDE8F087002C014000040040000800401B
:1020B000000C004000340140004001400044014059
:1020C0000048014010B5846842EA032224F47F44AA
:1020D0000A432243826010BD826822F070020A43E4
:1020E00042F007018160704710B5036A046A24F06A
:1020F00001040462846924F0F00444EA021423F029
:102100000A020A438461026210BD10B5036A23F01B
:10211000100303628369046A23F4704343EA0232C2
:1021200024F0A00343EA01118261016210BD90F81E
:102130002410C90706D001684A68836A22F4003275
:102140001A434A6090F82410890706D501684A6846
:10215000C36A22F480321A434A6090F82410490777
:1021600006D501684A68036B22F480221A434A604C
:1021700090F82410090706D501684A68436B22F4D9
:1021800000421A434A6090F82410C90606D5016837
:102190008A68836B22F480521A438A6090F8241074
:1021A000890606D501688A68C36B22F400521A4377
:1021B0008A6090F82410490611D501684A68036CBA
:1021C00022F480121A434A60016CB1F5801F06D1D7
:1021D00001684A68436C22F4C0021A434A6090F8CE
:1021E0002410090606D501684A68806C22F4002292
:1021F00002434A607047F8B500260446C667FEF7FA
:1022000099FA0546206800686FF07E47000708D5F8
:102210002B4600224FF400112046009700F068F989
:1022200060B92068006840070AD52B4600224FF4A9
:1022300080012046009700F05BF908B10320F8BD4B
:1022400020206067A06784F870600020F8BD00005F
:102250002DE9F0410546016880682B69EC69184357
:102260006B69002723431843954A0B68954C23401C
:1022700003430B6028684168EB6821F4405119431F
:1022800041602968A869914201D02B6A18438B6884
:1022900023F4306303438B608B4B29688B4899424E
:1022A0000DD1D0F8880010F0030006D0012868D0C6
:1022B000022864D0032851D165E001244FE0844B0B
:1022C00099420BD1D0F8880010F00C0055D00428AA
:1022D00057D0082853D00C2840D154E07D4B994268
:1022E0000BD1D0F8880010F0300046D0102848D02C
:1022F000202844D0302831D145E0774B99420BD18A
:10230000D0F8880010F0C00037D0402839D080289D
:1023100035D0C02822D136E0704B99420ED1D0F88A
:10232000880010F4407028D0B0F5807F29D0B0F537
:10233000007F24D0B0F5407F10D124E091420DD130
:10234000D0F8880010F4406017D0B0F5806F18D036
:10235000B0F5006F13D0B0F5406F14D01024604B6F
:1023600000264FF40040914245D174B1022C0FD0A9
:10237000042C0FD0082C18D10FE00024EFE7022422
:10238000EDE70424EBE70824E9E7FEF70DFD03E0A1
:10239000184602E0FEF72CFDA8B36A6802EB420182
:1023A000814202D8B0EB023F01D9012775E0DFF886
:1023B00034815CB1022C0CD0042C13D0082CF4D145
:1023C00050082105401846F1000105E0FEF7ECFC3D
:1023D0000AE050084449F5E70023FDF7F1FEA0F5B7
:1023E000407156E0FEF704FD6A68010E03025008D2
:1023F00018187141F0E7E9694FF6EF7881422FD163
:10240000092CD2D200E048E0DFE804F006092005FC
:10241000230505052600C8E7FEF7C6FC01E0FEF728
:10242000D5FC4100D5F8040001EB5001B1FBF0F000
:1024300080B2A0F110014145B7D84FF6F0710140CC
:10244000C0F3420001432868C16026E0274968685C
:10245000EAE7FEF7CDFCE4E74FF480316868E3E794
:10246000092CA2D2DFE804F006091E0522050505A5
:1024700025009AE7FEF798FC01E0FEF7A7FC01466D
:10248000686801EB500100BFB1FBF0F080B2A0F131
:102490001001414589D82968C8602E6638466E66A5
:1024A000BDE8F081686803EB5001EDE7FEF7A0FCA2
:1024B000E5E7696800EB5100B0FBF1F0E6E70000EA
:1024C00000800040F369FFEF003801400010024037
:1024D0000044004000480040004C004000500040D4
:1024E0000024F400FFFC0F00000024F40048E80181
:1024F0002DE9F041984617460E460446069D08E031
:10250000681C06D0FEF716F9A0EB0800A8420BD80D
:1025100055B12068C06936EA000017D00020B842E3
:10252000EED00020BDE8F0812068016821F4D07170
:1025300001602068816821F00101816020206067CE
:10254000A067002084F870000320EBE70120E6E795
:10255000FEE70907090E002804DB00F1E02080F8FF
:102560000014704700F00F0000F1E02080F8141D07
:10257000704702E008C8121F08C1002AFAD170474C
:102580007047002001E001C1121F002AFBD17047F3
:102590008AB0FEF7DDF8FFF7D0FCFFF797F92421AA
:1025A0006846FDF748FE3E493C4808600846FDF78E
:1025B00035FF4FF000084446CDF80080CDF8048088
:1025C000CDF80880CDF80C80424669463448CDF8F5
:1025D0001080FDF796FE1022694631480394FDF7FE
:1025E00090FEFFF709FBFFF733FB00212C48FDF7B6
:1025F00064FF10212A48FDF760FF29481430FEF7D8
:102600003BFF27496FF07E43D4314FF4FA42A1F1EA
:102610008000FFF7E1F822490020D43101F5FA45A6
:102620004FF47A5701EB400211F81030527802EB68
:10263000032245F82020401CB842F3DBDFF864A0F9
:10264000194E4FF4005949465046FEF768F80028E5
:10265000F9D1002430680028FCD0002255F824303D
:1026600011460F48FDF71CFF55F8243000221021B9
:102670000B48FDF715FFC6F80080641CBC42E9DB7F
:1026800000231A4619460648FDF70AFF00231A469A
:1026900010210348FDF704FFD5E700000074004057
:1026A0001400002000080048000000200000000086
:1026B000000000000102030406070809A0860100CB
:1026C000400D0300801A060000350C0040420F0048
:1026D00080841E0000093D0000127A000024F400EE
:1026E00000366E010048E801006CDC0200000000CA
:1026F0000102030414270008000000201400000059
:10270000722500082827000814000020D47B01004F
:1027100082250008000000001000000001000000F9
:082720000000000000093D006B
:040000050800018965
:00000001FF
