:020000040800F2
:10000000684300209D010008EF1B00083918000814
:10001000ED1B00080F030008C124000800000000C9
:10002000000000000000000000000000A51E000805
:100030001103000800000000F11B0008A71E0008C3
:10004000B7010008B7010008B7010008B7010008B0
:10005000B7010008B7010008B7010008B7010008A0
:10006000B7010008B7010008B7010008B701000890
:10007000B7010008B7010008B7010008B701000880
:10008000B7010008B7010008B7010008B701000870
:10009000B7010008B7010008B701000841030008D4
:1000A000B7010008611F0008B7010008B701000888
:1000B000B7010008B7010008B7010008B701000840
:1000C000B7010008B7010008B7010008B701000830
:1000D000B7010008B7010008B7010008B701000820
:1000E00013030008B7010008B7010008B7010008B2
:1000F000B7010008B7010008B7010008B701000800
:10010000B7010008B7010008B7010008B7010008EF
:10011000B7010008B7010008B7010008B7010008DF
:10012000B7010008B7010008B7010008B7010008CF
:10013000B7010008B7010008B7010008B7010008BF
:10014000B7010008B7010008B7010008B7010008AF
:10015000B7010008B7010008B7010008B70100089F
:10016000B7010008B7010008B7010008B70100088F
:10017000B7010008B70100080000000000000000FF
:10018000B7010008B7010008DFF80CD000F07EF8D6
:1001900000480047012500086843002006488047C2
:1001A00006480047FEE7FEE7FEE7FEE7FEE7FEE75C
:1001B000FEE7FEE7FEE7FEE71D1F000889010008D5
:1001C0002DE9F05F0546002092469B46884606468C
:1001D000814640241BE0284641464746224600F01F
:1001E00044F853465A46C01A914110D31146184656
:1001F000224600F02BF82D1A67EB01084F462246E5
:100200000120002100F022F817EB00094E41201ECA
:10021000A4F10104DFDC484631462A46434600F09B
:1002200000B830BCBDE8C09FD2B201E000F8012B9D
:10023000491EFBD270470022F6E710B513460A4666
:1002400004461946FFF7F0FF204610BD202A04DBC4
:10025000203A00FA02F1002070479140C2F12003D9
:1002600020FA03F3194390407047202A04DB203A18
:1002700021FA02F00021704721FA02F3D040C2F1C6
:10028000200291400843194670470000064C074D74
:1002900006E0E06840F0010394E807009847103456
:1002A000AC42F6D3FFF774FF0826000828260008A2
:1002B00070B58D1810F8014B14F0030201D110F83D
:1002C000012B231106D110F8013B03E010F8016B5C
:1002D00001F8016B521EF9D1ABB110F8012B04F0FB
:1002E0000C048A1A0C2C03D0A2EB84129B1C08E08D
:1002F00010F8014BA2EB0422F8E712F8014B01F8C9
:10030000014B5B1EF9D5A942D4D3002070BDFEE796
:10031000704710B54FF4806000F040F94FF4006072
:1003200000F03CF94FF4005000F038F94FF48040F1
:1003300000F034F9BDE810404FF4004000F02EB951
:1003400010B5202000F02AF9402000F027F9802085
:1003500000F024F9BDE810404FF4807000F01EB9A1
:100360002DE9F0470446407900270E4601280BD0BE
:100370004FF0010984F8059002202071306802F0E6
:100380001005042803D043E00220BDE8F0874FF0B9
:10039000030802BB00F0FEF9074604E000F0FAF99A
:1003A000C01B01280FD82068406B0004F6D4012040
:1003B00000F0E0F82168B069086416E000F0EAF99E
:1003C000C01B012807D9206940F00800206184F88B
:1003D00004800320D9E72068406B0028EEDB012071
:1003E00000F0C8F82168B06948642068816C40F268
:1003F000FF32AA409143F269AA4011438164206808
:10040000C16CFF22AA409143326AAA401143C164E1
:100410003069012808D12268916B1F20A8408143D0
:100420007069A840084390632268D16B0720A840F8
:100430008143B36830681843F3681843A840084301
:10044000D063206801684FF48042AA409143016064
:100450002268116840F6FC70A84081437068A8408B
:100460000843106020680168C022AA4091430160DF
:1004700084F804900020607187E770B5040003D011
:100480002079002510B105E0012070BD657120467E
:1004900000F008F802202071256101202071002061
:1004A00070BD000010B586B0044614216846FFF701
:1004B000C2FE1149206888421BD11048816D41F06D
:1004C00000518165816D01F000510591C16C41F0D1
:1004D0000101C164C06C694600F001000590302044
:1004E000009003200190002002904FF0904000F017
:1004F00061F806B010BD000000740040001002401A
:1005000018B5046800940068104421B114300090BC
:100510000360002018BD0830F9E770B54279012A60
:1005200014D0012242710223037103681D6801F097
:10053000100602FA06F425431D60002901680B68C5
:1005400006D0C3F38343012B0AD00DE0022070BD17
:10055000C3F38303012B07D14B6843F0010302E08F
:100560004B6843F002034B60027100214171084661
:1005700070BD000070B5044600F00CF90546601C23
:1005800002D004484068044400F004F9401BA04233
:10059000FAD370BD843E002070470000044910B5B6
:1005A0000A68024202D00860FFF7F6FF10BD0000A3
:1005B000140401402DE9F84FDFF898B100234FF003
:1005C000010C4FF0030A4FF00F090BF1040EB9E0D4
:1005D0000CFA03F4224070D04D68022D01D0122D88
:1005E0000ED1DD0800EB8508D8F820505E07F70E25
:1005F00009FA07F6B5430E69BE402E43C8F82060DD
:1006000007685E0091F804800AFA06F508F003080E
:10061000AF4308FA06F848EA0708C0F800804F68B8
:10062000012F05D0022F03D0112F01D0122F13D18B
:10063000D0F80880CF6828EA0508B74047EA0807DD
:100640008760D0F804800F7928EA0408C7F3001700
:100650009F4047EA08074760D1F804806FEA08071F
:10066000BF0706D1C76AA743C8F3C0049C403C43F8
:10067000C462C468AC438D68B5402543C5604C680E
:10068000E4005ED5344C256E45F001052566246EE8
:1006900023F0030504F001040094304C2E19B468D3
:1006A0009D072F0F09FA07F5AC43B0F1904F05D025
:1006B0002B4DA84204D101251CE042E0002519E0A1
:1006C000284DA84201D1022514E0274DA84201D1AE
:1006D00003250FE0254DA84201D104250AE0244D51
:1006E000A84201D1052505E0224DA84201D10625E9
:1006F00000E00725BD402543B560DBF800405D46BE
:100700004E689443F60300D514432C60DEF8004095
:1007100075464E689443B60300D514432C600D4DC6
:1007200008352C684E689443F60200D514432C60BB
:10073000084D0C352C684E689443B60200D514431E
:100740002C605B1C0A6832FA03F57FF441AF00F0BD
:1007500013B80000000401400010024000000140F6
:100760000004004800080048000C00480010004841
:10077000001400480018004818BCBDE8E08F00696C
:10078000084000D0012070470AB181617047816242
:10079000704700000148806870470000843E0020D8
:1007A000024881684268114481607047843E00209D
:1007B00010B50024032000F071F8002000F008F8C4
:1007C00008B1012401E000F025F8204610BD00002A
:1007D00070B50E4E05460024706898B14FF47A71DA
:1007E000B1FBF0F00A490968B1FBF0F000F0F2FD4E
:1007F00040B9102D06D200222946501E00F02EF8D6
:10080000356000E00124204670BD0000843E0020D9
:10081000903E0020094808B5016E41F001010166D3
:10082000016E01F001010091816D41F080518165FF
:10083000806D00F08050009008BD00000010024064
:10084000002809DB00F01F020121914040098000CF
:1008500000F1E020C0F8001170470000F0B40E4B2A
:100860001B680C46C3F30223C3F10705042D00D90E
:100870000425191D072901D2002300E0DB1E0126F3
:1008800006FA05F1491E214099409E40761E164009
:100890003143F0BC01F015BE0CED00E0064900F05C
:1008A000070208684FF6FF03184040EA0220034A97
:1008B00010430860704700000CED00E00000FA05EE
:1008C0001649B0F5007F0868C0F3412009D002281E
:1008D00005D0086820F4C06040F480600860002003
:1008E00070470128FBD0086820F4C06040F4007015
:1008F00008600B483222006850430A4AB0FBF2F00D
:10090000401C00E0401E4A69520501D50028F9D17B
:1009100048694005E3D5032070470000007000409F
:10092000903E002040420F000248006800F4C06082
:1009300070470000007000402DE9F84F0446002782
:100940000088E54D3E46010504F1200B1DD5606E83
:1009500078B1B0F5800F11D0B0F5000F04D0B0F52C
:10096000400F22D001270FE0E86840F48030E860B3
:100970001BE00021201D01F03DF903E00021584655
:1009800001F0CEF9070010D03E462088C00426D5DD
:10099000A06EC0B1B0F1807F1AD0B0F1007F0DD051
:1009A000B0F1407F19D0012718E0D5F88800616EBA
:1009B00020F440000843C5F88800E6E7E86840F402
:1009C0008030E86009E00021201D01F013F903E008
:1009D0000021584601F0A4F90746F7B13E462068C9
:1009E00080033AD5A86D4FF00008C00009D4A86D67
:1009F00040F08050A865A86D4FF0010800F08050CD
:100A00000090DFF8D8A2DAF8001041F48071CAF83B
:100A10000010FFF7BFFE814610E0D5F88800A16EF8
:100A200020F040700843C5F88800D8E7FFF7B2FE11
:100A3000A0EB0900022801D9032705E0DAF800003D
:100A4000C005F3D5002F7CD04FEA0706B8F1000FA0
:100A500003D0A86D20F08050A8652078C00707D08B
:100A6000D5F88800A16B20F003000843C5F8880082
:100A70002078800707D5D5F88800E16B20F00C00BE
:100A80000843C5F888002078400707D5D5F88800C6
:100A9000216C20F030000843C5F88800207800075A
:100AA00007D5D5F88800616C20F0C0000843C5F870
:100AB00088002078C00607D5D5F88800A16C20F4FE
:100AC00040700843C5F888002078800607D5D5F81F
:100AD0008800E16C20F440600843C5F88800208855
:100AE000800507D5D5F88800E16D20F44020084343
:100AF000C5F888002088400507D5D5F88800216E04
:100B000020F440100843C5F888002078400607D537
:100B1000D5F88800216D20F440500843C5F88800BE
:100B20002078000607D5D5F88800616D20F4404094
:100B30000843C5F888002088C00509D5D5F8880085
:100B400000E01CE0A16D20F440300843C5F88800A7
:100B500020884FF0006780044FF080684FD5D5F8AB
:100B60008800E16E20F040600843C5F88800E06E20
:100B7000B8423CD1E86840F48010E8603FE0D5F826
:100B8000900010F4407015D0D4F88410814211D038
:100B9000D5F89000D5F8901020F4407041F48031E1
:100BA000C5F89010D5F8901021F48031C5F8901058
:100BB000C5F89000C00710D0FFF7ECFD074641F2E2
:100BC000883906E0FFF7E6FDC11B494501D9032638
:100BD0003CE7D5F890008007F4D5D5F89000D4F81C
:100BE000841020F440700843C5F890002EE740457B
:100BF00005D10121201D00F0FDFF00B1064620684F
:100C0000000317D5D5F88800216F20F04060084315
:100C1000C5F88800206FB84204D1E86840F480101D
:100C2000E86007E0404505D10121201D00F0E2FF0A
:100C300000B106462068400317D5D5F88800616FDB
:100C400020F040600843C5F88800606FB84204D1C6
:100C5000E86840F48010E86007E0404505D10121D4
:100C6000201D00F0C7FF00B10646208840041AD5B9
:100C7000D5F88800A16F20F040500843C5F88800DF
:100C8000A06FB0F1805F03D0B0F1005F05D00AE043
:100C90000221201D00F0AEFF03E00221584601F0C2
:100CA0003FF800B106462088000407D5D5F8880033
:100CB000E16F20F080400843C5F888002068C00339
:100CC00007D555F8880FD4F8801020F0004008436D
:100CD0002860304600F004B8001002400070004068
:100CE00018BCBDE8E08F00002DE9F0470F46050075
:100CF00058D0404E306800F00700B84209D2306842
:100D000020F0070038433060306800F00700B84238
:100D100048D12878384CC0072CD06868032811D0F7
:100D2000022812D0216898B1490500293ADAA16851
:100D300021F003010143A160FFF72CFD804641F241
:100D4000883910E021688901EFE721688903ECE721
:100D50008907EAE7FFF71EFDA0EB0801494502D924
:100D60000320BDE8F087A068696800F00C00B0EBD4
:100D7000810FEFD12878800705D5A068A96820F0F9
:100D8000F0000843A060306800F00700B8420BD9BB
:100D9000306820F0070038433060306800F007000A
:100DA000B84201D00120DCE72878400705D5A068CB
:100DB000E96820F4E0600843A0602878000706D5C1
:100DC000A068296920F4605040EAC100A06000F0EA
:100DD0003FF8A168094AC1F30311515C01F01F01FA
:100DE000C8400749086007480068BDE8F047FFF7BA
:100DF000EFBC00000020024000100240C0250008A7
:100E0000903E0020843E002005480649006889681D
:100E1000054AC1F30221515C01F01F01C84070472F
:100E2000903E0020001002400026000805480649B8
:100E300000688968054AC1F3C221515C01F01F01B5
:100E4000C8407047903E0020001002400026000875
:100E500070B52549002318468A68CC6812F00C0248
:100E600004F00306214C4FEA640509D00C2A05D092
:100E7000042A32D0082A00D1284670BD012E10D194
:100E80000B681B0704D4D1F89430C3F3032302E0AA
:100E90000B68C3F30313164E56F82330DAB10C2A4D
:100EA000EBD1C86800F00300022818D0032818D03E
:100EB0001846CA68CB68C2F30212C3F30623434341
:100EC000521CB3FBF2F2C868C0F34160401C400002
:100ED000B2FBF0F070BD184670BD204670BD2046D4
:100EE000E7E72846E5E70000001002400024F40090
:100EF000D02500082DE9F84304006ED0FD4DA86808
:100F000000F00C06E86800F003072078C00663D5FF
:100F100076B10C2E01D1012F0AD0A06900282868D3
:100F200078D040F001002860FFF734FC80465BE099
:100F30002868800702D5A0690028DED0216A2868C9
:100F4000000703D5286800F0F00004E0D5F894000D
:100F5000F02202EA1010814216D9084600F064FF20
:100F600000283AD1286840F0080028602868216AE3
:100F700020F0F000084328606868E16920F47F40B1
:100F800040EA0120686015E0286840F00800286009
:100F90002868216A20F0F000084328606868E16949
:100FA00020F47F4040EA01206860206A00F03CFFA6
:100FB0000028D6D1FFF74CFFA968CF4AC1F303112F
:100FC000515C01F01F01C840CC490860CC48006862
:100FD000FFF7FEFB00287DD12DE0C9E0FFF7DAFB2B
:100FE000A0EB0800022876D828688007F6D5286884
:100FF00040F0080028602868216A20F0F0000843CB
:1010000028606868E16920F47F4040EA0120686058
:1010100011E0FFE720F001002860FFF7BBFB8046EE
:1010200006E000BFFFF7B6FBA0EB08000228DAD805
:1010300028688007F6D42078C00740D0082E18D042
:101040000C2E01D1032F14D06068B0F5803F17D06B
:10105000B0F5A02F286817D020F4803028602868C9
:1010600020F4802028606068E0B1FFF793FB8046A1
:1010700014E02868800322D56068002878D01EE03C
:10108000286840F48030EDE740F480202860F7E7DE
:10109000FFF780FBA0EB08006428A4D82868800331
:1010A000F6D50CE0FFF776FB804605E0FFF772FB14
:1010B000A0EB0800642896D828688003F6D420782E
:1010C00080073BD5042E11D00C2E01D1022F0DD05C
:1010D000E06801E03EE19FE0002828681ED040F46F
:1010E00080702860FFF756FB07460CE02868400533
:1010F0000CD5E0680028C1D008E000BFFFF74AFB2C
:10110000C01B022893D828684005F7D56868217C61
:1011100020F0F85040EA016068600FE020F4807031
:101120002860FFF737FB074605E000BFFFF732FBFB
:10113000C01B022870D828684005F7D42078000723
:1011400029D560690028D5F8940012D040F001003C
:10115000C5F89400FFF71EFB074604E0FFF71AFBF3
:10116000C01B022858D8D5F894008007F6D512E0A5
:1011700029E120F00100C5F89400FFF70BFB0746BA
:1011800005E000BFFFF706FBC01B022844D8D5F8D6
:1011900094008007F6D42078400768D5A86D002712
:1011A000C00008D4A86D40F08050A865A86D012744
:1011B00000F08050009053480168C90512D40168BE
:1011C000814641F480710160FFF7E4FA804605E052
:1011D000FFF7E0FAA0EB080002281DD8D9F80000BC
:1011E000C005F5D5A068012817D00528D5F89000CE
:1011F00018D020F00100C5F89000D5F8900020F03C
:10120000040000BFC5F89000A06841F28839D0B151
:10121000FFF7C0FA804611E06BE0D5F8900040F08F
:101220000100EFE740F00400C5F89000F5E700BFCB
:10123000FFF7B0FAA0EB080149455AD8D5F890005D
:101240008007F5D50EE0FFF7A5FA804606E000BF5F
:10125000FFF7A0FAA0EB080149457AD8D5F890002D
:101260008007F5D41FB1A86D20F08050A865A06A52
:10127000F0B30C2E75D00228286820F0807028600A
:1012800004D0286810F0205F51D054E0FFF782FAB4
:10129000064604E0FFF77EFA801B022859D828682A
:1012A0008001F7D4D4E90B016FF00F0202EB0111BA
:1012B0000843A18F5204490802EB4151626B41EA95
:1012C0000221084394F840104FF07E42490802EB97
:1012D00041610843A16B090940EA4140E9680A4AB3
:1012E00011400843E860286840F0807028600DE0F5
:1012F0006BE02EE000100240C0250008903E002068
:10130000843E0020007000408C809DF9E86840F029
:101310008070E860FFF73EFA044604E0FFF73AFA0F
:10132000001B022815D828688001F7D54DE0E86831
:1013300020F00300E860E86825490840E860FFF70E
:1013400029FA044609E000BFFFF724FA001B02282F
:1013500003D90320BDE8F88303E028688001F3D4B3
:1013600033E00128F6D0E868E26A00F00301914218
:1013700029D1216B00F0700209011039914222D16C
:10138000626B00F4FE41B1EB022F1CD1A26B00F4A2
:101390000031072A01D0012200E00022914212D13F
:1013A000A18F00F4C00249084905A1F5001191423E
:1013B00009D194F8401000F0C06049084906A1F135
:1013C0000071814201D00120C4E70020C2E7000083
:1013D000FFFFEEFE10B5401EB0F1807F01D301206B
:1013E00010BD4FF0E02460610F21601701F069F833
:1013F0000020A06107202061002010BD70477047C9
:101400007047000070B590F83C20012A24D00124D8
:1014100080F83C40022280F83D20026853689568BD
:101420000E4EB24202D00E4EB24203D123F47006E9
:101430004B68334323F070060B688968334325F00B
:101440008005294353600268916080F83D40002187
:1014500080F83C10084670BD022070BD002C014091
:101460000034014010B5040003D094F83D0010B1E1
:1014700007E0012010BD002084F83C00204600F069
:101480000DF8022084F83D00211D206800F072FD57
:10149000012084F83D00002010BD000008B5006860
:1014A0000B49884212D10B48016E41F4006101667C
:1014B000006E002200F40060009011461920FFF732
:1014C000CDF9BDE808401920FFF7BAB908BD000002
:1014D000002C0140001002400168CA6842F001027D
:1014E000CA6001688868064A1040062806D0B0F530
:1014F000803F03D0086840F001000860002070477A
:101500000700010070B5044690F83C00012817D090
:10151000012584F83C50022084F83D002268906840
:101520002E4B184020F47F4090600868502830D03F
:101530000DDC20284DD005DC98B310283BD148E0C5
:10154000022070BD302844D0402834D139E06028D2
:1015500028D0702806D0B0F5805F2CD0B0F5005FA1
:1015600029D10AE0CB68D1E90121206800F062FDB1
:101570002068816841F0770109E0CB68D1E9012159
:10158000206800F057FD2068816841F48041816047
:1015900011E0CA684968206800F05EFD50212068AB
:1015A00007E016E0CA684968206800F066FD60211F
:1015B000206800F049FD84F83D50002084F83C008C
:1015C00070BDCA684968206800F046FD4021206867
:1015D000EFE7226801461046EBE7000088FFFEFFB8
:1015E000704770B50446006801694FF00005C943B3
:1015F000890715D4C168C943890711D4E91E01615F
:1016000001202077206880698007204602D0FFF7FC
:10161000E7FF04E000F0A7F8204600F0A5F82577E2
:1016200020680169C943490717D4C168C9434907FC
:1016300013D46FF0040101610220207720688069D3
:1016400010F4407F204602D0FFF7CAFF04E000F00C
:101650008AF8204600F088F8257720680169C94398
:10166000090716D4C168C943090712D46FF00801ED
:101670000161042020772068C0698007204602D0DD
:10168000FFF7AEFF04E000F06EF8204600F06CF8C3
:10169000257720680169C943C90617D4C168C943C1
:1016A000C90613D46FF0100101610820207720686B
:1016B000C06910F4407F204602D0FFF791FF04E09C
:1016C00000F051F8204600F04FF8257720680169B6
:1016D000C943C90708D1C168C943C90704D1891ED4
:1016E0000161204600F041F820680169C9430906FC
:1016F00009D4C168C943090605D46FF080010161AE
:101700002046FFF77CFE20680169C943C90509D45A
:10171000C168C943090605D46FF480710161204690
:10172000FFF76CFE20680169C943490609D4C16806
:10173000C943490605D46FF040010161204600F01D
:1017400015F820680169C94389060BD4C168C943EB
:10175000890607D46FF0200101612046BDE8704082
:10176000FFF74EBE70BD704770477047704710B5A9
:10177000040002D0606F10B107E0012010BD00200E
:1017800084F87000204600F025F824206067206867
:10179000016821F001010160204600F011FD0128DF
:1017A000ECD0606A10B1204600F079FC20684168F6
:1017B00021F4904141602068816821F02A01816014
:1017C0002068016841F0010101602046BDE8104039
:1017D00000F0C9BC10B586B0044614216846FEF777
:1017E0002AFD1249206888421ED11148016E41F439
:1017F00080410166016E01F480410591C16C41F0A8
:101800000201C164C06C694600F002000590C0206E
:1018100000900220019000200290032003900720F6
:1018200004900448FEF7C6FE06B010BD0038014023
:101830000010024000040048FEE700002DE9F04FD0
:1018400087B014216846FEF7F6FCBF48C16C41F032
:101850001001C164C16C01F010010591C16C41F02F
:101860000401C164C16C01F004010591C16C41F037
:101870000101C164C16C01F001010591C16C41F02D
:101880000201C164C16C01F002010591C16C41F01B
:101890000801C164C06C002200F00800059040F20D
:1018A0001511AA48FEF770FF002248F204114FF00C
:1018B0009040FEF769FF00224FF23401A448FEF782
:1018C00063FF43F2810A00225146A248FEF75CFF03
:1018D00000224FF41071A048FEF756FF40F2151099
:1018E000009001200024CDE9010469469748039443
:1018F000FEF760FE6A2000909848CDE90104694631
:101900009248FEF757FE4FF4065000909348CDE9F9
:10191000010469469048FEF74DFE3F200B26CDE9B5
:101920000006694602948C48FEF744FE03200090AE
:101930000220CDE9010403200825CDE9030569460D
:101940004FF09040FEF736FE48F204100090012060
:10195000CDE9010469464FF090400394FEF72AFE5A
:1019600002200095CDE901040120CDE9034069463C
:101970004FF09040FEF71EFE102000900320CDE9AE
:10198000010469464FF09040FEF714FEC02000901D
:101990000220CDE9010403200525CDE903056946B0
:1019A0004FF09040FEF706FE012000906B48CDE915
:1019B000010469466648FEF7FDFD0220CDE90006F8
:1019C000694602946248FEF7F5FD4FF2340000903C
:1019D0000120CDE9010469465D480394FEF7EAFD64
:1019E000E80100900220CDE901040626CDE9034676
:1019F00069465648FEF7DEFD4FF47C400090022019
:101A0000CDE9010403200A27CDE9030769464F48C1
:101A1000FEF7D0FD70024FF01208CDE9000801205A
:101A2000029003204FF00409CDE9030969464848B4
:101A3000FEF7C0FD4FF4407B0220CDF800B0CDE9A9
:101A40000104032003900720049069464148FEF7F3
:101A5000B1FD4CF6044000904048CDE901046946D0
:101A60003C48FEF7A7FD0120CDF800A0CDE9010418
:101A7000694638480394FEF79DFD4FF410700090BE
:101A80000120CDE90104694633480394FEF792FD35
:101A90004FF40070CDE9000469464FF09040029485
:101AA000FEF788FD4FF4E05A0220CDF800A0CDE902
:101AB00001040320CDE9030769464FF09040FEF78B
:101AC00079FD0220CDF800A0CDE901040320CDE985
:101AD000030669462048FEF76DFD02200090CDE91F
:101AE00001040320CDE9030569461A48FEF762FDAB
:101AF000782000900220CDE9010403200390072004
:101B0000049069461348FEF755FD0120CDF800B05A
:101B1000CDE901800320CDE9030969460C48FEF7B1
:101B200049FD002211461720FEF798FE1720FEF708
:101B300087FE002211462820FEF790FE2820FEF79F
:101B40007FFE07B000F00CB8001002400010004803
:101B500000040048000C0048000800480000111074
:101B600030BCBDE8C08F000010B588B00024134819
:101B70000594069403940494009401940E490294ED
:101B8000C0E9001442F21071C0E9024104614461ED
:101B90008461FFF767FC4FF48050039003A9074866
:101BA000FFF7B0FC00940194694604480294FFF7E3
:101BB00029FC08B010BD0000002C0140A83E002008
:101BC0000948084901604FF4E1314160002181601A
:101BD0000C22C160C0E904128161C16101624162ED
:101BE000FFF7C5BD00380140E83E0020FEE7704722
:101BF000704700002DE9F041444C05468846E068F6
:101C00000026810728680DD0E16801F003018142B8
:101C100016D1A8B1E0686968C0F30210401C884280
:101C20000ED120E0012804D0022805D0032807D1D6
:101C300008E02168890701E021684905002907DBE0
:101C400001265FE02168890302D421684903F5E792
:101C5000E1686A686FF00F0321F0730103EB021271
:101C600011430143E160206820F080602060FEF7AE
:101C700091FD074605E000BFFEF78CFDC01B022862
:101C800037D820680001F7D4B8F1000F18D0B8F1A8
:101C9000010F1ED0287D4FF07E41400801EB4060CF
:101CA000A96840EA01202169194A114008432061CE
:101CB000206840F080602060FEF76CFD07461AE067
:101CC000A868E9680002090940EA41402169114A0F
:101CD000EBE7288A1049400801EB4050A96840EA28
:101CE000012021690D4AE0E7FEF754FDC01B0228E0
:101CF00001D9032606E020680001F5D52069A9690D
:101D0000084320613046BDE8F08100000010024029
:101D1000FF80FFF9FF80FDFF0000E0FFFF809FFFD5
:101D20002DE9F0413D4C06468846E06800258107D4
:101D300030680DD0E16801F00301814216D1A8B1ED
:101D4000E0687168C0F30210401C88420ED120E0A8
:101D5000012804D0022805D0032807D108E0216813
:101D6000890701E021684905002907DB012551E0C9
:101D70002168890302D421684903F5E7E1687268A4
:101D80006FF00F0321F0730103EB021211430143C3
:101D9000E160206820F080502060FEF7FBFC0746E1
:101DA00005E000BFFEF7F6FCC01B022829D820681A
:101DB0008000F7D4B8F1000F15D0307C4FF07E4191
:101DC000400801EB4060B16840EA01206169144AB3
:101DD000114008436061206840F080502060FEF7A9
:101DE000D9FC07460FE0B068F1680002090940EA33
:101DF000414061690B4AEBE7FEF7CCFCC01B0228AF
:101E000001D9032506E020688000F5D56069716975
:101E1000084360612846BDE8F081000000100240E0
:101E2000FF80FFF9FF80FDFFF8B51C4D064600243A
:101E3000A86DC00002D5FEF777FD0DE0A86D40F05B
:101E40008050A865A86D00F080500090FEF76CFDF2
:101E5000A96D21F08051A965B0F5007F04D0802ED6
:101E600007D94FF003040AE0802E08D9A02E01D82C
:101E700004E001D1022402E0702E00D101240848C0
:101E8000016821F0070121430160006800F00700AC
:101E9000A04201D00120F8BD0020F8BD0010024092
:101EA000002002407047FEF77BBC30B5B9B044213A
:101EB00022A8FEF7C0F9142133A8FEF7BCF9882147
:101EC0006846FEF7B8F910200125229000242895D5
:101ED0006020CDE9294002202821CDE92C05CDE95B
:101EE0002E510721CDE93010329022A8FFF702F8D9
:101EF0000F2033900320CDE934043694042133A815
:101F00003794FEF7F1FE684600950E94FEF714FD37
:101F10006802FEF7D5FC39B030BD00000D480168FD
:101F200041F4700101600C48016841F00101016059
:101F3000002181600268094B1A4002608214C2606D
:101F4000026822F48022026081610249C003803964
:101F50000860704788ED00E000100240FFFFF6EADD
:101F60000249012008600248FFF73BBB0000002047
:101F7000A83E00202DE9F0470268264B264D274E4B
:101F8000274F284C4FF0804A984209D0504507D03F
:101F9000A84205D0B04203D0B84201D0A04204D13B
:101FA00022F0700C4A6842EA0C02DFF87CC0DFF8CD
:101FB0007C80DFF87C9098420FD050450DD0A8422D
:101FC0000BD0B04209D0B84207D0A04205D060453E
:101FD00003D0404501D0484503D122F44075CA687A
:101FE0002A434D6922F080022A4302608A68C26255
:101FF0000A688262984207D0A04205D0604503D0AB
:10200000404501D0484501D1096901630121416181
:10201000BDE8F087002C01400004004000080040AB
:10202000000C0040003401400040014000440140E9
:102030000048014010B5846842EA032224F47F443A
:102040000A432243826010BD826822F070020A4374
:1020500042F007018160704710B5036A046A24F0FA
:1020600001040462846924F0F00444EA021423F0B9
:102070000A020A438461026210BD10B5036A23F0AC
:10208000100303628369046A23F4704343EA023253
:1020900024F0A00343EA01118261016210BD90F8AF
:1020A0002410C90706D001684A68836A22F4003206
:1020B0001A434A6090F82410890706D501684A68D7
:1020C000C36A22F480321A434A6090F82410490708
:1020D00006D501684A68036B22F480221A434A60DD
:1020E00090F82410090706D501684A68436B22F46A
:1020F00000421A434A6090F82410C90606D50168C8
:102100008A68836B22F480521A438A6090F8241004
:10211000890606D501688A68C36B22F400521A4307
:102120008A6090F82410490611D501684A68036C4A
:1021300022F480121A434A60016CB1F5801F06D167
:1021400001684A68436C22F4C0021A434A6090F85E
:102150002410090606D501684A68806C22F4002222
:1021600002434A607047F8B500260446C667FEF78A
:1021700011FB0546206800686FF07E47000708D510
:102180002B4600224FF400112046009700F068F91A
:1021900060B92068006840070AD52B4600224FF43A
:1021A00080012046009700F05BF908B10320F8BDDC
:1021B00020206067A06784F870600020F8BD0000F0
:1021C0002DE9F0410546016880682B69EC691843E8
:1021D0006B69002723431843954A0B68954C2340AD
:1021E00003430B6028684168EB6821F440511943B0
:1021F00041602968A869914201D02B6A18438B6815
:1022000023F4306303438B608B4B29688B489942DE
:102210000DD1D0F8880010F0030006D0012868D056
:10222000022864D0032851D165E001244FE0844B9B
:1022300099420BD1D0F8880010F00C0055D004283A
:1022400057D0082853D00C2840D154E07D4B9942F8
:102250000BD1D0F8880010F0300046D0102848D0BC
:10226000202844D0302831D145E0774B99420BD11A
:10227000D0F8880010F0C00037D0402839D080282E
:1022800035D0C02822D136E0704B99420ED1D0F81B
:10229000880010F4407028D0B0F5807F29D0B0F5C8
:1022A000007F24D0B0F5407F10D124E091420DD1C1
:1022B000D0F8880010F4406017D0B0F5806F18D0C7
:1022C000B0F5006F13D0B0F5406F14D01024604B00
:1022D00000264FF40040914245D174B1022C0FD03A
:1022E000042C0FD0082C18D10FE00024EFE70224B3
:1022F000EDE70424EBE70824E9E7FEF785FD03E0BA
:10230000184602E0FEF7A4FDA8B36A6802EB42019A
:10231000814202D8B0EB023F01D9012775E0DFF816
:1023200034815CB1022C0CD0042C13D0082CF4D1D5
:1023300050082105401846F1000105E0FEF764FD54
:102340000AE050084449F5E70023FDF739FFA0F5FE
:10235000407156E0FEF77CFD6A68010E03025008EA
:1023600018187141F0E7E9694FF6EF7881422FD1F3
:10237000092CD2D200E048E0DFE804F0060920058D
:10238000230505052600C8E7FEF73EFD01E0FEF740
:102390004DFD4100D5F8040001EB5001B1FBF0F018
:1023A00080B2A0F110014145B7D84FF6F07101405D
:1023B000C0F3420001432868C16026E027496868ED
:1023C000EAE7FEF745FDE4E74FF480316868E3E7AC
:1023D000092CA2D2DFE804F006091E052205050536
:1023E00025009AE7FEF710FD01E0FEF71FFD01460C
:1023F000686801EB500100BFB1FBF0F080B2A0F1C2
:102400001001414589D82968C8602E6638466E6635
:10241000BDE8F081686803EB5001EDE7FEF718FDB9
:10242000E5E7696800EB5100B0FBF1F0E6E700007A
:1024300000800040F369FFEF0038014000100240C7
:102440000044004000480040004C00400050004064
:102450000024F400FFFC0F00000024F40048E80111
:102460002DE9F041984617460E460446069D08E0C1
:10247000681C06D0FEF78EF9A0EB0800A8420BD826
:1024800055B12068C06936EA000017D00020B84274
:10249000EED00020BDE8F0812068016821F4D07101
:1024A00001602068816821F001018160202060675F
:1024B000A067002084F870000320EBE70120E6E726
:1024C000FEE70907090E002804DB00F1E02080F890
:1024D0000014704700F00F0000F1E02080F8141D98
:1024E000704702E008C8121F08C1002AFAD17047DD
:1024F0007047002001E001C1121F002AFBD1704784
:102500008AB0FEF755F9FFF7D0FCFFF797F92421C1
:102510006846FDF790FE2749254808600846FDF704
:10252000ACFF002500950195029503952A46694662
:1025300020480495FDF714FF102269461D480395B5
:10254000FDF70EFFFFF710FBFFF73AFB00211948DC
:10255000FDF7E3FF10211748FDF7DFFF15481430A2
:10256000FEF7BAFF154EDFF850A04FF40059371DA3
:102570004FF4FA5849465046FEF701F90028F9D1C0
:10258000002430680028FCD0002237F814301146AF
:102590000848FDF7B5FF37F8143000221021054830
:1025A000FDF7AEFF3560641C4445EADBE2E700005E
:1025B00000740040943E0020000800480000002005
:1025C00000000000000000000102030406070809E3
:1025D000A0860100400D0300801A060000350C00A3
:1025E00040420F0080841E0000093D0000127A0066
:1025F0000024F40000366E010048E801006CDC02A3
:10260000000000000102030428260008000000204A
:10261000943E0000B0020008C43D0008943E002033
:10262000D4040000F224000822000102FF08020185
:102630006B023012D0079007A007B007C007E00771
:1026400010081008200210040008F0101004E00721
:10265000F01432301410084008600870089004210B
:102660001E1220161230141220282102214A213075
:1026700032D04A12D00232C00283E0076A21202100
:102680003A522052214232101832B01A411021829F
:1026900012406A3260682158215E32F05421B02124
:1026A000A2413412C0041006900780076002127025
:1026B000C432D0AE124002219C10043008504612A1
:1026C0005050419443F0077821603230CC52608002
:1026D000850A21BA21F4920018250816B0223290FA
:1026E0000241AA214212406032506C21DA21EC21D1
:1026F0007E21741680261280623250D072F05241D0
:10270000EC615C52F06C4566253A21022508457A59
:10271000412A2578564090612085425240D2657EFC
:1027200041BC85DC455E41D8859461E465C641C6FF
:1027300025CA255216C06E45EC21C232600641E61C
:102740004182C51E2162613852D0CC41C0290A6540
:102750002E52404636102A61445A3046690C259C58
:102760004516410281A823000862BAD04E45504167
:102770003C10048008A0023680EE9A00928506651F
:10278000401AC028650E4598257C4518211C295003
:1027900056A0CE49E6493225EC49FE25F42D10031A
:1027A00056501A7250BA214892B002451692B0BAE9
:1027B0006D2A034D660352100272200649EC25D89B
:1027C00065D645E4252E5640A88136457A41AA2192
:1027D0007C1A80A085EA92D0727E10120325D05A0E
:1027E000709A654672F0B076D07E76D0A84DA4037C
:1027F00041047240EA4DAE0369E269185E00B40319
:102800008D46044D7A036DDC03AD78042DBC034185
:10281000B056F09645726D82045E40C0034D680369
:102820002DB2035E6038048D5204213A2DBE04BAE5
:10283000D0262DEA035A20341EA01804CD140376A6
:10284000F0F65ED09603416C3E60CE0449AA6D124C
:1028500003AD440345C24D4E032DE404615E72B0E6
:102860007E5620625E50A20449E64D2C049A409A9E
:10287000892821FC7230324D1C05AD800561727EC5
:10288000D058036D060549B66D8C04499E2DA005F0
:1028900072704C858649366D36051E702E05528045
:1028A000C27EC07C045AB0F64908616E3AA0544D0D
:1028B000F8041E006203140E5009100A800A500A20
:1028C000D009000940C21004500730021670C21E21
:1028D00050F6041280E66D4605215212801E100447
:1028E0001007202649A42DC40512A08012501612EC
:1028F000001A3E40BA05124022210E214A12300E23
:1029000015A41C0E09C009F00A500B000B900A8098
:10291000094E05300907D006800690061068255E2E
:1029200012803E12C0121200641DAC061309600230
:102930001EF008042DCC067EC0B4064DD40421F24E
:1029400012307012D0421250021C068006D00620AF
:10295000300622706C11161C05C0064007AE051C1F
:102960000E09700A900B600B100B300A0009E2048C
:102970001007077006600670622522214A329032E5
:1029800016501610042008E0303C0620091009609B
:102990003E0725047E503805250412B0D8113A139D
:1029A00006B0B821721404E006304A3280FA12F000
:1029B000801F5007AE04100509A00AC072120072F1
:1029C0002EC02803130610021260E62DAE03254E1A
:1029D000259C25482DE0041004E00870721EC0CE2E
:1029E000061250CC1290B61E30F2031E506A061E1C
:1029F000902A0716001210043007B0B21230443685
:102A0000401A455E21FA32E0542640BC130BB0E276
:102A10001004800AF070300CB0060006E005600675
:102A2000F006006E32B0462D4E071DA60537081081
:102A3000521640401210401600C616E02623F00839
:102A4000841A504812601216D020100460062074B8
:102A5000255416401E416E16F0601A002C140630E4
:102A60000A600BF0C61004400AE05A119411721665
:102A7000A00A1200B42DB60516F0BE217C20050078
:102A800009B009DE1DF20711DA1260243A706E12E5
:102A900030F21EF076052DDC0445AE1280DC1220EB
:102AA000721690C22998255016B0D816B00E101282
:102AB000B008200AF00A000CB00B600A3009900739
:102AC000606E16207A29D82DA6042D1E051EA06E34
:102AD0000318065009E00940C21A60582006900603
:102AE000D00540DE11D829443EE0CE074D640321D5
:102AF0009E16C0241004C005C0241AE02641F4121A
:102B0000A0C41A005614044009D050340A200C7096
:102B10000BB0093008B0BC23F0066C1EC06203166F
:102B2000F0FA1A302A1670E61804600AC0C61C09AA
:102B3000A006B00580052006EC081308B0F2257049
:102B40002954294E255632C06E1004A005305E2D42
:102B5000C8051650D0110C155E45341C0D80093087
:102B60000B700BA00B200B7009CE0319485E905E12
:102B70000612E07A1804C00660541C06C009600AF8
:102B8000B034031D540A1806070006F005DE2E07B0
:102B90008C082D2A052DBC081DBC091309A0E82EA0
:102BA000801C05115A15002D560319A81A903621BC
:102BB0004625EA1230C01D92051C0B08800AB00B96
:102BC000C00B300B9010031ED00E032F5007C2070E
:102BD0001546153612203811C81B0A004E14043051
:102BE00009709A1250FE1A408E2D18041AE0E41D46
:102BF0008E06119017F009C61D4E0325A43E101233
:102C0000041A80E816001E2D00042D100332C01A8D
:102C10001D5A08100508A00AD0E21A802E2D7A0449
:102C20001D400419021D0A0A1C060600051005882D
:102C300003130810DC3004E009504E1DD80541D8BC
:102C400011E622E0E81C0508500A20BA0319A61D67
:102C500066043E30AA073C0A4007D0055005F0053F
:102C600030F8071A505C2D1C037E10D40616405213
:102C70001808B00B500B100A908C2E60FC072DC466
:102C8000042408079005000580064E47300AA82E48
:102C900070D8081D22031DEC0315A21FA0067C0599
:102CA0001D32043EE0320332B00C4BC008722D32AC
:102CB000042D28043EA05E035E80F8032DEA041D67
:102CC000E8061F0810100315C63E09F4061D64032C
:102CD00012F05C180750061005E0043A26094A1E57
:102CE000300203194E29A41A096419101D60031338
:102CF00008D00E1D4E0519CE16B0541FB009F403AE
:102D0000158615741DAC031DF8073C07067005B049
:102D10000510A80A2D1C0411A0191C1DBE09297C30
:102D20001C070BE00A000AD026043A50E01ED0D857
:102D3000041FF00508051D30031A10482D720516F2
:102D4000F0EA1DD20512084819302DBE0A2D0005E3
:102D500025B01DE60815C01DA20621C43D92041D24
:102D600008031D600419021D1A053EC000041D5809
:102D7000051D2A063A90341AD0121E80B60525F495
:102D80001D3E04130A307A1D02062D7A053D5E0CA5
:102D90001670EE26D03E155A1574110C1404A008B6
:102DA00070D4157E2DCE052F08D0CA091DE8032D3D
:102DB00084041EA0DC042DA6041A704C3E600E0391
:102DC0001E10D00329581EA086051EF000051DD830
:102DD0000B113E1E40600416C0CE3F300930061174
:102DE000561DDE051308C0EA1E3086035D06052D5C
:102DF000940B2D20051607062D6E052D9E031D9C98
:102E0000031D08031D10061DE6061D3C062DE005EA
:102E10002D9E064F20071E061D3A0419982D380CCA
:102E20002D6A043E00380911962DFA0321DC3F0972
:102E3000D0600C1C043009D0BC041188191E36E087
:102E40003A4D2E062DD40C1EF030032DE4033260D3
:102E50000C3EA0F6063E80AE092D66094DE4057EC7
:102E6000405E092D6E0721785EB07A076DD6086D39
:102E7000FE078D500B4DE20A4DD4092D960D2D7095
:102E80000C4DFE072D780C5E40FA0C6D400D2D5652
:102E90000B7EE0740B4DAA0C2DA00B4DEE0ABEB0BC
:102EA000F607CD1A0E6DDA0D6D8E0C6D56088D324B
:102EB0000C9E20800C8D2E0D6DBA0C6DDE0A9E309E
:102EC000B60A6D8C0BCDC60B6D2E098DC60C7EF02F
:102ED000000C8D600E9E10B40A8D4E09EDEC0B8136
:102EE000668132E10C61DEB2E00261668DB6096D89
:102EF000A20C6D680DFE10480AE16C6DEE0D8DC6DA
:102F00000D610E0D2A940F921062C10AEDD60C01CC
:102F10002A54E132E15602111024011E520A1320F4
:102F2000000617E09ABE20FA0C06111054F2E002D7
:102F3000D2F002011A9001125A897A0217107AA966
:102F40004EB6F0C28DD00EDAD02A6D620B4DE00B7A
:102F500061029230E40110604D8E0F8D820EE1E22D
:102F60000518F0ADD20B8D300FC994DE1024030A82
:102F70001F10662D520A7EC0F00E4DE00C2D340D50
:102F80002D22041E10E40B6D3C112D44042DFA0A71
:102F90002D080C1ED0020B4DC6042DC4094D0E1277
:102FA0006DEC037E60B80E4D76044DC410DAC06837
:102FB0002D20058DDC1112D05E4D72098DE0114D72
:102FC0005C042D520B5E00000F6D5E0E2DB00E3EA8
:102FD0003048116DA0042D4E0541A061CA6D4E040C
:102FE00021AA41E82D9205615A4D080521BC6D7258
:102FF0000F410A4D50104D900F8DFC0D5210985EF0
:10300000D00A0521084D4E125E009C0F8D340472CB
:1030100000AEA1B08D48124DE40F21AC2D581336EF
:1030200020426D280E61B209109A56207C5EA008DD
:103030001347B007522D200C7EC0501232507C5ED8
:1030400020940F6D4A131DD80E1D88094D56121D70
:10305000680E3D9C063EC00A132D04061E60D00675
:1030600025662DE20732A0184D380F2DF00C1D04F7
:10307000075D820C5630482DD80C21863690762D6F
:1030800056072D5E0D4D320B21801D100E31882DFF
:10309000680A45F83680E01D1C071DFC072D700BE3
:1030A0002D440C2D900F3D800A2D2E083D58071DF4
:1030B000C60C313A418021203210324D3A132DB4E2
:1030C00006BE40F60F4D72106DA80B2DDC092D0ABF
:1030D0001021326D40134D4A10658C4D6C112162E8
:1030E000214A65A41ED04C0E2DFC102D500E2D8EA5
:1030F000075A202E2DB80721E63D1E031D4C0A4914
:10310000AC4D00132D9A0D218E45725240704D1614
:10311000132DDC0E4DF0104D8E1125DE2D3A0E6D67
:103120000E039600944DCE112DA4145E704A144DDA
:10313000E8134D50044D26102D8A112DD00E2D7CF4
:10314000142D94122DA0082D8C0F3E70BE0F4DB47F
:10315000154DCC126D700F41AE1EB08A081ED0D036
:103160000E1C044009509A081260061E60AE0F1E25
:1031700000C8091D660E1D26134DB6124DE8035EEC
:10318000507E0F21021D080E1D9C0E1EF0640A2D9C
:10319000C20D2D1A0F3EF01C0C1E009A0F2D140CA0
:1031A000212C2DAE0F2D460C1DF6081D3E091C08C6
:1031B000400AA009000AF0AE0F1E00E20C1DAC0B85
:1031C00011645E707A0821C82DC6083E90160E2D37
:1031D000440E41602DE80F7220504D340E522012E3
:1031E00081022DBC0E1E50120C2D82041EE00E100A
:1031F0001240621290081D520E2D0A0B1D7E104DBA
:10320000F013253E25702D120A2D6809413C41A876
:103210002DE8103630325E6026162D7A105260028C
:10322000212612507A2D860C2DF2092D960D2D98FF
:103230000E2D0C0C1E90900E117A116C1E30A80DE4
:1032400011181DE0091D0E0C7DFE125E90DE103679
:103250008092415E2DDA0C5E502210216821082DEB
:1032600096162DBA0A2176211E410241DC3E60707D
:103270000F16D0A41D880B1DB80C1ED02A0D3C04BF
:10328000F008F0E40F1EF02C031DF00F5DFE044D5E
:1032900046155E80EA1252C00A2DF4165E90421165
:1032A000615661E025007230E6218A1DE40B154E5F
:1032B0002D940F1680A216E0401270701D240B1D75
:1032C000C41011681DAE0B1DC00C1D820A7E702635
:1032D0001521685AA06A5EB09A0A41F24D14122D67
:1032E0006C144DC21352B01A2D5612218C41EA2E85
:1032F000207A132DE4161F08A02A121E90DE0F1E3E
:1033000030801012D0F21D6A111D3E0B1D44101D9D
:1033100066103600062D70032DCC0469EC5A90EE31
:103320005660604D96154D2E142D9E1541725670A7
:103330005E65F62D8A121DDA123E0864041DCE0C5D
:103340003F6009600D1D120C2EB00C031D000D1DF9
:103350009E122D0A032DDE103D50154D540521EC13
:103360005E70E01745D261745670724DE4134D7073
:103370000321F62500456C4560158C1DBE0B1D888C
:103380001111761E506A031E10C0121AA0B81E40FA
:10339000A80D2D640C3E402E133EF0F6032D4C0577
:1033A0002D500E4D0813694221D62D58052DA0161B
:1033B0005E9020084DDC03851445EA21EA2D541364
:1033C0002DB60F1DD8122DAE0415C01D5A0D2D9807
:1033D0001115D61D0A0D15661EE0FC0D1D84182D55
:1033E000960E31785E80A8063270EC21DE2DEC0C52
:1033F0007660524D0C0C5EA0D4144DE2142D62196F
:103400004DF8185A80D45E302C032E2008042D3637
:10341000081D420E29541ED010041E901204295873
:103420002D7A041DD40D3E090C0D19584D14142D80
:103430005E0F2D14133E4002104D48135EA0CA04C7
:103440007EA07E1A6DCA166D100C45064DE8112D32
:103450006A142DAE031E003E143D3C1625CC1D7E85
:103460000D1DB21119D41ED0AC0F3600022EB0E0E3
:10347000113D30132D8C082DC01252E0EC41784DD7
:10348000980352807C4D9C1772D076ADAE074D0EDE
:103490001929FA5A605E2D28044E8010063D2A1222
:1034A00021E62D60051AF0D62D74051620EC1E308D
:1034B0009A043E8056093E80B80732D07E6D94044F
:1034C0002D28144D2E042DBE1A6D7E0D4D76174DF0
:1034D0006E176D7A0A41FE4D62037E603C0429320C
:1034E0002DC8061DEC14196C2D840E1EE08A0E2DBD
:1034F000BE142EB07A091D421335821D00064D56AA
:10350000162DC4155290C45E7032032D381B4D2CFD
:103510001B29D84D66194DF0125EE0E6079E208CFF
:103520000B49044DE0035E605E052D02151D840904
:103530002D3E102D38131D0E062D72061D2A101D4E
:10354000D4031EF0021215923D8E192D0E0A2D86FF
:103550001729DC4D80052DB6035E506A0345F865DA
:10356000FC6D60174DD41A7E5084176D3817A58AEC
:103570004DAC0649AE3EF03E0A3DB8131D74031231
:10358000C07C15202D82031DA20F1DE00411021224
:10359000908C5A70522DE81C4D341C2DB6162D9867
:1035A000114DE6047E80C21A4DEC096D72184DA4CF
:1035B000072DB00A4DD41A5EB0FA034DB4062DC6DD
:1035C000162DBA162D18091DA6091DD6113AB004DC
:1035D000217A1D4006310A2DFC032D8A043F000983
:1035E0004012159C4DDE032D62042D58032DCE157F
:1035F0004D22074DCE0445A62D8A1A4DC20829C476
:103600007E308A1B7E402A184D6C1A5A809C5E20A0
:10361000C6072D6E122E505C09118E1D9417199C31
:103620001EC03816251029983610182D0608214A74
:103630006D1C032DDC115E105804210229A62DA05B
:103640000349382D980329AC4DF41D2D94111DDA32
:103650000415584D12075EB04E1A492E4DA2102D7A
:10366000E21741D24DE6172D98122D06112D6A064C
:1036700012C00615A41D2C033A0024259E21922D6C
:1036800038145E60A4182D88114D5A185E604018D9
:103690005E20DE065E901E042D9A1C2D221E2D76C5
:1036A000112D2E0725E636E05E2D16084DA41B6D64
:1036B000D01D5EB076172D9816410212C0022DDC87
:1036C000082D4216412825962DDE1216F01C1EA04C
:1036D0003E0925242154210E4DCA1D4D481E6D3032
:1036E0001C4D461C4D82069EB0AA1C4D5A1E7E5093
:1036F0003A1D4D281C6DC01D8DB0107ED0E60661B0
:10370000A04DFE084D1E082D48084D9A052DDA08DB
:103710004D0A035A80CA52B0EC25824D98082DF408
:10372000115EB0F611AD3E045EE030086D5E054DF1
:103730006E056DEA1F7EB0361B8DBE0F5E10761FC4
:103740004D76032DC81E5E70F61D6DB80E2D3C1A09
:103750004D84048DA0072D8C0A6DFA0C4D121F218B
:10376000A625442D340925E23EC0121F29FC9E5097
:103770004C1C6D3E1B6DE0065680126D800E8D3424
:103780001D4D640B7E30081F5E20641FBE60020F5B
:103790006D841E6DB2064D0A1D41EA45084DDE07D7
:1037A0002D8E052D10072D461A41AC2DEC184944DD
:1037B0002D4E052DD6192DC41641622DE0207EE038
:1037C000D0205EB08A064D08209EB0C8054D0E0977
:1037D0006DE61A2DC0199E6006206D18109E108E81
:1037E0000C6D341F4D2C1B4D5E206D561CB290028B
:1037F0005E80F4084D6E0E2DD60629943E7080032F
:103800005AE0F829182D041421186D3C1E4D461C51
:103810004DCE1D4D2A215E705C084D70058D381D02
:103820007EF098219E10D210BE10481F4D04217EBC
:10383000B0441F4D3C064D46146D321CADF80E8D44
:10384000CE1E2D38164D620349544DB21A4516212D
:10385000CC5E60801D7240667ED04A1F4D06157694
:10386000D0D66DA2087EA0AA056DA61F7E30861157
:103870007E3054204DF80F96300A8DD6078DE41C0B
:1038800061FC6DC6216D82216D06215E40DC109EBB
:10389000300C2049804D4A10DE2074207E100A230F
:1038A000EDD2074D48066D7C034D861E4D36044D06
:1038B000D0056DAE037EB0541E4D2A034DA8154DA4
:1038C0008A0B2DAC0F5E50F0204DEE042DBC1B4535
:1038D000582DA60C2D760369BA8D92146D54034DA4
:1038E000380C4DB80349584DE0158DF61F7ED04673
:1038F000232D58164D6A058DC204ED3A146DFA2138
:10390000ADA41E6D50216D26054DB0054DC41F4D53
:1039100040215E6094072D341732F00A6DAC0F2DF4
:103920004C0C2D04046DE0234D28204DAE094D8034
:103930001D7690F64DE4104D5C206D2E082D760519
:103940005E3024047E30B0224D041E7E802C242D57
:10395000700B2DCA034D061F2DEA0A1D901C2D3A2F
:103960000A2D9E071D42093EF0CC1E2DF60D4D1866
:103970001D4D2E044DD412213876904A4DC00A2D8B
:10398000501F7AD0A82D840F2D20092D0C24659C62
:103990006D1C1F6D70218D58035EC0A0044D9C0AE4
:1039A0005A60E25E906A034DE0244DF80D1DB60F9B
:1039B0001DBE0D2D121D1ED04C0C2DFC054D5203AD
:1039C0004D700545F84DE60B7EC0AE0D6D40044DC3
:1039D00038104DFA1F4D00238D2A255E208625695B
:1039E000F44D42044D98235EF0040E8D2C206D2E74
:1039F000236DE4227ED0A8245E3024265E806022DF
:103A00008DF6239250024D5E066DD4216D98236D84
:103A1000CA106D68184D2E206D68049EC0D022CD4E
:103A200044216D360A6DF6238DA2078D60148D90AA
:103A300017AD9021ADD8246D66139E40BE257E50F3
:103A400042038DC4186D06256D20236D2C21810C39
:103A50008D1A228D0427ADE6256D92216DCE069E2E
:103A6000F006166DD219AD6818ED3024BE20E004C2
:103A70007E30A6180E111096184D44129ED0942731
:103A80008D68166D6E24CD04187E10F4220D16E498
:103A900018ADC8270D14A0169E300217E1608DDE08
:103AA00022A1B40D18D0178DF2226D260E6D300DA7
:103AB000EDD2239ED09A266D0C06ADE4248D3617E8
:103AC000619EAD8E1A8DAE24C156AD362661064D6F
:103AD000DC1A8914BA20666DF009611ACD38180D08
:103AE00010CE196D86270E1D108019BEF05A296D53
:103AF000D60492003889C67E3086180F1810083E0A
:103B00001ABEF02C28CD3019BEF09818A5F86D0813
:103B100009AD7A039E20D2038DEC088D88070D1025
:103B2000241AAD6C06AD94280D140C1909161AADA3
:103B30008419AD8019E5DC0D126A1ACDE6196D788D
:103B40001C9EF0C206FEF0EC198D7428CD66190D8E
:103B500012081B0D1CAC1A0D10121C0516FAED40B4
:103B60001B0D10581A0E13F0B41D05203CA5E40ED1
:103B700013E0421DADB01B6DA2290D12741A8D7495
:103B80000CE1580518008128051CE8CD3A1C6DFA97
:103B9000049230960E2710B61CED461C0D1E561CC6
:103BA0000D183A1E0D1AB0040D18941C0120940D26
:103BB0001E681D021D20480D12341D0110440E11F7
:103BC00020381C0D1E121FA9080516748D281D0D06
:103BD000143E040D10FE1D051220C91C0D283C1EAC
:103BE000C5000A17F0D26144FE204E03AD9E1D8130
:103BF000020A17D0CEED2203C524061B20B2EDEC3D
:103C00001D8D002E81788DA22CBE00980DE102CD75
:103C1000F00C0918600D285A050512488D0C04B2E5
:103C200030020D18EC1EADE40581020118580E1388
:103C3000203A1FE1BC0D242C040D481E310D18AA9A
:103C400004E97EED8C05AD3A070D1EE604C9A20E0F
:103C50001B10EC030D2EDC04011468EDCC030223D1
:103C6000105E0D1E7221011E980D30B2220E291019
:103C700030230D305A050D484633062B10980D267B
:103C8000C2220D22EA050D2246070D16D4070D1E8D
:103C9000AA040D1E7A0305485ACD0E050912BC0D63
:103CA00018A408011EDC0D1250040114020D1C346E
:103CB000030E171062240D12980A094A5C0E211097
:103CC0007203ED82090512420D6A12030D667A0332
:103CD0000D2A1A05CDD8280D18A40B0E27101C0587
:103CE0000D22C8030524280A17F082012EEA0D12BE
:103CF00010040D1212270D2626260D1630270D1E34
:103D00005C0C01168C01226C011664062B105CCD34
:103D1000C4040E13E018360D14BC03ED5E0A0D103A
:103D2000540B0D1046070D120204C1189EE02437F3
:103D30000110480D12560B0E17105E0E0D14220CBA
:103D40008DD20A0E1DF0880D0D1CE8040D12D0292D
:103D50000D240E0DADD6360D1A1C050D1874080D68
:103D60001E360E091A7A05101A0D14F40C0D1414CF
:103D7000110D16E608ED74290122460D14740B0E80
:103D8000271072090D1AE0070E1710C40D0D286ACE
:103D9000070D1E62090D2862030D1A4A2B0D1CCC5B
:103DA000060D1C9A0ECDD2060D1218080D42800881
:103DB000ADF02B3D90191D833E530100010004001E
:043DC000093D0000B9
:040000050800018965
:00000001FF
