:020000040800F2
:10000000300500209D010008B5330008AD3300081D
:10001000B1330008E50E0008593C0008000000005C
:10002000000000000000000000000000DD370008B4
:10003000E90E000800000000B9330008E1370008AD
:10004000B7010008B7010008B7010008B7010008B0
:10005000B7010008B7010008B7010008B7010008A0
:10006000B7010008B7010008B7010008B701000890
:10007000B7010008B7010008B7010008B701000880
:10008000B7010008B7010008B7010008B701000870
:10009000B7010008B7010008B7010008B701000860
:1000A000B7010008B7010008B7010008B701000850
:1000B00039380008B7010008B7010008B701000887
:1000C000B7010008B7010008B7010008B701000830
:1000D000B7010008B7010008B7010008B701000820
:1000E000B7010008B7010008B7010008B701000810
:1000F000B7010008B7010008B7010008B701000800
:10010000B7010008B7010008B7010008B7010008EF
:10011000B7010008B7010008B7010008B7010008DF
:10012000B7010008B7010008B7010008B7010008CF
:10013000B7010008B7010008B7010008B7010008BF
:10014000B7010008B7010008B7010008B7010008AF
:10015000B7010008B7010008B7010008B70100089F
:10016000B7010008B7010008B7010008B70100088F
:10017000B7010008B70100080000000000000000FF
:10018000B7010008B7010008DFF80CD000F06AFAE8
:10019000004800471D3D0008300500200648804704
:1001A00006480047FEE7FEE7FEE7FEE7FEE7FEE75C
:1001B000FEE7FEE7FEE7FEE7E537000889010008F5
:1001C0002DE9F05F0546002092469B46884606468C
:1001D000814640241BE0284641464746224600F01F
:1001E0006DF853465A46C01A914110D3114618462D
:1001F000224600F054F82D1A67EB01084F462246BC
:100200000120002100F04BF817EB00094E41201EA1
:10021000A4F10104DFDC484631462A46434600F09B
:1002200000B830BCBDE8C09FD2B201E000F8012B9D
:10023000491EFBD270470022F6E710B513460A4666
:1002400004461946FFF7F0FF204610BD00F00042BB
:1002500030F000400AD0C10D01F56071C0F3160006
:1002600042EA0151C208400711437047002001468D
:10027000704730B50B46014600202022012409E0DA
:1002800021FA02F59D4205D303FA02F5491B04FA4F
:1002900002F52844151EA2F10102F1DC30BD202A2E
:1002A00004DB203A00FA02F1002070479140C2F1CD
:1002B000200320FA03F3194390407047202A04DBFF
:1002C000203A21FA02F00021704721FA02F3D040CF
:1002D000C2F1200291400843194670472DE9FE4FB4
:1002E000804681EA0300C00F0C46009021F00041D7
:1002F00023F00045B8EB0200A94105D24046214653
:1003000090461C460B46024623F00040104347D05F
:10031000270DC7F30A00C3F30A510290401A019057
:1003200040286BDAC3F3130040F4801B0098924618
:1003300020B10023D2EB030A63EB0B0B0198594663
:10034000C0F140025046FFF7AAFF06460D46504650
:100350005946019A00F098F910EB08006141002419
:1003600087EA115284EAE7731A4340D0009A62B3D5
:10037000019A012A4FEA075215DC001B61EB0201CA
:100380004FF0004202EA0752CDE90042001C41F55D
:10039000801132462B4600F098F903B000F045B8C2
:1003A00040462146F9E7001B61EB0201001C41F5C4
:1003B000801300185B412018A2F5001747EB0301DA
:1003C00040EAD570B6196D4111E06D084FEA360666
:1003D00045EAC0754FEA0752001B61EB0201001CA1
:1003E00041F5801149084FEA300000195141324669
:1003F0002B4603B000F01CB800F058B90098012259
:1004000040000023D0EB020263EBE073009821462A
:100410004FEAE074B8EB000061EB0401E9E783F018
:1004200000435BE781F0004158E730BCBDE8C08F76
:1004300030BCBDE8C04FFFF7DFBF2DE9FE4F81EABA
:10044000030404F0004421F0004100944FF0000B3D
:1004500023F0004350EA01045ED052EA03045BD06B
:10046000C3F30A54C1F30A552C44A4F2F3340194A3
:10047000A0FB0254C1F3130141F48011C3F3130331
:1004800043F4801301FB024400FB034E840A970AE5
:1004900044EA815447EA8357A4FB076802958D0A12
:1004A00005FB07854FEA932C04FB0C542705029D9E
:1004B0004FEA065847EA1637B5EB08056EEB070C0E
:1004C000870E920E47EA811742EA8312A7FB0201C8
:1004D000B6EB0B0164EB00042B0D43EA0C335E1802
:1004E00044EB1C50DA465146E7FB0201C5F3130406
:1004F0004FEA0B3343EA14534FEA0432019C43EAB8
:100500000603A4F10C040294009CCDE900B400F0B1
:10051000DCF803B000F003B800200146F9E730BC76
:10052000BDE8C08F2DE9F04D81EA030404F0004BD3
:1005300021F0004514464FF0000A23F0004150EA34
:10054000050220D054EA01021DD0C5F30A57024625
:10055000C5F31303C1F31300C1F30A5640F4801529
:1005600043F48013A7EB0608101BD64608F2FD38AB
:1005700073EB050002D308F1010801E092185B411A
:10058000B8F1000F03DA00200146BDE8F08D00202D
:100590004FF48011064684460EE0171B73EB0507E7
:1005A00005D3121B63EB050306434CEA010C490813
:1005B0004FEA300092185B4150EA0107EDD152EA50
:1005C000030012D082EA040083EA0501084305D043
:1005D000101BAB4106D20122002306E000224FF09F
:1005E000004302E06FF0010253101AEB06004CEBDF
:1005F000085110EB0A0041EB0B01BDE8F04D00F093
:1006000055B8C1F30A52C1F3130140F2FF3341F46C
:1006100080119A4202DA00200146704740F23343CB
:100620009A42A2F2334202DC5242FFF747BEFFF782
:1006300036BE000030B5041E71F1000404DB4FF03B
:100640000044404264EB0101141E73F1000405DB19
:100650001C464FF00043524263EB0403994208BF2B
:10066000904230BD064C074D06E0E06840F00103C3
:1006700094E8070098471034AC42F6D3FFF788FDA2
:100680007051000890510008202A06DBCB17203A51
:1006900041FA02F043EAE07306E041FA02F3D04087
:1006A000C2F12002914008431946704710B5141E4C
:1006B00073F1000408DA401C41F1000192185B411B
:1006C0001A4301D120F0010010BD2DE9F04D9246F2
:1006D0009B4611B1B1FA81F202E0B0FA80F2203209
:1006E0009046FFF7DCFD04460F4640EA0A0041EA67
:1006F0000B0153465A46084313D0114653EA0100F2
:1007000019D0C8F140025046FFF7D8FD05460E4605
:10071000504659464246FFF7C2FD084305D0012026
:1007200004E020463946BDE8F08D0020054346EA46
:10073000E0762C4337430A986305E40AA0EB0800EF
:100740000022FD0A44EA47540A3002D5002001463F
:10075000E9E7010510196941DDE90845001969411A
:10076000BDE8F04DA2E7000010B5A2B04FF48061E3
:100770004FF4005200240791D82100914FF480716A
:1007800006910392CDE90844019006200D94CDE92D
:100790000B4405941D94CDE91B4441F2883214901A
:1007A00040F264002194CDE91F44CDE9194114A918
:1007B000C2F2000000F0D0FF18B10124204622B0A0
:1007C00010BD02201294012414A90EAA41F288330C
:1007D000CDE90E004FF4800011941390102010907A
:1007E0004FF080701D900520149040F26400C2F21A
:1007F000000000F01FFF50B940F26400694641F26A
:100800008832C2F2000000F0A7FF012410B1204698
:1008100022B010BD4FF0807005210EAA40F6AC53F7
:100820001D900020CDE91B0014914FF480712190A0
:10083000CDE91F00CDE91901CDE90E04CDE9114044
:100840004FF4800014A913901020109040F264001F
:10085000C2F2000000F0EEFE0446002818BF01249A
:10086000204622B010BD00002DE9F041A4B040F2B6
:10087000640441F20000C2F20004CAF200002060E9
:10088000204600F0E5FF78B900F010FA00251620A8
:1008900004210222C4E90121C4E903502046C4E92D
:1008A000055500F0F3FF18B1012024B0BDE8F08138
:1008B00066200B95CDE9095502A941F288320290D4
:1008C0004FF480700F95CDE90D55CDE9075040F2FA
:1008D0006400C2F2000000F03FFF80BB992002A933
:1008E00041F28832029040F26400C2F2000000F04F
:1008F00033FF20BB4FF08078002405264FF480772B
:1009000001254FF4800016A910AA41F28833CDF8D2
:100910007C80CDE91D4416962394CDE92144CDE990
:100920001B471494CDE91045139515901020129093
:1009300040F26400C2F2000000F07CFE18B1042016
:1009400024B0BDE8F08140F2640002A941F288328F
:10095000CDE9094402960F94CDE90D44CDE90B850C
:10096000CDE90747C2F2000000F0F6FE00289BD157
:1009700040F264000DF1050141F28832C2F200003C
:1009800001F016F800288FD10024062016A941F2A4
:1009900088321F94CDE91D4416904FF48070239443
:1009A000CDE92144CDE91B4040F26400C2F20000D1
:1009B00000F0D2FE00287FF477AF022014940124C7
:1009C00016A910AA41F28833CDE910004FF4800037
:1009D00013941590102012904FF080701F900520F6
:1009E000169040F26400C2F2000000F023FE0028DE
:1009F0007FF45AAF9DF8050002A941F288320294B3
:100A000040F040008DF8050040F26400C2F20000A2
:100A100000F0A2FE00287FF447AF40F264000DF121
:100A2000050141F28832C2F2000001F0A1F800286D
:100A30007FF43AAF4FF0807005244FF4807110AA14
:100A400041F288331F900020CDE91D0016942390B9
:100A5000CDE92100CDE91B0101211490CDE9100160
:100A60004FF48000139116A915901020129040F2B7
:100A70006400C2F2000000F0DDFD00287FF414AF36
:100A800040F2640002A941F288320294C2F20000EE
:100A900000F062FE00287FF407AF40F264000DF121
:100AA000050141F28832C2F2000000F081FF002807
:100AB0007FF4FAAE9DF8050040064FF0010002D425
:100AC00024B0BDE8F0814FF0807105220B91002128
:100AD000CDE909110292CDE90E11CDE90C0140F2E8
:100AE00064004FF48072CDE90712C2F2000002A93F
:100AF00041F2883200F030FE00287FF4D5AE40F29B
:100B000064000DF1050441F28832C2F20000214672
:100B100000F04EFF00287FF4C7AE022002A941F288
:100B200088320C901520029040F26400C2F200005E
:100B300000F012FE00287FF4B7AE40F26400611CA2
:100B400041F28832C2F2000000F032FF00287FF448
:100B5000ABAE0024062016A941F288321F94CDE9DD
:100B60001D4416904FF480702394CDE92144CDE9C3
:100B70001B4040F26400C2F2000000F0EDFD0028CE
:100B80007FF492AE02201494012416A910AA41F217
:100B90008833CDE910004FF4800013941590102095
:100BA00012904FF080701F900520169040F2640064
:100BB000C2F2000000F03EFD00287FF475AE032075
:100BC00002A941F288320C909DF80700029440F08F
:100BD00002008DF8070040F26400C2F2000000F04D
:100BE000BBFD00287FF460AE40F264000DF105010A
:100BF00041F28832C2F2000000F0BAFF00287FF410
:100C000053AE4FF08070052110AA41F288331F9037
:100C10000020CDE91D0016914FF480712390CDE99D
:100C20002100CDE91B0101211490CDE910014FF401
:100C30008000139116A915901020129040F26400C4
:100C4000C2F2000000F0F6FC00287FF42DAE022076
:100C500002A941F288320C901520029040F2640003
:100C6000C2F2000000F078FD00287FF41DAE40F2D3
:100C700064040DF1050141F28832C2F200042046FD
:100C800000F096FE00287FF40FAE9DF80600800766
:100C90004FF001007FF514AF6060204600F0F6FDD4
:100CA000002818BF012024B0BDE8F08180B586B0CF
:100CB00041F23000C4F20200016A41F48071016225
:100CC000016A01F4807101910199016841F4807118
:100CD0000160016821F480710160C16941F0100177
:100CE000C16101A9C06900F01000019001980A20BB
:100CF00005900320049000200390022002904FF4FE
:100D00007C40019041F20000C4F6000000F02CFA93
:100D100006B080BD10B58EB004464FF44060079019
:100D2000EB2000904FF4807006904FF40050039039
:100D30004FF440400890019100204FF04071049022
:100D40000991AA210291CDE90C00CDE90A200420E5
:100D5000694641F28832059040F26400C2F2000018
:100D600000F0FAFC00281EBF01200EB010BD40F2BA
:100D70006400214641F28832C2F2000000F018FE01
:100D8000002818BF01200EB010BD00002DE9F04F63
:100D9000A3B005464FF440604FF0000940F26406EE
:100DA0000C4602EB010B0DF1540A08903820C2F2F8
:100DB000000601904FF4807007904FF040700A9049
:100DC0004FF40050CDF824900490C8B2CDF838907C
:100DD000CDE90C99CDF81890C0F58078904588BF82
:100DE000904600BF0620CDF82C800294CDF8789074
:100DF000CDE91C99514641F2883215904FF480702C
:100E0000CDF88890CDE92099CDE91A90304600F0D0
:100E1000A3FC002859D10220CDF84C90012751465F
:100E20000FAA41F28833CDE90F004FF480001297EA
:100E30001490102011904FF080701E900520159096
:100E4000304600F0F7FBE0BB304601A941F28832A2
:100E500000F082FCF0BB3046294641F2883200F0B7
:100E600087FE012768BB4FF0807051460FAA41F200
:100E700088331E900520CDE91C9915904FF48070A1
:100E8000CDF88890CDE92099CDE91A904FF48000F3
:100E9000CDE90F97CDE912791490102011903046CA
:100EA00000F0C8FB68B94444454404F580705845D7
:100EB0004FF4807088BFABEB0400A345804691D807
:100EC0000027384623B000F00AB80127384623B07F
:100ED00000F005B80127384623B000F000B830BC58
:100EE000BDE8C08FFEE7000070470000F0B581B09C
:100EF0000D46417904460220012900F086802071C8
:100F00000120164660712868042843D156B100BFFD
:100F10002068406BB0F1FF3F19DC00F001FA0228B5
:100F2000F6D30CE000F0FCF9074600BF2068406BE8
:100F3000000413D500F0F4F9C01B0228F6D3206991
:100F400040F0080020610320207101B0F0BD0120B5
:100F500000F0F6F82068A969416405E0012000F07E
:100F6000EFF82068A969016406F0100140F2FF3231
:100F7000836C8A4023EA0202EB698B401A43826445
:100F8000FF22C36C8A4023EA02022B6A03FA01F1B2
:100F90001143C1642969206801290BD106F01001B1
:100FA0001F22836B8A4023EA02026B698B401A433B
:100FB000826301E006F010010722C36B8A4023EA36
:100FC00002022B68D5E902763B4333438B401A4338
:100FD000C2634FF4804203688A4023EA020202603F
:100FE00040F6FC7203688A4023EA02026B688B4079
:100FF0001A430260C02202FA01F1026822EA0101EA
:101000000160002001216071217101B0F0BD00007C
:10101000002804BF0120704710B50446007920B9AC
:1010200000206071204600F007F8022001212071A5
:1010300000202061217110BD80B586B0002147F2EB
:1010400000420591CDE90311CDE90111C4F200027E
:101050000068904201D006B080BD41F24C00C4F25D
:101060000200C26842F00052C260C26802F0005240
:101070000092009A026842F001020260006800F0EB
:10108000010000900098039101A9032002903020F4
:1010900001904FF0904000F067F806B080BD00006E
:1010A00043790222012B23D00271012201F01003A7
:1010B0000029427102FA03FC0268136843EA0C0338
:1010C0001360136808D003F47011B1F5802F0BD1B1
:1010D000516841F0020106E003F03C01042903D10C
:1010E000516841F0010151600022012142710171FA
:1010F0001046704790F82510022918D10168012385
:101100000A6822F00E020A600A6822F001020A60F0
:10111000D0E9101202F01C0203FA02F24A60002128
:1011200080F82530002280F82420084670470421EA
:10113000C1630121002280F8242008467047000086
:10114000B0B5044600F0ECF8054640F20400611C1E
:10115000C2F20000406818BF044400BF00F0E0F88D
:10116000401BA042FAD3B0BD2DE9F04F84B00D680A
:10117000002D00F0CE8041F6000207274FF0000C52
:101180004FF00009C4F60002904200F1384208BF57
:1011900006274FEAB223062B38BF4FEAB22700F1E9
:1011A0002C0201970092021D0292002206E0BEF17D
:1011B000030F4ED1009B032640E000BF012303FA3A
:1011C00009FB15EA0B0800F09A80D1F804A04AF058
:1011D0001003122B12D10CF01C030F2707FA03F691
:1011E0006FF0030707EA590505442F6AB7430E69F4
:1011F00006FA03F33B432B62D1F804A003250668EB
:101200000AF0030EBAF1120F05FA02F50EFA02F314
:1012100026EA05066FEA050543EA06030360C6D819
:10122000012303FA0AF313F0061FC0D08368CF68C6
:1012300004262B4097403B438360029B2AFA06F723
:101240001E6807F0010707FA09F726EA0B0637437D
:101250001F60C3688F682B4097403B43C3605FEAC1
:10126000CA034CD541F260030CF00C060F25C4F202
:101270000203B5401F461B6843F001033B603B6817
:1012800040F20047C4F2010703F001033C46039318
:1012900029F003033B44039F4FF60847CFF6FF773F
:1012A000BE46DF59AF43019D05FA06F6374343F8C2
:1012B0000E7023684E6843EA0807F50358BF23EA17
:1012C00008072760B503636843EA080758BF23EAA5
:1012D00008076760F502A36843EA080758BF23EAD6
:1012E000080740F20C43A760B602C4F201031D4692
:1012F0001B6843EA080758BF23EA08072F600D68F8
:1013000009F1010902320CF1040C35FA09F37FF4FA
:1013100055AF04B000F000B830BCBDE8C08F00008D
:1013200040F22810C2F200000068704740F204004A
:1013300040F22811C2F20000C2F2000140680A68BF
:10134000104408607047000080B5032000F08AF860
:10135000002000F009F800281CBF012080BD00F02B
:1013600029F8002080BD000070B540F20406044654
:10137000C2F200067068D0B14FF47A71B1FBF0F0A0
:1013800040F20C01C2F200010968B1FBF0F001F07B
:10139000BFFB01250F2C08D838B94FF0FF3021468C
:1013A0000022002500F030F83460284670BD012589
:1013B000284670BD82B041F25800C4F20200816834
:1013C00041F001018160816801F001010191019901
:1013D000016841F080510160006800F08050009089
:1013E000009802B0704700000028B8BF704700F0B6
:1013F0001F010122400902FA01F14EF20012CEF261
:10140000000242F82010704710B500F00F034EF6AE
:101410000C5E00F1604CB0F1FF3FA3F10403CEF28B
:10142000000E734403F10C04C8BF0CF56444DEF8ED
:1014300000004FF0FF3CC0F30220C31E80F0070005
:1014400038BF0023042828BF04200CFA00F021EA4A
:1014500000000CFA03F1984022EA01010843000160
:10146000207010BD4EF60C514FF6FF03CEF2000176
:101470000A681A4060F30A2242F0806040F0FD7072
:101480000860704747F20001B0F5007FC4F2000128
:101490000A6802F4C06235D1B2F5007F3AD008681C
:1014A000012262F34A203222086040F20C00C2F2AC
:1014B0000000006850434DF68362C4F21B32A0FB6B
:1014C0000202900C4A69431C18BF12F4806212D0C9
:1014D0004A69002818BF12F480620CD04A690128BA
:1014E00018BF12F4806206D04A69022803D004387B
:1014F00012F48062E6D14869400544BF032070477A
:1015000000207047B2F5806F04D00868022262F3B1
:101510004A2008600020704747F20000C4F2000033
:10152000006800F4C060704770B50446FFF7F8FE2D
:10153000054694F8390080074FF0000058BF70BD91
:1015400084F838002068016849070CD5016821F04B
:1015500004010160606BFFF7CDFD00281EBFE06B4A
:1015600040F00400E0632068016841F0020101607E
:10157000266C8168890723D4D6B3711C16D100BFAD
:10158000816889075CBF81685FEA817105D48168E1
:10159000890702D481688907F2D50221C16001461A
:1015A00051F8082F92062ED437E000BFFFF7B8FE9F
:1015B000401BB0421ED8206881688907F6D5266C8A
:1015C0000221C160014651F8082F920625D5721CF0
:1015D00019D01EB9FFF7A4FE0CE000BFFFF7A0FE74
:1015E000401BB04206D8206881688906F6D414E012
:1015F000FFF796FE042084F83900E06B40F001000C
:10160000E063012070BD0A68920606D50A6892065A
:1016100044BF0A685FEA826208D4416921F04061F0
:101620004161012084F83900002070BD0A689206EB
:10163000E9D4F2E72DE9F0411D46174688460446F5
:10164000FFF76EFE064694F83800012804BF02201A
:10165000BDE8F081012084F8380094F839000128B1
:1016600064D10020E063422084F83900206881685A
:1016700089061AD5002D5FD0691C0DD181688906B5
:1016800013D58168890644BF81685FEA81610CD502
:1016900081688906F2D408E0FFF742FE801BA84269
:1016A0004CD8206881688906F6D4396881627968E7
:1016B0004162B968C16201683A6921F4400111438D
:1016C0004FF0006241F4800101604146F868C8F8BB
:1016D0002800204601F072FE2068816809071AD4AC
:1016E00055B3691C0ED18168090714D481680907B4
:1016F0005CBF81685FEA01710DD481680907F2D58A
:1017000009E000BFFFF70CFE801BA84216D8206836
:1017100081680907F6D50821C160012084F83900E5
:101720000020002184F83810BDE8F081022000215B
:1017300084F83810BDE8F081FFF7F2FD042084F84A
:101740003900E06B40F00100E0630120002184F8E3
:101750003810BDE8F0810000F0B581B015460F46A5
:101760000446FFF7DDFD064694F83800012802BF65
:10177000022001B0F0BD012084F83800022094F866
:10178000391001294FD10021E16384F83900206824
:10179000816889061BD5002D4AD0691C0ED181684D
:1017A000890614D58168890644BF81685FEA816132
:1017B0000DD581688906F2D409E000BFFFF7B0FDBE
:1017C000801BA84236D8206880688006F6D4204660
:1017D0003946002201F0F2FD786A00BB206881687A
:1017E00089071AD425B3691C0ED18168890714D4DE
:1017F000816889075CBF81685FEA81710DD4816867
:101800008907F2D509E000BFFFF78AFD801BA842D7
:1018100010D8206881688907F6D50221C1600120AF
:1018200084F839000020002184F8381001B0F0BDA0
:10183000FFF776FD042084F83900E06B40F00100EA
:10184000E0630120002184F8381001B0F0BD0000F1
:1018500010B5002804BF012010BD044690F83800E0
:10186000012804BF022010BD012084F83800206840
:10187000016821F001010160204600F095F8002088
:10188000E06384F8390084F8380010BD70B5044670
:10189000FFF746FD002C04BF012070BD054694F8FB
:1018A0003800012804BF022070BD012084F83800F0
:1018B00094F8390000B32068266C6FF0FF030168CC
:1018C000A26803EB022221F4706111430160816878
:1018D000890628D5002E4DD0711C4ED1816889060D
:1018E00021D58168890644BF81685FEA81611AD584
:1018F00081688906F2D416E0002084F8380020467A
:1019000000F054F841F288366FF0FF032664206837
:101910000168A26803EB022221F4706111430160A7
:101920008168890629D44FF6EF720168E36804F1F3
:101930001006C0F2FF0211406268194341EA0261D9
:101940004FF6FE020160CFF6E072416811404CCEC6
:10195000194341EA024131434160016841F001010C
:10196000016000200121E06384F83910002184F82F
:10197000381070BDFFF7D4FC09E0FFF7D1FC401B25
:10198000B04204D8206881688906F6D4CBE70420E9
:1019900084F83900E06B40F00100E0630120002191
:1019A00084F8381070BD00007047000070470000D8
:1019B0002DE9F04115460F460446FFF7B1FC2668B5
:1019C0008046B06994F83810012904BF0220BDE8B0
:1019D000F081012184F8381094F8391001297CD164
:1019E0000021002FE16300F09E802221012284F873
:1019F00039103169013121633169A7620131E16236
:101A0000716962F39B617161B0613146206B51F87D
:101A1000082F002800F09180681C2BD0002D63D186
:101A200012F0060F00F0928096F820003870A16A3C
:101A30002068226B013A4F1C2263A762216B8268E7
:101A40000029EDD100F10801920728D578E000BF08
:101A5000086810F0060F10D1086810F0060F0CD1BE
:101A6000086810F0060F08D1086810F0060FEFD0D4
:101A700003E000BF12F0060FEAD096F8200038709D
:101A8000A16A2068226B013A4F1C01462263A762BB
:101A9000236B51F8082F002BECD1920750D4002D66
:101AA00054D06A1C0ED10A68920749D40A6892077A
:101AB0005CBF0A685FEA827242D40A689207F2D574
:101AC0003EE000BFFFF72CFCA0EB0800A8423FD887
:101AD000206881688907F5D532E00220002184F86A
:101AE0003810BDE8F08100BF12F0060F0CD100BF26
:101AF000FFF716FCA0EB0800A84229D820688068F0
:101B000010F0060FF4D0A76A96F820003870A16A8A
:101B10002068226B013A4F1C2263A762216B826806
:101B20000029E1D18EE7E06B40F00800E06301207E
:101B3000002184F83810BDE8F08130469207AED518
:101B40000221C1602046FFF7EFFC09E0FFF7E8FB48
:101B5000042084F83900E06B40F00100E0630120CC
:101B6000012184F83910002184F83810BDE8F08193
:101B70002DE9F04115460F460446FFF7D1FB80469C
:101B8000266894F83800012804BF0220BDE8F081DF
:101B9000012084F8380094F83900012873D100201E
:101BA000002FE06300F092801220314684F8390063
:101BB0003069013060623069E7610130206270692C
:101BC00020F040607061606A51F8082F002800F032
:101BD0008780681C18D0002D5CD100BF500740F1F1
:101BE0008880387886F82000E1692068626A013AC6
:101BF0004F1C6262E761616A82680029EED100F1E0
:101C00000801920722D56EE050070DD408684007FE
:101C10005CBF08685FEA407006D40868400703D4D8
:101C200008684007F2D500BF387886F82000E169DF
:101C30002068626A013A4F1C01466262E761636A8A
:101C400051F8082F002BDFD192074CD4002D50D033
:101C50006A1C0DD10A68920745D40A6892075CBFD6
:101C60000A685FEA82723ED40A689207F2D53AE0C7
:101C7000FFF756FBA0EB0800A8423CD8206881681B
:101C80008907F5D52FE00220002184F83810BDE83F
:101C9000F08100BF50070AD4FFF742FBA0EB080019
:101CA000A84228D8206880684007F5D5E7693878C9
:101CB00086F82000E1692068626A013A4F1C62627E
:101CC000E761616A82680029E4D198E7E06B40F03F
:101CD0000800E0630120002184F83810BDE8F0819D
:101CE00030469207B2D50221C1602046FFF71CFCA6
:101CF00009E0FFF715FB042084F83900E06B40F0A1
:101D00000100E0630120012184F83910002184F8EA
:101D10003810BDE8F08100002DE9F04782B004469C
:101D2000407841F28807C4F20207000731D5606E9F
:101D30004FEAB051032912D8DFE801F0021620263D
:101D4000201D002101F022FC0646A8B16078C006E3
:101D500023D4B246B046A078800742D55EE0012683
:101D60006078C006F5D518E004F12000002101F0EC
:101D7000ABFC06460028E9D1606E05E057F87C1CF4
:101D800041F4803147F87C1C396821F44001084354
:101D9000386000266078C006DBD5A06E4FEA306060
:101DA000032809D8B246DFE800F0020F2215201DF3
:101DB000002101F0EBFB0CE04FF0010A4FF00108AD
:101DC000A07880070DD529E004F12000002101F062
:101DD0007BFC8246BAF1000FD04613D0A078800772
:101DE0001CD4C2462068C10740F0818085E057F8C6
:101DF0007C0CB24640F4803047F87C0CBAF1000FFE
:101E0000D046EBD13868A16E4FF0000A20F0407048
:101E100008433860B046A0788007E2D557F8300C08
:101E2000C0000ED457F8300C4FF0010940F080503C
:101E300047F8300C57F8300C00F0805001900198B2
:101E400001E04FF0000947F20005C4F200052868E0
:101E500040F480702860FFF763FA06462868C005E2
:101E600007D4FFF75DFA801B0228F7D94FF0030A69
:101E700031E0BAF1000F2ED1B86810F4407022D0D2
:101E8000D4F8841088420BD0B868B96841F4803126
:101E900020F44070B960B96821F48031B960B8604D
:101EA000C00710D0FFF73CFA064641F288354FF0E4
:101EB000030A00BFB868800705D4FFF731FA801B1A
:101EC000A842F7D907E0B868D4F88410C24620F4D5
:101ED00040700843B860B9F1000F1EBF57F8300CCE
:101EE00020F0805047F8300C2068C10705D03968D1
:101EF000A26B21F0030111433960810714D441071B
:101F00001AD4010720D4C10626D481062CD4810519
:101F100032D4410538D441063ED4010644D4C1052B
:101F20004AD4810450D462E03968E26B21F00C019C
:101F3000114339604107E4D53968226C21F0300142
:101F4000114339600107DED53968626C21F0C001A8
:101F500011433960C106D8D53968A26C21F44071AB
:101F6000114339608106D2D53968E26C21F44061B1
:101F7000114339608105CCD53968E26D21F44021E7
:101F8000114339604105C6D53968226E21F44011EC
:101F9000114339604106C0D53968226D21F44051A2
:101FA000114339600106BAD53968626D21F44041A8
:101FB00011433960C105B4D53968A26D21F44031AF
:101FC00011433960810412D53A68E16E22F0406213
:101FD000B1F1806F42EA01023A6020D0B1F1006FA6
:101FE00005D157F87C1C41F4801147F87C1C010393
:101FF00028D53A68216F22F04062B1F1806F42EA41
:1020000001023A6016D0B1F1006F1BD157F87C1C69
:1020100041F4801147F87C1C410315D427E0201DB2
:10202000012101F0B3FA002818BF8246206801039D
:10203000DFD407E0201D012101F0A8FA002818BF15
:1020400082462068410312D53A68616F22F04062EF
:10205000B1F1806F42EA01023A601CD0B1F1006F29
:1020600005D157F87C1C41F4801147F87C1C4004D2
:1020700024D53968A06F21F04051B0F1005F41EAEA
:102080000001396012D0B0F1805F17D1201D02210C
:1020900001F07CFA0FE0201D012101F077FA002801
:1020A00018BF824620684004E3D407E004F1200012
:1020B000022101F009FB002818BF824620680104B4
:1020C00005D4C0030BD4504602B0BDE8F087396890
:1020D000E26F21F0804111433960C003F3D53868C5
:1020E000D4F8801020F0004008433860504602B019
:1020F000BDE8F0872DE9F04381B0002800F08D8025
:1021000042F2000904460D46C4F20209D9F8000063
:1021100000F0070088420CD2D9F8000020F0070038
:102120002843C9F80000D9F8000000F00700A842D1
:1021300073D1206841F20808C4F20208C10735D003
:102140006068022806D0032809D158F8081C8901C4
:1021500063D50CE058F8081C89035ED507E058F8F1
:10216000081C10B1490558D501E0890755D5D8F8A4
:10217000001021F003010843C8F80000FFF7D0F871
:10218000064641F2883700BFD8F80000616800F0C9
:102190000C00B0EB810F08D0FFF7C2F8801BB842EB
:1021A000F2D9032001B0BDE8F0832068810707D58C
:1021B000D8F80010A26821F0F0011143C8F800100F
:1021C000D9F8001001F00701A9420CD9D9F8001084
:1021D00021F007012943C9F80010D9F8001001F0D7
:1021E0000701A94219D141071BD4000723D4D8F80D
:1021F0000010D8F8040011F00C012CD00C2903D1E8
:1022000000F00300012826D0042947D008294AD12C
:1022100041F20020C0F27A0063E0012001B0BDE885
:10222000F083D8F80010E26821F4E0611143C8F8A7
:1022300000100007DBD5D8F80000216920F46050B9
:1022400040EAC100C8F80000D8F80010D8F804002F
:1022500011F00C01D2D158F8080C44F63C12C0F62B
:102260000002000747BF58F8080C0009D8F88C0096
:10227000000A002900F00F0052F8200031D00C298C
:1022800014D1D8F8041001F00301022910D0032959
:1022900004BF41F20020C0F27A000DE042F200409B
:1022A000C0F2F4001DE000200C29EAD0002018E064
:1022B00042F20040C0F2F400D8F80410D8F804202C
:1022C000D8F804300227C3F34163C2F30622C1F3F6
:1022D00002115043013107EB4303B0FBF1F0B0FBB7
:1022E000F3F0D8F8001044F62412C0F60002C1F34F
:1022F0000311515C01F01F01C84040F20C01C2F211
:102300000001086040F20400C2F20000006801B061
:10231000BDE8F043FFF728B840F20C0041F2080195
:1023200044F63412C2F20000C4F20201C0F6000208
:1023300000680968C1F30221515C01F01F01C84027
:102340007047000040F20C0041F2080144F63412DC
:10235000C2F20000C4F20201C0F60002006809687F
:10236000C1F3C221515C01F01F01C8407047000059
:1023700041F20C01C4F2020151F8042C086812F079
:102380000C0205D00C2A28D100F00300012824D12A
:1023900051F80C0C44F63C13C0F60003000747BF8D
:1023A00051F80C0C0009D1F88800000A002A00F04E
:1023B0000F0053F8200008BF70470C2A1CBF0020F4
:1023C00070470A6802F00302022A0FD0032A04BFF2
:1023D00041F20020C0F27A000CE0042A1ED0082A44
:1023E00021D141F20020C0F27A00704742F2004051
:1023F000C0F2F400D1F800C00B6809680222C1F3F2
:10240000416102EB4101C3F306225043CCF30212B7
:102410000132B0FBF2F0B0FBF1F0704742F2004045
:10242000C0F2F40070470020C7E700002DE9F04338
:1024300083B0002800F0C68241F200060446C4F2D0
:102440000206B06800F00C09F06800F0030820787C
:10245000C0062AD42078C00700F0CC80B9F1080F5C
:102460006FD0B9F10C0F08BFB8F1030F69D06768DE
:10247000B7F5803F07D03068B7F5A02F40F0AF82A6
:1024800040F480203060306840F480303060FEF7E7
:1024900047FF05463068800300F1AC80FEF740FF3F
:1024A000411B03206429F5D92FE3B9F1000F19D09E
:1024B000B9F10C0F08BFB8F1010F13D0A169306852
:1024C000002971D040F001003060FEF729FF054679
:1024D0003068800779D4FEF723FF411B03200229CF
:1024E000F6D912E33068800703D5A069002800F010
:1024F0006982256A306800075ABFD6F8940000093F
:10250000306800F0F000854222D9B06DC00000F1C3
:102510001C81B06D40F08050B065B06D00F080500F
:1025200001900198FEF7F8FFB16D21F08051B1657F
:10253000B0F5007F00F00F81802D40F2CE810320A6
:10254000E0E13068800355D56068002852D139E257
:10255000306840F008003060306820F0F000284318
:1025600030607068E16920F47F4040EA01207060CB
:10257000B06DC00000F1F780B06D40F08050B065E4
:10258000B06D00F0805002900298FEF7C5FFB16D6B
:1025900021F08051B165B0F5007F00F0EA80802D18
:1025A00040F2A5810320D3E120F001003060FEF766
:1025B000B7FE0546306880077FF54CAFFEF7B0FEEA
:1025C000411B03200229F5D99FE2306840F0080042
:1025D00030603068216A20F0F00008433060706895
:1025E000E16920F47F4040EA012070602078C00754
:1025F0007FF434AF207880072CD5B9F1040F1BD0BD
:10260000B9F10C0F08BFB8F1020F15D0E1683068BE
:10261000002900F0B68040F480703060FEF780FE44
:10262000054600BF306840050DD4FEF779FE411B1A
:1026300003200229F6D968E23068400503D5E06836
:10264000002800F0BF817068216920F0F85040EA4E
:10265000016070602078000727D56169D6F8940082
:1026600081B140F00100C6F89400FEF759FE05461E
:10267000D6F89400800718D4FEF752FE401B0228BB
:10268000F6D95EE020F00100C6F89400FEF748FE9F
:10269000054600BFD6F89400800706D5FEF740FE39
:1026A000411B03200229F5D92FE22078400740F191
:1026B0009D80B06DC0000BD4B06D4FF0010840F0AC
:1026C0008050B065B06D00F080500090009801E03F
:1026D0004FF0000847F20007C4F200073868C00551
:1026E00010D4386840F480703860FEF719FE054653
:1026F0003868C00506D4FEF713FE411B03200229EB
:10270000F6D902E2A768012F07D0D6F89000052F6E
:1027100049D140F00400C6F89000D6F8900040F08F
:102720000100C6F89000FEF7FBFD054641F2883730
:10273000D6F89000800752D4FEF7F2FD401BB84255
:10274000F6D9032003B0BDE8F083FEF7E5FEB0F54F
:10275000007F7FF4F1AE812DC0F0D3800120A02D49
:1027600088BF0220CEE0FEF7D7FEB0F5007F7FF4F1
:1027700016AF812DC0F0EB800120A02D88BF022074
:10278000E6E020F480703060FEF7CAFD054600BF29
:10279000306840057FF55EAFFEF7C2FD411B0320A8
:1027A0000229F5D9B1E120F00100C6F89000D6F871
:1027B000900020F00400C6F89000FEF7B1FD054639
:1027C000002FB3D141F28837D6F89000800706D5A4
:1027D000FEF7A6FD411B0320B942F5D995E1B8F1FA
:1027E000000F1EBFB06D20F08050B065A06A0028B9
:1027F00000F04C81B9F10C0F3DD1012800F0E280CE
:10280000F068E16A00F003028A4240F0DB80216B4D
:102810006FF00F0202EB011100F070028A4240F0EB
:10282000D180616B00F4FE42B2EB012F40F0CA8010
:10283000A16B00F40032073918BF01218A4240F031
:10284000C1800022E16BCFF6E07202EA015100F490
:10285000C002A1F500118A4240F0B480216C4FF013
:102860007E4200F0C06002EA016101F17E418842CF
:1028700040F0A8800AE13168022821F080713160BF
:102880000DD1FEF74DFD05463068800140F1BF8057
:10289000FEF746FD411B03200229F5D935E13068DA
:1028A00010F0205F03D1F06820F00300F0604FF6D5
:1028B000FF71F068CFF6EE610840F060FEF730FD82
:1028C000044600BF3068800140F1E080FEF728FD3B
:1028D000011B03200229F5D917E1A5F17000802D15
:1028E000B0FA80F04FEA501008BF02200AE0A5F1CC
:1028F0007000802DB0FA80F04FEA501008BF02201F
:1029000026E0002042F20001C4F202010A6822F02F
:10291000070202440A60096801F00701814251D1AF
:10292000306840F0080030603068216A20F0F00024
:10293000084330607068E16920F47F4040EA01207C
:102940007060B168F06811F00C0114D119E000203A
:1029500042F20001C4F202010A6822F007020244B6
:102960000A60096801F0070181422BD1B168F06863
:1029700011F00C0105D00C2928D100F0030001282A
:1029800024D1306844F63C12C0F60002000747BF6D
:1029900030680009D6F89400000A002900F00F0002
:1029A00052F8200000F097800C297CD1F16801F0EA
:1029B0000301022979D0032904BF41F20020C0F2AB
:1029C0007A0076E0012003B0BDE8F083042961D0ED
:1029D000082964D141F20020C0F27A007BE020F4A3
:1029E00080303060306820F480203060FEF798FC42
:1029F0000546002F7FF44EAD306880037FF5FAADB9
:102A0000FEF78EFC411B03206429F5D97DE004F11B
:102A10002C07F0686FF00F058ECF05EB021248F21D
:102A20008C05CFF69D1528400843E16B104300222A
:102A3000CFF6E07240EA032002EA01514FF07E42F5
:102A4000A1F500110843216C02EA016101F17E4108
:102A500008430021CFF6FE7101EA47310843F060D8
:102A6000306840F080703060F06840F08070F06056
:102A7000FEF756FC044600BF3068800106D4FEF71E
:102A80004FFC011B03200229F6D93EE0002003B0D1
:102A9000BDE8F08342F20040C0F2F4001BE00020E9
:102AA0000C293FF483AF002015E042F20040C0F251
:102AB000F400F168F268F3680227C3F34163C2F3DC
:102AC0000622C1F302115043013107EB4303B0FB6F
:102AD000F1F0B0FBF3F0B16844F62412C0F6000246
:102AE000C1F30311515C01F01F01C84040F20C0119
:102AF000C2F20001086040F20400C2F20000006867
:102B0000FEF732FC00283FF4A5AC03B0BDE8F0832B
:102B1000411E0020B0EB116F1CBF012070474EF228
:102B20001002F023CEF2000251604EF62351CEF295
:102B300000010B7007219060116070477047000022
:102B4000704700007047000090F83C300222012BD3
:102B50002DD010B580F83D20012243F2004380F8CB
:102B60003C20C4F201030268D2F804E0D2F808C0A5
:102B70009A4205D042F60043C4F201039A4204D1BE
:102B80004C682EF4700344EA030E0B682EF07004B8
:102B90008968234353602CF080031943916000221D
:102BA000012180F83C2080F83D10BDE8104010461F
:102BB00070470000002804BF01207047B0B50446EC
:102BC00090F83D0028B9002084F83C00204600F031
:102BD00091F8022040F6FF3144F2000E84F83D00E7
:102BE000C4F20001C4F2010E2068026888420FDCC2
:102BF000B0F1804F1ED040F20041C4F20001884283
:102C000018D040F60001C4F20001884212D04DE015
:102C100040F60041C4F2000188420BD043F200416B
:102C2000C4F20101884205D042F60041C4F201011C
:102C300088423BD1A16822F070020A43A0EB0E014A
:102C4000B1FA81F14FEA511C0EF50061411AB1FA57
:102C500081F14B090EF58061411AB1FA81F1490900
:102C6000256922F440722A43A56922F08002002BD4
:102C700042EA05020260E268C2626268826208BFDC
:102C8000002902D0616901630AE0AEF5A0518842D3
:102C9000F8D0AEF540618842F4D0BCF1000FF1D11C
:102CA00001214161002084F83D10B0BDB0EB0E0160
:102CB000B1FA81F14FEA511C0EF50061A0EB010160
:102CC000B1FA81F14FEA51130EF58061A0EB0101D9
:102CD000B1FA81F14FEA5111C2D044F60005C4F2B5
:102CE0000105A842BCD044F20045C4F20105A84247
:102CF000B6D0B9E70068B0F1804F18BF704780B513
:102D000082B041F258000022C4F20200016841F092
:102D1000010101600021006800F0010001900198AC
:102D20001C20FEF771FB1C2002B0BDE88040FEF7BE
:102D30005BBB000000680722C0F20102C16841F0DD
:102D40000101C16081681140062902D0B1F5803FC0
:102D500001D100207047016841F0010101600020AD
:102D60007047000090F83C300222012B00F0BF8039
:102D700080B580F83D20012280F83C208822D0F8E0
:102D800000C0CFF6FE72DCF808301A40CCF80820FC
:102D90000B683F2B1BDD5F2B1FDD602B4DD0B3F588
:102DA000005F69D0702B40F09A80D1E90123C96897
:102DB0001A4342EA0121DCF8082022F47F42114341
:102DC000CCF80810DCF8081041F0770185E01F2BE3
:102DD00027DC53B3102B28D081E0402B5ED0502B42
:102DE0007DD1D1F804E0C968DCF82030DCF820207F
:102DF00022F00102CCF82020DCF8182022F0F002AA
:102E000042EA0111CCF8181023F00A0141EA0E0140
:102E1000CCF82010DCF8081041F0570121F0200117
:102E20005BE0202B01D0302B59D1DCF8081021F0C9
:102E30007001194341F007014FE04A68C968DCF8A6
:102E4000203023F01003CCF82030DCF8183023F4C5
:102E5000704343EA0131DCF82030CCF8181023F03D
:102E6000A00141EA0211CCF82010DCF8081041F072
:102E7000670121F0100130E0D1E90123C9681A434C
:102E800042EA0121DCF8082022F47F421143CCF809
:102E90000810DCF8081041F480411EE0D1F804E08D
:102EA000C968DCF82030DCF8202022F00102CCF8E0
:102EB0002020DCF8182022F0F00242EA0111CCF8C0
:102EC000181023F00A0141EA0E01CCF82010DCF8BA
:102ED000081041F0470121F03001CCF80810002221
:102EE000012180F83C2080F83D10BDE8804010466C
:102EF000704700007047000010B504460068016983
:102F0000890744BFC1685FEA817144D401694907F8
:102F100044BFC1685FEA417159D40169090744BFE0
:102F2000C1685FEA01716FD40169C90644BFC16815
:102F30005FEAC16100F185800169C9071CBFC168F2
:102F40005FEAC17140F09B800169090644BFC16816
:102F50005FEA016100F1A2800169C90544BFC1684F
:102F60005FEA016100F1A9800169490644BFC168B7
:102F70005FEA416100F1B0800169890646BFC1681E
:102F80005FEA816110BD6FF0200101612046BDE85C
:102F90001040FFF7D7BD6FF00201016101212177D9
:102FA0008069800703D02046FFF7A4FF05E0204694
:102FB00000F09AF8204600F099F800202077206869
:102FC0000169490744BFC1685FEA4171A5D56FF047
:102FD0000401016102212177806910F4407F03D050
:102FE0002046FFF787FF05E0204600F07DF82046E9
:102FF00000F07CF80020207720680169090744BFB1
:10300000C1685FEA01718FD56FF008010161042189
:103010002177C069800703D02046FFF76BFF05E0EA
:10302000204600F061F8204600F060F8002020778C
:1030300020680169C90644BFC1685FEAC1617FF5C4
:103040007BAF6FF01001016108212177C06910F496
:10305000407F03D02046FFF74DFF05E0204600F0FB
:1030600043F8204600F042F80020207720680169EC
:10307000C9071CBFC1685FEAC1713FF465AF6FF05B
:1030800001010161204600F033F82068016909065A
:1030900044BFC1685FEA01617FF55EAF6FF08001F8
:1030A00001612046FFF74CFD20680169C90544BF56
:1030B000C1685FEA01617FF557AF6FF4807101610C
:1030C0002046FFF73BFD20680169490644BFC168FF
:1030D0005FEA41617FF550AF6FF04001016120462A
:1030E00000F008F8206847E77047000070470000CC
:1030F000704700007047000010B5A0B10446406F53
:1031000028B9002084F87000204600F025F824201B
:1031100060672068016821F001010160204600F02D
:1031200055FC012801D1012010BD606A10B1204674
:1031300000F088FB2068416821F49041416081687B
:1031400021F02A018160016841F0010101602046FF
:10315000BDE8104000F0EEBB80B586B0002143F61C
:1031600000020591CDE90311CDE90111C4F201027C
:103170000068904201D006B080BD41F24C00C4F21C
:103180000200426942F480424261426902F4804294
:103190000092009A026842F002020260006800F0A9
:1031A000020000900098072005900320CDE903104D
:1031B000022001A90290C020019040F20040C4F614
:1031C0000000FDF7D1FF06B080BD00002DE9F043FF
:1031D00081B00446406F20280CD10F460120002901
:1031E00000F0CB801646002A00F0C78094F87000EB
:1031F000012803D1022001B0BDE8F0834FF000099F
:1032000001201D46C4F87C9084F87000212060677E
:10321000FEF786F8A4F85260A4F850608046A068D3
:10322000B0F5805F05D12669002E0CBFB9463E4639
:1032300000E03E46B4F8523020680146002B51F8B9
:103240001C2F3DD06B1C1AD0002D5FD1120640F10F
:10325000978016B116F8012B04E039F8022B0026EE
:103260006FF35F220285B4F85220013AA4F852208D
:10327000B4F852300A68002BE8D121E00A6812063F
:103280005FBF0A685FEA02620A685FEA026203D40B
:103290000A681206F2D500BF16B116F8012B04E039
:1032A00039F8022B00266FF35F220285B4F8522012
:1032B000013AA4F85220B4F852300A68002BDED14B
:1032C00050061BD4002D46D0681C0DD1086840065E
:1032D0005CBF08685FEA406010D4086840060DD4FF
:1032E00008684006F2D509E0FEF71AF8A0EB0800DE
:1032F000A84232D82068C0694006F5D500202021B8
:1033000084F87000616701B0BDE8F083110609D44C
:10331000FEF706F8A0EB0800A84233D82068C16980
:103320000906F5D516B116F8011B04E039F8021BA1
:1033300000266FF35F210185B4F852100139A4F81B
:103340005210B4F85210C2690029DFD100F11C01FB
:103350005006D3D4B6E7FDF7E3FF2068016821F4F7
:10336000D0710160816821F001018160202000217D
:10337000606784F87010A067032001B0BDE8F08397
:10338000FDF7CEFF2068016821F4D07101608168EB
:1033900021F00101816020200021606784F8701015
:1033A000A067032001B0BDE8F0830000FEE7000045
:1033B000FEE7000070470000704700002DE9F04173
:1033C000D1F824C0B2F1406F18BFBCF1000F37D163
:1033D000D1F818E00B6ABEF1000F3BD0002B66D08D
:1033E000D0F800808868C8F81C0043EA0C00D1E9D6
:1033F00004C5CB69D1E90B674C6B3043002B40EA25
:10340000070040EA040040EA854040EA0C0072D020
:103410004EEA0207B2F1406F43EA0703CF6840EA81
:1034200003000B6840EA070040EA0300C8F81400F4
:103430001EBF4868C8F81800BDE8F081BDE8F081FB
:103440008C6A0368013C1C61D1F818E00B6ABEF17C
:10345000000FC3D1002B57D0D0F800E08F68CEF812
:103460001C7043EA0C07D1E904C5CB69D1E90B46CE
:10347000486B3C43002B44EA060440EA040040EA5F
:10348000854040EA0C045CD043EA0200CB68B2F10C
:10349000406F40EA040040EA0300CEF814001EBF6B
:1034A0004868CEF81800BDE8F081BDE8F08101F170
:1034B0002C07CB694C69E0CF002B45EA0C0546EAA6
:1034C000050647EA060747EA844C40D04EEA020761
:1034D000CE680068B2F1406F43EA07030F6843EA21
:1034E0000C0343EA060343EA0703436127D0496814
:1034F0008161BDE8F08142EA0E0209681043084389
:10350000C8F81400BDE8F081CB6953B34CEA020758
:10351000D1F80CC04E69D1E90B540068B2F1406F8C
:1035200043EA07034F6B43EA050343EA040343EA14
:10353000070343EA864343EA0C034361D7D1BDE85E
:10354000F08144EA0200CEF81400BDE8F08142EABE
:103550000E020968006842EA0C0211434161BDE8AD
:10356000F081BCF1000F08BFBDE8F0814B69D1E9E3
:103570000B7642EA0C02496B00683A43324311432E
:1035800041EA83414161BDE8F0810000F0B581B0BE
:1035900041F2000704460D46C4F20207F8688007AE
:1035A00012D0F868216800F0030201208A4240F03E
:1035B0008980002900F08680F8686168C0F30210F5
:1035C000013088420AD11EE02068032809D0022871
:1035D00040D0012802D13968890709D4012001B0FF
:1035E000F0BD396889035CBF39685FEA4131F5D5C0
:1035F000F96862686FF00F0321F0730103EB0212A8
:1036000008431043F860386820F080603860FDF7A8
:1036100087FE06463868000105D5FDF781FE801B50
:103620000228F7D946E0CDB148F2FF013869012DF3
:10363000CFF6FF1122D101F1B46122690840A168DF
:1036400040EA01200021CFF6E07101EA0251A1F524
:1036500000111EE039684905C0D5C9E748F2FF01ED
:103660003869CFF6FD710840D4E9021240EA012022
:103670000021CFF6FE7101EA42310AE00840A1685C
:10368000626940EA01204FF07E4101EA026101F1E6
:103690007E4108433861386840F080603860FDF74B
:1036A0003FFE05463868000107D4FDF739FE401B90
:1036B0000228F7D9032001B0F0BDA0693969084399
:1036C0003861002001B0F0BDF0B581B041F20007D3
:1036D00004460D46C4F20207F868800710D0F86867
:1036E000216800F0030201208A4275D1002973D0BD
:1036F000F8686168C0F30210013088420AD11EE008
:103700002068032809D002283BD0012802D139685B
:10371000890709D4012001B0F0BD396889035CBF75
:1037200039685FEA4131F5D5F96862686FF00F03D7
:1037300021F0730103EB021208431043F86038686C
:1037400020F080503860FDF7EBFD064638688000B9
:1037500005D5FDF7E5FD801B0228F7D934E078692F
:103760009DB148F2FF012269CFF6FF110840A16820
:1037700040EA01204FF07E4101EA026101F17E4101
:1037800011E039684905C5D5CEE748F2FF01CFF60B
:10379000FD710840D4E9021240EA01200021CFF671
:1037A000FE7101EA423108437861386840F0805088
:1037B0003860FDF7B5FD05463868800007D4FDF791
:1037C000AFFD401B0228F7D9032001B0F0BD6069AE
:1037D000796908437861002001B0F0BD70470000AE
:1037E000FDF7A4BD4EF688504FF0000CCEF200005D
:1037F000016841F47001016041F20001C4F202016C
:103800000A6842F001020A60C1F808C04FF6FF7270
:103810000B68CEF6F6221A400A604FF48052CA6056
:103820000A6822F480220A60C1F818C04FF00061D3
:1038300040F8801C7047000040F22400C2F20000F3
:10384000FFF75ABB416ACA070DD18A0716D44A0747
:103850001FD40A0728D4CA0631D48A063AD480B5C0
:103860004A0659D542E002685368D0F828C023F4CC
:10387000003343EA0C0353608A07E8D502685368B3
:10388000D0F82CC023F4803343EA0C0353604A077A
:10389000DFD502685368D0F830C023F4802343EAB0
:1038A0000C0353600A07D6D502685368D0F834C0B9
:1038B00023F4004343EA0C035360CA06CDD50268E3
:1038C0009368D0F838C023F4805343EA0C03936024
:1038D0008A06C4D502689368D0F83CC023F400532C
:1038E00043EA0C03936080B54A0615D5D0F800E092
:1038F000DEF804C0036C2CF48012B3F5801F42EA9A
:103900000302CEF8042007D1DEF80420436C22F431
:10391000C0021A43CEF804200906BDE8804058BF13
:10392000704701684A68806C22F4002210434860A6
:103930007047000070B504460020E067FDF7F0FC1A
:1039400005462068016809070ED5C16989020BD4B4
:10395000002600BFFDF7E4FC411B2068B6EB516F69
:1039600018D1C1698902F5D50168490701D400263B
:1039700023E0C069002640021FD400BFFDF7D0FC41
:10398000411B2068B6EB516F0ED1C0694002F5D5DE
:10399000002612E00168032621F4D07101608168DD
:1039A00021F00101816008E00168032621F4D07153
:1039B0000160816821F001018160202000216067A1
:1039C00084F87010A067304670BD0000B0B50446A2
:1039D0000168806846F6F315D4E90423CEF6FF7536
:1039E000104340EA0302E0690B6802432B401A438C
:1039F0000A604A68E36822F440521A434A6048F277
:103A00000002C4F20002A36991421CBF256A2B4345
:103A10008D6825F430652B4344F6FF75C4F200052C
:103A20008B601023A94213DC44F20045C4F2000568
:103A3000A94229D044F60005C4F20005A94225D0C8
:103A400044F60045C4F20005A94230D1062322E025
:103A500045F20005C4F20005A94219D0914219D0DF
:103A600043F60005C4F20105A94220D141F28801C4
:103A700075A2C4F20201096801F0030152F8213075
:103A8000B0F5004F18D02AE0022304E0042302E03E
:103A9000082300E00A2341F28805C4F202052D68DC
:103AA00025FA03F364A503F0030355F8233091428C
:103AB00028D0B0F5004F12D10120082B00F26C8005
:103AC00044F60001C0F2E811DFE803F0054D576647
:103AD000516666665500FEF71FFC41004DE001206F
:103AE000082B00F2598042F20041C0F2F401DFE8F5
:103AF00003F0055C6653605353536400FEF70CFCFF
:103B000001465CE05D080120042D45D842F20041E9
:103B1000C0F2F401DFE805F0031308401100FEF7DE
:103B2000FBFB014658B903E0FEF722FC014630B921
:103B300000200021C4E91811B0BD4FF400416268B3
:103B4000012002EB4203994226D31303994223D862
:103B50000120042D20D8DFE805F00342471F55005F
:103B6000FEF7DAFB42E0FEF7EDFB410005E0FEF771
:103B7000FFFB410001E04FF48031606801EB500130
:103B8000B1FBF0F04FF6F071014009D0C0F34200F4
:103B900008432168C86000200021C4E91811B0BDA5
:103BA00001200021C4E91811B0BDFEF7CBFB01468E
:103BB00005E0FEF7DDFB014601E04FF400416068DF
:103BC00001EB5001B1FBF0F080B2102831BF0120B1
:103BD0002168C86000200021C4E91811B0BD002090
:103BE0000021CFF2244004E0FEF7C2FB6268010E20
:103BF000000210EB52004FF0000341F10001FCF70E
:103C0000DFFA05E04FF4000000EB5200B0FBF2F0E9
:103C10004FF6FF42A0F54071C0F20F02914206D864
:103C20002168C86000200021C4E91811B0BD01203E
:103C30000021C4E91811B0BD00000000040000001C
:103C40000200000008000000010000000400000065
:103C50000200000008000000FEE700009FED221AAD
:103C600044F66C130021B7EE004AC0F6000320EEC4
:103C7000010ABDEEC01AB5EEC00A11EE100AF1EE4F
:103C800010FA9FED1A1AB8BF013802EE100AB8EE0A
:103C9000C22A30EE420A9FED162A20EE010ABDEE3E
:103CA000C01A11EE100A30EE021A0246B1EB502F84
:103CB00018BF002202EE102A03EB8203B1EB502F53
:103CC00018BFB0EE410AB8EE421A93ED002A93ED08
:103CD000013A30EE410A34EE401A20EE030A21EE9A
:103CE000021A31EE000A704783F9223E00000044B8
:103CF000000000C4B0B582B040F2A80401AD01904C
:103D0000C2F2000420462946012247F23053FFF751
:103D10005DFA0028F6D1019802B0B0BDB8B0FDF749
:103D200013FB27AD2421281DFCF785FA6C4684215E
:103D3000201DFCF780FA0220072101270026CDE98B
:103D400036003591282134913397CDE93107602031
:103D50002F901020CDE92D7627902846FEF766FBA0
:103D600003202696CDE92466042123900F2022907B
:103D700022A8FEF7BFF920460E960097FDF7CCFF6C
:103D80004FF40070FDF77EFB41F24C0047F2004516
:103D90004FF4E132C4F20200C4F20005016805F5F7
:103DA000444341F001010160016801F0010100910B
:103DB0000099016841F0020101600C21006800F0E7
:103DC00002000090009840F2A800C2F20000C0E992
:103DD0000866C0E90032C0E90266C0E90461C0E9D2
:103DE0000666FFF789F940F21004C2F2000420468B
:103DF0002560CDE90766CDE90566FDF709F96D4651
:103E0000204600220496CDE90266CDE900662946E7
:103E1000FDF76CF82046294610220396FDF766F858
:103E200080200396CDE901662546E06241F28830A4
:103E3000C4E90666C4E908064FF08040289645F8B4
:103E4000140F2846FEF7B6FE4FF4805069460090E6
:103E50002846FEF787FF27A9284629962796FEF7CA
:103E600073FE2846FEF766FF20460021FDF718F98D
:103E700020461021FDF714F9FCF7F6FC002814BFCA
:103E800015A01AA000F03CFD00204FF4FA4100F00C
:103E90003BF80020FCF768FC0120FCF765FC0220E1
:103EA000FCF762FC0320FCF75FFC00204FF4FA41B2
:103EB00000F02AF89FED130A4FF47A7000214FF4B6
:103EC0007A52022300F066F800204FF4FA4100F025
:103ED0001BF800BFFEE700BF7173706920696E694F
:103EE00074206661696C656400000000717370691C
:103EF00020696E6974207375636365737366756C8E
:103F0000000000000000DC432DE9F04182B00C46C7
:103F10000546692A19D0662A2CD1012C2ADB0026F5
:103F2000E84616A7404629460422FCF7F3FE00980F
:103F3000FCF78CF902460B463846314600F060F833
:103F400001360435B442EDD114E0012C12DB002619
:103F50000DF104080CA700BF404629460422FCF7D7
:103F6000D9FE019A3846314600F04AF80136043548
:103F7000B442F1D102B0BDE8F08100BF2564202D2C
:103F800020252E35660A00002564202D2025640A90
:103F900000000000F0B581B02DED068B82B003FB70
:103FA00002F6012E25DB9FED151A02EE102A03EE14
:103FB000100A002401AD0027B8EEC28AB8EEC39AF9
:103FC00020EE01AA00EE107AB8EEC00A2AEE000A2E
:103FD00080EE080AFFF742FE20EE090A2846214635
:103FE00004228DED010AFCF7D1FE01370434BE42F4
:103FF000E8D102B0BDEC068B01B0F0BDDB0FC940CB
:104000000FB4054B10B503A9044A029800F0DEF87E
:1040100010BC5DF814FB0000F53C00080000002017
:1040200002E008C8121F08C1002AFAD17047704781
:10403000002001E001C1121F002AFBD170470000DF
:104040002DE9FF5F82B00021DDE90430020DDDF8CB
:1040500040B0034318D044F61050A2F2FF3242435E
:104060001514119801281FD0A5EB0B00401C5FEA26
:10407000000A4FF000064E4FDFF83891B046504628
:1040800015D5CAF1000413E0119801244AA30128B0
:1040900001D16FEA0B010298119AC0E90031C0E921
:1040A000024206B000F08EB8CBF10000DFE7044614
:1040B0000021404A491842EB0450CDE9001012E0BB
:1040C000E00707D032463B4640464946FCF7B5F983
:1040D0008046894632463B4610461946FCF7ADF904
:1040E00006460F466410002CEAD1DDE90401DDE943
:1040F0000023BAF1000F06DAFCF79FF942464B465F
:10410000FCF79BF905E0FCF70DFA42464B46FCF73D
:1041100009FA04460E460022284BFCF78BFA03D816
:104120004FF0FF30014607E00022254B2046314684
:10413000FCF7D4F8FCF765FA102409E0002C0ADB40
:104140000A220023FCF73CF8039B30321A55641E08
:1041500050EA0102F2D1641C039AC4F11103144421
:10416000119A012A03D0012208430DD10AE0084325
:1041700004D000204FF0110B119072E7A3EB0B0558
:104180006D1E0DE05B4504DD4FF0000205F10105F9
:1041900004E003DA4FF00002A5F10105002AECD09B
:1041A00002981199C0E90231C0E9004579E70000A1
:1041B000000014400000F03F300000000000F04319
:1041C0000000E03F30BCBDE8C09F00002DE9FF4F7C
:1041D00095B09B468946064600250FE2252877D1F3
:1041E00000242746F84A0121059400E0044316F80C
:1041F000013F203B01FA03F01042F7D130782A2822
:1042000011D06FF02F033078A0F13002092A16D8B0
:10421000059A44F0020402EB820203EB42021044CE
:10422000761C0590EFE759F8042B0592002A03DA73
:10423000504244F40054059044F00204761C307857
:104240002E2816D116F8010F44F004042A280DD0A8
:104250006FF02F023078A0F13003092B09D807EB5B
:10426000870302EB4303C718761CF3E759F8047B76
:10427000761C30786C280FD006DC4C2817D06828C4
:104280000DD06A2814D104E0742810D07A280FD1F8
:104290000DE044F400140AE044F4801401E044F416
:1042A00040147278824202D104F58014761C761C88
:1042B000307866280BD013DC582877D009DC00282A
:1042C00075D04528F6D04628F4D047281AD19DE16C
:1042D00018E0632835D0642879D0652812D195E19B
:1042E000702873D008DC6728F1D069286FD06E2859
:1042F0000DD06F2806D1B5E073282CD0752875D065
:10430000782874D05A46179990476D1C75E1C4F30C
:104310000250022809D003280DD0D9F80010042833
:104320000DD00D6009F1040967E1D9F80010EA1712
:10433000C1E90052F6E7D9F800100D80F2E70D70E0
:10434000F0E719F8041B8DF8001000208DF801002B
:10435000EA46012003E059F804AB4FF0FF30610753
:104360004FF0000102D40DE008F101018846B94286
:104370000FDA8045F8DB1AF808100029F4D108E0BC
:1043800008F1010188468142FADB1AF80810002979
:10439000F6D105985B46A0EB080721463846179AE8
:1043A00000F097FA284400EB080507E04DE029E10A
:1043B0000DE01AF8010B5A4617999047B8F1010819
:1043C000F7D25B4621463846179A13E142E00A22AB
:1043D0000092C4F302524FF0000A022A08D059F8A2
:1043E00004CB032A4FEAEC710AD00DE029E02AE061
:1043F00009F1070121F00702F2E802C1914609E044
:104400000FFA8CFC4FEAEC71042A03D14FFA8CFCB2
:104410004FEAEC71002907DA0A460021DCF1000CB2
:1044200061EB02012D2202E0220504D52B228DF83A
:104430000420012203E0E20701D02022F7E79046A2
:1044400059E00A2102E010220DE010214FF0000A8D
:1044500000910BE010224FF0000A44F004040827FA
:10446000009203E008224FF0000A0092C4F30252C7
:10447000022A05D059F804CB0021032A08D009E00C
:1044800009F1070121F00702F2E802C1914605E0B7
:104490001FFA8CFC042A01D10CF0FF0C4FF000082D
:1044A000220728D5702806D0009B83F0100353EA1A
:1044B0000A0305D00EE040228DF80420012208E016
:1044C0005CEA010206D030228DF804208DF8050048
:1044D00002229046009B83F0080353EA0A030AD1A4
:1044E0005CEA010201D1620705D530228DF8042073
:1044F0004FF001087F1E582804D034A003900EA866
:1045000002900DE036A0F9E753466046009AFBF7AB
:1045100057FE84460398825C0298401E0290027007
:104520005CEA0100F0D1029806A9081A00F1200AFD
:10453000600702D524F4803400E00127574502DDEE
:10454000A7EB0A0000E0002000EB0A0100900598AC
:104550004144401A0590E00306D45B462146179A71
:10456000059800F0B6F90544002706E001A85A4670
:10457000C05D179990476D1C7F1C4745F6DBE00333
:104580000CD55B462146179A059800F0A2F9054420
:1045900004E030205A46179990476D1C0099481E38
:1045A00000900029F5DC08E0029802995A4600784C
:1045B000491C0291179990476D1CBAF10001AAF1AC
:1045C000010AF1DC65E100000928010030313233D5
:1045D000343536373839616263646566000000003F
:1045E0003031323334353637383941424344454629
:1045F0000000000000F05BF90544761C30780028CC
:104600007FF4ECAD19B0284600F04EB9620700D433
:10461000062709F1070222F0070CFCE80223E14615
:1046200003F000485FEA080C02D00FF2702C0DE096
:104630005FEA045C02D50FF2682C07E05FEAC47CF5
:1046400002D00FF2602C01E0AFF2700C4FF0FF3897
:1046500023F00043CDF850C065280CD006DC452877
:1046600009D046281DD047283DD13DE0662818D006
:1046700067287ED138E00021112F01DB112000E0F6
:10468000781CCDE9000106A90EA8FFF7D9FCDDE9E9
:104690000F010E9A03910021009207F1010A049183
:1046A0004DE04FF000400097CDE9011006A90EA89B
:1046B000FFF7C6FCDDE90F0203920E9B1199002261
:1046C000DDF80CA00093049211B9791C00EB010AEB
:1046D000B7EB0A0004D4C0F1FF3007F1010A0490DF
:1046E000AAEB0700019044E0012F00DA0127002126
:1046F000112F01DD112000E03846CDE9000106A9A7
:104700000EA8FFF79DFCDDE90F010E9A0391002131
:1047100004910092BA4621070CD40399514500DA5E
:104720008A46BAF1010F05DD009AAAF10101515C38
:10473000302908D0B84202DA10F1040F06DA01215C
:10474000CDE9011015E0AAF10101E9E7002805DC37
:10475000049901440491AAEB000102E0411C514577
:1047600000DD8A460499401A401C01904FF0004039
:104770000290200704D40198504501DBCDF8048055
:1047800000208DF84F0002980DF14F07B0F1004F57
:1047900025D02B200E9002984FF0020800280CDA4A
:1047A000404202902D200E9007E00A210298FBF76C
:1047B00060FD3031029007F8011DB8F10001A8F149
:1047C0000108F2DC02980028EFD1791E0E980870DB
:1047D000307800F0200040F0450007F8020D12A8E4
:1047E000C01B00F107081498007800B1012000EB0D
:1047F0000A01019801EBE07105984144401A401EFE
:104800000590E00306D45B462146179A059800F010
:1048100060F805441498007818B15A4617999047E3
:104820006D1CE00324D55B462146179A059800F0DD
:1048300050F805441CE00498002807DBDDE903017B
:10484000884203DD0098405C179901E017993020F9
:104850005A469047049805F10105401C04900198C0
:10486000401E019004D12E205A46179990476D1C86
:10487000BAF10001AAF1010ADDDC05E017F8010B2D
:104880005A46179990476D1CB8F10001A8F101082C
:10489000F4DC5B462146179A0598ABE62D00000034
:1048A0002B0000002000000030BCBDE8C08F2DE9C7
:1048B000F041044600251E461746880404D405E04E
:1048C00039462020B0476D1C641EF9D52846BDE846
:1048D000F0812DE9F041044600251E469046C803AC
:1048E00001D5302700E02027880404D505E04146A3
:1048F0003846B0476D1C641EF9D52846BDE8F081E6
:1049000010B5044601E0FFF7F5F914F8010B04496E
:104910000028F8D1BDE810400A20FFF7EBB90000ED
:10492000000000200000000000000000010203045D
:10493000060708090000000001020304A086010028
:10494000400D0300801A060000350C0040420F00A5
:1049500080841E0000093D0000127A000024F4004B
:1049600000366E010048E801006CDC020000000027
:10497000920E493CB10AC93C2BC3163D2EFB483D63
:10498000752B7B3D04A9963D80B6AF3D36BDC83D35
:104990002FBCE13D73B2FA3D87CF093E8340163EFE
:1049A000B5AB223EA2102F3ECF6E3B3EC2C5473E66
:1049B0000115543E135C603E7F9A6C3ECCCF783E2E
:1049C000C07D823E938E883E229A8E3E32A0943ED7
:1049D00086A09A3EE59AA03E128FA63ED47CAC3EBD
:1049E000EF63B23E2A44B83E491DBE3E15EFC33EBA
:1049F00053B9C93ECA7BCF3E4136D53E80E8DA3E48
:104A00004F92E03E7533E63EBBCBEB3EEA5AF13EB9
:104A1000CBE0F63E275DFC3EE4E7003F3D9C033FD4
:104A2000824B063F9BF5083F6B9A0B3FDA390E3FEE
:104A3000CDD3103F2A68133FD9F6153FC07F183FEA
:104A4000C6021B3FD17F1D3FCBF61F3F9967223F18
:104A500025D2243F5636273F1594293F4AEB2B3F5A
:104A6000DE3B2E3FBB85303FC9C8323FF304353FA4
:104A7000233A373F4268393F3B8F3B3FF9AE3D3FDA
:104A800067C73F3F70D8413F01E2433F03E4453FE2
:104A900065DE473F12D1493FF8BB4B3F029F4D3F78
:104AA000207A4F3F3D4D513F4918533F31DB543F32
:104AB000E595563F5348583F6AF2593F1A945B3F79
:104AC000532D5D3F05BE5E3F2146603F97C5613F68
:104AD0005A3C633F59AA643F880F663FD86B673FD3
:104AE0003CBF683FA7096A3F0C4B6B3F5E836C3F3E
:104AF00093B26D3F9ED86E3F73F56F3F0809713FCB
:104B00005213723F4714733FDD0B743F0BFA743F2F
:104B1000C6DE753F07BA763FC58B773FF853783FBF
:104B20009812793F9DC7793F02737A3FBE147B3F4D
:104B3000CDAC7B3F283B7C3FC9BF7C3FAC3A7D3F3F
:104B4000CCAB7D3F23137E3FB0707E3F6DC47E3F74
:104B5000580E7F3F6D4E7F3FAB847F3F0FB17F3F4D
:104B600097D37F3F43EC7F3F11FB7F3F0000803FA7
:104B700011FB7F3F43EC7F3F97D37F3F0FB17F3FD8
:104B8000AB847F3F6D4E7F3F580E7F3F6DC47E3FAD
:104B9000B0707E3F23137E3FCCAB7D3FAC3A7D3F70
:104BA000C9BF7C3F283B7C3FCDAC7B3FBE147B3FE5
:104BB00002737A3F9DC7793F9812793FF853783F47
:104BC000C58B773F07BA763FC6DE753F0BFA743F59
:104BD000DD0B743F4714733F5213723F0809713F56
:104BE00073F56F3F9ED86E3F93B26D3F5E836C3F0F
:104BF0000C4B6B3FA7096A3F3CBF683FD86B673FD0
:104C0000880F663F59AA643F5A3C633F97C5613F8E
:104C10002146603F05BE5E3F532D5D3F1A945B3FCA
:104C20006AF2593F5348583FE595563F31DB543FB0
:104C30004918533F3D4D513F207A4F3F029F4D3F12
:104C4000F8BB4B3F12D1493F65DE473F03E4453F88
:104C500001E2433F70D8413F67C73F3FF9AE3D3F58
:104C60003B8F3B3F4268393F233A373FF304353FA0
:104C7000C9C8323FBB85303FDE3B2E3F4AEB2B3F5E
:104C80001594293F5636273F25D2243F9967223F66
:104C9000CBF61F3FD17F1D3FC6021B3FC07F183F91
:104CA000D9F6153F2A68133FCDD3103FDA390E3FAE
:104CB0006B9A0B3F9BF5083F824B063F3D9C033FA1
:104CC000E4E7003F275DFC3ECBE0F63EEA5AF13ECA
:104CD000BBCBEB3E7533E63E4F92E03E80E8DA3EDA
:104CE0004136D53ECA7BCF3E53B9C93E15EFC33ED0
:104CF000491DBE3E2A44B83EEF63B23ED47CAC3E72
:104D0000128FA63EE59AA03E86A09A3E32A0943E1F
:104D1000229A8E3E938E883EC07D823ECCCF783ED6
:104D20007F9A6C3E135C603E0115543EC2C5473EFF
:104D3000CF6E3B3EA2102F3EB5AB223E8340163EC7
:104D400087CF093E73B2FA3D2FBCE13D36BDC83D69
:104D500080B6AF3D04A9963D752B7B3D2EFB483DAB
:104D60002BC3163DB10AC93C920E493C000000001D
:104D7000920E49BCB10AC9BC2BC316BD2EFB48BD5F
:104D8000752B7BBD04A996BD80B6AFBD36BDC8BD31
:104D90002FBCE1BD73B2FABD87CF09BE834016BEFA
:104DA000B5AB22BEA2102FBECF6E3BBEC2C547BE62
:104DB000011554BE135C60BE7F9A6CBECCCF78BE2A
:104DC000C07D82BE938E88BE229A8EBE32A094BED3
:104DD00086A09ABEE59AA0BE128FA6BED47CACBEB9
:104DE000EF63B2BE2A44B8BE491DBEBE15EFC3BEB6
:104DF00053B9C9BECA7BCFBE4136D5BE80E8DABE44
:104E00004F92E0BE7533E6BEBBCBEBBEEA5AF1BEB5
:104E1000CBE0F6BE275DFCBEE4E700BF3D9C03BFD0
:104E2000824B06BF9BF508BF6B9A0BBFDA390EBFEA
:104E3000CDD310BF2A6813BFD9F615BFC07F18BFE6
:104E4000C6021BBFD17F1DBFCBF61FBF996722BF14
:104E500025D224BF563627BF159429BF4AEB2BBF56
:104E6000DE3B2EBFBB8530BFC9C832BFF30435BFA0
:104E7000233A37BF426839BF3B8F3BBFF9AE3DBFD6
:104E800067C73FBF70D841BF01E243BF03E445BFDE
:104E900065DE47BF12D149BFF8BB4BBF029F4DBF74
:104EA000207A4FBF3D4D51BF491853BF31DB54BF2E
:104EB000E59556BF534858BF6AF259BF1A945BBF75
:104EC000532D5DBF05BE5EBF214660BF97C561BF64
:104ED0005A3C63BF59AA64BF880F66BFD86B67BFCF
:104EE0003CBF68BFA7096ABF0C4B6BBF5E836CBF3A
:104EF00093B26DBF9ED86EBF73F56FBF080971BFC7
:104F0000521372BF471473BFDD0B74BF0BFA74BF2B
:104F1000C6DE75BF07BA76BFC58B77BFF85378BFBB
:104F2000981279BF9DC779BF02737ABFBE147BBF49
:104F3000CDAC7BBF283B7CBFC9BF7CBFAC3A7DBF3B
:104F4000CCAB7DBF23137EBFB0707EBF6DC47EBF70
:104F5000580E7FBF6D4E7FBFAB847FBF0FB17FBF49
:104F600097D37FBF43EC7FBF11FB7FBF000080BFA3
:104F700011FB7FBF43EC7FBF97D37FBF0FB17FBFD4
:104F8000AB847FBF6D4E7FBF580E7FBF6DC47EBFA9
:104F9000B0707EBF23137EBFCCAB7DBFAC3A7DBF6C
:104FA000C9BF7CBF283B7CBFCDAC7BBFBE147BBFE1
:104FB00002737ABF9DC779BF981279BFF85378BF43
:104FC000C58B77BF07BA76BFC6DE75BF0BFA74BF55
:104FD000DD0B74BF471473BF521372BF080971BF52
:104FE00073F56FBF9ED86EBF93B26DBF5E836CBF0B
:104FF0000C4B6BBFA7096ABF3CBF68BFD86B67BFCC
:10500000880F66BF59AA64BF5A3C63BF97C561BF8A
:10501000214660BF05BE5EBF532D5DBF1A945BBFC6
:105020006AF259BF534858BFE59556BF31DB54BFAC
:10503000491853BF3D4D51BF207A4FBF029F4DBF0E
:10504000F8BB4BBF12D149BF65DE47BF03E445BF84
:1050500001E243BF70D841BF67C73FBFF9AE3DBF54
:105060003B8F3BBF426839BF233A37BFF30435BF9C
:10507000C9C832BFBB8530BFDE3B2EBF4AEB2BBF5A
:10508000159429BF563627BF25D224BF996722BF62
:10509000CBF61FBFD17F1DBFC6021BBFC07F18BF8D
:1050A000D9F615BF2A6813BFCDD310BFDA390EBFAA
:1050B0006B9A0BBF9BF508BF824B06BF3D9C03BF9D
:1050C000E4E700BF275DFCBECBE0F6BEEA5AF1BEC6
:1050D000BBCBEBBE7533E6BE4F92E0BE80E8DABED6
:1050E0004136D5BECA7BCFBE53B9C9BE15EFC3BECC
:1050F000491DBEBE2A44B8BEEF63B2BED47CACBE6E
:10510000128FA6BEE59AA0BE86A09ABE32A094BE1B
:10511000229A8EBE938E88BEC07D82BECCCF78BED2
:105120007F9A6CBE135C60BE011554BEC2C547BEFB
:10513000CF6E3BBEA2102FBEB5AB22BE834016BEC3
:1051400087CF09BE73B2FABD2FBCE1BD36BDC8BD65
:1051500080B6AFBD04A996BD752B7BBD2EFB48BDA7
:105160002BC316BDB10AC9BC920E49BC0000008019
:1051700090510008000000201000000020400008AE
:10518000A051000810000020200500003040000859
:1051900000000000100000000100000000093D00B8
:040000050800018965
:00000001FF
