:020000040800F2
:1000000000800120AD350008651300086713000863
:10001000691300086B1300086D130008000000004E
:100020000000000000000000000000006F13000846
:100030007113000800000000731300087513000816
:10004000FD350008FD350008FD350008FD350008C8
:10005000FD350008FD350008FD350008FD350008B8
:10006000FD350008FD350008FD350008FD350008A8
:10007000FD350008FD350008FD350008FD35000898
:10008000FD350008FD350008FD350008FD35000888
:10009000FD350008FD350008FD350008FD35000878
:1000A000FD350008FD350008FD350008FD35000868
:1000B000FD3500087D130008FD350008FD350008FA
:1000C000FD350008FD350008FD350008FD35000848
:1000D000FD350008FD350008FD350008FD35000838
:1000E000FD350008FD350008FD350008FD35000828
:1000F000FD350008FD350008FD350008FD35000818
:10010000FD350008FD350008FD350008FD35000807
:10011000FD350008FD350008FD350008FD350008F7
:10012000FD350008FD350008FD350008FD350008E7
:10013000FD350008FD350008FD350008FD350008D7
:10014000FD350008FD350008FD350008FD350008C7
:10015000FD350008FD350008FD350008FD350008B7
:10016000FD350008FD350008FD350008FD350008A7
:10017000FD350008FD35000800000000000000000B
:08018000FD350008FD35000803
:10018800044B05481B1A062B02D9044B03B1184728
:10019800704700BF730000207000002000000000BE
:1001A80005490648091A891001EBD171491002D096
:1001B800034B03B1184770477000002070000020FF
:1001C8000000000010B5064C237843B9FFF7D8FFAC
:1001D800044B13B10448AFF300800123237010BD12
:1001E80070000020000000000036000808B5084B29
:1001F8001BB108490848AFF300800848036813B9E1
:10020800BDE80840CCE7064B002BF9D09847F7E744
:100218000000000074000020003600087000002074
:100228000000000070B50F4E0F4D761BB61018BFBA
:10023800002405D0013455F8043B9847A642F9D16B
:100248000A4E0B4D761B03F0D7F9B61018BF0024E1
:1002580006D0013455F8043B9847A642F9D170BD41
:1002680070BD00BFE0360008E0360008E43600083C
:10027800E036000870B4860746D0541E002A41D0E4
:10028800CAB2034602E014F1FF343BD303F8012B52
:100298009D07F8D1032C2ED9CDB245EA05250F2CA0
:1002A80045EA054519D903F110022646103E0F2EDE
:1002B80042F8105C42F80C5C42F8085C42F8045CB6
:1002C80002F11002F2D8A4F1100222F00F0204F099
:1002D8000F041032032C13440DD91E462246043A4B
:1002E800032A46F8045BFAD8221F22F003020432DC
:1002F800134404F003042CB1C9B21C4403F8011BD5
:100308009C42FBD170BC704714460346C2E700BF4D
:100318002DE9F0410E46804600283ED08369002B27
:1003280039D084682F4B9C4243D02F4B9C4256D0E7
:100338002E4B9C4208BFD8F80C40A3891B073DD51B
:100348002369002B3AD0013EA36816F8015F013BF0
:10035800A360B5B1002B04DB23685A1C22601D7012
:10036800F2E7A769BB4222462946404601DB0A2D2F
:10037800F2D100F045F80130E6D14FF0FF30BDE88A
:10038800F081002B21DB23680A22591C21601A7096
:100398001046BDE8F08100F0DFFAD8F81830D8F838
:1003A8000840002BBED1404600F0D6FA0D4B9C42C7
:1003B800BBD1D8F80440A3891B07C1D421464046C5
:1003C80000F080F80028BED0D7E7224640460A2130
:1003D80000F016F80130D0D00A20BDE8F081D8F836
:1003E8000840AAE75C3600083C3600081C360008BE
:1003F800024B01461868FFF78BBF00BF00000020C2
:10040800F8B50D461446064610B18369002B42D054
:10041800254B9C4244D0254B9C4243D0244B9C42C4
:1004280008BFF468A389A269A2601A0722D52369C4
:1004380003B322686169D31AEDB28B422F4621DAE1
:100448000133A168501C0139A160206015706269F0
:100458009A4206D0A389DB0701D50A2D01D0384678
:10046800F8BD2146304600F03BF90028F7D04FF0A0
:10047800FF37F4E72146304600F024F80028F6D18B
:100488002369D6E72146304600F02AF90028EED144
:1004980022680123D5E700F05FFA034B9C42BAD1EA
:1004A8007468BFE7B468BDE75C3600083C360008EE
:1004B8001C360008024B0A4601461868FFF7A0BF21
:1004C80000000020384B70B51D6806460C4615B173
:1004D800AB69002B42D0354B9C4245D0344B9C42F3
:1004E80058D0344B9C4208BFEC68B4F90C2093B246
:1004F80019070CD52069A8B113F001021ED0636951
:1005080000225B42A361A260F0B1002070BDDD064D
:1005180042D558072AD4206942F00803A3819BB228
:100528000028E9D103F42072B2F5007FE4D0304608
:10053800214600F0AFFAA3892069DDE7990758BF83
:100548006269A2600028E0D1B4F90C301A06DDD542
:1005580043F04003A3814FF0FF3070BD284600F000
:10056800FBF9124B9C42B9D16C68BEE7616B51B183
:1005780004F14403994204D0304600F0CFFAB4F9AC
:100588000C200023636300232069636022F02402A7
:100598002060C1E7AC68A8E742F040020923336055
:1005A8004FF0FF30A28170BD000000205C360008CB
:1005B8003C3600081C3600088B891A072DE9F041E3
:1005C8000D46804633D44A68002A67DDEC6A002C61
:1005D80045D00022D8F80060C8F8002013F48052F3
:1005E80060D06A6D5F0705D569686B6B521A0BB1ED
:1005F8002B6CD21A0023296A4046A047441C39D0E4
:10060800AB892A692A60DB044FF000026A6043D490
:10061800696BC8F8006011B305F14403994202D030
:10062800404600F07BFA00206863BDE8F0810E695F
:10063800AEB10C680E6098070CBF4B690023A41B71
:100648008B600AE023463246AF6A296A4046B847BB
:100658000028A4EB0004064404DD002CF2DC002092
:10066800BDE8F081AB8943F04003AB814FF0FF3028
:10067800BDE8F081D8F800201D2AF3D8174BD340E5
:10068800DB4313F00103EDD1A9892C696B60C90420
:100698002C60BDD5002ABBD16865B9E70A6C002A71
:1006A80094DCDCE70123296A4046A047431C024644
:1006B80002D0AB89EC6A95E7D8F80030002BF8D067
:1006C8001D2B01D0162B02D1C8F80060C7E7AB89F3
:1006D80043F04003AB81BDE8F08100BF010040203A
:1006E8000B6933B310B5044682B008B18369ABB166
:1006F800114B994219D0114B994218D0104B99427D
:1007080008BFE168B1F90C3013B9002002B010BD80
:10071800204602B0BDE81040FFF74EBF019100F03F
:100728001BF90199044B9942E5D16168EAE7A16890
:10073800E8E70020704700BF5C3600083C36000838
:100748001C36000820B1054B01461868FFF7C8BFE2
:10075800034B0449186800F045B900BF00000020A9
:1007680018360008E906000800207047014900F023
:1007780039B900BFE90600080020704770B54A1E65
:10078800682505FB02F50E4605F1740100F00EFA26
:10079800044640B100210C30666005F16802216012
:1007A800A060FFF767FD204670BD00BF204B70B505
:1007B8001D68AB6906465BB348356B68AC68013B9E
:1007C80005D521E0013B5A1C04F168041CD0B4F99A
:1007D8000C20002AF6D100254FF6FF720123E28192
:1007E800A38165662560A560656025616561A56171
:1007F8002946082204F15C00FFF73CFD6563A56308
:10080800A564E564204670BD286828B10546D4E78C
:10081800284600F00FF8CFE704213046FFF7AEFF77
:1008280028600028F2D10C2304463360EAE700BFB1
:10083800183600083D4B3E491A682DE9F04F9042A2
:100848004FF000038364C364036508BF012383B0CA
:1008580008BF836181620746FFF7A8FF78603846C2
:10086800FFF7A4FFB8603846FFF7A0FF7D68F8607F
:1008780000240423AB812C606C60AC606C66EC8156
:100888002C616C61AC61214605F15C000822FFF720
:10089800F1FCBE68DFF89CB0DFF89CA0DFF89C9004
:1008A800DFF89C80C5F824B001230922C5F828A0E8
:1008B800C5F82C90C5F830802D622146F381B281AD
:1008C80034607460B460746634617461B46106F154
:1008D8005C0008220193FFF7CDFCFD683662122008
:1008E8000222C6F824B0C6F828A0C6F82C90C6F88C
:1008F80030802146A881EA812C606C60AC606C660F
:100908002C616C61AC6105F15C000822FFF7B2FC58
:10091800019B2D62C5F824B0C5F828A0C5F82C9015
:10092800C5F83080BB6103B0BDE8F08F1836000809
:1009380075070008950C0008BD0C0008F90C0008A4
:10094800190D0008024B0349186800F04BB800BFA6
:1009580018360008E9060008836903B96AE7704792
:10096800704700BF704700BF704700BF704700BFA7
:10097800024B0349186800F00FB800BF00000020C0
:1009880081070008024B0349186800F005B800BF4A
:1009980000000020710700082DE9F04110F1480718
:1009A8001BD0884600267D68BC68013D0FD4A3890A
:1009B800012B05F1FF3506D9B4F90E300133204675
:1009C80001D0C04706436B1C04F16804EFD13F68AF
:1009D800002FE8D13046BDE8F0813E463046BDE8FC
:1009E800F08100BF2DE9F84310F148071FD0884671
:1009F80006464FF000097D68BC68013D11D4A38903
:100A0800012B05F1FF3508D9B4F90E300133214621
:100A1800304602D0C04749EA00096B1C04F168045B
:100A2800EDD13F68002FE6D14846BDE8F883B946C6
:100A38004846BDE8F88300BF70B50C46B1F90E1002
:100A4800002990B015461E4613DB01AA00F08CF968
:100A580000280EDB029A02F47042A2F50052B2FAA4
:100A680082F252094FF48063002032602B6010B08C
:100A780070BDA38900221B06326004D540230020E4
:100A88002B6010B070BD4FF4806300202B6010B055
:100A980070BD00BF8A8992070B4606D501F147024F
:100AA80001211A601A6159617047F0B583B001AB32
:100AB8006A460C460546FFF7BFFF009906462846DA
:100AC80000F074F8B4F90C30D0B1019A124F0099C3
:100AD800AF6243F08003A3812060206161611AB98D
:100AE8003343A38103B0F0BD2846B4F90E1000F0DB
:100AF8004FF9B4F90C300028F2D043F00103EFE7C6
:100B08009A05EFD404F1470243F002030121A381BF
:100B1800226022616161E5E77507000891B151F82B
:100B2800043C0439002BB8BFC9181F4B1A68FAB126
:100B38008A4230B40AD908680C18A24226D04A6002
:100B4800196030BC70478B4203D81A465368002B93
:100B5800F9D1146815198D420DD006D808680C18FB
:100B68009C4219D04B605160EBE70C230360E8E727
:100B78004A601960704709680C4411199942146059
:100B8800DFD10ACB0C4453601460DAE7146852686A
:100B98004A6020440860D3E71C685B684B602044C7
:100BA80008605160CDE700BF8C00002070B5CC1CF8
:100BB80024F0030408340C2C38BF0C24002C0646FF
:100BC8003BDBA14239D8274D296851B10A68121B6D
:100BD80004D436E01A68121B1AD519464B68002B44
:100BE800F8D16968002937D02146304600F03CF832
:100BF800431C22D0C31C23F00305A84205D0291AA0
:100C0800304600F031F8013017D02C602B4604E054
:100C18000B2A0DD91A6013441C6003F10B0020F055
:100C280007001A1D821A02D05142995070BD70BD3A
:100C38008B420ED05A684A60EFE70C2333600020DD
:100C480070BD0B2A03D84A680B462A60E5E70B46B5
:100C5800E0E70A460B46F8E7304600F005F868601A
:100C6800C2E700BF8C00002038B5074C00230546BA
:100C78000846236000F0F2F8431C00D038BD236812
:100C8800002BFBD02B6038BDB401002010B50C46FA
:100C9800B1F90E1000F0A4F8002803DB636D0344DB
:100CA800636510BDA38923F48053A38110BD00BFE1
:100CB800002070472DE9F0411646B1F90C201F4677
:100CC800D3050C46054607D500220223B1F90E10BC
:100CD80000F070F8B4F90C20B4F90E1022F4805228
:100CE800A2813B4632462846BDE8F04100F014B8E0
:100CF80010B50C46B1F90E1000F05CF8A389421C3F
:100D08000EBF23F4805343F480536065A38110BD64
:100D1800B1F90E1000F016B870B50D46084C114622
:100D280006461A4628460023236000F0B7FA431CFB
:100D380000D070BD2368002BFBD0336070BD00BFAE
:100D4800B401002038B5074C002305460846236047
:100D580000F05CF8431C00D038BD2368002BFBD0A2
:100D68002B6038BDB401002038B50B46074C05464A
:100D7800114618460023236000F050F8431C00D0A9
:100D880038BD2368002BFBD02B6038BDB401002090
:100D980038B5074C002305460846236000F046F89E
:100DA800431C00D038BD2368002BFBD02B6038BD16
:100DB800B401002070B50D46084C114606461A4687
:100DC80028460023236000F039F8431C00D070BD8A
:100DD8002368002BFBD0336070BD00BFB401002036
:100DE80070B50D46084C114606461A46284600239B
:100DF800236000F02BF8431C00D070BD2368002B43
:100E0800FBD0336070BD00BFB4010020024B5822F4
:100E18001A604FF0FF307047B4010020024B58228F
:100E28001A604FF0FF307047B4010020024B58227F
:100E38001A600020704700BFB4010020024B5822FE
:100E48001A604FF0FF307047B4010020024B58225F
:100E58001A604FF0FF307047B4010020044A05497A
:100E68001368002B08BF0B461844106018467047DB
:100E780094000020B801002053B94AB9002908BFDE
:100E880000281CBF4FF0FF314FF0FF3000F07AB957
:100E9800ADF1080C6DE904CE00F006F8DDF804E0C9
:100EA800DDE9022304B070472DE9F0478C460D4672
:100EB8000446089E002B51D18A4217466DD9B2FAD2
:100EC80082FEBEF1000F0BD0CEF1200C01FA0EF518
:100ED80020FA0CFC02FA0EF74CEA050C00FA0EF4A4
:100EE8004FEA174A250CBCFBFAF81FFA87F90AFBE8
:100EF80018CC45EA0C4508FB09F3AB420AD9ED19B1
:100F080008F1FF3280F02381AB4240F22081A8F142
:100F180002083D44ED1AA4B2B5FBFAF00AFB1055DD
:100F280044EA054400FB09F9A14509D9E41900F18F
:100F3800FF3380F00A81A14540F2078102383C4422
:100F4800A4EB090440EA08400021002E61D024FAED
:100F58000EF4002334607360BDE8F0878B4207D934
:100F6800002E54D0002186E821000846BDE8F0870D
:100F7800B3FA83F1002940F08E80AB4202D382425B
:100F880000F2FA80841A65EB03050120AC46002EB6
:100F98003FD086E81010BDE8F08712B90127B7FBEB
:100FA800F2F7B7FA87FEBEF1000F34D1EB1B3A0C0B
:100FB8001FFA87FC0121B3FBF2F8250C02FB18335A
:100FC80045EA03450CFB08F3AB4207D9ED1908F1D4
:100FD800FF3002D2AB4200F2D1808046ED1AA3B2B4
:100FE800B5FBF2F002FB105543EA05440CFB00FC8C
:100FF800A44507D9E41900F1FF3302D2A44500F251
:10100800B8801846A4EB0C0440EA08409DE7314636
:101018003046BDE8F087CEF1200405FA0EF307FA52
:101028000EF720FA04F83A0C25FA04F448EA030803
:10103800B4FBF2F14FEA184502FB11441FFA87FC92
:1010480045EA044501FB0CF3AB4200FA0EF409D95A
:10105800ED1901F1FF3080F08A80AB4240F28780C1
:1010680002393D44EB1A1FFA88F5B3FBF2F002FB94
:10107800103345EA034500FB0CF3AB4207D9ED19E1
:1010880000F1FF386FD2AB426DD902383D44EB1AFC
:1010980040EA01418FE7C1F1200722FA07F88B40A7
:1010A80005FA01F448EA030320FA07FE4FEA134C55
:1010B800FD404EEA040EB5FBFCF94FEA1E440CFB5A
:1010C80019551FFA83F844EA054509FB08F4AC42B0
:1010D80002FA01F200FA01FA08D9ED1809F1FF3015
:1010E80043D2AC4241D9A9F102091D442D1B1FFA74
:1010F8008EFEB5FBFCF00CFB10554EEA054400FBD8
:1011080008F8A04507D9E41800F1FF3529D2A04511
:1011180027D902381C4440EA0940A4EB0804A0FB84
:1011280002894C45C6464D4615D312D056B1BAEB86
:101138000E0364EB050404FA07F7CB401F43CC40C9
:10114800376074600021BDE8F0871846F8E69046DD
:10115800E0E6C245EAD2B8EB020E69EB03050138B6
:10116800E4E72846D7E7404691E78146BEE70146CF
:1011780078E702383C4445E7084608E7A8F1020842
:101188003D442BE7704700BF84B00F4BDA6C42F048
:101198000102DA64DA6C02F001020192019ADA6C57
:1011A80042F01002DA64DA6C02F010020292029A3B
:1011B800DA6C42F00202DA64DB6C03F00203039398
:1011C800039B04B0704700BF0010024030B58BB0DD
:1011D8002422002101A8FFF74DF80C4D0C4B2B6081
:1011E800284600F06BF900240194029403940494B7
:1011F8000594224601A9284600F072F904941022A9
:1012080001A9284600F06CF90BB030BD9800002009
:101218000074004030B589B0002404940594069405
:1012280007940194029403940E4D0F4B2B606C604D
:10123800AC6041F28833EB602C618023AB612846B7
:1012480001F04EFD4FF48053049304A9284601F0A1
:101258006DFD0194039401A9284601F0D5FD09B05C
:1012680030BD00BFAC0000200004004008B50948AC
:10127800094B03604FF4E133436000238360C3608C
:1012880003610C2242618361C3610362436202F01D
:1012980032F908BDEC0000200038014038B50D4691
:1012A80014466FF07E43A2B22946034802F080F844
:1012B8000028F6D1204638BDEC00002030B5B9B082
:1012C8004422002127A8FEF7D5FF00242294239466
:1012D800249425942694882221466846FEF7CAFF5E
:1012E8001023279301252D9560232F9302233193F3
:1012F80032953395282234920722359236933793C4
:1013080027A800F089FA0F23229303232393249418
:1013180025942694042122A800F06AFD00950E94D5
:10132800684600F0A9FF4FF4007001F0C3FA39B025
:1013380030BD000008B500F097F9FFF7BFFFFFF7D1
:1013480023FFFFF743FFFFF765FFFFF78FFF024813
:10135800FFF74EF8FBE700BF7C3600087047FEE752
:10136800FEE7FEE7FEE770477047704708B500F0F4
:101378008BF908BD08B5024801F080FB08BD00BF25
:10138800AC00002082B00A4B1A6E42F001021A66C5
:101398001A6E02F001020092009A9A6D42F0805291
:1013A8009A659B6D03F080530193019B02B07047CF
:1013B8000010024000B589B00023039304930593FD
:1013C800069307930268124B9A4202D009B05DF85F
:1013D80004FB03F5CE339A6D42F000529A659A6D7C
:1013E80002F000520192019ADA6C42F00102DA64CA
:1013F800DB6C03F001030293029B30230393032366
:10140800049303A94FF0904001F062F9DEE700BFB2
:101418000074004002680E4B9A4200D0704700B535
:1014280083B003F503339A6D42F002029A659B6D0F
:1014380003F002030193019B002211461D2001F0D5
:1014480093FA1D2001F0C2FA03B05DF804FB00BF57
:101458000004004000B589B000230393049305936A
:10146800069307930268134B9A4202D009B05DF8BD
:1014780004FB03F558431A6E42F480421A661A6E4A
:1014880002F480420192019ADA6C42F00202DA64B4
:10149800DB6C03F002030293029BC0230393022335
:1014A8000493032306930723079303A9024801F033
:1014B8000FF9DBE7003801400004004870B110B5AF
:1014C8000446037933B102232371002020610123EC
:1014D800237110BD4371FFF76DFFF4E701207047DA
:1014E800F8B54379012B00F0948016460D46044662
:1014F80001234371022303710B68042B32D02B693B
:10150800012B79D02068C36B06F0100207219140A7
:1015180023EA01012B68AE683343EE6833439340F6
:101528000B43C363206803684FF48041914023EA6A
:10153800010303602068036840F6FC71914023EAC8
:101548000103696891400B43036020680368C02168
:1015580001FA02F223EA0202026001232371002049
:101568006071F8BD72B123685B6B002B25DA00F05F
:1015780097F80128F7D9236943F00803236103206A
:101588002071F8BD00F08CF8074623685B6B13F4F4
:10159800004F0BD000F084F8C01B0128F5D923694F
:1015A80043F00803236103202071F8BD012000F0F7
:1015B8007DF82368AA691A6405E0012000F076F82E
:1015C8002368AA695A642068836C06F0100240F206
:1015D800FF31914023EA0103E96991400B43836499
:1015E8002068C36CFF21914023EA0103296A01FAAC
:1015F80002F21343C36482E72068836B06F0100786
:101608001F21B94023EA01036A69BA40134383637F
:1016180078E70220F8BD0000104B1B680BB90120C9
:10162800704710B504464FF47A70B0FBF3F30C4AD8
:101638001068B0FBF3F001F0D7F968B90F2C01D9A5
:10164800012010BD002221464FF0FF3001F08CF937
:10165800044B1C60002010BD012010BD6400002058
:101668006C0000206800002010B5032001F06AF922
:101678000020FFF7D1FF10B10124204610BD044619
:10168800FFF780FEF9E70000034A13680349096879
:101698000B441360704700BFB001002064000020B5
:1016A800014B1868704700BFB001002038B50446E8
:1016B800FFF7F6FF0546B4F1FF3F02D0044B1B6865
:1016C8001C44FFF7EDFF401B8442FAD838BD00BF29
:1016D8006400002030B583B00546204B9B6D13F0A5
:1016E800805F0BD001F0DEF8B0F5007F17D0802DB9
:1016F8001FD82DD0702D2DD000211BE0174CA36DC5
:1017080043F08053A365A36D03F080530193019BBD
:1017180001F0C8F8A36D23F08053A365E4E7802D9A
:1017280003D9A02D03D9022104E0002102E0012100
:1017380000E003210A4A136823F007030B431360F0
:10174800136803F00703994206D0012003B030BDA7
:101758000221EFE70121EDE70020F7E70010024042
:1017680000200240284A9368D26802F0030213F06E
:101778000C030AD00C2B06D0042B1FD0082B20D02A
:101788000020024610E0012AF6D11F4A126812F022
:10179800080F0CD11C4AD2F89420C2F303221B492B
:1017A80051F8222043B100200C2B0DD07047164A67
:1017B8001268C2F30312F2E71046F5E71448002254
:1017C800F2E714480022EFE70F4BDB6803F003034E
:1017D800022B15D0032B15D00B49C868C0F3021093
:1017E800431CC868C0F3062000FB02F0B0FBF3F00E
:1017F800CB68C3F3416301335B00B0FBF3F0D5E77B
:10180800034AE9E7034AE7E700100240A036000868
:101818000024F40000127A00002800F0CD82F0B510
:1018280083B00446AB4B9D6805F00C05DE6806F0F6
:101838000306036813F0100F7ED0E5B10C2D18D005
:10184800A369002B00F0B580A24A136843F0010396
:101858001360FFF725FF07469E4B1B6813F0020F26
:1018680040F09480FFF71CFFC01B0228F4D9032323
:10187800B7E2012EE4D1974B1B6813F0020F03D097
:10188800A369002B00F09B82206A924B1B6813F01F
:10189800080F1DD08F4B1B6803F0F00383421ED244
:1018A800FFF718FF002840F093828A4B1A6842F02D
:1018B80008021A601A6822F0F002216A0A431A60C4
:1018C8005A6822F47F42E16942EA01225A601EE026
:1018D800804BD3F894301B0903F0F003DEE77D4B0F
:1018E8001A6842F008021A601A6822F0F002216AA7
:1018F8000A431A605A6822F47F42E16942EA0122E7
:101908005A60206AFFF7E6FE002840F06382FFF77E
:1019180029FF704B9B68C3F303136F4AD35C03F032
:101928001F03D8406D4B18606D4B1868FFF774FEA5
:101938000346002840F05582236813F0010F57D062
:10194800082D4CD00C2D48D06368B3F5803F6ED07D
:10195800B3F5A02F71D05F4B1A6822F480321A6059
:101968001A6822F480221A606368002B72D0FFF78D
:1019780097FE0746574B1B6813F4003F38D1FFF713
:101988008FFEC01B6428F5D903232AE2514B1A683D
:1019980042F008021A601A6822F0F002216A0A432B
:1019A8001A605A6822F47F42E16942EA01225A60C9
:1019B800C2E7484A136823F001031360FFF770FE7B
:1019C8000746444B1B6813F0020FB5D0FFF768FEBB
:1019D800C01B0228F5D9032303E2032EB4D13D4BE3
:1019E8001B6813F4003F03D06368002B00F0F481F8
:1019F800236813F0020F4FD0042D3CD00C2D38D0A3
:101A0800E368002B77D0334A136843F4807313607C
:101A1800FFF746FE06462F4B1B6813F4806F61D113
:101A2800FFF73EFE801B0228F5D90323D9E1294A96
:101A3800136843F48033136096E703F18043A3F5FA
:101A48003C331A6842F480221A601A6842F48032E1
:101A58001A6089E7FFF724FE07461E4B1B6813F43C
:101A6800003FC5D0FFF71CFEC01B6428F5D903232F
:101A7800B7E1022EC4D1174B1B6813F4806F03D053
:101A8800E368002B00F0AA81124A536823F0F85348
:101A9800216943EA01635360236813F0080F55D0A6
:101AA8006369002B3BD00B4AD2F8943043F0010312
:101AB800C2F89430FFF7F4FD0646064BD3F894308D
:101AC80013F0020F42D1FFF7EBFD801B0228F4D977
:101AD800032386E100100240883600086C000020CD
:101AE80068000020B74A536823F0F853216943EA95
:101AF80001635360D0E7B34A136823F4807313601B
:101B0800FFF7CEFD0646AF4B1B6813F4806FC3D0BA
:101B1800FFF7C6FD801B0228F5D9032361E1A94A16
:101B2800D2F8943023F00103C2F89430FFF7B8FDDF
:101B38000646A44BD3F8943013F0020F06D0FFF7F3
:101B4800AFFD801B0228F4D903234AE1236813F070
:101B5800040F7AD09B4B9B6D13F0805F36D1994B65
:101B68009A6D42F080529A659B6D03F08053019301
:101B7800019B0126944B1B6813F4807F28D0A3682F
:101B8800012B39D0052B3FD08E4BD3F8902022F073
:101B98000102C3F89020D3F8902022F00402C3F881
:101BA8009020A368002B3DD0FFF77AFD0746854BB0
:101BB800D3F8903013F0020F46D1FFF771FDC01B28
:101BC80041F288339842F2D903230AE10026D1E78B
:101BD8007D4A136843F480731360FFF761FD07467D
:101BE800794B1B6813F4807FC9D1FFF759FDC01BDF
:101BF8000228F5D90323F4E0724AD2F8903043F072
:101C08000103C2F89030CCE76E4BD3F8902042F035
:101C18000402C3F89020D3F8902042F00102C3F8E0
:101C28009020BEE7FFF73CFD0746664BD3F890309F
:101C380013F0020F08D0FFF733FDC01B41F28833C1
:101C48009842F2D90323CCE05EBBA36A002B00F0D4
:101C5800C7800C2D76D0022B29D05A4B1A6822F057
:101C680080721A601B6813F0205F04D1554AD3684C
:101C780023F00303D360534AD36823F0887323F413
:101C88008033D360FFF70CFD04464E4B1B6813F0FE
:101C9800007F55D0FFF704FD001B0228F5D9032368
:101CA8009FE0484A936D23F080539365CDE7454AFA
:101CB800136823F080731360FFF7F2FC0546414B6D
:101CC8001B6813F0007F06D0FFF7EAFC401B0228D0
:101CD800F5D9032385E03B4AD3683C491940E36AB8
:101CE800206B013843EA0013606B43EA0023E06B82
:101CF8004008013843EA4053206C4008013843EA61
:101D08004063A06B000943EA40430B43D360136868
:101D180043F080731360D36843F08073D360FFF798
:101D2800BFFC0446274B1B6813F0007F06D1FFF762
:101D3800B7FC001B0228F5D9032352E0002350E02A
:101D480000234EE0012B4FD01E4BDB6803F003014C
:101D5800E26A914201D0012343E003F07002216B53
:101D68000139B2EB011F01D001233AE003F4FE422E
:101D7800616BB2EB012F01D0012332E003F4003193
:101D8800A26B073A18BF0122914201D0012328E033
:101D980003F4C001E26B5208013AB1EB425F01D093
:101DA80001231EE003F0C063226C5208013AB3EB32
:101DB800426F1BD0012314E001231846704701230A
:101DC8000FE000BF00100240007000408C809DF9B9
:101DD800012306E0012304E0012302E0012300E0DF
:101DE8000023184603B0F0BD0123FAE70023F8E703
:101DF800002800F09B8070B504464E4B1B6803F02A
:101E080007038B420CD24B4A136823F007030B439A
:101E18001360136803F00703994201D0012070BDD5
:101E28000D46236813F0010F39D06368032B09D0DE
:101E3800022B26D063BB404A126812F0020F06D16B
:101E4800012070BD3C4A126812F0007F70D03A49F8
:101E58008A6822F0030213438B60FFF721FC0646D1
:101E6800354B9B6803F00C036268B3EB820F16D006
:101E7800FFF716FC801B41F288339842F0D9032003
:101E880070BD2D4A126812F4003FE0D1012070BDE8
:101E9800294A126812F4806FD9D1012070BD2368D5
:101EA80013F0020F06D0244A936823F0F003A168C8
:101EB8000B4393601F4B1B6803F007039D420CD232
:101EC8001C4A136823F007032B431360136803F0BD
:101ED80007039D4201D0012070BD236813F0040F51
:101EE80006D0154A936823F4E063E1680B439360D6
:101EF800236813F0080F07D00F4A936823F4605340
:101F0800216943EAC1039360FFF72CFC0A4B9B68E5
:101F1800C3F30313094AD35C03F01F03D840084BEB
:101F28001860084B1868FFF777FB70BD01207047F1
:101F3800012070BD002002400010024088360008D1
:101F48006C00002068000020014B1868704700BF33
:101F58006C00002008B5FFF7F7FF054B9B68C3F33B
:101F68000223044AD35C03F01F03D84008BD00BF16
:101F7800001002409836000808B5FFF7E5FF054B4A
:101F88009B68C3F3C223044AD35C03F01F03D84001
:101F980008BD00BF0010024098360008F8B55E4B37
:101FA800DB6813F0030F19D05B4BDB6803F0030306
:101FB8000268934204D00124002C48D02046F8BD82
:101FC800002A42D0544BDB68C3F302130133426842
:101FD800934201D00124EFE70024EDE70368022BC8
:101FE80018D0032B1DD0012B0DD00124002CE3D1D8
:101FF800494EF26822F073024568013D43EA051331
:102008001343F360D8E7444A126812F0020F14D061
:102018000024EBE7404A126812F4806F0FD00024C6
:10202800E4E73D4A126812F4003F0AD13A4A1268BE
:1020380012F4802F07D00024D8E70124D6E7012422
:10204800D4E70024D2E70124D0E70124B4E70F46FF
:102058000546314A136823F080631360FFF720FBBD
:1020680006462D4B1B6813F0006F05D0FFF718FBD1
:10207800801B0228F5D90324002C9FD14FBB264989
:102088000B6923F41F3323F44073A868EA68120924
:10209800520442EA002213430B611F4A136843F0BB
:1020A80080631360FFF7FCFA06461B4B1B6813F0AE
:1020B800006F05D1FFF7F4FA801B0228F5D9032435
:1020C800002C7FF47BAF144A1369A9690B43136191
:1020D80074E7012F0FD01048026922F0C06222F481
:1020E800FE42A9686B695B08013B5B0643EA012372
:1020F80013430361D1E70848026922F4C00222F4BD
:10210800FE42A9682B695B08013B5B0543EA012392
:1021180013430361C1E700BF00100240F8B5554BF7
:10212800DB6813F0030F19D0524BDB6803F003038D
:102138000268934204D00124002C48D02046F8BD00
:10214800002A42D04B4BDB68C3F3021301334268C9
:10215800934201D00124EFE70024EDE70368022B46
:1021680018D0032B1DD0012B0DD00124002CE3D156
:10217800404EF26822F073024568013D43EA0513B8
:102188001343F360D8E73B4A126812F0020F14D0E9
:102198000024EBE7374A126812F4806F0FD000244E
:1021A800E4E7344A126812F4003F0AD1314A12684F
:1021B80012F4802F07D00024D8E70124D6E70124A1
:1021C800D4E70024D2E70124D0E70124B4E70F467E
:1021D8000546284A136823F080531360FFF760FA16
:1021E8000646244B1B6813F0005F05D0FFF758FA2A
:1021F800801B0228F5D90324002C9FD14FBB1D4911
:102208004B6923F41F3323F44073A868EA68120962
:10221800520442EA002213434B61164A136843F002
:1022280080531360FFF73CFA0646124B1B6813F005
:10223800005F05D1FFF734FA801B0228F5D9032483
:10224800002C7FF47BAF0B4A536969690B435361D8
:1022580074E70848426922F0C06222F4FE42A96885
:102268002B695B08013B5B0643EA01231343436187
:10227800D3E700BF001002402DE9F04182B00446C8
:10228800036813F4006F2FD0436EB3F5800F23D08B
:1022980014D9B3F5000F18D0B3F5400F22D100269A
:1022A800002E40F09980654AD2F8883023F4400324
:1022B800616E0B43C2F88830374617E093B90021A6
:1022C8000430FFF76BFE0646EAE75C4AD36843F43E
:1022D8008033D3600026E3E700212030FFF71EFF9C
:1022E8000646DDE70126DBE700273E46236813F4B0
:1022F800805F15D0A36EB3F1807F7CD06ED9B3F127
:10230800007F72D0B3F1407F7CD1002E7CD14B4A44
:10231800D2F8883023F04073A16E0B43C2F888309E
:10232800236813F4003F00F09280444B9B6D13F038
:10233800805F6BD10123002B6AD0404B9A6D42F02D
:1023480080529A659B6D03F080530193019B4FF077
:1023580001083B4A136843F480731360FFF7A0F940
:102368000546374B1B6813F4807F05D1FFF798F9B2
:10237800401B0228F5D90326002E63D12F4BD3F832
:10238800903013F4407316D0D4F88420934212D0BE
:102398002A4AD2F8903023F44073D2F8901041F4CE
:1023A8008031C2F89010D2F8901021F48031C2F830
:1023B8009010C2F8903013F0010F2CD1002E40F08D
:1023C80044811E4AD2F8903023F44073D4F8841024
:1023D8000B43C2F8903036E0374687E793B90021BF
:1023E800201DFFF7DBFD06468FE7144AD36843F448
:1023F8008033D36089E7002104F12000FFF78EFEC7
:10240800064682E7012680E7374689E7002392E7F8
:102418004FF000089DE7FFF743F90546074BD3F84F
:10242800903013F0020FC9D1FFF73AF9401B41F27F
:1024380088339842F2D90326C0E700BF0010024053
:10244800007000403746B8F1000F40F00081236863
:1024580013F0010F08D09D4AD2F8883023F0030307
:10246800A16B0B43C2F88830236813F0020F08D021
:10247800964AD2F8883023F00C03E16B0B43C2F87C
:102488008830236813F0040F08D0904AD2F88830B7
:1024980023F03003216C0B43C2F88830236813F013
:1024A800080F08D0894AD2F8883023F0C003616C3D
:1024B8000B43C2F88830236813F0100F08D0834A02
:1024C800D2F8883023F44073A16C0B43C2F88830EB
:1024D800236813F0200F08D07C4AD2F8883023F400
:1024E8004063E16C0B43C2F88830236813F4007F23
:1024F80008D0764AD2F8883023F44023E16D0B43A4
:10250800C2F88830236813F4806F08D06F4AD2F875
:10251800883023F44013216E0B43C2F888302368B7
:1025280013F0400F08D0694AD2F8883023F440539A
:10253800216D0B43C2F88830236813F0800F08D050
:10254800624AD2F8883023F44043616D0B43C2F8E5
:102558008830236813F4807F08D05C4AD2F888302A
:1025680023F44033A16D0B43C2F88830236813F479
:10257800005F0FD0554AD2F8883023F04063E16EEF
:102588000B43C2F88830E36EB3F1006F65D0B3F146
:10259800806F67D0236813F4002F0FD04B4AD2F80E
:1025A800883023F04063216F0B43C2F88830236FD3
:1025B800B3F1006F5ED0B3F1806F60D0236813F47D
:1025C800802F0FD0414AD2F8883023F04063616FE2
:1025D8000B43C2F88830636FB3F1006F57D0B3F183
:1025E800806F59D0236813F4804F0FD0374AD2F840
:1025F800883023F04053A16F0B43C2F88830A36F93
:10260800B3F1805F50D0B3F1005F55D0236813F465
:10261800004F08D02D4AD2F8883023F08043E16F6C
:102628000B43C2F88830236813F4803F09D0274A47
:10263800D2F8883023F00043D4F880100B43C2F856
:102648008830384602B0BDE8F0813746FBE61F4ABD
:10265800936D23F080539365F9E6D36843F48013B0
:10266800D36097E70121201DFFF798FC002891D03F
:1026780007468FE7D36843F48013D3609EE70121B0
:10268800201DFFF78BFC002898D0074696E7D368F3
:1026980043F48013D360A5E70121201DFFF77EFCDA
:1026A80000289FD007469DE70221201DFFF776FCF2
:1026B8000028ABD00746A9E7022104F12000FFF764
:1026C8002DFD0028A2D00746A0E700BF0010024059
:1026D800F0B583B000239AE04FEAD30E0EF1080E4E
:1026E80050F82E4003F00706B6000F27B74024EA3B
:1026F80007040F6907FA06F6344340F82E4095E0C0
:1027080086682640CF6807FA0EF73E43866046681B
:1027180026EA05064F68C7F300179F403E43466008
:102728004E6806F00307032F00F09B80C5682C4015
:102738008D6805FA0EF52C43C4604C6814F0805F70
:1027480064D0544C256E45F001052566246E04F0CE
:1027580001040194019C9C08A61C4F4D55F8265075
:1027680003F00306B7000F26BE4025EA0605B0F1C0
:10277800904F00F08180494EB0427FD006F58066C8
:10278800B0427DD006F58066B0427BD006F5806603
:10279800B04279D006F58066B04277D006F58066FB
:1027A800B04267D00726BE40354302343A4E46F859
:1027B80024503B4C2568D44305EA04064F6817F4B7
:1027C800803F01D042EA0506354D2E606D6804EA67
:1027D80005064F6817F4003F01D042EA0506304D60
:1027E8006E60AD6804EA05064F6817F4801F01D0D3
:1027F80042EA05062A4DAE60ED682C404E6816F494
:10280800001F01D042EA0504254AD46001330A6852
:1028180032FA03F43CD001259D402A40F6D04C689A
:10282800022C3FF459AF122C3FF456AF06684FEA1A
:10283800430E032404FA0EF4E44326404F6807F0DD
:10284800030707FA0EF73E4306604E68771E012F0E
:102858007FF656AF112E3FF453AF122E7FF460AFC0
:102868004EE7C76A27EA0505C6F3C0069E402E4311
:10287800C6625BE7062696E7002694E7012692E7FC
:10288800022690E703268EE704268CE705268AE7CA
:1028980003B0F0BD001002400000014000040048F1
:1028A80000040140024B186800F4C060704700BF84
:1028B80000700040B0F5007F0FD01F4B1B6803F479
:1028C800C063B3F5806F34D01B4A136823F4C06328
:1028D80043F48063136000207047174B1B6803F4B0
:1028E800C063B3F5007F20D0134A136823F4C06394
:1028F80043F400731360114B1A68322303FB02F38D
:102908000F4AA2FB03239B0C013300E0013B0A4A58
:10291800526912F4806F01D0002BF7D1064B5B6926
:1029280013F4806F03D00320704700207047002005
:1029380070470020704700BF007000406C00002006
:1029480083DE1B43074AD36823F4E0631B041B0C94
:10295800000200F4E060184340F0BF6040F400302B
:10296800D060704700ED00E030B4164BDB68C3F36D
:102978000223C3F10704042C28BF04241D1D062DBF
:1029880017D9033B012505FA04F4013C214099407D
:1029980005FA03F3013B1340194300280BDB090137
:1029A800C9B200F1604000F5614080F8001330BC06
:1029B80070470023E6E700F00F000901C9B2024B97
:1029C8001954F4E700ED00E014ED00E0002808DBFE
:1029D800420900F01F00012303FA00F0014B43F8FD
:1029E8002200704700E100E00138B0F1807F0AD290
:1029F800064B5860F021064A82F8231000209860A0
:102A080007221A6070470120704700BF10E000E0FD
:102A180000ED00E010B4036A046A24F001040462C3
:102A2800846924F0F00444EA021223F00A030B43F9
:102A3800826103625DF8044B704710B4036A23F0A7
:102A4800100303628469036A24F4704444EA02327E
:102A580023F0A00343EA0113826103625DF8044B8B
:102A68007047836823F07003194341F007018160C0
:102A780070477047704770477047704710B50446F5
:102A880003681A6912F0020F11D0DA6812F0020F07
:102A98000DD06FF002021A610123037703689B6966
:102AA80013F0030F79D0FFF7E6FF0023237723689D
:102AB8001A6912F0040F12D0DA6812F0040F0ED05F
:102AC8006FF004021A610223237723689B6913F4C9
:102AD800407F68D02046FFF7CEFF00232377236886
:102AE8001A6912F0080F12D0DA6812F0080F0ED027
:102AF8006FF008021A61042323772368DB6913F057
:102B0800030F57D02046FFF7B6FF0023237723682B
:102B18001A6912F0100F12D0DA6812F0100F0ED0E6
:102B28006FF010021A61082323772368DB6913F416
:102B3800407F46D02046FFF79EFF00232377236877
:102B48001A6912F0010F03D0DA6812F0010F3FD1B1
:102B580023681A6912F0800F03D0DA6812F0800F28
:102B68003DD123681A6912F4807F03D0DA6812F025
:102B7800800F3BD123681A6912F0400F03D0DA683E
:102B880012F0400F39D123681A6912F0200F03D0D0
:102B9800DA6812F0200F37D110BDFFF76BFF20461F
:102BA800FFF76AFF81E72046FFF764FF2046FFF73B
:102BB80063FF92E72046FFF75DFF2046FFF75CFFC3
:102BC800A3E72046FFF756FF2046FFF755FFB4E777
:102BD8006FF001021A612046FFF74BFFB8E76FF06C
:102BE80080021A61204600F042F9BAE76FF4807259
:102BF8001A61204600F03CF9BCE76FF040021A6108
:102C08002046FFF73AFFBEE76FF020021A61204620
:102C180000F02CF9C0E700000368304A904212D057
:102C2800B0F1804F0FD0A2F5943290420BD002F54C
:102C38008062904207D002F58062904203D002F58C
:102C48009432904203D123F070034A681343234A15
:102C580090421ED0B0F1804F1BD0A2F59432904222
:102C680017D002F58062904213D002F5806290423C
:102C78000FD002F5943290420BD002F54062904298
:102C880007D002F58062904203D002F5806290423C
:102C980003D123F44073CA68134323F080034A69BD
:102CA800134303608B68C3620B6883620B4B9842C3
:102CB8000FD003F5006398420BD003F540639842A8
:102CC80007D003F58063984203D003F580639842E8
:102CD80001D10B690363012343617047002C014054
:102CE800A8B110B5044690F83D305BB1022384F8D2
:102CF8003D30211D2068FFF78FFF012384F83D3008
:102D0800002010BD80F83C30FEF784FBEEE7012080
:102D1800704710B4846824F47F4442EA03231943BB
:102D28000C4384605DF8044B7047000090F83C3019
:102D3800012B64D010B50446012380F83C300223EF
:102D480080F83D30026890682E4B034093600B6812
:102D5800402B4AD013D9602B3DD01ED9702B28D0D8
:102D6800B3F5005F30D1CB684A6889682068FFF7FF
:102D7800D0FF2268936843F48043936024E0102BCB
:102D880006D004D9202B03D0302B01D01CE0DBB9AE
:102D980019462068FFF765FE16E0502B14D1CA6863
:102DA80049682068FFF736FE50212068FFF759FE72
:102DB8000AE0CB684A6889682068FFF7AAFF22689A
:102DC800936843F077039360012384F83D30002033
:102DD80084F83C0010BDCA6849682068FFF72DFEDA
:102DE80060212068FFF73DFEEEE7CA684968206861
:102DF800FFF710FE40212068FFF733FEE4E70220CA
:102E0800704700BF8800FEFF90F83C30012B29D0A6
:102E180030B4012380F83C30022380F83D30046848
:102E28006368A268104DAC4217D005F50065AC4246
:102E380013D023F070030D682B4322F080028968B9
:102E48000A43636003689A60012380F83D300023D9
:102E580080F83C30184630BC704723F470034D6846
:102E68002B43E6E702207047002C0140704770476B
:102E7800704700002DE9784B0446016883680269B1
:102E8800134342691343C269134308689F4A0240C7
:102E980013430B602268536823F44053E1680B43E3
:102EA8005360A36922689A498A4201D0216A0B4378
:102EB800916821F430610B4393602368954A9342EB
:102EC80027D0954A934238D0944A93424ED0944A98
:102ED800934261D0934A934274D08D4A934200F052
:102EE8008A8010258A4A934200F0AA80E369B3F5E4
:102EF800004F00F02C81082D00F2B781DFE815F0B3
:102F080076018D019701B501A201B501B501B501A1
:102F1800AC0102F55842D2F8882002F00302032AD5
:102F280009D8DFE802F0020481060125DAE7042562
:102F3800D8E70825D6E71025D4E702F5E632D2F817
:102F4800882002F00C020C2A0ED8DFE802F0070DE8
:102F58000D0D090D0D0D6F0D0D0D0B000025C1E7B1
:102F68000425BFE70825BDE71025BBE702F5E432D5
:102F7800D2F8882002F03002102A09D005D9202A78
:102F880056D0302A06D10825ACE71AB90025A9E79A
:102F98000425A7E71025A5E702F5E232D2F8882034
:102FA80002F0C002402A09D005D9802A42D0C02A9E
:102FB80006D1082596E71AB9002593E7042591E775
:102FC80010258FE702F5E032D2F8882002F440722B
:102FD800B2F5807F0BD007D9B2F5007F2CD0B2F5BF
:102FE800407F06D108257DE71AB900257AE7042530
:102FF80078E7102576E702F5C832D2F8882002F47F
:103008004062B2F5806F0BD007D9B2F5006F15D0CA
:10301800B2F5406F06D1082564E71AB9002561E7C3
:1030280004255FE710255DE702255BE7022559E7E0
:10303800022557E7022555E7022553E7022551E700
:10304800082D11D8DFE805F0081005100C10101035
:103058001300354800260DE0FEF77CFF002609E046
:10306800FEF780FB002605E00020012602E04FF471
:1030780000400026002800F0CA80626802EB420384
:103088009842C0F0F580B0EB023F00F2F380082DC3
:103098005AD8DFE805F005591F59295959594F00E1
:1030A800FEF758FF00234FEA10694FEA00286268CC
:1030B800500818EB000B49F1000C58466146FDF723
:1030C800DBFEA0F54072194B9A4200F2D5802368C6
:1030D800D8609CE05508002315480021401941F1AB
:1030E8000001FDF7C9FEECE7FEF73CFB00234FEAC1
:1030F80010694FEA00286268500818EB000B49F184
:10310800000C58466146FDF7B7FEDAE7F369FFEFB2
:103118000080004000380140004400400048004062
:10312800004C0040005000400024F400FFFC0F0059
:10313800000024F450080021002310F5000041F19C
:103148000001FDF799FEBCE701260020B9E7082D2C
:1031580049D8DFE805F0051E2948344848483F00AB
:10316800FEF7F8FE6268530803EB4003B3FBF2F383
:103178009BB20026A3F110014FF6EF7291427DD861
:103188009AB222F00F02C3F3420313432268D360BA
:103198003DE0FEF7F1FE6268530803EB4003B3FB22
:1031A800F2F39BB20026E5E76268530803F1F47373
:1031B80003F59043B3FBF2F39BB20026DAE7FEF780
:1031C800D1FA6268530803EB4003B3FBF2F39BB2F6
:1031D8000026CFE76268530803F58033B3FBF2F3A8
:1031E8009BB20026C6E701260023C3E7FEF7B2FE1E
:1031F800636800EB5300B0FBF3F080B20026A0F147
:1032080010024FF6EF739A423AD82368D860002329
:10321800236663663046BDE8788BFEF7ADFE6368CB
:1032280000EB5300B0FBF3F080B20026E7E76368D9
:10323800580800F5740000F51050B0FBF3F080B2A8
:103248000026DCE7FEF78EFA636800EB5300B0FB5C
:10325800F3F080B20026D2E76368580800F5004012
:10326800B0FBF3F080B20026C9E701260020C6E7CC
:103278000126CCE70126CAE70126C8E70126C6E7EA
:103288000126C4E7436A13F0010F06D002685368A9
:1032980023F40033816A0B435360436A13F0020F2F
:1032A80006D00268536823F48033C16A0B43536025
:1032B800436A13F0040F06D00268536823F480238E
:1032C800016B0B435360436A13F0080F06D0026882
:1032D800536823F40043416B0B435360436A13F074
:1032E800100F06D00268936823F48053816B0B4358
:1032F8009360436A13F0200F06D00268936823F4A2
:103308000053C16B0B439360436A13F0400F0AD01C
:103318000268536823F48013016C0B435360036CF9
:10332800B3F5801F0BD0436A13F0800F06D00268F4
:10333800536823F40023816C0B4353607047026881
:10334800536823F4C003416C0B435360EBE72DE94A
:10335800F04105460F4616469846069C2B68DB69E1
:1033680037EA03030CBF01230023B3421DD1B4F194
:10337800FF3FF3D0FEF794F9A0EB0800844201D395
:10338800002CEBD12A68136823F4D07313602A68E1
:10339800936823F00103936020236B67AB670023D6
:1033A80085F870300320BDE8F0810020BDE8F08189
:1033B8002DE9F04182B01E46436F202B04D0022332
:1033C800184602B0BDE8F08104460D469046002933
:1033D80055D0002A55D090F87030012B01D1022326
:1033E800EEE7012380F870300023C3672123436789
:1033F800FEF756F90746A4F85080A4F85280A3684F
:10340800B3F5805F02D04FF0000814E0236913B1D0
:103418004FF000080FE0A84600250CE0226838F8B5
:10342800023BC3F308031385B4F852309BB2013B47
:103438009BB2A4F85230B4F852309BB273B10096E4
:103448003B46002280212046FFF781FFD8B9002D96
:10345800E4D0236815F8012B1A85E5E700963B466A
:10346800002240212046FFF772FF034608B10323DC
:10347800A6E720226267002284F87020A0E70123D3
:103488009EE701239CE703239AE730B583B00446FF
:103498000023C367FEF704F9054623681B6813F089
:1034A800080F0CD123681B6813F0040F15D12023D3
:1034B8006367A367002084F8700003B030BD6FF025
:1034C8007E430093034600224FF400112046FFF785
:1034D8003EFF0028E6D00320EFE76FF07E4300931D
:1034E8002B4600224FF480012046FFF730FF0028CA
:1034F800DDD00320E1E768B310B50446436F03B39A
:10350800242363672268136823F0010313602046AD
:10351800FFF7B0FC01281FD0636ABBB92268536863
:1035280023F4904353602268936823F02A0393603E
:103538002268136843F0010313602046FFF7A5FFD4
:1035480010BD80F87030FDF785FFD9E72046FFF7FA
:1035580099FEE3E70120704710BD00000F49D1F83C
:10356800883043F47003C1F888300D4B1A6842F074
:1035780001021A60002098601A6822F0A85222F40A
:1035880010221A604FF48052DA601A6822F48022FE
:103598001A6098614FF000638B60704700ED00E09F
:1035A80000100240DFF834D0002103E00C4B5B58D8
:1035B800435004310B480C4B42189A42F6D30B4A3D
:1035C80002E0002342F8043B094B9A42F9D3FFF783
:1035D800C5FFFCF727FEFDF7ADFEFEE700800120E2
:1035E800F036000800000020700000207000002065
:1035F800B8010020FEE70000F8B500BFF8BC08BC21
:103608009E467047F8B500BFF8BC08BC9E46704798
:10361800040000200000000000000000000000007E
:103628000000000000000000000000000000000092
:103638000000000000000000000000000000000082
:103648000000000000000000000000000000000072
:103658000000000000000000000000000000000062
:103668000000000000000000000000000000000052
:103678000000000048656C6C6F20576F726C640026
:10368800000000000000000001020304060708090A
:103698000000000001020304A0860100400D0300A1
:1036A800801A060000350C0040420F0080841E007E
:1036B80000093D0000127A000024F40000366E0173
:1036C8000048E801006CDC02430000000000000034
:0836D800D8D7FF7F01000000BC
:0836E000F501000800000000E4
:0836E800CD0100080000000004
:1036F00004000020000000005C3600083C36000892
:103700001C3600080000000000000000000000005F
:1037100000000000D036000800000000000000009B
:103720000000000000000000000000000000000099
:103730000000000000000000000000000000000089
:103740000000000000000000000000000000000079
:1037500000000000010000001000000000093D0012
:04000005080035AD0D
:00000001FF
