:020000040800F2
:10000000E01400207D0200087B300008F72F000874
:1000100079300008B1120008F53D0008000000002A
:100020000000000000000000000000009D0100082A
:10003000B312000800000000F9010008A937000809
:10004000970200089702000897020008970200082C
:10005000970200089702000897020008970200081C
:10006000970200089702000897020008970200080C
:1000700097020008970200089702000897020008FC
:1000800097020008970200089702000897020008EC
:1000900097020008970200089702000897020008DC
:1000A00097020008970200088938000897020008A4
:1000B0009702000895380008970200089702000888
:1000C00097020008970200089702000897020008AC
:1000D000970200089702000897020008970200089C
:1000E000970200089702000897020008970200088C
:1000F000970200089702000897020008970200087C
:10010000970200089702000897020008970200086B
:10011000970200089702000897020008970200085B
:10012000970200089702000897020008970200084B
:10013000970200089702000897020008970200083B
:10014000970200089702000897020008970200082B
:10015000970200089702000897020008970200081B
:10016000970200089702000897020008970200080B
:10017000970200089702000800000000000000003D
:100180009702000897020008DFF80CD000F0E2FCAC
:1001900000480047D5530008E01400202C4B196894
:1001A000086800F05AB880F30988BFF36F8F4FF0EA
:1001B000000080F3118870470000000008480068C4
:1001C000006880F308884FF0000080F3148862B65E
:1001D00061B6BFF34F8FBFF36F8F00DF00BF00BF6B
:1001E00008ED00E0DFF80C00016841F470010160E7
:1001F000704700BF88ED00E0EFF30980BFF36F8F19
:10020000134B1A681EF0100F08BF20ED108A20E96A
:10021000F04F106009B44FF0500080F31188BFF325
:100220004F8FBFF36F8F05F0D7FE4FF0000080F3C4
:10023000118809BC1968086800F014B81EF0100F86
:1002400008BF00F014B880F30988BFF36F8F7047C0
:100250001C000020EFF30580704730C8B0E8C04FA5
:10026000FFF7A1BF30C8B0E8C04FFFF7E7BFB0EC61
:10027000088AB0EC08CAFFF7E6BF000006488047CE
:1002800006480047FEE7FEE7FEE7FEE7FEE7FEE77B
:10029000FEE7FEE7FEE7FEE74538000889010008B3
:1002A0002DE9F05F0546002092469B4688460646AB
:1002B000814640241BE0284641464746224600F03E
:1002C00042FA53465A46C01A914110D31146184675
:1002D000224600F029FA2D1A67EB01084F46224604
:1002E0000120002100F020FA17EB00094E41201EEA
:1002F000A4F10104DFDC484631462A46434600F0BB
:1003000000B830BCBDE8C09F40EA01039B0703D0A2
:1003100009E008C9121F08C0042AFAD203E011F844
:10032000013B00F8013B521EF9D27047D2B201E006
:1003300000F8012B491EFBD270470022F6E710B5EA
:1003400013460A4604461946FFF7F0FF204610BD43
:100350000FB400B589B00BA800906A4603480A990B
:1003600000F002FA09B05DF814FB00007C000020E8
:100370002DE9FF4F087883B09946FF2805D0491C26
:100380002D2804D00024002008E000200BE00124E8
:10039000F9E700EB800003EB4000491C0B78FF2BD2
:1003A000F7D104B1404200230293147819461D4648
:1003B0002D2C01D02B2C04D1521C2D2C13D0002419
:1003C0000294AA461478FF2C0FD00A25A3FB0578C7
:1003D00001FB05814FF0000C03FB0C11521CE319CB
:1003E0004AEB0101EEE70124EAE7814453EA010008
:1003F00002D019F5C87F06DA03980021C0E9001180
:1004000007B000F065B90025AE4E2F46DFF8B88280
:10041000184600F046FBCDE90001B9F1000002DA10
:10042000C9F1000400E004460023A74A1AEB030BBD
:1004300042EB045A12E0E00707D02A46334638461A
:10044000414600F04AFA074688462A463346104697
:10045000194600F042FA05460E466410002CEAD117
:10046000DDE90001B9F1000F5A46534606DA00F003
:10047000A9FA3A46434600F0A5FA05E000F02DFA45
:100480003A46434600F029FA029A0AB181F0004147
:10049000039AC2E90001B3E72DE9FF4F1F468DB073
:1004A000D7E901464FF0FF382E2045464FF00009AE
:1004B0000B90B9696D1C0E988847396A8246884747
:1004C0000028F6D1BAF1FF3F0AD024F4D064002E00
:1004D00011DDBAF12B0F08D0BAF12D0F0BD102E0CC
:1004E000404611B08DE744F48064B9696D1C0E98E4
:1004F00088478246761E6946600501D52D2000E0BA
:100500002B208DF8000001F1010B0DF1200809E00E
:10051000B9696D1C0E98884782460F9844F40074A0
:10052000761E0560002E02DDBAF1300FF0D00B9977
:100530008A453ED144F0800406E00F99681CA9F179
:10054000010944F400740860B9696D1C761E0E98A8
:10055000884782463028F0D02BE00B998A4505D198
:10056000200603D444F08004761E18E0504603F0C1
:1005700038FD08B30DF11301761E44F400748B4569
:1005800008D2AAF130000BF8010B200607D5A9F11B
:10059000010003E0200602D409F101008146A00514
:1005A00002D50F99681C0860B9696D1C0E988847C0
:1005B0008246002ED1DC53E0002E51DDBAF1650FEA
:1005C00002D0BAF1450F4BD1A00549D5B9696D1CD0
:1005D00024F44074761E0E9888478246002E0CDD67
:1005E0002B2804D0BAF12D0F07D144F48074B969D7
:1005F0006D1C0E9888478246761EE00501D52D2198
:1006000000E02B2108F8011BCDF82C8021E00DF132
:100610002901761E44F4007488450CD2AAF13000FA
:1006200010F0FF0088F8000002D10B99884509D925
:1006300008F1010806E0E00501D5244801E042F296
:100640000F708146B9696D1C0E98884782460F98D5
:100650000560002E04DD504603F0C3FC0028D6D10F
:10066000F9690E988847FF208BF8000088F8000091
:100670000020069007904B466A4608A906A8FFF797
:1006800077FEA00502D46FF001002AE714F0240FD2
:100690000AD0E00714D1DDE906123868031D3B607B
:1006A0000068C0E900120BE0DDE9060100F036FA4F
:1006B0000146E00704D13868021D3A600068016015
:1006C00028460EE7000014400000F03FF1D8FFFF7D
:1006D00030BCBDE8C08F00F0004230F000400AD0CE
:1006E000C10D01F56071C0F3160042EA0151C20864
:1006F00040071143704700200146704730B50B4654
:10070000014600202022012409E021FA02F59D4241
:1007100005D303FA02F5491B04FA02F52844151E15
:10072000A2F10102F1DC30BD202A04DB203A00FAFC
:1007300002F1002070479140C2F1200320FA03F338
:10074000194390407047202A04DB203A21FA02F036
:100750000021704721FA02F3D040C2F120029140FB
:100760000843194670470000024B9361024BD36166
:1007700000F030BA09520008950B00082DE9FE4F31
:10078000804681EA0300C00F0C46009021F0004132
:1007900023F00045B8EB0200A94105D240462146AE
:1007A00090461C460B46024623F00040104347D0BB
:1007B000270DC7F30A00C3F30A510290401A0190B3
:1007C00040286BDAC3F3130040F4801B0098924674
:1007D00020B10023D2EB030A63EB0B0B01985946BF
:1007E000C0F140025046FFF79FFF06460D465046B7
:1007F0005946019A00F0D6F910EB08006141002437
:1008000087EA115284EAE7731A4340D0009A62B330
:10081000019A012A4FEA075215DC001B61EB020125
:100820004FF0004202EA0752CDE90042001C41F5B8
:10083000801132462B4600F021FA03B000F045B893
:1008400040462146F9E7001B61EB0201001C41F51F
:10085000801300185B412018A2F5001747EB030135
:1008600040EAD570B6196D4111E06D084FEA3606C1
:1008700045EAC0754FEA0752001B61EB0201001CFC
:1008800041F5801149084FEA3000001951413246C4
:100890002B4603B000F01CB800F0E1B9009801222B
:1008A00040000023D0EB020263EBE0730098214686
:1008B0004FEAE074B8EB000061EB0401E9E783F074
:1008C00000435BE781F0004158E730BCBDE8C08FD2
:1008D00030BCBDE8C04FFFF7DFBF2DE9FE4F81EA16
:1008E000030404F0004421F0004100944FF0000B99
:1008F00023F0004350EA01045ED052EA03045BD0C7
:10090000C3F30A54C1F30A552C44A4F2F3340194FE
:10091000A0FB0254C1F3130141F48011C3F313038C
:1009200043F4801301FB024400FB034E840A970A40
:1009300044EA815447EA8357A4FB076802958D0A6D
:1009400005FB07854FEA932C04FB0C542705029DF9
:100950004FEA065847EA1637B5EB08056EEB070C69
:10096000870E920E47EA811742EA8312A7FB020123
:10097000B6EB0B0164EB00042B0D43EA0C335E185D
:1009800044EB1C50DA465146E7FB0201C5F3130461
:100990004FEA0B3343EA14534FEA0432019C43EA13
:1009A0000603A4F10C040294009CCDE900B400F00D
:1009B00065F903B000F003B800200146F9E730BC48
:1009C000BDE8C08F2DE9F04D81EA030404F0004B2F
:1009D00021F0004514464FF0000A23F0004150EA90
:1009E000050220D054EA01021DD0C5F30A57024681
:1009F000C5F31303C1F31300C1F30A5640F4801585
:100A000043F48013A7EB0608101BD64608F2FD3806
:100A100073EB050002D308F1010801E092185B4175
:100A2000B8F1000F03DA00200146BDE8F08D002088
:100A30004FF48011064684460EE0171B73EB050742
:100A400005D3121B63EB050306434CEA010C49086E
:100A50004FEA300092185B4150EA0107EDD152EAAB
:100A6000030012D082EA040083EA0501084305D09E
:100A7000101BAB4106D20122002306E000224FF0FA
:100A8000004302E06FF0010253101AEB06004CEB3A
:100A9000085110EB0A0041EB0B01BDE8F04D00F0EE
:100AA000DEB80EB540F2334202920022CDE90022B8
:100AB000134600F0E3F803B000BDC1F30A52C1F3DE
:100AC000130140F2FF3341F480119A4202DA002010
:100AD0000146704740F233439A42A2F2334202DCAD
:100AE0005242FFF730BEFFF71FBE000030B5041EB4
:100AF00071F1000404DB4FF00044404264EB01015B
:100B0000141E73F1000405DB1C464FF000435242F3
:100B100063EB0403994208BF904230BD01F00043EB
:100B200030B421F0004150EA010206D00A0DA2F5CE
:100B30006072C1F31301002A02DC30BC0020704750
:100B4000440F44EAC104C100E01830BC00EBC250BD
:100B500000F04EB8064C074D06E0E06840F0010397
:100B600094E8070098471034AC42F6D3FFF710FB27
:100B70002C6D00084C6D0008094910B508784C1C14
:100B800018B1401E0870205C10BD00210720ABBECC
:100B9000207010BD02490878421C0A70704700009E
:100BA00084000020202A06DBCB17203A41FA02F00D
:100BB00043EAE07306E041FA02F3D040C2F12002BA
:100BC0009140084319467047026811441378016048
:100BD00018467047D16004495161044911620021EF
:100BE0001161114600F09EB8C90B0008190D0008EC
:100BF0000029A8BF7047401C490008BF20F0010031
:100C0000704710B4B0FA80FC00FA0CF050EA01040E
:100C100004BF10BC704749B1CCF1200421FA04F4A0
:100C200011FA0CF118BF012121430843A3EB0C0179
:100C3000CB1D4FEA00614FEA102042BF002010BCDC
:100C4000704700EBC35010440029A4BF10BC70478C
:100C5000401C490008BF20F0010010BC704710B5CF
:100C6000141E73F1000408DA401C41F100019218CF
:100C70005B411A4301D120F0010010BD2DE9F04D78
:100C800092469B4611B1B1FA81F202E0B0FA80F2CD
:100C900020329046FFF748FD04460F4640EA0A001E
:100CA00041EA0B0153465A46084313D0114653EA12
:100CB000010019D0C8F140025046FFF744FD054637
:100CC0000E46504659464246FFF72EFD084305D0D2
:100CD000012004E020463946BDE8F08D00200543A0
:100CE00046EAE0762C4337430A986305E40AA0EB12
:100CF00008000022FD0A44EA47540A3002D50020C9
:100D00000146E9E7010510196941DDE908450019C7
:100D10006941BDE8F04DA2E7C0B24FF4F05100F0D8
:100D20009BB900002DE9F34F8BB04FF0000801F1A3
:100D30000C000C464FF0010B46460DF1080A0190DD
:100D40006269012101989047051E2DD0252D2CD0D8
:100D5000216A8847C0B16269012101989047216AE0
:100D600088470028F7D1411E62690198904700E04A
:100D7000761CA1690B988847216A88470028F7D11B
:100D8000E1690B988847DBE7A1690B98884707461C
:100D9000A84201D1761CD3E7E1690B9888477F1CF4
:100DA00002D1B8F1000F6FD046E1002762693D46DD
:100DB0003946019890472A2804D162690121019897
:100DC00090470125DFF884926269012101989047DC
:100DD000A0F130010A290AD24F45E5DC07EB870173
:100DE00000EB4107303FDFD445F01005ECE7E906A2
:100DF00001D46FF000476C280AD04C2814D0682822
:100E000015D06A280DD074281CD07A281AD01DE07D
:100E100062690121019890476C2802D045F00405D1
:100E200014E045F002050DE045F020050AE0626996
:100E3000012101989047682802D045F0080505E097
:100E400045F400656269012101989047C4E90157A2
:100E500065283DD019DC58287AD00CDC452837D0DD
:100E600004DC252826D0412831D131E046282FD076
:100E700047282CD12CE05B2877D0612828D0632824
:100E80007CD0642823D15AE0D0E06F2848D008DC19
:100E900066281DD067281BD0692821D06E2816D15E
:100EA00027E0702845D0732868D0752847D0782867
:100EB0000DD14DE0A1690B988847054625283FF4E0
:100EC00069AFE1690B9888476D1C3FF46AAFB3E0E6
:100ED00023466A466FF001000B99FFF7DDFA9EE0AA
:100EE00045F040006060A80723464FF0000236D46A
:100EF0003EE0E8077FF447AF2068011D21600068ED
:100F0000290501D506701BE7290701D5068017E7DB
:100F1000A90703D5F117C0E9006111E706600FE7E3
:100F200045F040006060A80723464FF0080216D441
:100F30001EE040F60E0125EA0100606016E045F073
:100F400040006060A80723464FF00A0207D40FE074
:100F500045F040006060A80708D5234610226FF0D6
:100F600001000B99AFF3008059E007E023461022FF
:100F70006FF001000B99AFF3008050E04FF00009D3
:100F80004F464B46632802D05B2806D040E0E80677
:100F900001D40120A06001273AE062690121019893
:100FA00090475E2805D14FF00109626949460198D2
:100FB0009047216939B900210A46534643F8212058
:100FC000491C0829FADBB0B3216969B9C11700EBE4
:100FD000D16253110AEB830122F01F02821A012011
:100FE0000B68904003430B606269012101989047B0
:100FF0005D28E8D1B9F1000F09D00020514651F821
:101000002020D24341F82020401C0828F7DB02AB07
:10101000224600976FF001000B99AFF30080002883
:101020000CDA401C08D1BBF1000F05D04FF0FF30A7
:101030000DB000F00DB8FFE74046F9E7E90701D130
:1010400008F1010806444FF0000B79E6CCCCCC0C3B
:1010500030BCBDE8C08F00007F2801D9002208E025
:10106000064A02EB5002C007127800D1120902F0C2
:101070000F0201209040084070470000DC6C00081F
:1010800000B58FB04FF480710691D8210091019086
:101090004FF4806100200791C900039108900990E6
:1010A00005900B900C900D900A4802F0EDF968B98C
:1010B00041F288326946074800F067FD30B940F6D2
:1010C000AC51044801F0DAFF002800D001200FB035
:1010D00000BD00009810002010B51C4C1A4820607C
:1010E000204600F098FD60BB00F032F802206060FE
:1010F0004FF40001042091FAA1F1A060B1FA81F14E
:101100000020491EC4E903016061A061204600F08F
:101110009FFDB0B9204602F069F908B1042010BD66
:1011200001210A4802F000F958B90121074802F0EC
:101130007DF830B901206060044800F089FD002886
:10114000EDD0012010BD0000001000A0981000207C
:10115000154800B5016D87B041F480710165016DDE
:1011600001F480710591016B41F480710163016BA1
:1011700021F480710163C16C41F01001C164C06C45
:10118000694600F0100005904FF47C40009002206A
:10119000019000200290032003900A20049003484D
:1011A00000F082FA07B000BD0010024000100048B5
:1011B00030B58FB004464FF480700690EB2000905D
:1011C0004FF4406007904FF4005003904FF44040BC
:1011D0000890AA200290019100214FF040700990E0
:1011E0000420CDE90410CDE90A210C9141F28835A3
:1011F0000D912A466946074800F0C7FC30B92A46D7
:101200002146044800F0C6FD002800D001200FB0A0
:1012100030BD0000981000202DE9F0438146C8B28F
:10122000C0F580758FB0954200D915468E180C46D2
:1012300038204FF4807100904FF44060CDE90610E3
:101240004801039000204FF04072CDE9080205905C
:101250000B900C9041F2883788460D9013480A9500
:10126000019402F011F980B93A4669460F4800F03E
:101270008CFC50B93A4649460C4800F0F1FD20B9C3
:1012800039460A4801F0FAFE18B101200FB0BDE856
:10129000F0832C4404F58070A944B04201D9351B79
:1012A00000E04546B442D9D30020EFE79810002073
:1012B000FEE770472DE9F0470446407900270E46C7
:1012C00001280BD04FF0010984F80590022020710D
:1012D000306802F01005042803D043E00220BDE886
:1012E000F0874FF0030802BB00F0C4FA074604E0A1
:1012F00000F0C0FAC01B01280FD82068406B000422
:10130000F6D4012000F00AF92168B069086416E0FB
:1013100000F0B0FAC01B012807D9206940F008008E
:10132000206184F804800320D9E72068406B0028FE
:10133000EEDB012000F0F2F82168B0694864206813
:10134000816C40F2FF32AA409143F269AA401143F6
:1013500081642068C16CFF22AA409143326AAA408E
:101360001143C1643069012808D12268916B1F20A4
:10137000A84081437069A840084390632268D16BFC
:101380000720A8408143B36830681843F3681843C6
:10139000A8400843D063206801684FF48042AA4007
:1013A000914301602268116840F6FC70A8408143B7
:1013B0007068A8400843106020680168C022AA40F5
:1013C0009143016084F804900020607187E7006811
:1013D00009B1006B7047C06A704770B5040003D054
:1013E0002079002510B105E0012070BD657120460F
:1013F00000F008F8022020712561012020710020F2
:1014000070BD000010B586B0044614216846FEF792
:1014100094FF1149206888421BD11048816D41F02A
:1014200000518165816D01F000510591C16C41F061
:101430000101C164C06C694600F0010005903020D4
:10144000009003200190002002904FF0904000F0A7
:101450002BF906B010BD00000074004000100240DF
:1014600018B5046800940068104421B1143000904D
:101470000360002018BD0830F9E770B54279012AF1
:1014800014D0012242710223037103681D6801F028
:10149000100602FA06F425431D60002901680B6856
:1014A00006D0C3F38343012B0AD00DE0022070BDA8
:1014B000C3F38303012B07D14B6843F0010302E020
:1014C0004B6843F002034B600271002141710846F2
:1014D00070BD10B590F825100022022905D0042116
:1014E000C16380F82420012010BD01680B6823F03F
:1014F0000E030B6001680B6823F001030B6090F88A
:101500004410046C01F01C03012101FA03F3636031
:1015100080F8251080F82420104610BD70B50446D0
:1015200000F0A8F90546601C02D004484068044455
:1015300000F0A0F9401BA042FAD370BD0C000020BF
:101540002DE9F84F00230126DFF834C10F2791E081
:1015500006FA03F414EA01027ED023F00305654481
:10156000AA46D5F808909D074FEA157E07FA0EF5B2
:1015700005EA090B0095B0F1904F05D0414DA84206
:1015800005D14FF0010822E04FF000081FE03E4D6A
:10159000A84202D14FF0020819E03C4DA84202D106
:1015A0004FF0030813E03A4DA84202D14FF004086F
:1015B0000DE0384DA84202D14FF0050807E0364D46
:1015C000A84202D14FF0060801E04FF0070808FAE0
:1015D0000EF8D84524D1DFF8C480D8F8009029EA65
:1015E0000209C8F8009008F10408D8F8009029EA28
:1015F0000209C8F8009008F10408D8F8009029EA18
:101600000209C8F8009008F10408D8F80050954382
:10161000C8F80050009ADAF808509543CAF8085004
:10162000D0F800804FEA4309032202FA09F248EA9F
:101630000208C0F80080DD0800EB8505AA46D5F851
:1016400020804FEA43794FEAD96907FA09F528EA79
:101650000508CAF8208000E00BE0856895438560A6
:101660004568A5434560C5689543C560C26AA24305
:10167000C2625B1C31FA03F27FF46AAF00F010B86B
:10168000000001400004004800080048000C004829
:1016900000100048001400480018004800040140F1
:1016A00018BCBDE8E08F00002DE9F84FDFF898B1D5
:1016B00000234FF0010C4FF0030A4FF00F090BF11C
:1016C000040EB9E00CFA03F4224070D04D68022DEC
:1016D00001D0122D0ED1DD0800EB8508D8F820507E
:1016E0005E07F70E09FA07F6B5430E69BE402E43B2
:1016F000C8F8206007685E0091F804800AFA06F5D1
:1017000008F00308AF4308FA06F848EA0708C0F8EB
:1017100000804F68012F05D0022F03D0112F01D078
:10172000122F13D1D0F80880CF6828EA0508B740F7
:1017300047EA08078760D0F804800F7928EA040890
:10174000C7F300179F4047EA08074760D1F80480B5
:101750006FEA0807BF0706D1C76AA743C8F3C004EA
:101760009C403C43C462C468AC438D68B54025438B
:10177000C5604C68E4005ED5344C256E45F001052B
:101780002566246E23F0030504F001040094304C18
:101790002E19B4689D072F0F09FA07F5AC43B0F175
:1017A000904F05D02B4DA84204D101251CE042E00A
:1017B000002519E0284DA84201D1022514E0274D4B
:1017C000A84201D103250FE0254DA84201D10425EF
:1017D0000AE0244DA84201D1052505E0224DA8428A
:1017E00001D1062500E00725BD402543B560DBF8A3
:1017F00000405D464E689443F60300D514432C60C8
:10180000DEF8004075464E689443B60300D5144395
:101810002C600D4D08352C684E689443F60200D5B7
:1018200014432C60084D0C352C684E689443B60266
:1018300000D514432C605B1C0A6832FA03F57FF470
:1018400041AF00F013B80000000401400010024056
:10185000000001400004004800080048000C004857
:1018600000100048001400480018004818BCBDE8EB
:10187000E08F000001488068704700000C000020E5
:101880000248816842681144816070470C00002062
:1018900010B50024032000F08DF8002000F008F8B7
:1018A00008B1012401E000F03DF8204610BD000021
:1018B00000B5014687B000221A2000F05BF81A201C
:1018C00000F04AF81348016E41F480210166006E71
:1018D00005A900F480200690684600F08BFD00F01A
:1018E000BBFD0D490D4AB0FBF1F10D48491E0260E8
:1018F000416040F2E7320021C0E90321816001F03C
:10190000B3F810B1012007B000BD054801F0E6F8BA
:10191000F9E700000010024040420F00004801407B
:10192000B00300200B4882B0016E41F00101016656
:10193000016E01F001010091816D41F080518165DE
:10194000806D002200F0805000900F21901E02B0A8
:1019500000F010B800100240002809DB00F01F0260
:10196000012191404009800000F1E020C0F8001101
:1019700070470000F0B40E4B1B680C46C3F3022303
:10198000C3F10705042D00D90425191D072901D22B
:10199000002300E0DB1E012606FA05F1491E214066
:1019A00099409E40761E16403143F0BC02F034BA96
:1019B0000CED00E0064900F0070208684FF6FF034F
:1019C000184040EA0220034A1043086070470000B4
:1019D0000CED00E00000FA051649B0F5007F08683C
:1019E000C0F3412009D0022805D0086820F4C06067
:1019F00040F480600860002070470128FBD0086830
:101A000020F4C06040F4007008600B483222006887
:101A100050430A4AB0FBF2F0401C00E0401E4A6905
:101A2000520501D50028F9D148694005E3D50320C6
:101A300070470000007000401800002040420F0076
:101A40000248006800F4C060704700000070004069
:101A5000F8B504460025FFF70DFF064694F8390057
:101A6000800736D5002084F83800206801684907CF
:101A70000BD5016821F004010160606BFFF729FDBF
:101A800018B1E06B40F00400E0632068016841F0A9
:101A900002010160206C00903346012202212046A1
:101AA00001F0CEFC050014D121680220C860206C32
:101AB0000090334600222021204601F0C1FC0500A1
:101AC00007D12068416921F040614161012084F81B
:101AD00039002846F8BD00002DE9F84F1E4615468E
:101AE0008A460446FFF7C6FE814694F8380001286E
:101AF0000ED0012784F8387094F839004FF00008B0
:101B0000012807D05FF0020084F8388000F03AB86E
:101B10000220FBE7C4F83C80422084F839004B46A1
:101B2000002220212046009601F08AFC0028EBD1FB
:101B30002168286888622168686848622168A86806
:101B4000C86220682969026822F4400242F48002D7
:101B500011430160E968CAF828104FF0006251464D
:101B6000204601F0B3FA4B46012208212046009698
:101B700001F066FC0028C7D122680821D16084F8F2
:101B80003970C1E718BCBDE8E08F2DE9F84F174662
:101B90008B460446FFF76EFE824694F83800012813
:101BA0000ED0012684F8386094F839004FF0000810
:101BB000012807D0022584F83880284600F028B88C
:101BC0000220FBE7C4F83C804FF0020984F839900A
:101BD0005346002220212046009701F031FC0500E9
:101BE000E9D100225946204601F070FADBF82400C2
:101BF00058B95346012202212046009701F020FCEB
:101C00000500D8D12168C1F80C9084F83960D2E77A
:101C100018BCBDE8E08F10B5040015D094F838006A
:101C2000012813D0012084F838002068016821F0D1
:101C300001010160204600F063F80020E06384F8B1
:101C4000390084F8380010BD012010BD022010BDFD
:101C5000F8B50446FFF70EFE06465CB194F838006E
:101C6000012809D0012784F8387094F8390000253C
:101C700020B10BE00120F8BD0220F8BD84F83850F7
:101C8000204600F053F841F2883020642068016853
:101C9000A2686FF0FF0321F4706103EB022211438D
:101CA0000160206C0090334600222021204601F084
:101CB000C7FBE8B921680A680F4B1A40237942EA4A
:101CC0000362E3681A430A60D4E9051211432268EB
:101CD00053680A4E3340268A43EA0643194351604B
:101CE00021680A6842F001020A60E56384F83970ED
:101CF00084F83850F8BD0000EFFFFF00FEF8E0FF69
:101D000000680749884209D10648016D21F48071B5
:101D100001654FF47C410448FFF712BC7047000096
:101D2000001000A0001002400010004810B586B05E
:101D3000044614216846FEF700FB134920688842D8
:101D40001FD11248016D41F480710165016D01F4EC
:101D500080710591C16C41F01001C164C06C69468D
:101D600000F0100005904FF47C400090022001909C
:101D700000200290032003900A2004900448FFF7FB
:101D800093FC06B010BD0000001000A0001002403F
:101D9000001000482DE9F84F15460F460446FFF79E
:101DA00069FD82462068816994F8382000F1200995
:101DB000012A0DD0012684F8386094F839204FF0BC
:101DC0000008012A06D0022084F8388000F044B8C8
:101DD0000220FBE7C4F83C80BFB3222284F83920FC
:101DE0000269521C22630269521CE262A7624269C4
:101DF00022F0406242F080624261206881610EE020
:101E00000621204601F01CFBE0B999F80000A16A08
:101E10000870A06A401CA062206B401E2063206BEB
:101E200053464FF0010200950028E9D14FF002011E
:101E3000204601F005FB28B921680220C860204631
:101E4000FFF706FE84F83960BEE7FFE7E06B40F07D
:101E50000800E0630120B7E718BCBDE8E08F000090
:101E60002DE9F84F15460F460446FFF703FD82465D
:101E7000206894F8381000F1200901290ED00126BD
:101E800084F8386094F839104FF00008012907D021
:101E90005FF0020084F8388000F040B80220FBE7D1
:101EA000C4F83C809FB3122184F839100169491CA1
:101EB00061620169491C2162E761416921F0406169
:101EC00041610EE00421204601F0BAFAE0B9E06970
:101ED000017889F80010E069401CE061606A401EEA
:101EE0006062606A53464FF0010200950028E9D114
:101EF0004FF00201204601F0A3FA28B92168022020
:101F0000C8602046FFF7A4FD84F83960C2E7FFE708
:101F1000E06B40F00800E0630120BBE718BCBDE8BF
:101F2000E08F00002DE9F84F044600270088E54DBA
:101F30003E46010504F1200B1DD5606E78B1B0F569
:101F4000800F11D0B0F5000F04D0B0F5400F22D0B3
:101F500001270FE0E86840F48030E8601BE00021D2
:101F6000201D01F0C5FA03E00021584601F056FBA0
:101F7000070010D03E462088C00426D5A06EC0B110
:101F8000B0F1807F1AD0B0F1007F0DD0B0F1407F6A
:101F900019D0012718E0D5F88800616E20F44000C0
:101FA0000843C5F88800E6E7E86840F48030E86058
:101FB00009E00021201D01F09BFA03E000215846B2
:101FC00001F02CFB0746F7B13E46206880033AD566
:101FD000A86D4FF00008C00009D4A86D40F08050F3
:101FE000A865A86D4FF0010800F080500090DFF860
:101FF000D8A2DAF8001041F48071CAF80010FFF797
:1020000039FC814610E0D5F88800A16E20F04070C0
:102010000843C5F88800D8E7FFF72CFCA0EB0900BF
:10202000022801D9032705E0DAF80000C005F3D53E
:10203000002F7CD04FEA0706B8F1000F03D0A86D3F
:1020400020F08050A8652078C00707D0D5F8880018
:10205000A16B20F003000843C5F8880020788007B2
:1020600007D5D5F88800E16B20F00C000843C5F8CF
:1020700088002078400707D5D5F88800216C20F02B
:1020800030000843C5F888002078000707D5D5F848
:102090008800616C20F0C0000843C5F888002078F3
:1020A000C00607D5D5F88800A16C20F4407008431D
:1020B000C5F888002078800607D5D5F88800E16C3F
:1020C00020F440600843C5F888002088800507D5C3
:1020D000D5F88800E16D20F440200843C5F8880059
:1020E0002088400507D5D5F88800216E20F44010DF
:1020F0000843C5F888002078400607D5D5F8880041
:10210000216D20F440500843C5F88800207800066F
:1021100007D5D5F88800616D20F440400843C5F824
:1021200088002088C00509D5D5F8880000E01CE0AB
:10213000A16D20F440300843C5F8880020884FF096
:10214000006780044FF080684FD5D5F88800E16EB5
:1021500020F040600843C5F88800E06EB8423CD1EA
:10216000E86840F48010E8603FE0D5F8900010F493
:10217000407015D0D4F88410814211D0D5F8900069
:10218000D5F8901020F4407041F48031C5F89010DB
:10219000D5F8901021F48031C5F89010C5F8900062
:1021A000C00710D0FFF766FB074641F2883906E00A
:1021B000FFF760FBC11B494501D903263CE7D5F871
:1021C00090008007F4D5D5F89000D4F8841020F45E
:1021D00040700843C5F890002EE7404505D1012125
:1021E000201D01F085F900B106462068000317D5CF
:1021F000D5F88800216F20F040600843C5F88800BA
:10220000206FB84204D1E86840F48010E86007E02D
:10221000404505D10121201D01F06AF900B10646B3
:102220002068400317D5D5F88800616F20F0406022
:102230000843C5F88800606FB84204D1E86840F4EC
:102240008010E86007E0404505D10121201D01F024
:102250004FF900B10646208840041AD5D5F8880009
:10226000A16F20F040500843C5F88800A06FB0F17E
:10227000805F03D0B0F1005F05D00AE00221201D8D
:1022800001F036F903E00221584601F0C7F900B128
:1022900006462088000407D5D5F88800E16F20F0B5
:1022A00080400843C5F888002068C00307D555F86A
:1022B000880FD4F8801020F0004008432860304692
:1022C00000F004B8001002400070004018BCBDE8E7
:1022D000E08F00002DE9F0470F46050058D0404E32
:1022E000306800F00700B84209D2306820F00700DB
:1022F00038433060306800F00700B84248D1287891
:10230000384CC0072CD06868032811D0022812D09E
:10231000216898B1490500293ADAA16821F0030142
:102320000143A160FFF7A6FA804641F2883910E028
:1023300021688901EFE721688903ECE78907EAE76B
:10234000FFF798FAA0EB0801494502D90320BDE840
:10235000F087A068696800F00C00B0EB810FEFD146
:102360002878800705D5A068A96820F0F000084308
:10237000A060306800F00700B8420BD9306820F048
:10238000070038433060306800F00700B84201D0E1
:102390000120DCE72878400705D5A068E96820F42B
:1023A000E0600843A0602878000706D5A068296986
:1023B00020F4605040EAC100A06000F05FF8A1681E
:1023C000094AC1F30311515C01F01F01C8400749DC
:1023D000086007480068BDE8F047FFF769BA0000E9
:1023E0000020024000100240906400081800002005
:1023F0000C0000200F2202600C4A936803F00303D4
:102400004360936803F0F0038360936803F4E06330
:10241000C36092684FF4E06303EAD20202610448A9
:10242000006800F0070008607047000000100240DC
:10243000002002400548064900688968054AC1F342
:102440000221515C01F01F01C840704718000020B4
:1024500000100240D06400080548064900688968F9
:10246000054AC1F3C221515C01F01F01C840704709
:102470001800002000100240D064000870B5254903
:10248000002318468A68CC6812F00C0204F0030698
:10249000214C4FEA640509D00C2A05D0042A32D019
:1024A000082A00D1284670BD012E10D10B681B07E9
:1024B00004D4D1F89430C3F3032302E00B68C3F3D0
:1024C0000313164E56F82330DAB10C2AEBD1C86844
:1024D00000F00300022818D0032818D01846CA6854
:1024E000CB68C2F30212C3F306234343521CB3FB6F
:1024F000F2F2C868C0F34160401C4000B2FBF0F04B
:1025000070BD184670BD204670BD2046E7E72846DE
:10251000E5E70000001002400024F400A064000879
:102520002DE9F84304006ED0FD4DA86800F00C06BC
:10253000E86800F003072078C00663D576B10C2E5A
:1025400001D1012F0AD0A0690028286878D040F076
:1025500001002860FFF78EF980465BE0286880075D
:1025600002D5A0690028DED0216A2868000703D5BB
:10257000286800F0F00004E0D5F89400F02202EAA8
:102580001010814216D9084601F0CCF800283AD143
:10259000286840F0080028602868216A20F0F000D0
:1025A000084328606868E16920F47F4040EA012020
:1025B000686015E0286840F0080028602868216AF3
:1025C00020F0F000084328606868E16920F47F404B
:1025D00040EA01206860206A01F0A4F80028D6D102
:1025E000FFF74CFFA968CF4AC1F30311515C01F01A
:1025F0001F01C840CC490860CC480068FFF758F973
:1026000000287DD12DE0C9E0FFF734F9A0EB0800E8
:10261000022876D828688007F6D5286840F0080098
:1026200028602868216A20F0F00008432860686864
:10263000E16920F47F4040EA0120686011E0FFE793
:1026400020F001002860FFF715F9804606E000BF82
:10265000FFF710F9A0EB08000228DAD828688007F5
:10266000F6D42078C00740D0082E18D00C2E01D107
:10267000032F14D06068B0F5803F17D0B0F5A02FBD
:10268000286817D020F480302860286820F4802043
:1026900028606068E0B1FFF7EDF8804614E0286834
:1026A000800322D56068002878D01EE0286840F4B6
:1026B0008030EDE740F480202860F7E7FFF7DAF894
:1026C000A0EB08006428A4D828688003F6D50CE0A5
:1026D000FFF7D0F8804605E0FFF7CCF8A0EB080044
:1026E000642896D828688003F6D4207880073BD5E4
:1026F000042E11D00C2E01D1022F0DD0E06801E084
:102700003EE19FE0002828681ED040F480702860D9
:10271000FFF7B0F807460CE0286840050CD5E068E4
:102720000028C1D008E000BFFFF7A4F8C01B0228B2
:1027300093D828684005F7D56868217C20F0F850C8
:1027400040EA016068600FE020F480702860FFF7C5
:1027500091F8074605E000BFFFF78CF8C01B022880
:1027600070D828684005F7D42078000729D560691B
:102770000028D5F8940012D040F00100C5F894006C
:10278000FFF778F8074604E0FFF774F8C01B02284B
:1027900058D8D5F894008007F6D512E029E120F04A
:1027A0000100C5F89400FFF765F8074605E000BF93
:1027B000FFF760F8C01B022844D8D5F894008007C2
:1027C000F6D42078400768D5A86D0027C00008D44B
:1027D000A86D40F08050A865A86D012700F08050DA
:1027E000009053480168C90512D40168814641F43C
:1027F00080710160FFF73EF8804605E0FFF73AF888
:10280000A0EB080002281DD8D9F80000C005F5D5B6
:10281000A068012817D00528D5F8900018D020F01E
:102820000100C5F89000D5F8900020F0040000BF2A
:10283000C5F89000A06841F28839D0B1FFF71AF8C6
:10284000804611E06BE0D5F8900040F00100EFE722
:1028500040F00400C5F89000F5E700BFFFF70AF864
:10286000A0EB080149455AD8D5F890008007F5D566
:102870000EE0FEF7FFFF804606E000BFFEF7FAFF1E
:10288000A0EB080149457AD8D5F890008007F5D427
:102890001FB1A86D20F08050A865A06AF0B30C2E7F
:1028A00075D00228286820F08070286004D028683D
:1028B00010F0205F51D054E0FEF7DCFF064604E044
:1028C000FEF7D8FF801B022859D828688001F7D46A
:1028D000D4E90B016FF00F0202EB01110843A18F45
:1028E0005204490802EB4151626B41EA022108435C
:1028F00094F840104FF07E42490802EB41610843D2
:10290000A16B090940EA4140E9680A4A11400843BD
:10291000E860286840F0807028600DE06BE02EE0F1
:102920000010024090640008180000200C000020F5
:10293000007000408C809DF9E86840F08070E8608D
:10294000FEF798FF044604E0FEF794FF001B022800
:1029500015D828688001F7D54DE0E86820F003001D
:10296000E860E86825490840E860FEF783FF044610
:1029700009E000BFFEF77EFF001B022803D90320F9
:10298000BDE8F88303E028688001F3D433E0012830
:10299000F6D0E868E26A00F00301914229D1216B88
:1029A00000F0700209011039914222D1626B00F4EB
:1029B000FE41B1EB022F1CD1A26B00F40031072ABB
:1029C00001D0012200E00022914212D1A18F00F437
:1029D000C00249084905A1F50011914209D194F8B6
:1029E000401000F0C06049084906A1F10071814221
:1029F00001D00120C4E70020C2E70000FFFFEEFE87
:102A0000704770477047000070B590F83C20012A6D
:102A100024D0012480F83C40022280F83D20026846
:102A2000536895680E4EB24202D00E4EB24203D1A8
:102A300023F470064B68334323F070060B688968F3
:102A4000334325F08005294353600268916080F884
:102A50003D40002180F83C10084670BD022070BD4A
:102A6000002C01400034014010B5040003D094F85C
:102A70003D0010B107E0012010BD002084F83C00AB
:102A8000204600F00DF8022084F83D00211D20684A
:102A900000F00AFF012084F83D00002010BD000076
:102AA00008B500680B49884212D10B48816D41F08E
:102AB00002018165806D002200F002000090052176
:102AC0001D20FEF757FFBDE808401D20FEF744BF5C
:102AD00008BD000000040040001002400168CA6800
:102AE00042F00102CA6001688868064A1040062860
:102AF00006D0B0F5803F03D0086840F001000860C0
:102B0000002070470700010070B5044690F83C00B3
:102B1000012817D0012584F83C50022084F83D009C
:102B2000226890682E4B184020F47F40906008681F
:102B3000502830D00DDC20284DD005DC98B310286B
:102B40003BD148E0022070BD302844D0402834D129
:102B500039E0602828D0702806D0B0F5805F2CD0EE
:102B6000B0F5005F29D10AE0CB68D1E901212068E6
:102B700000F0FAFE2068816841F0770109E0CB6837
:102B8000D1E90121206800F0EFFE2068816841F45E
:102B90008041816011E0CA684968206800F0F6FE53
:102BA0005021206807E016E0CA684968206800F0F4
:102BB000FEFE6021206800F0E1FE84F83D50002018
:102BC00084F83C0070BDCA684968206800F0DEFEE9
:102BD00040212068EFE7226801461046EBE700003D
:102BE00088FFFEFF704770B50446006801694FF02A
:102BF0000005C943890715D4C168C943890711D4A1
:102C0000E91E016101202077206880698007204645
:102C100002D0FFF7E7FF04E000F0A7F8204600F03D
:102C2000A5F8257720680169C943490717D4C16809
:102C3000C943490713D46FF00401016102202077D2
:102C40002068806910F4407F204602D0FFF7CAFF59
:102C500004E000F08AF8204600F088F82577206824
:102C60000169C943090716D4C168C943090712D4C9
:102C70006FF008010161042020772068C069800797
:102C8000204602D0FFF7AEFF04E000F06EF82046C9
:102C900000F06CF8257720680169C943C90617D48C
:102CA000C168C943C90613D46FF01001016108203F
:102CB00020772068C06910F4407F204602D0FFF7DB
:102CC00091FF04E000F051F8204600F04FF825771E
:102CD00020680169C943C90708D1C168C943C90748
:102CE00004D1891E0161204600F042F82068016984
:102CF000C943090609D4C168C943090605D46FF060
:102D0000800101612046FFF77CFE20680169C9430C
:102D1000C90509D4C168C943090605D46FF4807197
:102D200001612046FFF76CFE20680169C94349062E
:102D300009D4C168C943490605D46FF04001016157
:102D4000204600F01FF820680169C94389060BD4AA
:102D5000C168C943890607D46FF02001016120468C
:102D6000BDE87040FFF74EBE70BD70477047000071
:102D700000680349884201D1FEF782BD7047000018
:102D800000480140704710B5040002D0606F10B1D8
:102D900007E0012010BD002084F87000204600F0FC
:102DA00025F8242060672068016821F00101016096
:102DB000204600F09FFE0128ECD0606A10B120464A
:102DC00000F007FE2068416821F4904141602068CE
:102DD000816821F02A0181602068016841F00101C9
:102DE00001602046BDE8104000F057BE10B586B027
:102DF000044614216846FDF7A0FA1249206888426B
:102E00001ED11148016E41F480410166016E01F44A
:102E100080410591C16C41F00201C164C06C6946FA
:102E200000F002000590C0200090022001900020D8
:102E3000029003200390072004900448FEF734FC1E
:102E400006B010BD003801400010024000040048E8
:102E50002DE9F84F0446806F9B4616460D46202804
:102E60006AD1EDB1E6B194F87000012864D0012078
:102E700084F870004FF00008C4F87C802220A0671E
:102E8000FEF7F8FCA4F858608246A4F85A60A068DF
:102E90004FF48053FF21984208D122691AB118E0FB
:102EA000012000F04BB840F2FF1112E07F2270B118
:102EB000B0F1805F10D0A4F85C8000BFB4F85C7003
:102EC000984201D1206970B12E4600250CE0266998
:102ED00036B9A4F85C10F1E7216909B13F21F8E7A0
:102EE000A4F85C20EAE7002607F0FF09B4F85A00CE
:102EF000E0B15346002220212046CDF800B000F07A
:102F000049FF08B10320CCE72068808C56B100EA65
:102F1000090006F8010B00BFB4F85A00401EA4F8DF
:102F20005A00E3E7384025F8020BF5E72020A067B8
:102F300084F870800020B4E70220B2E718BCBDE836
:102F4000E08F2DE9F8430446406F1F4616460D46B4
:102F500020284ED1CDB1C6B194F87000012848D0D8
:102F6000012084F870004FF00008C4F87C80212014
:102F70006067FEF77FFCA4F850608146A4F85260B9
:102F8000A068B0F5805F03D004E00120BDE8F883BD
:102F9000206910B12E46002510E000260EE08021A9
:102FA000204600F0F7FEB8B9C6B116F8010B21684B
:102FB0000885B4F85200401EA4F85200B4F852003C
:102FC0004B464FF0000200970028E8D14FF0400137
:102FD000204600F0DFFE30B10320D7E735F8020BC2
:102FE000C0F30800E3E72020606784F870800020C9
:102FF000CCE70220CAE7FEE710B588B000241248EB
:103000000094019402940394049405940D49069449
:10301000C0E9001441F28831C0E902418021046115
:103020008161FFF721FD4FF480500090694606480A
:10303000FFF76AFD049404A903480694FFF7E4FC33
:1030400008B010BD000400409C0000200948084959
:1030500001604FF4E1314160002181600C22C160C8
:10306000C0E904128161C16101624162FFF78BBE58
:1030700000380140DC000020FEE7704700B595B045
:103080004FF4807006900520009000204FF0807271
:10309000CDE9080205900122CDE90E0207900B90C0
:1030A0000C900D90CDE911201020109080040B465B
:1030B00013900EAA69460448FEF70EFD002800D0C2
:1030C000012015B000BD000098100020F0B54B6A3B
:1030D0004FF040652BB1AA4203D08B6A04685B1E97
:1030E00023618C690B6A002C57D05BB304688B6832
:1030F000E361CC69B4B1D1E90B3633434F6A4E6B0F
:103100003E4333438E8A43EA86430E6933430E6A55
:103110003343CE68334323438C6924E00068496815
:103120008161F0BDD1E90B3423434D6A4C6B2C43D4
:1031300023438C8A43EA84430C6923430C6A234368
:103140008C6923E0CE69BEB1D1E90B373B43D1F89E
:1031500024C04F6B47EA0C073B438F8A43EA8743FF
:10316000CF683B43334323430C6823430468134332
:103170006361AA42D2D1F0BDD1E90B352B434E6A2F
:103180004D6B35432B438D8A43EA854309682343BE
:1031900000680B4313434361F0BD3BB304688B6885
:1031A000E361CC6994B1D1E90B3633434F6A4E6B7E
:1031B0003E4333438E8A43EA86430E6933430E6AA5
:1031C0003343CE68334323438C69CEE7D1E90B34D4
:1031D00023434D6A4C6B2C4323438C8A43EA84433C
:1031E0000C6923430C6A89692343D1E7CC6964B134
:1031F000D1E90B3633434F6A4E6B3E4333438E8ADD
:1032000043EA8643CE683343AFE74B6A002BC3D013
:10321000D1E90B452C434D6B898A1D432C43006833
:1032200044EA814111434161F0BD00002DE9F041C4
:1032300090B04FF4807006900520009000200C465E
:103240004FF0807101250590CDE90801CDE90A50C4
:1032500007900C9041F288360D903246694631480D
:10326000FEF793FC00285BD1B04632460EA92D48EC
:10327000FEF790FD002853D1022715260A974246F3
:10328000694628480096FEF780FCE8BB42460DF1EF
:1032900039012448FEF77EFDB0BB224800F0F4F867
:1032A00090BB9DF83A00012C0FD020F0020000BF27
:1032B0008DF83A00009503200A904546424669463B
:1032C0001848FEF762FCF8B902E040F00200EFE7B0
:1032D0002A460EA91348FEF7C3FDA8B9294611488E
:1032E000FFF7CCFE80B90A972A4669460D4800963A
:1032F000FEF74BFC40B92A460EA90A48FEF74AFDE4
:1033000010B99DF8390000E00AE0810703D4012CD0
:1033100006D0800700D51CB1002010B0BDE8F081B8
:103320000120FAE798100020F0B58FB04FF48070BC
:103330000690002005260D4600964FF0807101246E
:103340000590CDE90801CDE90A4007900C9041F2C3
:1033500088370D903A4669462348FEF716FCE0BBD5
:103360003A460EA92048FEF715FDB0BB1E4800F0F6
:103370008BF890BB9DF83800012D0CD020F0400058
:103380008DF8380000943C463A4669461648FEF7E8
:10339000FCFB10BB02E040F04000F1E722460EA922
:1033A0001148FEF75DFDC0B921460F48FFF766FEE4
:1033B00098B9224669460C480096FEF7E6FB60B9CC
:1033C00022460EA90848FEF7E5FC30B99DF8380002
:1033D000400603D4012D05D001E003E015B1002023
:1033E0000FB0F0BD0120FBE79810002010B58EB0A3
:1033F0004FF480700690662000900020079008909F
:10340000099005900B900C9041F288340D90224663
:1034100069460A48FEF7B9FB68B999200090224630
:1034200069460648FEF7B1FB28B921460348FFF775
:1034300025FE002800D001200EB010BD98100020FD
:103440002DE9F041984616460F460446069D08E0D1
:10345000681C06D0FEF70EFAA0EB0800A8420AD8B6
:103460004DB120688068384000D00120B042EFD1D3
:103470000020BDE8F081042084F83900E06B40F0C2
:103480000100E0630120F4E730B595B000244FF46B
:1034900080700690062005940794089441F28835C0
:1034A000009009940B940C942A4669460D940F4899
:1034B000FEF76BFBB0B902200E900F900120CDE912
:1034C00011041020109080041390052000904FF0FC
:1034D000807009902B460EAA69460448FEF7FCFA54
:1034E000002800D0012015B030BD00009810002049
:1034F0002DE9F041444C05468846E06800268107E6
:1035000028680DD0E16801F00301814216D1A8B10D
:10351000E0686968C0F30210401C88420ED120E0C8
:10352000012804D0022805D0032807D108E021682B
:10353000890701E021684905002907DB01265FE0D2
:103540002168890302D421684903F5E7E1686A68C4
:103550006FF00F0321F0730103EB021211430143DB
:10356000E160206820F080602060FEF783F9074664
:1035700005E000BFFEF77EF9C01B022837D820689F
:103580000001F7D4B8F1000F18D0B8F1010F1ED028
:10359000287D4FF07E41400801EB4060A96840EA79
:1035A00001202169194A114008432061206840F038
:1035B00080602060FEF75EF907461AE0A868E968B7
:1035C0000002090940EA41402169114AEBE7288AD3
:1035D0001049400801EB4050A96840EA01202169E8
:1035E0000D4AE0E7FEF746F9C01B022801D9032681
:1035F00006E020680001F5D52069A969084320612B
:103600003046BDE8F081000000100240FF80FFF965
:10361000FF80FDFF0000E0FFFF809FFF2DE9F041EC
:103620003D4C06468846E0680025810730680DD08D
:10363000E16801F00301814216D1A8B1E068716828
:10364000C0F30210401C88420ED120E0012804D0B3
:10365000022805D0032807D108E02168890701E086
:1036600021684905002907DB012551E0216889030C
:1036700002D421684903F5E7E16872686FF00F032F
:1036800021F0730103EB021211430143E160206852
:1036900020F080502060FEF7EDF8074605E000BFFF
:1036A000FEF7E8F8C01B022829D820688000F7D46C
:1036B000B8F1000F15D0307C4FF07E41400801EB8F
:1036C0004060B16840EA01206169144A1140084332
:1036D0006061206840F080502060FEF7CBF807461C
:1036E0000FE0B068F1680002090940EA41406169F1
:1036F0000B4AEBE7FEF7BEF8C01B022801D90325F1
:1037000006E020688000F5D5606971690843606152
:103710002846BDE8F081000000100240FF80FFF95C
:10372000FF80FDFFF8B51C4D06460024A86DC000C3
:1037300002D5FEF785F90DE0A86D40F08050A86530
:10374000A86D00F080500090FEF77AF9A96D21F085
:103750008051A965B0F5007F04D0802E07D94FF0C5
:1037600003040AE0802E08D9A02E01D804E001D17C
:10377000022402E0702E00D101240848016821F0E3
:10378000070121430160006800F00700A04201D05A
:103790000120F8BD0020F8BD0010024000200240CA
:1037A000012001F05BFFFBE710B5502080F311888A
:1037B000BFF34F8FBFF36F8F02F012FD18B10449B2
:1037C0004FF080500860002080F3118810BD000089
:1037D00004ED00E030B5B9B0442122A8FCF7ADFDFE
:1037E000142133A8FCF7A9FD88216846FCF7A5FD44
:1037F000102001252290002428956020CDE9294041
:1038000002202821CDE92C05CDE92E510721CDE953
:103810003010329022A8FEF783FE0F203390032051
:10382000CDE934043694042133A83794FEF752FDD1
:10383000684600950E94FEF775FB6802FEF7CCF81B
:1038400039B030BD0D48016841F4700101600C4889
:10385000016841F001010160002181600268094BAB
:103860001A4002608214C260026822F48022026060
:1038700081610249C00380390860704788ED00E02B
:1038800000100240FFFFF6EA0148FFF7ACB9000064
:10389000B00300200249012008600248FFF7A3B9E5
:1038A000000000209C0000202DE9F0470268264B14
:1038B000264D274E274F284C4FF0804A984209D07A
:1038C000504507D0A84205D0B04203D0B84201D03D
:1038D000A04204D122F0700C4A6842EA0C02DFF8E0
:1038E0007CC0DFF87C80DFF87C9098420FD0504598
:1038F0000DD0A8420BD0B04209D0B84207D0A042A8
:1039000005D0604503D0404501D0484503D122F49D
:103910004075CA682A434D6922F080022A4302603A
:103920008A68C2620A688262984207D0A04205D0C3
:10393000604503D0404501D0484501D10969016384
:1039400001214161BDE8F087002C014000040040E6
:1039500000080040000C00400034014000400140DD
:10396000004401400048014010B5846842EA032247
:1039700024F47F440A432243826010BD826822F00F
:1039800070020A4342F007018160704710B5036A74
:10399000046A24F001040462846924F0F00444EA17
:1039A000021423F00A020A438461026210BD10B5BA
:1039B000036A23F0100303628369046A23F47043EB
:1039C00043EA023224F0A00343EA0111826101625A
:1039D00010BD90F82410C90706D001684A68836AB0
:1039E00022F400321A434A6090F82410890706D561
:1039F00001684A68C36A22F480321A434A6090F828
:103A00002410490706D501684A68036B22F4802216
:103A10001A434A6090F82410090706D501684A68DD
:103A2000436B22F400421A434A6090F82410C906FE
:103A300006D501688A68836B22F480521A438A6033
:103A400090F82410890606D501688A68C36B22F4B1
:103A500000521A438A6090F82410490611D5016873
:103A60004A68036C22F480121A434A60016CB1F573
:103A7000801F06D101684A68436C22F4C0021A43D1
:103A80004A6090F82410090606D501684A68806CDF
:103A900022F4002202434A607047F8B5002604462B
:103AA000C667FDF7E7FE0546206800686FF07E47B1
:103AB000000708D52B4600224FF40011204600973E
:103AC00000F068F960B92068006840070AD52B4605
:103AD00000224FF480012046009700F05BF908B106
:103AE0000320F8BD20206067A06784F87060002084
:103AF000F8BD00002DE9F0410546016880682B699A
:103B0000EC6918436B69002723431843954A0B68F7
:103B1000954C234003430B6028684168EB6821F40F
:103B20004051194341602968A869914201D02B6A2C
:103B300018438B6823F4306303438B608B4B2968F5
:103B40008B4899420DD1D0F8880010F0030006D0C0
:103B5000012868D0022864D0032851D165E00124EF
:103B60004FE0844B99420BD1D0F8880010F00C0044
:103B700055D0042857D0082853D00C2840D154E001
:103B80007D4B99420BD1D0F8880010F0300046D020
:103B9000102848D0202844D0302831D145E0774B38
:103BA00099420BD1D0F8880010F0C00037D04028DF
:103BB00039D0802835D0C02822D136E0704B9942C8
:103BC0000ED1D0F8880010F4407028D0B0F5807F76
:103BD00029D0B0F5007F24D0B0F5407F10D124E08B
:103BE00091420DD1D0F8880010F4406017D0B0F5A4
:103BF000806F18D0B0F5006F13D0B0F5406F14D0BF
:103C00001024604B00264FF40040914245D174B11E
:103C1000022C0FD0042C0FD0082C18D10FE0002458
:103C2000EFE70224EDE70424EBE70824E9E7FEF7D9
:103C300001FC03E0184602E0FEF720FCA8B36A6826
:103C400002EB4201814202D8B0EB023F01D90127C9
:103C500075E0DFF834815CB1022C0CD0042C13D059
:103C6000082CF4D150082105401846F1000105E068
:103C7000FEF7E0FB0AE050084449F5E70023FCF7B3
:103C80000FFBA0F5407156E0FEF7F8FB6A68010EE5
:103C90000302500818187141F0E7E9694FF6EF7810
:103CA00081422FD1092CD2D200E048E0DFE804F0B5
:103CB00006092005230505052600C8E7FEF7BAFB1F
:103CC00001E0FEF7C9FB4100D5F8040001EB50010B
:103CD000B1FBF0F080B2A0F110014145B7D84FF62A
:103CE000F0710140C0F3420001432868C16026E042
:103CF00027496868EAE7FEF7C1FBE4E74FF4803143
:103D00006868E3E7092CA2D2DFE804F006091E0583
:103D10002205050525009AE7FEF78CFB01E0FEF77A
:103D20009BFB0146686801EB500100BFB1FBF0F05E
:103D300080B2A0F11001414589D82968C8602E667B
:103D400038466E66BDE8F081686803EB5001EDE728
:103D5000FEF794FBE5E7696800EB5100B0FBF1F07A
:103D6000E6E7000000800040F369FFEF0038014003
:103D7000001002400044004000480040004C004059
:103D8000005000400024F400FFFC0F00000024F469
:103D90000048E8012DE9F041984617460E460446D2
:103DA000069D08E0681C06D0FDF764FDA0EB080046
:103DB000A8420BD855B12068C06936EA000017D078
:103DC0000020B842EED00020BDE8F08120680168F4
:103DD00021F4D07101602068816821F001018160C7
:103DE00020206067A067002084F870000320EBE7C4
:103DF0000120E6E7FEE700000FB4054B10B503A96C
:103E0000044A029800F0F4F810BC5DF814FB0000BE
:103E100031520008800000200907090E002804DB49
:103E200000F1E02080F80014704700F00F0000F16E
:103E3000E02080F8141D704702E008C8121F08C176
:103E4000002AFAD170477047002001E001C1121F1B
:103E5000002AFBD1704700002DE9FF5F82B00021EE
:103E6000DDE90430020DDDF840B0034318D044F61C
:103E70001050A2F2FF3242431514119801281FD0AE
:103E8000A5EB0B00401C5FEA000A4FF000064E4F06
:103E9000DFF83891B046504615D5CAF1000413E05A
:103EA000119801244AA3012801D16FEA0B0102985D
:103EB000119AC0E90031C0E9024206B000F08EB8A4
:103EC000CBF10000DFE704460021404A491842EBED
:103ED0000450CDE9001012E0E00707D032463B461F
:103EE00040464946FCF7F9FC8046894632463B4647
:103EF00010461946FCF7F1FC06460F466410002CEC
:103F0000EAD1DDE90401DDE90023BAF1000F06DAA8
:103F1000FCF7E3FC42464B46FCF7DFFC05E0FCF710
:103F200051FD42464B46FCF74DFD04460E4600222D
:103F3000284BFCF7DBFD03D84FF0FF30014607E0CC
:103F40000022254B20463146FCF718FCFCF7B5FD56
:103F5000102409E0002C0ADB0A220023FCF7A0F958
:103F6000039B30321A55641E50EA0102F2D1641CE0
:103F7000039AC4F111031444119A012A03D00122B7
:103F800008430DD10AE0084304D000204FF0110B84
:103F9000119072E7A3EB0B056D1E0DE05B4504DD90
:103FA0004FF0000205F1010504E003DA4FF00002D2
:103FB000A5F10105002AECD002981199C0E902315F
:103FC000C0E9004579E70000000014400000F03F20
:103FD000300000000000F0430000E03F30BCBDE8CE
:103FE000C09F30380A2801D2012070470020704756
:103FF0002DE9FF4F95B09B468946064600250FE206
:10400000252877D100242746F84A0121059400E0AD
:10401000044316F8013F203B01FA03F01042F7D1A8
:1040200030782A2811D06FF02F033078A0F13002B9
:10403000092A16D8059A44F0020402EB820203EB27
:1040400042021044761C0590EFE759F8042B0592C4
:10405000002A03DA504244F40054059044F002046C
:10406000761C30782E2816D116F8010F44F004047F
:104070002A280DD06FF02F023078A0F13003092BE1
:1040800009D807EB870302EB4303C718761CF3E755
:1040900059F8047B761C30786C280FD006DC4C284D
:1040A00017D068280DD06A2814D104E0742810D0E5
:1040B0007A280FD10DE044F400140AE044F480148F
:1040C00001E044F440147278824202D104F5801475
:1040D000761C761C307866280BD013DC582877D0F5
:1040E00009DC002875D04528F6D04628F4D04728AA
:1040F0001AD19DE118E0632835D0642879D065286D
:1041000012D195E1702873D008DC6728F1D06928B6
:104110006FD06E280DD06F2806D1B5E073282CD053
:10412000752875D0782874D05A46179990476D1C19
:1041300075E1C4F30250022809D003280DD0D9F844
:10414000001004280DD00D6009F1040967E1D9F8C9
:104150000010EA17C1E90052F6E7D9F800100D8007
:10416000F2E70D70F0E719F8041B8DF8001000203D
:104170008DF80100EA46012003E059F804AB4FF046
:10418000FF3061074FF0000102D40DE008F101019A
:104190008846B9420FDA8045F8DB1AF80810002982
:1041A000F4D108E008F1010188468142FADB1AF8EF
:1041B00008100029F6D105985B46A0EB08072146B8
:1041C0003846179A00F097FA284400EB080507E0F4
:1041D0004DE029E10DE01AF8010B5A461799904776
:1041E000B8F10108F7D25B4621463846179A13E129
:1041F00042E00A220092C4F302524FF0000A022A5F
:1042000008D059F804CB032A4FEAEC710AD00DE02C
:1042100029E02AE009F1070121F00702F2E802C1D2
:10422000914609E00FFA8CFC4FEAEC71042A03D1A5
:104230004FFA8CFC4FEAEC71002907DA0A4600219C
:10424000DCF1000C61EB02012D2202E0220504D515
:104250002B228DF80420012203E0E20701D0202266
:10426000F7E7904659E00A2102E010220DE0102104
:104270004FF0000A00910BE010224FF0000A44F0CA
:1042800004040827009203E008224FF0000A00927D
:10429000C4F30252022A05D059F804CB0021032AA4
:1042A00008D009E009F1070121F00702F2E802C194
:1042B000914605E01FFA8CFC042A01D10CF0FF0C9A
:1042C0004FF00008220728D5702806D0009B83F005
:1042D000100353EA0A0305D00EE040228DF80420B3
:1042E000012208E05CEA010206D030228DF80420A9
:1042F0008DF8050002229046009B83F0080353EAE4
:104300000A030AD15CEA010201D1620705D5302215
:104310008DF804204FF001087F1E582804D034A0E7
:1043200003900EA802900DE036A0F9E753466046D0
:10433000009AFBF7B5FF84460398825C0298401E02
:10434000029002705CEA0100F0D1029806A9081AF6
:1043500000F1200A600702D524F4803400E0012730
:10436000574502DDA7EB0A0000E0002000EB0A0140
:10437000009005984144401A0590E00306D45B463E
:104380002146179A059800F0B6F90544002706E083
:1043900001A85A46C05D179990476D1C7F1C474580
:1043A000F6DBE0030CD55B462146179A059800F032
:1043B000A2F9054404E030205A46179990476D1C35
:1043C0000099481E00900029F5DC08E00298029947
:1043D0005A460078491C0291179990476D1CBAF112
:1043E0000001AAF1010AF1DC65E1000009280100E1
:1043F000303132333435363738396162636465665B
:10440000000000003031323334353637383941421C
:10441000434445460000000000F05BF90544761C6B
:10442000307800287FF4ECAD19B0284600F04EB982
:10443000620700D4062709F1070222F0070CFCE806
:104440000223E14603F000485FEA080C02D00FF2B5
:10445000702C0DE05FEA045C02D50FF2682C07E0D7
:104460005FEAC47C02D00FF2602C01E0AFF2700C66
:104470004FF0FF3823F00043CDF850C065280CD032
:1044800006DC452809D046281DD047283DD13DE00F
:10449000662818D067287ED138E00021112F01DB73
:1044A000112000E0781CCDE9000106A90EA8FFF755
:1044B000D3FCDDE90F010E9A03910021009207F170
:1044C000010A04914DE04FF000400097CDE9011042
:1044D00006A90EA8FFF7C0FCDDE90F0203920E9BB0
:1044E00011990022DDF80CA00093049211B9791CF7
:1044F00000EB010AB7EB0A0004D4C0F1FF3007F16A
:10450000010A0490AAEB0700019044E0012F00DAB1
:1045100001270021112F01DD112000E03846CDE9EF
:10452000000106A90EA8FFF797FCDDE90F010E9A1E
:104530000391002104910092BA4621070CD40399FB
:10454000514500DA8A46BAF1010F05DD009AAAF159
:104550000101515C302908D0B84202DA10F1040F91
:1045600006DA0121CDE9011015E0AAF10101E9E720
:10457000002805DC049901440491AAEB000102E043
:10458000411C514500DD8A460499401A401C0190A7
:104590004FF000400290200704D40198504501DB01
:1045A000CDF8048000208DF84F0002980DF14F07E0
:1045B000B0F1004F25D02B200E9002984FF002084A
:1045C00000280CDA404202902D200E9007E00A21CC
:1045D0000298FCF793F83031029007F8011DB8F10A
:1045E0000001A8F10108F2DC02980028EFD1791E41
:1045F0000E980870307800F0200040F0450007F871
:10460000020D12A8C01B00F107081498007800B131
:10461000012000EB0A01019801EBE071059841448B
:10462000401A401E0590E00306D45B462146179AC7
:10463000059800F060F805441498007818B15A46BF
:10464000179990476D1CE00324D55B462146179AC5
:10465000059800F050F805441CE00498002807DB9A
:10466000DDE90301884203DD0098405C179901E011
:10467000179930205A469047049805F10105401CCF
:1046800004900198401E019004D12E205A4617999B
:1046900090476D1CBAF10001AAF1010ADDDC05E0CA
:1046A00017F8010B5A46179990476D1CB8F1000195
:1046B000A8F10108F4DC5B462146179A0598ABE6A1
:1046C0002D0000002B0000002000000030BCBDE8E1
:1046D000C08F2DE9F041044600251E461746880488
:1046E00004D405E039462020B0476D1C641EF9D57E
:1046F0002846BDE8F0812DE9F041044600251E461C
:104700009046C80301D5302700E02027880404D54F
:1047100005E041463846B0476D1C641EF9D5284671
:10472000BDE8F0812DE9F04F99462DED028B87B061
:104730009FED378ADFED378ADDF8485092460E4606
:10474000074600244FF4FA3BDAF80800042200EB95
:1047500084016846FCF72CFDD9F80800042200EB20
:10476000840101A8FCF724FD95ED000ADDED000AA7
:104770009DED011A042220EE200AD5ED010A01EE7A
:10478000200A8DED020A95ED020ADDED000A20EE09
:10479000200AD5ED030A01EE200A8DED030AB86860
:1047A00000EB840102A8FCF737FDB068042200EB9F
:1047B000840103A8FCF730FDB0EE680A9DED021AF3
:1047C000F0EE400A0BEB840841EE080A042204A82C
:1047D000FDEEE00ACDED040ADDED030A00EE880AE5
:1047E000BDEEC00A8DED050AB1684144FCF714FD29
:1047F000B9680422414405A8FCF70EFD641CB4F519
:10480000FA4FA1DB07B0BDEC028B00F005B8000049
:104810000000C8430000004530BCBDE8C08F000068
:10482000B5EEC00AF1EE10FA04D210EE100A1B49E0
:10483000884232D9B5EEC00ADFED190A60EE200ACF
:10484000BDEEE01A11EE100AF1EE10FA00D2401E91
:1048500000EE100A1449F7EE001AB8EEC00A30EE66
:10486000C00ADFED100A60EE200ABCEEE00A10EE8E
:10487000100AC0F3080000EE100A01EB8000B8EE49
:10488000400A90ED011A70EEC00A90ED000A71EE38
:10489000E01A21EE800A00EE810A7047CD024CB486
:1048A00083F9223E00000044D86400082DE9FF4748
:1048B00098460C9D91460E4607460024B86800EBCA
:1048C0000440FCF7DDFBB06800EB0440FCF7D8FBCC
:1048D000641C042CF2DB00244FF4FA4AD9F80800D7
:1048E000042200EB84016846FCF762FCD8F808005B
:1048F000042200EB840101A8FCF75AFC95ED000AA4
:10490000DDED000A9DED011A042220EE200AD5ED0E
:10491000010A00EE810A8DED020A95ED020ADDED35
:10492000000A20EE200AD5ED030A00EE810A8DED83
:10493000030AB86800EB840102A8FCF76DFCB068BC
:10494000042200EB840103A8FCF766FC641C5445B8
:10495000C4DB00F000B80FBCBDE8F0872DE9F041E2
:1049600000240C4D26464FF4006728680028FCD030
:104970000022234611460848FCF772FD2346002218
:1049800010210548FCF76CFD2E60641CBC42ECDB7A
:10499000BDE8F08100000020880000202DE9F04FE4
:1049A0002DED048B89B0984691460D4606460024AD
:1049B000B06800EB0440FCF763FB10B14CA0FFF7BC
:1049C0001BFAA86800EB0440FCF75AFB10B148A0A2
:1049D000FFF712FA641C042CEADB49A0FFF70CFA7B
:1049E0009FED4B0B4CA08DED000B53EC102BFFF704
:1049F00003FA9FED4B0B8DED000B9FED4B0B46A08B
:104A000053EC102BFFF7F8F90024B6EE008A9FED67
:104A1000489ADFED489ADFED488A4FF4FA3A4FF4AE
:104A2000FA4B00BFD9F80800042200EB840102A869
:104A3000FCF7BEFBD8F80800042200EB840103A8B1
:104A4000FCF7B6FBDDED020A9DED030A042220EE21
:104A5000881A60EE890A00EE081A40EE290A8DEDE8
:104A6000041ACDED050AB06800EB840104A8FCF738
:104A7000D3FB10B131A0FFF7BFF9A868042200EB07
:104A8000840105A8FCF7C8FB10B12CA0FFF7B4F90E
:104A90009DED040A0AEB8407042230EE280A06A8DA
:104AA000BDEEC00A8DED060A9DED050A30EE280A1E
:104AB000BDEEC00A8DED070AB1683944FCF7ACFBC6
:104AC00010B11EA0FFF798F9A8680422C11907A821
:104AD000FCF7A2FB10B119A0FFF78EF9641C5C452E
:104AE000A0DB09B00020BDEC048B00F02FB8000063
:104AF0004572617365204572726F720A0000000092
:104B00004D6978206D61747269783A0A000000007E
:104B1000000000000000E03F25662C2025660A000A
:104B2000000000A09999E93F000000A09999C93FB1
:104B3000CDCC4C3ECDCC4C3F000000455772697443
:104B400065204572726F720A0000000030BCBDE83B
:104B5000C08F000070B505462DED028B82B09FED31
:104B60000F8A00244FF4FA46A868042200EB84015F
:104B70006846FCF71DFB9DED000A641CB44238EE4C
:104B8000008AF1DB02B0DFED060A88EE200AF0EEC3
:104B9000000ABDEC028B20EE200A70BD0000000070
:104BA00000007A462DE9F04FD2ED001A92ED030A8B
:104BB00092ED011AD2ED020A71EE802A21EE800AEE
:104BC00087B00C4622EEA22A01EE600AB1EE001A6E
:104BD000074600EE412A9FED480AB5EEC02AF1EEE5
:104BE00010FA02DBB1EEC21A01E0B0EE401AB6EEE6
:104BF000003AB0EE412A32EE811A32EEC22A21EE9C
:104C0000031A22EE033A31EEC12A87ED003A87ED0E
:104C1000031A87ED020A62EE022A87ED010A84ED8B
:104C2000002AC4ED020A40EEA02AF5EEC02AF1EEF9
:104C300010FA02DBB1EEE21A01E0B0EE401AC2EE69
:104C4000012AB0EE602AC4ED002AC2EE012A31EE3C
:104C5000C31A61EE011A40EEA01AF5EEC01AC4EDB7
:104C6000022AF1EE10FA84ED011AC4ED030A01DB09
:104C7000B1EEE10AC1EE001A80EE801AC4ED011A0D
:104C800084ED031AF868FBF726FD82468B46B86868
:104C9000FBF721FD804689467868FBF71CFD054639
:104CA0000E463868FBF717FD8DE8600F41EC100BDE
:104CB00012A053EC102BFFF79FF8E068FBF70BFDF9
:104CC00081468A46A068FBF706FD0746884660686D
:104CD000FBF701FD05460E462068FBF7FCFC8DE85E
:104CE000E00741EC100B0CA053EC102BFFF784F8FD
:104CF00007B000F01FB8000000000000656967659C
:104D00006E76616C7565733A0A25662025660A25FC
:104D1000662025660A000000656967656E76656332
:104D2000746F72733A0A25662025660A2566202567
:104D3000660A000030BCBDE8C08F00002DE9FF4FBF
:104D40002DED068BADB08A4683460024DBF80800C3
:104D500000EB0440FCF794F9DAF8080000EB04409B
:104D6000FCF78EF9641C042CF0DBF14C21AB94E8C9
:104D7000070083E80700083C00F010FB1434239080
:104D800094E8070024AB143C83E8070000F006FB1E
:104D90002034269094E8070027AB203C83E80700E6
:104DA00000F0FCFA2C34299094E807002AAB83E841
:104DB000070000F0F3FA2C903598FFF7CBFEB0EE29
:104DC000408A3698FFF7C6FEDDE93523F0EE400A4B
:104DD000B0EE480A24A921A800F03AFA0020149065
:104DE00015901690179024AA21A914A800F080FA13
:104DF0001798FBF770FC804689461698FBF76BFC0A
:104E000006460F461598FBF766FC04460D461498B7
:104E1000FBF761FC8DE8F00341EC100BC5A053ECEF
:104E2000102BFEF7E9FF14AA1DA919A8FFF7BAFE77
:104E30009DED191AF7EE000A002480EE810A9FED1D
:104E4000C38AB5EEC00AF1EE10FA02DBF1EEC08AB9
:104E500001E0F0EE488A9DED1C1A80EE810AB5EE65
:104E6000C00AF1EE10FA02DBB1EEC09A01E0B0EE3A
:104E7000489A19EE100AFBF72EFC06460F4620460C
:104E8000FBF729FC804689462046FBF724FC0446B4
:104E90000D4618EE900AFBF71EFC8DE8300341EC3E
:104EA000100BABA053EC102BCDE90467FEF7A4FF69
:104EB0009DED1D0A28EE800A8DED0B0A9DED1E0A60
:104EC00028EE800A8DED0C0A9DED1F0A29EE000ADE
:104ED0008DED0D0A9DED200A29EE000A8DED0E0ADA
:104EE00010EE100AFBF7F7FB804689460D98FBF79A
:104EF000F2FB06460F460C98FBF7EDFB04460D4609
:104F00000B98FBF7E8FB8DE8F00341EC100B9BA03E
:104F100053EC102BFEF770FF0BA8009024AB21AAD6
:104F20002AA927A8FFF7C2FC81480838D0E9001059
:104F300001EE901A00EE900ACDE9061021EEA11ABA
:104F400000EEA01AB5EEC01AF1EE10FA02DBB1EED7
:104F5000C10A01E0B0EE480A0024C1EE808A27466B
:104F600080EE801ACDED068A8DED071A11EE100A3B
:104F7000FBF7B1FB05460E4618EE900AFBF7ABFBBC
:104F800041EC100BCDE9005653EC102B83A0FEF73B
:104F900033FF864E0025294685A0FEF72DFF9DEDA7
:104FA000061A02EE904ADDED070A02EE107A31EEA3
:104FB000620A60EE001A30EEC20A40EE001AF5EE08
:104FC000C01AF1EE10FA02DBB1EEE10A01E0B0EE38
:104FD000480A10EE100AB04203DA79A0FEF70CFF7F
:104FE00022E031EE220A60EE001A30EE820A40EE34
:104FF000001AF5EEC01AF1EE10FA02DBB1EEE10A8A
:1050000001E0B0EE480A10EE100AB042E5DB11EE06
:10501000104A10EE907A06AA2AA927A800F04EFEA0
:105020006D1CB5F57A7FB6DB0798FBF754FB044699
:105030000D460698FBF74FFB41EC100B57A053ECC5
:10504000102BCDE90045FEF7D7FEDDED078A9DED7B
:10505000068AB1EE689A18EE100AFBF73CFB804610
:10506000894618EE900AFBF736FB06460F4619EE06
:10507000100AFBF730FB04460D4618EE100AFBF74A
:105080002AFB8DE8F00341EC100B50A053EC102BE1
:10509000FEF7B2FE9DED0B0ADDED0D1A68EE009AEB
:1050A00048EEA19ACDED109ADDED0C0A9DED0E1A99
:1050B00028EE20AA08EE81AA69EE008A29EE200ACD
:1050C00048EE218A08EE010A8DED11AACDED128A73
:1050D0008DED130A10EE100AFBF7FDFA80468946A3
:1050E00018EE900AFBF7F7FA06460F461AEE100A7A
:1050F000FBF7F1FA04460D4619EE900AFBF7EBFABE
:105100008DE8F00341EC100B36A053EC102BFEF7AA
:1051100073FE10A80090DDE9352351465846FFF78D
:1051200001FB2DB00020BDEC068B04B000F068B888
:1051300060640008636F766D61743A0A2566202505
:10514000660A25662025660A0000000000000000AF
:10515000496E766572736520537172742045696774
:1051600076616C206D61747269783A0A2566202533
:10517000660A25662025660A0000000057686974E3
:10518000656E696E67206D61747269783A0A25668A
:105190002025660A25662025660A0000576569678E
:1051A0006874733A0A25660A25660A0017B7D1386B
:1051B000497465726174696F6E2025640A0000008D
:1051C000436F6E7665726765640A000042617369B9
:1051D00073207365743A0A25662025660A256620C1
:1051E00025660A004943412046696C7465723A0A93
:1051F00025662025660A25662025660A000000002F
:1052000030BCBDE8C08F000038B500208DF800002C
:1052100047F230542346012269460448FDF718FE40
:105220000028F7D19DF8000038BD0000DC00002008
:1052300013B547F230542346012269460348FDF76F
:1052400080FE0028F7D100981CBD0000DC00002083
:105250002DE9F0431F462DED028B81B09046B0EE54
:10526000608AF0EE408A0D4606460024B06800EBE6
:105270000440FBF705FFA86800EB0440FBF700FFC4
:10528000641C042CF2DB00244FF4FA49D8F808001F
:10529000042200EB84016846FBF78AFF9DED000ABB
:1052A000042230EE680A8DED000AB06800EB84013C
:1052B0006846FBF7B1FFB868042200EB840168463A
:1052C000FBF776FF9DED000A042230EE480A8DEDD3
:1052D000000AA86800EB84016846FBF79DFF641C88
:1052E0004C45D3DB01B0BDEC028BBDE8F083000080
:1052F0002DE9FC4116460F46044600254FF4FA48B6
:10530000B868042200EB85016846FBF751FFB068DE
:10531000042200EB850101A8FBF74AFFD4ED000A47
:105320009DED000A6D1C454540EE000AC4ED000AE3
:1053300094ED011A9DED010ADDED000A00EE201A40
:1053400084ED011A94ED021A00EE801A84ED021A1F
:10535000D4ED030A40EE000AC4ED030AD0DBD4ED1D
:10536000000A9FED0D0A80EE801A84ED001AD4ED3C
:10537000010A80EE801A84ED011AD4ED020A80EE53
:10538000801A84ED021AD4ED030A80EE801A84EDAF
:10539000031ABDE8FC81000000FEF94670B5064C1A
:1053A00020888504294605A0FEF726FD2068401CBC
:1053B0002060284670BD0000080000204772616E22
:1053C000746564206164647265737320256C750A6A
:1053D00000000000A6B0FCF75BFAFEF7FBF98A4874
:1053E000C16C41F00101C164C16C01F00101019186
:1053F000C16C41F01001C164C16C01F01001019158
:10540000C16C41F00201C164C06C242100F00200B3
:10541000019001A8FAF791FF7D497C480860084691
:10542000FBF7DBFF002401940294039404942246CA
:1054300001A977480594FBF73DFF102201A97448A4
:105440000494FBF737FFFDF7D7FDFDF7FFFD0021C3
:105450006F48FCF712F810216D48FCF70EF86C4805
:105460001430FDF73BFB6B4C13AB94E8070083E86B
:105470000700FFF793FF0C34159094E807000AAB80
:105480000C3C83E80700FFF789FF18340C9094E880
:1054900007000DAB183C83E80700FFF77FFF2434BB
:1054A0000F9094E8070016AB243C83E80700FFF751
:1054B00075FF3034189094E8070019AB303C83E84E
:1054C0000700FFF76BFF3C341B9094E8070010AB1C
:1054D0003C3C83E80700FFF761FF4834129094E8F2
:1054E00007001CAB83E80700FFF758FF1E9000F091
:1054F0005DFB13A800F07CFBFFF730FA13A9084608
:1055000000F0E2F800F032FF43A0FEF775FC6946B8
:1055100045A0FAF71DFF0098FBF7DDF841EC100BF2
:1055200042A053EC102BFEF767FC9DED000A43A050
:105530008DED0B0AFEF760FC69463BA0FAF708FF09
:105540000098FBF7C8F841EC100B38A053EC102B77
:10555000FEF752FC9DED000A0AA88DED0E0A00F040
:1055600047FB0DA800F044FB0DAB0AAA19A916A829
:10557000FFF714FAFFF7F2F90AA9084600F0A4F8B9
:105580000DA9084600F0A0F816A9084600F09CF8FE
:1055900019A9084600F098F800F0E8FE19AB16AA21
:1055A0001CA910A8FFF7CAFBFFF7D8F900240AA925
:1055B000084600F089F80DA9084600F085F816A9FC
:1055C000084600F081F819A9084600F07DF810A9F6
:1055D000084600F079F81CA9084600F075F8641C2C
:1055E000032CE4DB00F0C2FE0A491C2254311FA840
:1055F000FAF78AFE00211FA800F03CF81349486022
:1056000000F033F8FEE70000001002400074004094
:1056100088000020E8630008456E74657220667299
:10562000657120310A00000025660000596F752061
:10563000656E74657265642025660A00456E746542
:1056400072206672657120320A000000000000209E
:1056500001460020842900D0C81C704710B500B94D
:10566000012000F055FC002010BD10B500F076FCC4
:10567000002010BD7FB50D4604464169B0F9080011
:1056800081B1A16971B1FFF7E3FFD4E905128DE89B
:105690000700D4E900102B46226900F075FD039045
:1056A00004B070BDFFF7D4FF03A9CDE90001208A43
:1056B0002B4682B2D4E9001000F036FD012801D05B
:1056C0000020EDE70398EBE72DE9FC4780460F4605
:1056D0001AA0FEF791FB1D4D00244FF4FA392868FB
:1056E0000028FCD0D8F8081009EB840631440422C5
:1056F0006846FBF75DFD10B115A0FEF77DFBB868AD
:105700000422811901A8FBF753FD10B110A0FEF788
:1057100073FB002211461148009BFBF7A1FE0022FB
:1057200010210E48019BFBF79BFE0020641C2860A3
:10573000B4F5FA4FD3DB00F013B80000506C617978
:10574000696E6720736F756E64210A000000002087
:1057500052656164204572726F720A0088000020F1
:105760000CBCBDE8F08700002DE9F041184C0F4655
:10577000054666692068001D00F006FB38B9206800
:1057800090F82C1001208840A1698143A161681C18
:1057900007D137B12168BDE8F0410E48091D00F07E
:1057A00037BB20683544B5424560216805D2A06802
:1057B000BDE8F041091D00F013BB6068091D00F051
:1057C0000FFB206B854200D22563BDE8F08100000D
:1057D0001C000020CC0400202DE9F041054600F01B
:1057E00023FB2E4C2069401C206120682C4F10B1F7
:1057F000E06940B32DE025602069012829D1002609
:1058000006EB860007EB800000F0DCFA761C072E22
:10581000F6D323488C3000F0D5FA2148A03000F0B0
:10582000D1FA1F48B43000F0CDFA1D48C83000F05E
:10583000C9FA1B48DC3000F0C5FA19488C306060AA
:105840001430A06005E02068E96AC06A884200D888
:105850002560E06A401CE062E96A0120A269884094
:105860001043A06101EB810007EB8000291D00F0CF
:10587000CFFA00F0F9FAE06900280CD02068E96A54
:10588000C06A884207D207494FF080500860BFF3D2
:105890004F8FBFF36F8FBDE8F08100001C00002028
:1058A000F003002004ED00E010B5044690F851002C
:1058B00058B101280CD002280FD0502080F3118855
:1058C000BFF34F8FBFF36F8FFEE7206B00F0E0FA5E
:1058D0002046BDE8104000F0DBBA10BD0F4840F68E
:1058E000B831420705D0C01D0C4A20F00700821ACB
:1058F000891A0B4A00230144C2E900030839103A0F
:1059000021F0070111604B600B600B1AC0E9001316
:1059100093604FF000405360D0607047E004002077
:1059200068000020144E154CA6F1C8074FF08058AF
:10593000DFF84C9012E000BF00F076FAF068C5681E
:10594000281D00F021FA2069401E2061E068401EF9
:10595000E06000F089FA2846FFF7A6FFE06800281B
:10596000EAD138680128F9D9C9F80080BFF34F8F10
:10597000BFF36F8FF2E70000B80400201C00002086
:1059800004ED00E02DE9F0479A46DDE909848146FF
:105990006FF00303206B03EB82021044089D20F09C
:1059A0000706700707D0502080F31188BFF34F8F90
:1059B000BFF36F8FFEE723180A5C83F834200A5C7C
:1059C00012B1401C1028F6D3002784F84370072D2D
:1059D00000D30625E562C4E91157201D00F0FDF94A
:1059E00004F1180000F0F9F92461C5F107006462C0
:1059F000A061E76484F8507052464946304600F092
:105A0000BFF82060B8F1000F01D0C8F80040BDE831
:105A1000F087000030B5114900E011460A68824263
:105A2000FBD34B685C18844203D14068184448603B
:105A3000084643681C18944209D1084C103C24685D
:105A4000A24209D052681A4442600A681268026091
:105A5000814200D0086030BD0460F9E76800002092
:105A600006484168096829B14168C968C968496838
:105A7000016370474FF0FF31FAE700001C0000207F
:105A800008484068401C4FF0500080F3118804D053
:105A9000BFF34F8FBFF36F8FFEE7BFF34F8FBFF39F
:105AA0006F8FFEE7700000202DE9F04105460027CA
:105AB00000F08AFA314E306808B9FFF70FFFF0683E
:105AC00005424BD1C5B3083568070ED005F0070075
:105AD000C0F108000544680707D0502080F3118802
