:020000040800F2
:1000000000800120D5450008192100081D210008A5
:1000100021210008252100082921000800000000F6
:100020000000000000000000000000002D2100087A
:1000300031210008000000003521000839210008A6
:1000400025460008254600082546000825460008E4
:1000500025460008254600082546000825460008D4
:1000600025460008254600082546000825460008C4
:1000700025460008254600082546000825460008B4
:1000800025460008254600082546000825460008A4
:100090002546000825460008254600082546000894
:1000A0002546000825460008254600082546000884
:1000B0003D21000825460008254600082546000881
:1000C0002546000825460008254600082546000864
:1000D0002546000825460008254600082546000854
:1000E0002546000825460008254600082546000844
:1000F0002546000825460008254600082546000834
:100100002546000825460008254600082546000823
:100110002546000825460008254600082546000813
:100120002546000825460008254600082546000803
:1001300025460008254600082546000825460008F3
:1001400025460008254600082546000825460008E3
:1001500025460008254600082546000825460008D3
:1001600025460008254600082546000825460008C3
:100170002546000825460008000000000000000099
:08018000254600082546000891
:10019000044B05481B1A062B02D9044B03B1184720
:1001A000704700BF7B0000207800002000000000A6
:1001B00005490648091A891001EBD171491002D08E
:1001C000034B03B1184770477800002078000020E7
:1001D0000000000010B5064C237843B9FFF7D8FFA4
:1001E000044B13B10448AFF300800123237010BD0A
:1001F00078000020000000002846000808B5084BE1
:100200001BB108490848AFF300800848036813B9D8
:10021000BDE80840CCE7064B002BF9D09847F7E73C
:10022000000000007C000020284600087800002024
:100230000000000070B50F4E0F4D761BB61018BFB2
:10024000002405D0013455F8043B9847A642F9D163
:100250000A4E0B4D761B04F0E7F9B61018BF0024C8
:1002600006D0013455F8043B9847A642F9D170BD39
:1002700070BD00BF80470008804700088447000821
:100280008047000870B4860746D0541E002A41D02B
:10029000CAB2034602E014F1FF343BD303F8012B4A
:1002A0009D07F8D1032C2ED9CDB245EA05250F2C98
:1002B00045EA054519D903F110022646103E0F2ED6
:1002C00042F8105C42F80C5C42F8085C42F8045CAE
:1002D00002F11002F2D8A4F1100222F00F0204F091
:1002E0000F041032032C13440DD91E462246043A43
:1002F000032A46F8045BFAD8221F22F003020432D4
:10030000134404F003042CB1C9B21C4403F8011BCC
:100310009C42FBD170BC704714460346C2E700BF45
:100320000EB410B5044683B018B183690BB900F060
:100330004BFB06A803460190059AA168204600F0F1
:1003400009FD03B0BDE8104003B070470FB410B50D
:100350000A4B1C6882B024B1A36913B9204600F08F
:1003600033FB05A803460190049AA168204600F0DB
:10037000F1FC02B0BDE8104004B07047000000205E
:100380002DE9F0410E46804600283ED08369002BBF
:1003900039D084682F4B9C4243D02F4B9C4256D07F
:1003A0002E4B9C4208BFD8F80C40A3891B073DD5B3
:1003B0002369002B3AD0013EA36816F8015F013B88
:1003C000A360B5B1002B04DB23685A1C22601D70AA
:1003D000F2E7A769BB4222462946404601DB0A2DC7
:1003E000F2D100F045F80130E6D14FF0FF30BDE822
:1003F000F081002B21DB23680A22591C21601A702E
:100400001046BDE8F08100F0DFFAD8F81830D8F8CF
:100410000840002BBED1404600F0D6FA0D4B9C425E
:10042000BBD1D8F80440A3891B07C1D4214640465C
:1004300000F080F80028BED0D7E7224640460A21C7
:1004400000F016F80130D0D00A20BDE8F081D8F8CD
:100450000840AAE7844600086446000844460008AD
:10046000024B01461868FFF78BBF00BF0000002059
:10047000F8B50D461446064610B18369002B42D0EC
:10048000254B9C4244D0254B9C4243D0244B9C425C
:1004900008BFF468A389A269A2601A0722D523695C
:1004A00003B322686169D31AEDB28B422F4621DA79
:1004B0000133A168501C0139A16020601570626988
:1004C0009A4206D0A389DB0701D50A2D01D0384610
:1004D000F8BD2146304600F03BF90028F7D04FF038
:1004E000FF37F4E72146304600F024F80028F6D123
:1004F0002369D6E72146304600F02AF90028EED1DC
:1005000022680123D5E700F05FFA034B9C42BAD181
:100510007468BFE7B468BDE7844600086446000815
:1005200044460008024B0A4601461868FFF7A0BF80
:1005300000000020384B70B51D6806460C4615B10A
:10054000AB69002B42D0354B9C4245D0344B9C428A
:1005500058D0344B9C4208BFEC68B4F90C2093B2DD
:1005600019070CD52069A8B113F001021ED06369E8
:1005700000225B42A361A260F0B1002070BDDD06E5
:1005800042D558072AD4206942F00803A3819BB2C0
:100590000028E9D103F42072B2F5007FE4D03046A0
:1005A000214600F0AFFAA3892069DDE7990758BF1B
:1005B0006269A2600028E0D1B4F90C301A06DDD5DA
:1005C00043F04003A3814FF0FF3070BD284600F098
:1005D000FBF9124B9C42B9D16C68BEE7616B51B11B
:1005E00004F14403994204D0304600F0CFFAB4F944
:1005F0000C200023636300232069636022F024023F
:100600002060C1E7AC68A8E742F0400209233360EC
:100610004FF0FF30A28170BD00000020844600082A
:1006200064460008444600088B891A072DE9F0410A
:100630000D46804633D44A68002A67DDEC6A002CF8
:1006400045D00022D8F80060C8F8002013F480528A
:1006500060D06A6D5F0705D569686B6B521A0BB184
:100660002B6CD21A0023296A4046A047441C39D07B
:10067000AB892A692A60DB044FF000026A6043D428
:10068000696BC8F8006011B305F14403994202D0C8
:10069000404600F07BFA00206863BDE8F0810E69F7
:1006A000AEB10C680E6098070CBF4B690023A41B09
:1006B0008B600AE023463246AF6A296A4046B84753
:1006C0000028A4EB0004064404DD002CF2DC00202A
:1006D000BDE8F081AB8943F04003AB814FF0FF30C0
:1006E000BDE8F081D8F800201D2AF3D8174BD3407D
:1006F000DB4313F00103EDD1A9892C696B60C904B8
:100700002C60BDD5002ABBD16865B9E70A6C002A08
:1007100094DCDCE70123296A4046A047431C0246DB
:1007200002D0AB89EC6A95E7D8F80030002BF8D0FE
:100730001D2B01D0162B02D1C8F80060C7E7AB898A
:1007400043F04003AB81BDE8F08100BF01004020D1
:100750000B6933B310B5044682B008B18369ABB1FD
:10076000114B994219D0114B994218D0104B994214
:1007700008BFE168B1F90C3013B9002002B010BD18
:10078000204602B0BDE81040FFF74EBF019100F0D7
:100790001BF90199044B9942E5D16168EAE7A16828
:1007A000E8E70020704700BF844600086446000860
:1007B0004446000820B1054B01461868FFF7C8BF42
:1007C000034B0449186800F045B900BF0000002041
:1007D000404600085107000800207047014900F01A
:1007E00039B900BF510700080020704770B54A1E94
:1007F000682505FB02F50E4605F1740100F00EFABE
:10080000044640B100210C30666005F168022160A9
:10081000A060FFF737FD204670BD00BF204B70B5CC
:100820001D68AB6906465BB348356B68AC68013B35
:1008300005D521E0013B5A1C04F168041CD0B4F931
:100840000C20002AF6D100254FF6FF720123E28129
:10085000A38165662560A560656025616561A56108
:100860002946082204F15C00FFF70CFD6563A563CF
:10087000A564E564204670BD286828B10546D4E724
:10088000284600F00FF8CFE704213046FFF7AEFF0F
:1008900028600028F2D10C2304463360EAE700BF49
:1008A000404600083D4B3E491A682DE9F04F904202
:1008B0004FF000038364C364036508BF012383B062
:1008C00008BF836181620746FFF7A8FF786038465A
:1008D000FFF7A4FFB8603846FFF7A0FF7D68F86017
:1008E00000240423AB812C606C60AC606C66EC81EE
:1008F0002C616C61AC61214605F15C000822FFF7B8
:10090000C1FCBE68DFF89CB0DFF89CA0DFF89C90CB
:10091000DFF89C80C5F824B001230922C5F828A07F
:10092000C5F82C90C5F830802D622146F381B28144
:1009300034607460B460746634617461B46106F1EB
:100940005C0008220193FFF79DFCFD6836621220CF
:100950000222C6F824B0C6F828A0C6F82C90C6F823
:1009600030802146A881EA812C606C60AC606C66A6
:100970002C616C61AC6105F15C000822FFF782FC20
:10098000019B2D62C5F824B0C5F828A0C5F82C90AD
:10099000C5F83080BB6103B0BDE8F08F4046000869
:1009A000DD070008C9130008F11300082D14000822
:1009B0004D140008024B0349186800F04BB800BF03
:1009C0004046000851070008836903B96AE7704789
:1009D000704700BF704700BF704700BF704700BF3F
:1009E000024B0349186800F00FB800BF0000002058
:1009F000E9070008024B0349186800F005B800BF7A
:100A000000000020D90700082DE9F04110F1480747
:100A10001BD0884600267D68BC68013D0FD4A389A1
:100A2000012B05F1FF3506D9B4F90E30013320460C
:100A300001D0C04706436B1C04F16804EFD13F6846
:100A4000002FE8D13046BDE8F0813E463046BDE893
:100A5000F08100BF2DE9F84310F148071FD0884608
:100A600006464FF000097D68BC68013D11D4A3899A
:100A7000012B05F1FF3508D9B4F90E3001332146B9
:100A8000304602D0C04749EA00096B1C04F16804F3
:100A9000EDD13F68002FE6D14846BDE8F883B9465E
:100AA0004846BDE8F88300BF70B50C46B1F90E109A
:100AB000002990B015461E4613DB01AA00F0F2FC97
:100AC00000280EDB029A02F47042A2F50052B2FA3C
:100AD00082F252094FF48063002032602B6010B024
:100AE00070BDA38900221B06326004D5402300207C
:100AF0002B6010B070BD4FF4806300202B6010B0ED
:100B000070BD00BF8A8992070B4606D501F14702E6
:100B100001211A601A6159617047F0B583B001ABC9
:100B20006A460C460546FFF7BFFF00990646284671
:100B300000F074F8B4F90C30D0B1019A124F00995A
:100B4000AF6243F08003A3812060206161611AB924
:100B50003343A38103B0F0BD2846B4F90E1000F072
:100B60002DFEB4F90C300028F2D043F00103EFE77A
:100B70009A05EFD404F1470243F002030121A38157
:100B8000226022616161E5E7DD07000891B151F85B
:100B9000043C0439002BB8BFC9181F4B1A68FAB1BE
:100BA0008A4230B40AD908680C18A24226D04A609A
:100BB000196030BC70478B4203D81A465368002B2B
:100BC000F9D1146815198D420DD006D808680C1893
:100BD0009C4219D04B605160EBE70C230360E8E7BF
:100BE0004A601960704709680C44111999421460F1
:100BF000DFD10ACB0C4453601460DAE71468526802
:100C00004A6020440860D3E71C685B684B6020445E
:100C100008605160CDE700BF9400002070B5CC1C87
:100C200024F0030408340C2C38BF0C24002C064696
:100C30003BDBA14239D8274D296851B10A68121B04
:100C400004D436E01A68121B1AD519464B68002BDB
:100C5000F8D16968002937D02146304600F0A2FB60
:100C6000431C22D0C31C23F00305A84205D0291A37
:100C7000304600F097FB013017D02C602B4604E083
:100C80000B2A0DD91A6013441C6003F10B0020F0ED
:100C900007001A1D821A02D05142995070BD70BDD2
:100CA0008B420ED05A684A60EFE70C233360002075
:100CB00070BD0B2A03D84A680B462A60E5E70B464D
:100CC000E0E70A460B46F8E7304600F06BFB686049
:100CD000C2E700BF940000209368013B002B10B4D2
:100CE000936008DBCCB21368581C10601970204662
:100CF0005DF8044B70479469A34202DBCCB20A2C26
:100D0000F1D15DF8044BFFF7B3BB00BF93B1F8B569
:100D100014460F460646D51801E0AC4208D03A46C4
:100D200014F8011B3046FFF7D7FF431CF5D1F8BD7F
:100D30000020F8BD00207047936810B5144613B921
:100D40005360184610BD00F0C1FB0023A360636030
:100D500010BD00BF2DE9F04F9DB0894614460393A6
:100D6000824618B18369002B00F00A818A4B9945AD
:100D700000F00C81894B994500F00B81884B994517
:100D800008BFDAF80C90B9F80C30180740F1EE8083
:100D9000D9F81030002B00F0E98030238DF82A308C
:100DA0002378804E0021202209918DF829200127E7
:100DB000002B00F08480252B254603D117E0252B3E
:100DC00000F0858015F8013F002BF8D1B5EB040B3E
:100DD00075D022465B4649465046FFF797FF0130E3
:100DE0006DD0099B2A785B440993002A67D00023C1
:100DF0004FF0FF3201350493079306938DF853307B
:100E00001A93059204E0049A07FA03F31343049338
:100E100029780522304600F0FBFC2C46831B013567
:100E20000028F0D1049BD90644BF20228DF853201E
:100E300021781A0744BF2B228DF853202A2969D024
:100E4000A1F13002092A0BD8079B14F8011F03EB0C
:100E5000830302EB4303A1F13002092AF5D907937A
:100E60002E293FD0504D0322284600F0D1FC38B146
:100E7000049B401B402202FA00F003430134049318
:100E800021784A488DF828100622013400F0C0FC71
:100E9000002849D0464BF3B103AB00934A46454B7B
:100EA00004A95046AFF300808046B8F1FF3F06D05A
:100EB000099B434409932378002B7FF47CAFB9F856
:100EC0000C305B0659D409981DB0BDE8F08FB5EB26
:100ED000040B8CD07DE7039B073323F00703083313
:100EE0000393E5E761782A2904F1010026D0A1F1F6
:100EF00030020023092A05930446B3D814F8011FD1
:100F000003EB830302EB4303A1F13002092AF5D975
:100F10000593A7E7039A11680432002903921FDBA7
:100F20000791617801349BE703AB00934A46214B5C
:100F300004A9504600F0E6F88046B6E7039B1A681D
:100F40000592002A03F104030393B8BF4FF0FF3268
:100F500004F10203AEBFA178A17805921C4681E797
:100F6000494243F0020307910493DAE749465046A9
:100F7000FFF7E0FA00283FF410AF4FF0FF30A3E78F
:100F8000FFF722FD044B99457FF4F4AEDAF80490A4
:100F9000F9E6DAF80890F6E68446000864460008A8
:100FA000444600083C4700084447000848470008FA
:100FB000000000000D0D000810B4044C13460A4652
:100FC000014620685DF8044BFFF7C4BE0000002016
:100FD0002DE9F0470C4691460A698968DDF82080C2
:100FE0008A42B8BF0A46C9F8002094F84310064662
:100FF0001F4611B10132C9F80020236899065DD55A
:10100000D9F800200232C9F80020236813F0060F37
:1010100019461DD1E1688A1A002AD8BF194617DD82
:1010200004F1190A002505E0E368D9F800209B1AAD
:10103000AB420CDD0123524639463046C0470130F1
:1010400005F10105F0D14FF0FF30BDE8F0872168D0
:1010500094F84330003318BF01238A060AD5E118FB
:101060005A1C302081F84300224494F8451082F83D
:101070004310023304F1430239463046C047013081
:10108000E1D0236803F00603042B29D0A36822696A
:101090009342C8BF4FF0000930DD9B1A99441A34BF
:1010A000002501E04D4529D001232246394630462E
:1010B000C047013005F10105F4D1C4E713F0060F74
:1010C00008D1E168D9F800208A1A002AD8BF194649
:1010D000A6DCBDE794F84330003318BF0123C9E70D
:1010E000D9F80010E068A3682269A0EB01099342D7
:1010F00029EAE979D1DCB9F1000FD0D10020BDE8AF
:10110000F08700BF2DE9F0430C46097E85B06E29BB
:10111000064617460C98984604F1430C55D00FD854
:10112000632900F01B8100F2D68000295CD0582989
:1011300040F0E88084F845102268DFF860E213E0B0
:10114000732900F0FD8000F289806F2900F0E480AF
:10115000702940F0D780226842F020022260782374
:10116000DFF83CE284F845300368150603F104011A
:1011700000F1FF8055064BBF1B881B6801600160B2
:10118000D00744BF42F020022260002B40F095803F
:10119000226822F0200222601021002284F84320DD
:1011A0006068A0600028C0F28D80226822F00402EE
:1011B0002260002B67D1002840F086806546082910
:1011C0006FD0ACEB0503236111E023681A0600F130
:1011D000D38013F0400F0368626903F104010160DA
:1011E0001B6814BF1A801A60002365462361CDF87E
:1011F00000803B4603AA21463046FFF7E9FE013056
:1012000021D02A46236939463046C04701301AD0DA
:101210002368E06813F0020F039B19D0C21A002A5A
:1012200016DD04F11909002504E0E068039BC21AE9
:10123000AA420DDD01234A4639463046C0470130F7
:1012400005F10105F1D14FF0FF3005B0BDE8F083A5
:101250009842B8BF184605B0BDE8F08375295BD049
:1012600078294FD122687AE76168A1602D20002992
:10127000C3F1000384F8430021DB22F00402DFF80D
:101280001CE122600A216546B3FBF1F201FB12303A
:1012900013461EF8002005F8012D002BF4D1082973
:1012A0008FD12368D9078CD5626823699A4288DC7C
:1012B000302305F8013C013D83E710216DE7DFF89D
:1012C000DCE00A21002BDED19EF8003084F84230A9
:1012D00004F1420573E7642901D0692912D122681B
:1012E0000368150603F1040152D455064BBFB3F948
:1012F00000301B6801600160002BB5DBDFF89CE06B
:101300000A214DE7012384F84210236104F14205CC
:10131000002384F843306AE723681A0633D413F0B5
:10132000400F036803F1040215BF1B881B680260AD
:1013300002606F2914BF0A210821DFF860E02CE762
:1013400003686268191D01601D680021284600F0CD
:101350005FFA00B3401B60602061D9E703681A6838
:10136000191D0123016004F1420584F84220236124
:10137000CEE701601B6803E703686269191D01601D
:101380001B681A6030E703681A1D02601B68D0E70B
:1013900001601B68B0E76068DEE700BF50470008E7
:1013A0006447000838B5074C00230546084623600B
:1013B00000F0E4FB431C00D038BD2368002BFBD0B9
:1013C0002B6038BDBC01002010B50C46B1F90E10E1
:1013D00000F094FB002803DB636D0344636510BDDC
:1013E000A38923F48053A38110BD00BF0020704760
:1013F0002DE9F0411646B1F90C201F46D3050C46E5
:10140000054607D500220223B1F90E1000F0E8F9D5
:10141000B4F90C20B4F90E1022F48052A2813B469C
:1014200032462846BDE8F04100F014B810B50C462D
:10143000B1F90E1000F0D4F9A389421C0EBF23F4B9
:10144000805343F480536065A38110BDB1F90E1041
:1014500000F016B870B50D46084C114606461A46FF
:1014600028460023236000F01FFD431C00D070BD00
:101470002368002BFBD0336070BD00BFBC0100208F
:1014800038B5074C002305460846236000F056FB9C
:10149000431C00D038BD2368002BFBD02B6038BD27
:1014A000BC01002038B50B46074C054611461846CE
:1014B0000023236000F04AFB431C00D038BD2368A2
:1014C000002BFBD02B6038BDBC0100209368002BA3
:1014D00073D02DE9F04F8B8983B00C46190700902B
:1014E000164626D5226922B313F0020035682CD0A7
:1014F0004FF00009B04FC846B246B84543464A4689
:1015000028BF3B460098B8F1000F50D0216AA66A68
:10151000B047002858DDDAF808301B1A8144A8EBE0
:101520000008CAF80830002BE7D1002003B0BDE85E
:10153000F08F21460098FEF7FDFF002840F0338130
:10154000A389356813F00200D2D113F0010945D107
:101550004F46019637B39A05D4F8088040F183804E
:101560004745C346C0F0AB8013F4906F40F0AC80A9
:101570002068BA465A46494600F034FAA268236801
:10158000A2EB08025B44A2602360019A9368A3EB7C
:101590000A03D144A7EB0A079360002BC5D0A389A7
:1015A000002FD8D1D5F800906F680835D2E7D5F86C
:1015B0000090D5F8048008359FE700207047214649
:1015C0000098FFF7C5F870B3B4F90C3043F040034E
:1015D0004FF0FF30A38103B0BDE8F08F8146334662
:1015E0004E46A8469A464D464EB380B320682369BE
:1015F0006269B145CB4628BFB34698425F4604D9DD
:10160000A36813449B4500F3A68093454BDB134628
:10161000A76A216A00982A46B847071ED4DDB9EBAD
:101620000709CCD00120DAF80830DB1B3D44F61B5B
:10163000CAF80830002B3FF478AF002ED5D108F15E
:10164000080313E9600098460833002EF9D03246AB
:101650000A21284600F0DCF8002800F0A1800130C3
:10166000A0EB0509C2E720682369984202D86369A4
:101670009F425DD2B84528BFB8464246494600F071
:10168000B1F9A3682268A3EB08034244A360226077
:101690000BB1C24679E721460098FFF759F80028B8
:1016A00092D1C24671E75A46294600F09BF9A268DA
:1016B0002368A2EB0B025B44A2602360AFE72068C3
:1016C000B846BA46BB4655E762692068216902EB15
:1016D0004208A0EB010A08EBD8780AF101004FEAB2
:1016E000680838444045424684BF804642465B0510
:1016F00044D511460098FFF791FA8346002855D04B
:101700005246216900F0D4F8A38923F4906343F092
:101710008003A3810BEB0A00A8EB0A03C4F810B006
:10172000C4F814802060A360B846BA46BB4621E7DF
:101730006FF00041B94228BF39464A4691FBF3F1A8
:101740000098A66A03FB01F3216AB047B0F1000AD2
:101750003FF71BAF38E71A462946019300F042F9DC
:101760002268019B00981A4422602146FEF7F0FF90
:10177000019B00287FF428AF1F4650E7009800F037
:1017800095F983460028C5D1009D21692846FFF7B9
:10179000FDF9B4F90C300C2223F080032A6015E720
:1017A00006F1010922E74FF0FF30BFE6009A0C2353
:1017B0001360B4F90C3009E700FCFF7F38B5074C23
:1017C000002305460846236000F0C8F9431C00D0FA
:1017D00038BD2368002BFBD02B6038BDBC01002036
:1017E00070B50D46084C114606461A462846002399
:1017F000236000F0BBF9431C00D070BD2368002BB0
:10180000FBD0336070BD00BFBC01002000000000B1
:1018100001F0FF01102A2BDB10F0070F08D010F8A1
:10182000013B013A8B422DD010F0070F42B3F6D1A5
:10183000F0B441EA012141EA014122F007047FF0BE
:1018400000070023F0E80256083C85EA010586EA15
:10185000010685FA47F5A3FA87F586FA47F6A5FA51
:1018600087F68EB9EED1F0BC01F0FF0102F007025D
:1018700032B110F8013B013A83EA010313B1F8D108
:101880000020704701387047002D06BF35460338E9
:10189000073815F0010F07D1013015F4807F02BF22
:1018A000013015F4C03F0130F0BC0138704700BF73
:1018B000844641EA000313F003036DD1403A41D35B
:1018C00051F8043B40F8043B51F8043B40F8043B1A
:1018D00051F8043B40F8043B51F8043B40F8043B0A
:1018E00051F8043B40F8043B51F8043B40F8043BFA
:1018F00051F8043B40F8043B51F8043B40F8043BEA
:1019000051F8043B40F8043B51F8043B40F8043BD9
:1019100051F8043B40F8043B51F8043B40F8043BC9
:1019200051F8043B40F8043B51F8043B40F8043BB9
:1019300051F8043B40F8043B51F8043B40F8043BA9
:10194000403ABDD2303211D351F8043B40F8043B49
:1019500051F8043B40F8043B51F8043B40F8043B89
:1019600051F8043B40F8043B103AEDD20C3205D359
:1019700051F8043B40F8043B043AF9D2043208D051
:10198000D2071CBF11F8013B00F8013B01D30B88C3
:1019900003806046704700BF082A13D38B078DD0A1
:1019A00010F003038AD0C3F10403D21ADB071CBF73
:1019B00011F8013B00F8013B80D331F8023B20F8DD
:1019C000023B7BE7043AD9D3013A11F8013B00F816
:1019D000013BF9D20B7803704B7843708B7883709E
:1019E000604670478842F0B50DD98B1898420AD2EC
:1019F0008418002A51D0224613F8014D02F8014DF7
:101A00009942F9D1F0BD0F2A48D941EA00039B075A
:101A100046D100F1100401F11003154653F8106C83
:101A200044F8106C53F80C6C44F80C6C53F8086CC8
:101A300044F8086C103D53F8046C44F8046C0F2D06
:101A400003F1100304F11004E8D8A2F1100323F00D
:101A50000F0302F00F0E1033BEF1030F19440344BD
:101A600021D91E1F0D467446043C55F8047B46F8E8
:101A7000047F032CF8D8AEF1040424F003040434EA
:101A80002144234402F0030262B1013B0A4411F8ED
:101A9000014B03F8014F8A42F9D1F0BD0346F3E749
:101AA0000346F2E7F0BD7246EEE700BFF8B5144614
:101AB000F9B1C2B106460D4600F036F8844201D8AD
:101AC0002846F8BD21463046FFF7A8F8074670B112
:101AD00022462946FFF7ECFE294630463D46FFF7F1
:101AE00055F82846F8BDFFF751F82546E8E70546C2
:101AF000E6E71146BDE8F840FFF790B870B50D462F
:101B0000084C114606461A4628460023236000F07A
:101B1000DDF9431C00D070BD2368002BFBD033607F
:101B200070BD00BFBC01002051F8040C0028A0F1DA
:101B30000400BCBF0B58C018704700BF024B5822AE
:101B40001A604FF0FF307047BC010020024B582252
:101B50001A604FF0FF307047BC010020024B582242
:101B60001A600020704700BFBC010020024B5822C1
:101B70001A604FF0FF307047BC010020044A05494D
:101B80001368002B08BF0B461844106018467047B6
:101B90009C000020C001002053B94AB9002908BFA9
:101BA00000281CBF4FF0FF314FF0FF3000F07AB932
:101BB000ADF1080C6DE904CE00F006F8DDF804E0A4
:101BC000DDE9022304B070472DE9F0478C460D464D
:101BD0000446089E002B51D18A4217466DD9B2FAAD
:101BE00082FEBEF1000F0BD0CEF1200C01FA0EF5F3
:101BF00020FA0CFC02FA0EF74CEA050C00FA0EF47F
:101C00004FEA174A250CBCFBFAF81FFA87F90AFBC2
:101C100018CC45EA0C4508FB09F3AB420AD9ED198B
:101C200008F1FF3280F02381AB4240F22081A8F11D
:101C300002083D44ED1AA4B2B5FBFAF00AFB1055B8
:101C400044EA054400FB09F9A14509D9E41900F16A
:101C5000FF3380F00A81A14540F2078102383C44FD
:101C6000A4EB090440EA08400021002E61D024FAC8
:101C70000EF4002334607360BDE8F0878B4207D90F
:101C8000002E54D0002186E821000846BDE8F087E8
:101C9000B3FA83F1002940F08E80AB4202D3824236
:101CA00000F2FA80841A65EB03050120AC46002E91
:101CB0003FD086E81010BDE8F08712B90127B7FBC6
:101CC000F2F7B7FA87FEBEF1000F34D1EB1B3A0CE6
:101CD0001FFA87FC0121B3FBF2F8250C02FB183335
:101CE00045EA03450CFB08F3AB4207D9ED1908F1AF
:101CF000FF3002D2AB4200F2D1808046ED1AA3B28F
:101D0000B5FBF2F002FB105543EA05440CFB00FC66
:101D1000A44507D9E41900F1FF3302D2A44500F22B
:101D2000B8801846A4EB0C0440EA08409DE7314611
:101D30003046BDE8F087CEF1200405FA0EF307FA2D
:101D40000EF720FA04F83A0C25FA04F448EA0308DE
:101D5000B4FBF2F14FEA184502FB11441FFA87FC6D
:101D600045EA044501FB0CF3AB4200FA0EF409D935
:101D7000ED1901F1FF3080F08A80AB4240F287809C
:101D800002393D44EB1A1FFA88F5B3FBF2F002FB6F
:101D9000103345EA034500FB0CF3AB4207D9ED19BC
:101DA00000F1FF386FD2AB426DD902383D44EB1AD7
:101DB00040EA01418FE7C1F1200722FA07F88B4082
:101DC00005FA01F448EA030320FA07FE4FEA134C30
:101DD000FD404EEA040EB5FBFCF94FEA1E440CFB35
:101DE00019551FFA83F844EA054509FB08F4AC428B
:101DF00002FA01F200FA01FA08D9ED1809F1FF30F0
:101E000043D2AC4241D9A9F102091D442D1B1FFA4E
:101E10008EFEB5FBFCF00CFB10554EEA054400FBB2
:101E200008F8A04507D9E41800F1FF3529D2A045EC
:101E300027D902381C4440EA0940A4EB0804A0FB5F
:101E400002894C45C6464D4615D312D056B1BAEB61
:101E50000E0364EB050404FA07F7CB401F43CC40A4
:101E6000376074600021BDE8F0871846F8E69046B8
:101E7000E0E6C245EAD2B8EB020E69EB0305013891
:101E8000E4E72846D7E7404691E78146BEE70146AA
:101E900078E702383C4445E7084608E7A8F102081D
:101EA0003D442BE7704700BFF8B5074E17460D4677
:101EB00094B26FF07E4322462946304600F054FC2F
:101EC0000028F6D13846F8BDB4000020F0B5164819
:101ED000174683B00E461146FEF738FA002F21DD73
:101EE000124C00256FF07E4301220DF107012046C0
:101EF00000F0BEFC9DF8073006F8013B6FF07E4312
:101F000001220DF10701204600F02EFC0028F5D13A
:101F10009DF807300D2B02D00135AF42E2D1781B7E
:101F200003B0F0BD0025FAE7A4460008B400002085
:101F300030B50021B9B00C4605A84422FEF7A2F93D
:101F4000214616A8882201940094029403940494D4
:101F5000FEF798F9102160220125022305910D92C8
:101F60002821072205A80F93149315931291139219
:101F70000B951095119501F049F80F2203230421C8
:101F800068468DE80C0002940394049401F098FBD9
:101F900016A81695249401F065FD4FF4007002F028
:101FA000A3F839B030BD00BF80B590B000F09CFF01
:101FB000FFF7BEFF4E4B4F4CDA6C4F4F4F49504E20
:101FC00042F00102DA64DA6C02F001020192019A35
:101FD000DA6C42F01002DA64DA6C02F0100202925B
:101FE000029ADA6C42F00202DA64DB6C216003F0E0
:101FF0000203002503934FF4E1320C232046636172
:1020000003996260A560E5602561A561E5612562CF
:10201000656200F023FD2946242207A8FEF732F965
:10202000384B3B60384602F02DFA2A4607A938465D
:102030000795089509950A950B9502F039FA07A9B5
:10204000102238460A9502F033FA2F4B2F4A1A60B5
:1020500002200421012258601846DD605D619D6107
:1020600099601A6102F0FAF841F288324FF080412B
:1020700080233046F2607560B56035613160B361D0
:102080000795089509950A9504950595069500F01C
:1020900031F94FF4805307A93046079300F0C4F993
:1020A00004A930460495069500F028FB29462846E9
:1020B00002F074F9284602F03BF9154E154D002048
:1020C00002F0ACF980B902F055F93046FEF7C8F9D4
:1020D0006FF07E4318222946204600F045FB002081
:1020E00002F09CF90028EED0002002F04DF9E6E75E
:1020F00000100240B4000020A00000200038014081
:10210000340100200074004074010020001000A081
:10211000B0460008C0460008704700BFFEE700BF99
:10212000FEE700BFFEE700BFFEE700BF704700BF4D
:10213000704700BF704700BF00F0EABE014800F0E2
:1021400025BA00BF340100200A4B1A6E42F001028A
:102150001A661A6E82B002F001020092009A9A6D1D
:1021600042F080529A659B6D03F080530193019B6E
:1021700002B070470010024010B50168164A88B0DE
:10218000002391420493039305930693079301D090
:1021900008B010BD03F1804303F5043303A99A6D21
:1021A00042F000529A659A6D02F000520192019A33
:1021B000DA6C42F00102DA64DB6C03F00103029393
:1021C000302203234FF09040029C0392049301F0CD
:1021D0005DFE08B010BD00BF0074004070B501681E
:1021E000184A88B000239142049303930593069301
:1021F000079301D008B070BD03F1804303F50433A9
:1022000011481A6D42F480721A651A6D02F48072D8
:102210000192019ADA6C42F01002DA64DB6C03F08E
:102220001003029303220A2303A94FF47C450224DE
:10223000029E039504940692079301F027FE08B0CE
:1022400070BD00BF001000A0001000480368B3F18B
:10225000804F00D0704703F5043300B59A6D42F00B
:1022600001029A659B6D83B0002203F00103019384
:1022700011461C20019B01F093FF1C2001F0C6FFBA
:1022800003B05DF804FB00BF70B50168174A88B061
:10229000002391420493039305930693079301D07F
:1022A00008B070BD03F1804303F5043310481A6E83
:1022B00042F480421A661A6E02F480420192019A38
:1022C000DA6C42F00202DA64DB6C03F00203029380
:1022D0000322072303A9C0250224029E0395049428
:1022E0000692079301F0D2FD08B070BD003801409E
:1022F00000040048002800F08E80F8B590F83D30CA
:10230000044603F0FF02002B57D023684349022202
:1023100084F83D208B421A6854D0B3F1804F68D0C6
:10232000A1F594318B4226D001F580618B4222D0F9
:1023300001F580618B421ED001F594318B421AD099
:1023400001F540618B4251D001F580618B424DD047
:1023500001F580618B4249D0A569E068616822F08F
:1023600080022A431A60D862996201225A610020D1
:1023700084F83D20F8BDA1682669A069E768656812
:1023800022F070020A4322F440722549324322F0BF
:10239000800202438B421A60DF629D620AD0214AAA
:1023A000934207D002F58062934203D002F5806227
:1023B0009342DAD162691A63D7E780F83C20FFF7CD
:1023C00045FFA2E7A5682069A16922F070022A43AF
:1023D00022F44072024322F080020A431A60E2684B
:1023E000DA6262689A6262691A63BEE72069A1696B
:1023F000EEE7A6682069A169E768656822F07002C7
:10240000324322F44072024322F080020A431A60EF
:10241000DF629D62C3E70120704700BF002C0140CE
:10242000003401400040014090F83C30012B31D095
:1024300002220368F0B480F83D209D680A684D4C84
:10244000402A04EA05044FF0010580F83C509C60E6
:102450003CD053D9602A70D01ED9702A5DD0B2F515
:10246000005F0ED18A684D68CC6899682A4342EAB9
:10247000042221F47F410A439A609A6842F4804220
:102480009A600023012280F83D2080F83C30F0BCA7
:102490001846704702207047502AF2D11D6A1E6A02
:1024A0004C68CF6826F001061E629A6925F00A0181
:1024B00022F0F00242EA071221439A6119629A68F7
:1024C00022F0700242F057029A60DAE71D6A1E6A33
:1024D0004C68CF6826F001061E629A6925F00A0151
:1024E00022F0F00242EA071221439A6119629A68C7
:1024F00022F0700242F047029A60C2E7102A04D02C
:1025000034D9202A01D0302ABBD1996842F0070281
:1025100021F070010A439A60B3E78A684D68CC687D
:1025200099682A4342EA042221F47F410A439A60CF
:102530009A6842F077029A60A3E71C6A4D68CE68F9
:1025400024F010041C6299691A6A21F4704122F087
:10255000A00242EA051241EA063199611A629A68BC
:1025600022F0700242F067029A608AE7002ACCD01B
:1025700087E700BF8800FEFF704700BF704700BFBD
:10258000704700BF704700BF704700BF03681A69FB
:10259000910710B5044602D5DA68920765D41A6926
:1025A000520702D5DA6850074CD41A69110702D5D0
:1025B000DA68120734D41A69D00602D5DA68D1066F
:1025C0001ED41A69D20702D5DA68D0076BD41A690B
:1025D000110602D5DA6812066DD41A69D00502D543
:1025E000DA6811066FD41A69520602D5DA68500605
:1025F00051D41A69910602D5DA68920643D410BD07
:102600006FF010021A61DB69082213F4407F227711
:1026100020466CD0FFF7B4FF002223682277D0E772
:102620006FF008021A61DB6904229B0722772046BB
:102630005AD1FFF7A3FF2046FFF7A4FF002223682B
:102640002277B8E76FF004021A619B69022213F443
:10265000407F2277204644D1FFF790FF2046FFF7C6
:1026600091FF0022236822779FE76FF002021A6130
:102670009B690122990702772DD0FFF781FF002285
:10268000236822778BE76FF0200220461A61BDE8AD
:10269000104000F063B86FF040021A612046FFF767
:1026A00073FF2368A5E76FF001021A612046FFF768
:1026B00063FF23688BE76FF080021A61204600F009
:1026C0004FF8236889E76FF480721A61204600F0A2
:1026D00049F8236887E7FFF751FF2046FFF752FFCD
:1026E000CDE7FFF74DFFBCE7FFF74AFFA6E7FFF78F
:1026F00045FF2046FFF746FF8EE700BF90F83C20DD
:10270000012A21D070B40468134D022280F83D20C4
:10271000AC4203466268A06818D005F50065AC427B
:1027200014D00E688D6822F0700220F080013243D0
:1027300029430126002562602846A16083F83D6098
:1027400083F83C5070BC7047022070474D6822F4FB
:1027500070022A43E5E700BF002C0140704700BF2C
:10276000704700BF704700BF2DE9F0410E46416F32
:10277000202982B003D0022002B0BDE8F081002EF3
:1027800041D0002A3FD01D4690F87030012B0446FE
:10279000F1D0212301214FF00008C0F87C8080F89F
:1027A00070104367019200F0BFFBA368019AA4F880
:1027B0005020B3F5805F0746A4F8522052D0B4F8F9
:1027C000523020689BB29BB1691C1ED1C2691206AF
:1027D000FCD52EB316F8013B0385B4F85230013B0B
:1027E0009BB2A4F85230B4F852309BB2002BEBD11C
:1027F000691C2BD1C3695A06FCD5202300206367CE
:1028000084F87000B8E70120B6E7C3691B06E0D47E
:1028100000F08AFBC01B854207D335B12068D3E79F
:1028200038F8023BC3F30803D6E723681A6822F49A
:10283000D0721A609A68202122F0010200259A6065
:102840000320616784F87050A16795E7C3695B0650
:10285000D3D400F069FBC01B8542E6D3002DE4D041
:102860002068C5E72369002BA9D1B0461E46A6E71C
:102870002DE9F0430E46816F202983B003D002205A
:1028800003B0BDE8F083002E3CD0002A3AD01D46AC
:1028900090F87030012B0446F1D02223012100274B
:1028A000C76780F870108367019200F03DFBA36852
:1028B000019AA4F85820B3F5805F8046A4F85A2006
:1028C00059D0002B51D12369002B5DD1FF27A4F8EB
:1028D0005C704FF00009B4F85A309BB2002B3ED028
:1028E0002068691C10D1C2699206FCD546B3838C5E
:1028F0003B4006F8013BB4F85A30013B9BB2A4F8C8
:102900005A30E8E70120BBE7C3699B06EED400F02C
:102910000BFBA0EB0800854201D3002DE0D123681A
:102920001A6822F4D0721A609A68202122F00102FB
:1029300000259A600320616784F87050A1679FE7C3
:10294000838C3B4029F8023BB4F85A30013B9BB2E0
:10295000A4F85A30B4F85A309BB2002BC1D12023CE
:102960000020A36784F870008AE7B3F1805F15D078
:10297000A4F85C70ADE7236953B940F2FF17B14684
:10298000A4F85C701E46A6E77F27A4F85C70A0E759
:10299000FF23B946A4F85C301F469CE72369002B4F
:1029A000F2D03F27A4F85C7093E700BF436ADA07D0
:1029B00010B406D50168846A4A6822F400322243C2
:1029C0004A609C0706D50168C46A4A6822F48032CE
:1029D00022434A60590706D50168046B4A6822F40D
:1029E000802222434A601A0706D50168446B4A6870
:1029F00022F4004222434A60DC0606D50168846B5B
:102A00008A6822F4805222438A60990606D50168BA
:102A1000C46B8A6822F4005222438A605A0609D5A0
:102A20000168046C4A6822F480122243B4F5801FC6
:102A30004A600BD01B0606D50268816C536823F4EC
:102A400000230B4353605DF8044B70474A68446CA5
:102A500022F4C00222434A60ECE700BF002800F0E5
:102A60003B81F8B5436F0446002B3BD023682769B0
:102A70006669E169C048242262671D68A26825F082
:102A800001051D601D683A43324328400A43024352
:102A90001A605A68E568B948A66922F440522A4388
:102AA00083425A6000F0AE809868226AB44D20F4E8
:102AB000306032430243AB429A6000F0E180B14A99
:102AC000934200F00181B04A934210D0AF4A934242
:102AD00000F00481AE4A934223D00023236663664C
:102AE0000120F8BD80F87030FFF7CEFBBEE7A94BA0
:102AF000D3F8883003F03003102B00F0FF801BD98F
:102B0000202B00F08881302BE7D1B1F5004F00F089
:102B10002A816268530803F50043B3FBF2F39BB2CA
:102B200018E09C4BD3F8883003F44073B3F5807FF2
:102B300000F0E48000F20981002BCED1B1F5004F06
:102B400000F00E8100F056FE626800EB5203B3FB0A
:102B5000F2F39BB2A3F110014FF6EF729142BCD891
:102B60002268D360626A002323666366002A45D127
:102B700023685A6822F490425A609A6822F02A0226
:102B80009A601A68002142F001021A60E16700F0C1
:102B9000CBF923681A681107064609D41A68520748
:102BA00020D420230020636784F87000A367F8BD59
:102BB000DD6915F40015F1D100F0B6F9801BB0F114
:102BC000007F2368F4D31A6822F4D0721A609A68DE
:102BD000202122F001029A600320616784F870507E
:102BE000A167F8BDDD6915F48005DAD100F09CF924
:102BF000801BB0F1007F2368F4D3E4E72046FFF7A1
:102C0000D5FEB5E79A68634922F4306232439A6090
:102C1000D1F8885005F44065B5F5806F00F0328139
:102C200040F22781B5F5006F00F09780B5F5406F51
:102C30007FF453AF4FF400400825626802EB420373
:102C400083423FF64AAFB0EB023F3FF646AF082D56
:102C50003FF643AF01A353F825F000BFFD2D000858
:102C6000DB2A0008E72D0008DB2A0008C92D000830
:102C7000DB2A0008DB2A0008DB2A0008A52D000853
:102C8000444B454AD3F8883003F00303D35CB1F5D5
:102C9000004F40F0CD80082B3FF61FAF01A252F845
:102CA00023F000BF612D00081B2D0008032E000833
:102CB000DB2A0008032D0008DB2A0008DB2A0008B5
:102CC000DB2A0008672D0008324B344AD3F88830DD
:102CD00003F00C03D35CDAE7012070472D4BD3F8E7
:102CE000883003F0C003402B08D07FF625AF802B3F
:102CF00000F09180C02B3FF408AFEEE6B1F5004F35
:102D000002D100F029F90AE000F026F9626800EB30
:102D10005203B3FBF2F39BB21CE700F07DFD626847
:102D2000530803EB4003B3FBF2F39BB2A3F1100192
:102D30004FF6EF7291423FF6D0AE23F00F022168BA
:102D4000C3F342031343CB600CE7B3F5007F62D0BB
:102D5000B3F5407F3FF4D9AEBFE6114802256CE7DA
:102D600000F048FDDBE76268530803F58033B3FBEE
:102D7000F2F39BB2DAE700BFF369FFEF0080004097
:102D8000003801400044004000480040004C004032
:102D90000050004000100240DC460008E0460008F9
:102DA0000024F4005008002110F5000041F100015A
:102DB0000023FEF7F1FE374BA0F540729A423FF632
:102DC0008CAE2368D860CDE600F0C6F862684FF498
:102DD000807356080027E3FB00673046394600231E
:102DE000FEF7DAFEE7E72C485308C0184FF0000161
:102DF00041F100010023FEF7CFFEDCE700F0FAFC12
:102E0000E4E76268530803F1F47303F59043B3FBFE
:102E1000F2F39BB28AE7B1F5004FF2D06268530833
:102E200003F5740303F51053B3FBF2F39BB291E681
:102E3000082B3FF652AE01A252F823F0452B0008B2
:102E4000612E00081D2E0008DB2A0008092D00084D
:102E5000DB2A0008DB2A0008DB2A0008132B000805
:102E600000F0DAFC626800EB5203B3FBF2F39BB2B2
:102E700070E6002D7FF431AE00F0BCFC00287FF43A
:102E8000DCAE6FE600F068F8042500287FF4D5AECC
:102E900068E600BFFFFC0F00000024F438B50F4BBC
:102EA0001B680BB9012038BD0D494FF47A720546F5
:102EB000B2FBF3F30868B0FBF3F001F0B5F9044698
:102EC0000028EFD10F2DEDD8024629464FF0FF30F4
:102ED00001F066F9034B20461D6038BD64000020F8
:102EE000740000206800002000B5032083B001F0CA
:102EF00045F90020FFF7D2FF18B1012003B05DF8BB
:102F000004FB0190FFF720F9019803B05DF804FB82
:102F1000034A0449136809680B441360704700BFF3
:102F2000B801002064000020014B1868704700BF02
:102F3000B801002038B50446FFF7F6FF631C0546CC
:102F400002D0044B1B681C44FFF7EEFF401B844279
:102F5000FAD838BD64000020284A9368D26813F07C
:102F60000C0308D00C2B38D0042B34D0082B244869
:102F700018BF00207047214A1168090754BFD2F8D2
:102F8000942012681F4954BFC2F30322C2F30312F4
:102F900051F8220003B30C2B2DD1184BDB6803F042
:102FA0000303022B25D0164A032B08BF1046134BF0
:102FB000D968DA68DB68C3F341630133C1F30211F6
:102FC000C2F3062200FB02F201315800B2FBF1F31A
:102FD000B3FBF0F070470C48704702F00302012A7F
:102FE000C9D0064BDB6803F00303022B4FF000004F
:102FF000D9D10548DBE70020704700BF0010024030
:1030000000127A00084700080024F400002800F0AD
:10301000EB822DE9F043B94A03689568D668DA0671
:1030200085B0044605F00C0506F003062ED5002DEC
:1030300000F00A810C2D00F00481A369AF4F002B32
:1030400000F069813B6843F001033B60FFF76CFFD0
:10305000804606E0FFF768FFA0EB0800022800F2B8
:10306000C9813B689B07F5D53B6843F008033B608B
:103070003B68226A23F0F00313433B607B68E269FC
:1030800023F47F4343EA02237B602368D90729D5D1
:10309000082D00F080810C2D00F07A816368B3F573
:1030A000803F00F08281B3F5A02F00F04D82934F56
:1030B0003A6822F480323A603A6822F480223A6018
:1030C000002B40F07781FFF72FFF804606E0FFF7E7
:1030D0002BFFA0EB0800642800F28C813B6898036A
:1030E000F5D42368990700F18780190719D563691A
:1030F000824E002B00F02581D6F8943043F0010376
:10310000C6F89430FFF710FF074605E0FFF70CFF05
:10311000C01B022800F26E81D6F894309A07F5D5CC
:1031200023685E073ED5754B9A6DD00000F1D681BD
:103130009A6D42F080529A659B6D03F08053019323
:10314000019B01276E4E3368D90540F14281A36887
:10315000012B00F03D82052B00F0C281674ED6F8AE
:10316000902022F00102C6F89020D6F8902022F09C
:103170000402C6F89020002B40F0BF81FFF7D4FE78
:1031800041F28838814606E0FFF7CEFEA0EB090049
:10319000404500F22F81D6F890309807F4D4002FE4
:1031A00040F0CC81A06A18B30C2D00F0DA8102281F
:1031B00000F02E82514B1A6822F080721A601A6851
:1031C00012F0205F00F0B5814C4CE36823F0887367
:1031D00023F48033E360FFF7A7FE054605E0FFF721
:1031E000A3FE401B022800F2058123689B01F6D450
:1031F000002005B0BDE8F083042D00F0B9800C2D4F
:1032000000F0B380E3683D4E002B00F05581336839
:1032100043F480733360FFF787FE074605E0FFF74E
:1032200083FEC01B022800F2E58033685B05F6D5FB
:103230007368226923F0F85343EA026373602368DA
:1032400053E7012E7FF4F9AE2C4B1B689F075BD42C
:103250002A4B276A1A68DFF8A480100756BFD3F8F4
:1032600094301B681B0903F0F003BB4280F0C6805A
:10327000D8F85830D90000F15981D8F8583043F0C7
:103280008053C8F85830D8F8583003F08053029370
:10329000029B00F021FFD8F8583023F08053C8F883
:1032A0005830B0F5007F00F0A881802F00F298819F
:1032B00000F0FF81A7F17007B7FA87F77F09114A7D
:1032C000136823F007033B431360136803F00703FD
:1032D0009F421CD1094B1A6842F008021A601A6812
:1032E000216A22F0F0020A431A605A68E16922F466
:1032F0007F4242EA01225A60C8E000BF001002404B
:103300000070004000200240A369002BA0D10120E2
:1033100005B0BDE8F0833B6823F001033B60FFF795
:1033200003FE804605E0FFF7FFFDA0EB0800022842
:1033300060D83B689807F6D42368D9077FF5D2AEEA
:10334000A6E6D6F8943023F00103C6F89430FFF7D0
:10335000EBFD074604E0FFF7E7FDC01B022849D854
:10336000D6F894309B07F6D4DAE6022E7FF44AAF03
:10337000AC4A1268520502D5E268002AC7D0A949B2
:1033800020694A6822F0F85242EA00624A60ACE6DC
:10339000032E7FF483AEA34A126892037FF5A2AE98
:1033A0006268002A7FF49EAEB1E79E4A136843F438
:1033B00080331360FFF7B8FD9A4F804605E0FFF7B2
:1033C000B3FDA0EB0800642814D83B689B03F6D536
:1033D00087E6336843F480733360FFF7A5FD8046CA
:1033E0003368DA053FF5B3AEFFF79EFDA0EB0800AA
:1033F0000228F5D9032005B0BDE8F083D8F80030E5
:1034000043F00803C8F80030D8F8003023F0F00388
:103410003B43C8F80030D8F80430E26923F47F4316
:1034200043EA0223C8F80430D8F85830DA007AD4D6
:10343000D8F8583043F08053C8F85830D8F858308E
:1034400003F080530393039B00F046FED8F85830F6
:1034500023F08053C8F85830B0F5007F00F0C680E4
:10346000802F00F2BF8000F02281A7F17007B7FA29
:1034700087F77F096C4A136823F007033B43136007
:10348000136803F007039F427FF441AFFFF764FD29
:10349000644B664F9B686649664AC3F30313FB5C43
:1034A00003F01F0320FA03F308681360FFF7F6FC2C
:1034B00000283FF441AF9CE6336823F48073336007
:1034C000FFF732FD074604E0FFF72EFDC01B022880
:1034D00090D833685805F7D4236806E6002731E60C
:1034E000504BD3F8902042F00402C3F89020D3F858
:1034F000902042F00102C3F89020FFF715FD494EDD
:10350000814641F2883806E0FFF70EFDA0EB090086
:1035100040453FF66FAFD6F890309B07F4D5002FAB
:103520003FF440AE0AE000F0D7FD95E700F0D4FD8F
:10353000B7E6DA6822F00302DA6045E6394A936DAD
:1035400023F0805393652DE603F18043A3F53C33CC
:103550001A6842F480221A601A6842F480321A60B3
:1035600028E701283FF445AE2E4BE26ADB6803F002
:10357000030191427FF4CBAE216B03F0700201395D
:10358000B2EB011F7FF4C3AE616B03F4FE42B2EBFA
:10359000012F7FF4BCAEA26B073A03F4003118BFD1
:1035A000012291427FF4B3AEE26B5208013A03F478
:1035B000C001B1EB425F7FF4AAAE226C5208013A1F
:1035C00003F0C063B3EB426F14BF0120002010E68C
:1035D000144AD2F8903043F00103C2F890308CE7DF
:1035E00003276CE6032745E701207047802F0BD99E
:1035F000A12F34BF012702273CE7802F06D9A12F36
:1036000034BF012702275AE6002733E7002756E692
:10361000044D2B6823F080732B60FFF785FC064672
:1036200010E000BF0010024000200240F0460008F9
:103630006800002074000020FFF776FC801B022841
:103640003FF6D8AE2B689901F6D404F12C02C4CA17
:10365000E968194BA06B0B401343E16B226C174CCC
:1036600043EA0723013E000943EA0613490843EAF7
:1036700040430139520843EA4153013A43EA426365
:10368000EB602B6843F080732B60EB6843F0807332
:10369000EB60FFF749FC054605E0FFF745FC401BE2
:1036A00002283FF6A7AE23689A01F6D5A0E50227C7
:1036B000E0E6022703E600BF8C809DF9001002407F
:1036C00078B1474A136803F007038B420BD21368A3
:1036D00023F007030B431360136803F007039942B9
:1036E00001D00120704703682DE9F0410D46D9074C
:1036F00004461BD4990706D53A49A0688A6822F087
:10370000F00202438A6036490A6802F007029542D5
:1037100032D20A6822F007022A430A600A6802F0DD
:103720000702954228D00120BDE8F08143682D4A68
:10373000032B12684DD0022B45D0002B4CD196079D
:10374000F1D5284EB26822F003021343B360FFF7AD
:10375000EBFB41F28837804605E0FFF7E5FBA0EB85
:103760000800B84232D8B368626803F00C03B3EBC8
:10377000820FF2D12368BDE75A0706D51949E068E0
:103780008A6822F4E06202438A601B0707D5154A63
:103790002169936823F4605343EAC1039360FFF700
:1037A000DBFB104B104C9B681049114AC3F3031309
:1037B000E35C03F01F0320FA03F3BDE8F04108685F
:1037C0001360FFF76BBB9703BBD4ACE70320BDE8E6
:1037D000F0819201B5D4A6E75005A4D5B1E700BFAA
:1037E0000020024000100240F0460008680000205F
:1037F00074000020054B064A9B680649C3F3022368
:103800000868D35C03F01F03D840704700100240E3
:103810000047000874000020054B064A9B680649D3
:10382000C3F3C2230868D35C03F01F03D84070477A
:10383000001002400047000874000020474AF8B515
:10384000D3689B0707D0D368046803F00303A3423F
:103850000CD00120F8BD0368022B11D0032B56D0E9
:10386000012BF6D112689707F3D50CE0002BF0D0AE
:10387000D3684268C3F3021301339342E9D10CE0E9
:1038800012685605E5D5354D4468EA6822F07302A2
:103890001343013C43EA0413EB60304C236823F0EC
:1038A000806323600F460646FFF73EFB054604E0B3
:1038B000FFF73AFB401B022827D823681A01F7D4E8
:1038C00067BB2369B168F26823F41F3323F44073A4
:1038D00043EA0123120943EA424323611F4C236850
:1038E00043F080632360FFF71FFB054604E0FFF70A
:1038F0001BFB401B022808D823681B01F7D5B269BF
:103900002369134323610020F8BD0320F8BD146828
:10391000A503B8D4126854039BD5B4E7012F2369DB
:103920000DD07269B16823F0C06323F4FE435208DE
:1039300043EA0123013A43EA42632361CEE7326955
:10394000B16823F4C00323F4FE43520843EA012381
:10395000013A43EA42532361C0E700BF001002402E
:103960003F4AF8B5D3689B0707D0D368046803F0D3
:103970000303A3420CD00120F8BD0368022B11D031
:10398000032B56D0012BF6D112689707F3D50CE024
:10399000002BF0D0D3684268C3F302130133934283
:1039A000E9D10CE012685605E5D52D4D4468EA686A
:1039B00022F073021343013C43EA0413EB60284CEA
:1039C000236823F0805323600F460646FFF7ACFAC6
:1039D000054604E0FFF7A8FA401B022827D8236811
:1039E0009A00F7D467BB6369B168F26823F41F33A8
:1039F00023F4407343EA0123120943EA424363611B
:103A0000174C236843F080532360FFF78DFA054677
:103A100004E0FFF789FA401B022808D823689B00BE
:103A2000F7D572696369134363610020F8BD032011
:103A3000F8BD1468A503B8D4126854039BD5B4E745
:103A400063693269B16823F0C06323F4FE4352080E
:103A500043EA0123013A43EA42636361D0E700BFCE
:103A6000001002402DE9F043036813F4006683B0B0
:103A7000044617D0416EB1F5800F00F0B68140F2D8
:103A8000D681B1F5000F00F0AA81B1F5400F40F0EA
:103A9000D481C248D0F8882022F440021143C0F8F3
:103AA00088100026D80440F10081A16EB1F1807F1A
:103AB00000F0828140F2B281B1F1007F00F0888194
:103AC000B1F1407F40F0F0803746002F40F07E811A
:103AD000B249A06ED1F8882022F040720243C1F8AA
:103AE0008820990300F1E580DA0708D5AB49A06B7F
:103AF000D1F8882022F003020243C1F888209F07F2
:103B000008D5A649E06BD1F8882022F00C020243C8
:103B1000C1F888205D0708D5A049206CD1F888201D
:103B200022F030020243C1F88820180708D59B49CB
:103B3000606CD1F8882022F0C0020243C1F88820CE
:103B4000D90608D59549A06CD1F8882022F4407296
:103B50000243C1F888209A0608D59049E06CD1F854
:103B6000882022F440620243C1F888209F0508D5CE
:103B70008A49E06DD1F8882022F440220243C1F83E
:103B800088205D0508D58549206ED1F8882022F46B
:103B900040120243C1F88820580608D57F49206D9D
:103BA000D1F8882022F440520243C1F88820190637
:103BB00008D57A49606DD1F8882022F4404202434A
:103BC000C1F88820DA0508D57449A06DD1F888209D
:103BD00022F440320243C1F888209F0410D56F4878
:103BE000E16ED0F8882022F040620A43B1F1006F04
:103BF000C0F8882000F0D680B1F1806F00F02281FB
:103C00001D0310D56548216FD0F8882022F040624E
:103C10000A43B1F1006FC0F8882000F0C880B1F10C
:103C2000806F00F01F81580310D55C48616FD0F899
:103C3000882022F040620A43B1F1006FC0F888206A
:103C400000F0A780B1F1806F00F00481590410D515
:103C50005248A16FD0F8882022F040520A43B1F1B7
:103C6000805FC0F8882000F0C880B1F1005F00F0EC
:103C7000CC801A0408D54949E06FD1F8882022F099
:103C800080420243C1F88820DB0309D5434AD4F8B7
:103C90008010D2F8883023F000430B43C2F88830FC
:103CA000304603B0BDE8F0830126374699037FF51F
:103CB0001BAF3A4B9A6DD20055D54FF00008384DE6
:103CC0002B6843F480732B60FFF72EF9814605E0E3
:103CD000FFF72AF9A0EB0900022850D82B68DB0572
:103CE000F6D5002F40F0CE802C4AD4F88410D2F8BC
:103CF000903013F4407329D08B4200F0BB80D2F88F
:103D00009030D2F8900040F48030C2F89000D2F8A1
:103D1000900023F4407320F48030C2F89000C2F881
:103D20009030D80712D5FFF7FFF81C4D814641F2BD
:103D3000883705E0FFF7F8F8A0EB0900B8421ED875
:103D4000D5F890309907F5D5D4F88410134AD2F8F5
:103D5000903023F440730B43C2F89030B8F1000F59
:103D600011D12368C0E69A6D42F080529A659B6D2E
:103D700003F080530193019B4FF001089FE7032656
:103D8000B8F1000FEDD0054A936D23F08053936591
:103D9000E7E7C26842F48012C26057E700100240B1
:103DA00000700040C26842F48012C26028E7C26816
:103DB00042F48012C26036E7002104F12000FFF7D0
:103DC000CFFD07462368002F3FF482AE3E466DE7E5
:103DD0002D49CA6842F48032CA60374675E62A48DF
:103DE000C26842F48032C26053E600212030FFF7FF
:103DF000B7FD06461EB3236854E60221201DFFF7D7
:103E00001DFD48B10646236833E7022104F1200076
:103E1000FFF7A6FD0028F5D123682AE700297FF4E3
:103E200043AF201DFFF70AFD236807464DE621B981
:103E30000430FFF703FD0646DCE7012632E6616E3B
:103E4000236826E60121201DFFF7F8FCB0B10646E5
:103E50002368D5E60121201DFFF7F0FC80B106465E
:103E60002368F3E60121201DFFF7E8FC20B1064698
:103E70002368D8E60B4654E72368D4E62368BFE6F8
:103E80002368E3E63E4669E7001002408C46096875
:103E9000002900F004812DE9F04FDFF820E283B023
:103EA000002587E04FEA45080323D0F800B003FA65
:103EB00008F3DB4304F003090BEA030B09FA08FAE1
:103EC000013E4AEA0B0A012EC0F800A040F2A6808B
:103ED000B9F1030F00F0BA80C668DCF8082033405F
:103EE00002FA08F21A43E300C2605FD56C4B6C4AD9
:103EF0001B6E43F001031366136E25F0030202F1FB
:103F0000804203F0010302F58032019305F00303C0
:103F1000019ED2F8089098460F269B009E40B0F173
:103F2000904F29EA060900F0A0805E4EB04200F0F2
:103F30009E805D4EB04200F09E805C4EB04200F02C
:103F40009F805B4EB04200F0A0805A4EB04200F01D
:103F5000A180594EB0420CBF4FF006084FF0070841
:103F600008FA03F343EA09039360DEF80030FA43EA
:103F7000E60354BF13403B43CEF80030DEF8043074
:103F8000A60354BF13403B43CEF80430DEF808309C
:103F9000E60254BF13403B43CEF80830DEF80C3045
:103FA000A40254BF13403B43CEF80C30013531FA24
:103FB00005F357D0012303FA05F212EA0107F5D001
:103FC000DCF8044024F01006022E7FF46BAF4FEAB9
:103FD000D50800EB880805F00703D8F820609B009F
:103FE0004FF00F0A0AFA03FA26EA0A09DCF8106011
:103FF00006FA03F343EA0903C8F820304FEA4508FC
:104000000323066803FA08F3DB4304F0030903EA19
:10401000060A09FA08F646EA0A060660866806EA0B
:10402000030ADCF80C6006FA08F646EA0A0686601F
:10403000D0F804A0C4F300162AEA020AAE4046EA09
:104040000A06B9F1030F46607FF446AFD0F82C9012
:10405000C4F3C00629EA02093246AA4042EA09022C
:10406000C26239E703B0BDE8F08F00237AE701268A
:1040700006FA03F376E74FF0020808FA03F371E754
:104080004FF0030808FA03F36CE74FF0040808FA4E
:1040900003F367E74FF0050808FA03F362E7704798
:1040A000001002400004004800080048000C0048CE
:1040B00000100048001400480018004800040140A7
:1040C0000369194214BF0120002070470AB98162B8
:1040D00070478161704700BF024B186800F4C060F0
:1040E000704700BF00700040B0F5007F0ED0204A3E
:1040F000136803F4C063B3F5806F36D0136823F4FC
:10410000C06343F4806313600020704718490B6854
:1041100003F4C063B3F5007F27D00A68154B164837
:1041200022F4C06242F4007210B40A601C684A694A
:10413000322303FB04F3A0FB03039B0C500503F1A4
:10414000010306D500E023B14A69520503F1FF33AC
:10415000F9D4074B5B695B0503D503205DF8044B7D
:10416000704700205DF8044B70470020704700BF87
:10417000007000407400002083DE1B43074AD368B0
:104180004FF6FF010B40000243F0BF6300F4E06014
:1041900043F400330343D360704700BF00ED00E0F9
:1041A000184B70B4DC68C4F30224C4F10706042E73
:1041B00004F1040328BF0426062B17D9033C01256C
:1041C000A540013D2A400123B340013B1940A140D5
:1041D000002841EA02010CDB00F1604000F561407B
:1041E0000901C9B280F8001370BC70470022144660
:1041F000E9E7054B00F00F0009010344C9B2197645
:1042000070BC704700ED00E0FCEC00E0002807DB2C
:1042100000F01F0101234009024A8B4042F8203080
:10422000704700BF00E100E00138B0F1807F0ED29E
:10423000084B10B4084C5860F02084F8230000228A
:10424000072110469A6019605DF8044B7047012001
:10425000704700BF10E000E000ED00E0F8B5044654
:10426000FEF762FE002C56D094F83830012B47D070
:10427000012384F8383094F83930064603F0FF0201
:10428000002B3FD0256C2268A1681368013923F404
:10429000706343EA01231360681C26D19368990672
:1042A000FCD410686668E1686369A7691F4D20F057
:1042B0007F4020F0100041EA066101431160506820
:1042C00021693B43054043EA01432B435360136894
:1042D000002143F00103012513600846E16384F8DF
:1042E0003950002384F83830F8BD93689B06D8D540
:1042F000FEF71AFE801BA8420FD875B12268CBE7E3
:104300000220F8BD84F83820204641F28835FDF7B8
:1043100065FF2564B7E70120F8BD042384F8393030
:10432000E36B43F00103E3630120DAE7FEF8E0FF0B
:1043300010B586B048B90D4BDA6C42F00202DA646F
:10434000DB6C03F002030093009B094A4FF48043A7
:1043500052F82000019300220223012401A90294B3
:1043600003920493FFF792FD06B010BD00100240C7
:1043700070000020034B012253F820004FF48041CD
:10438000FFF7A4BE70000020034B002253F820006A
:104390004FF48041FFF79ABE700000201C4B10B50F
:1043A000DA6C42F00402DA64DB6C86B003F00403DA
:1043B0000093009B19B1012911D006B010BD154B17
:1043C000029153F82000012202234FF4005401A966
:1043D000019403920493FFF759FD06B010BD0D4AF6
:1043E0000D4B52F820000391032201A94FF4005411
:1043F000029304920194FFF749FD00220F21282027
:10440000FFF7CEFE2820FFF701FF06B010BD00BF6A
:10441000001002406C0000200000111008B5044B91
:104420004FF4005153F82000FFF74AFE08BD00BFCB
:104430006C0000201149124BD1F8882042F4700220
:1044400010B4C1F888201A68002042F001021A60F6
:1044500098601A6822F0A85222F410224FF4805477
:104460001A60DC601A684FF0006422F480221A603F
:1044700098618C605DF8044B704700BF00ED00E070
:104480000010024088B1037910B503F0FF02044622
:104490003BB10023022101222171184623612271C0
:1044A00010BD4271FDF768FEF3E70120704700BFC1
:1044B000F8B54379012B3CD00F6816460223012240
:1044C000042F0D4604464271037134D0006806F093
:1044D00010022B69012B56D0AB68D5F80CE0C66BE7
:1044E000696843EA0E0307253B43954026EA050524
:1044F00093402B43C36303684FF48045954023EA00
:1045000005030360056840F6FC76964001FA02F365
:1045100025EA06010B4303600368C02101FA02F299
:1045200023EA02020121002302601846217163710F
:10453000F8BD0220F8BD26B937E0FEF7F5FC0128EA
:104540002BD823685B6B002BF7DB0120FEF7F2FC16
:104550002068AB69436406F01002816CEB692E6A37
:1045600040F2FF37974021EA0701934019438164E5
:10457000C36C2F68FF21914023EA010306FA02F180
:104580000B43C364A5E7816B6B691F26964021EA44
:10459000060193400B4383639EE72369032243F0A4
:1045A0000803236110462271F8BDFEF7BDFC0746E3
:1045B00004E0FEF7B9FCC01B0128EED823685B6B52
:1045C0001B04F6D40120FEF7B5FC2068AB69036438
:1045D000C1E700BFDFF834D0002103E00C4B5B588B
:1045E000435004310B480C4B42189A42F6D30B4A05
:1045F00002E0002342F8043B094B9A42F9D3FFF74B
:1046000019FFFBF717FEFDF7CFFCFEE70080012046
:10461000904700080000002078000020780000206B
:10462000C0010020FEE70000F8B500BFF8BC08BCE0
:104630009E467047F8B500BFF8BC08BC9E46704760
:104640000400002000000000000000000000000046
:10465000000000000000000000000000000000005A
:10466000000000000000000000000000000000004A
:10467000000000000000000000000000000000003A
:10468000000000000000000000000000000000002A
:10469000000000000000000000000000000000001A
:1046A000000000006C656E203D2025640A000000BB
:1046B000427574746F6E20707573686564000000D5
:1046C000427574746F6E2070757368656420287508
:1046D000617274207478290A000000000104020845
:1046E000001010100410101002101010080000002C
:1046F0000000000000000000010203040607080992
:104700000000000001020304A0860100400D030028
:10471000801A060000350C0040420F0080841E0005
:1047200000093D0000127A000024F40000366E01FA
:104730000048E801006CDC0243000000232D302B10
:1047400020000000686C4C00656667454647000025
:1047500030313233343536373839414243444546B7
:104760000000000030313233343536373839616279
:084770006364656600000000AF
:0847780050D4FF7F0100000096
:08478000FD010008000000002B
:08478800D5010008000000004B
:104790000400002000000000844600086446000871
:1047A0004446000800000000000000000000000077
:1047B0000000000038470008000000000000000072
:1047C00000000000000000000000000000000000E9
:1047D00000000000000000000000000000000000D9
:1047E00000000000000000000000000000000000C9
:1047F0000000000001000000100000000008004858
:084800000004004800093D001E
:04000005080045D5D5
:00000001FF
